{
  "_format": "hh-sol-artifact-1",
  "contractName": "BorrowerOperationsTester",
  "sourceName": "contracts/TestContracts/BorrowerOperationsTester.sol",
  "abi": [
    {
      "anonymous": false,
      "inputs": [
        {
          "indexed": false,
          "internalType": "address",
          "name": "_activePoolAddress",
          "type": "address"
        }
      ],
      "name": "ActivePoolAddressChanged",
      "type": "event"
    },
    {
      "anonymous": false,
      "inputs": [
        {
          "indexed": false,
          "internalType": "address",
          "name": "_collSurplusPoolAddress",
          "type": "address"
        }
      ],
      "name": "CollSurplusPoolAddressChanged",
      "type": "event"
    },
    {
      "anonymous": false,
      "inputs": [
        {
          "indexed": false,
          "internalType": "address",
          "name": "_defaultPoolAddress",
          "type": "address"
        }
      ],
      "name": "DefaultPoolAddressChanged",
      "type": "event"
    },
    {
      "anonymous": false,
      "inputs": [
        {
          "indexed": false,
          "internalType": "address",
          "name": "_gasPoolAddress",
          "type": "address"
        }
      ],
      "name": "GasPoolAddressChanged",
      "type": "event"
    },
    {
      "anonymous": false,
      "inputs": [
        {
          "indexed": false,
          "internalType": "address",
          "name": "_halalStakingAddress",
          "type": "address"
        }
      ],
      "name": "HALALStakingAddressChanged",
      "type": "event"
    },
    {
      "anonymous": false,
      "inputs": [
        {
          "indexed": true,
          "internalType": "address",
          "name": "previousOwner",
          "type": "address"
        },
        {
          "indexed": true,
          "internalType": "address",
          "name": "newOwner",
          "type": "address"
        }
      ],
      "name": "OwnershipTransferred",
      "type": "event"
    },
    {
      "anonymous": false,
      "inputs": [
        {
          "indexed": false,
          "internalType": "address",
          "name": "_newPriceFeedAddress",
          "type": "address"
        }
      ],
      "name": "PriceFeedAddressChanged",
      "type": "event"
    },
    {
      "anonymous": false,
      "inputs": [
        {
          "indexed": false,
          "internalType": "address",
          "name": "_sortedTrovesAddress",
          "type": "address"
        }
      ],
      "name": "SortedTrovesAddressChanged",
      "type": "event"
    },
    {
      "anonymous": false,
      "inputs": [
        {
          "indexed": false,
          "internalType": "address",
          "name": "_stabilityPoolAddress",
          "type": "address"
        }
      ],
      "name": "StabilityPoolAddressChanged",
      "type": "event"
    },
    {
      "anonymous": false,
      "inputs": [
        {
          "indexed": true,
          "internalType": "address",
          "name": "_borrower",
          "type": "address"
        },
        {
          "indexed": false,
          "internalType": "uint256",
          "name": "arrayIndex",
          "type": "uint256"
        }
      ],
      "name": "TroveCreated",
      "type": "event"
    },
    {
      "anonymous": false,
      "inputs": [
        {
          "indexed": false,
          "internalType": "address",
          "name": "_newTroveManagerAddress",
          "type": "address"
        }
      ],
      "name": "TroveManagerAddressChanged",
      "type": "event"
    },
    {
      "anonymous": false,
      "inputs": [
        {
          "indexed": true,
          "internalType": "address",
          "name": "_borrower",
          "type": "address"
        },
        {
          "indexed": false,
          "internalType": "uint256",
          "name": "_debt",
          "type": "uint256"
        },
        {
          "indexed": false,
          "internalType": "uint256",
          "name": "_coll",
          "type": "uint256"
        },
        {
          "indexed": false,
          "internalType": "uint256",
          "name": "stake",
          "type": "uint256"
        },
        {
          "indexed": false,
          "internalType": "enum BorrowerOperations.BorrowerOperation",
          "name": "operation",
          "type": "uint8"
        }
      ],
      "name": "TroveUpdated",
      "type": "event"
    },
    {
      "anonymous": false,
      "inputs": [
        {
          "indexed": true,
          "internalType": "address",
          "name": "_borrower",
          "type": "address"
        },
        {
          "indexed": false,
          "internalType": "uint256",
          "name": "_USDHFee",
          "type": "uint256"
        }
      ],
      "name": "USDHBorrowingFeePaid",
      "type": "event"
    },
    {
      "anonymous": false,
      "inputs": [
        {
          "indexed": false,
          "internalType": "address",
          "name": "_usdhTokenAddress",
          "type": "address"
        }
      ],
      "name": "USDHTokenAddressChanged",
      "type": "event"
    },
    {
      "inputs": [],
      "name": "BORROWING_FEE_FLOOR",
      "outputs": [
        {
          "internalType": "uint256",
          "name": "",
          "type": "uint256"
        }
      ],
      "stateMutability": "view",
      "type": "function"
    },
    {
      "inputs": [],
      "name": "CCR",
      "outputs": [
        {
          "internalType": "uint256",
          "name": "",
          "type": "uint256"
        }
      ],
      "stateMutability": "view",
      "type": "function"
    },
    {
      "inputs": [],
      "name": "DECIMAL_PRECISION",
      "outputs": [
        {
          "internalType": "uint256",
          "name": "",
          "type": "uint256"
        }
      ],
      "stateMutability": "view",
      "type": "function"
    },
    {
      "inputs": [],
      "name": "MCR",
      "outputs": [
        {
          "internalType": "uint256",
          "name": "",
          "type": "uint256"
        }
      ],
      "stateMutability": "view",
      "type": "function"
    },
    {
      "inputs": [],
      "name": "MIN_NET_DEBT",
      "outputs": [
        {
          "internalType": "uint256",
          "name": "",
          "type": "uint256"
        }
      ],
      "stateMutability": "view",
      "type": "function"
    },
    {
      "inputs": [],
      "name": "NAME",
      "outputs": [
        {
          "internalType": "string",
          "name": "",
          "type": "string"
        }
      ],
      "stateMutability": "view",
      "type": "function"
    },
    {
      "inputs": [],
      "name": "PERCENT_DIVISOR",
      "outputs": [
        {
          "internalType": "uint256",
          "name": "",
          "type": "uint256"
        }
      ],
      "stateMutability": "view",
      "type": "function"
    },
    {
      "inputs": [],
      "name": "USDH_GAS_COMPENSATION",
      "outputs": [
        {
          "internalType": "uint256",
          "name": "",
          "type": "uint256"
        }
      ],
      "stateMutability": "view",
      "type": "function"
    },
    {
      "inputs": [],
      "name": "_100pct",
      "outputs": [
        {
          "internalType": "uint256",
          "name": "",
          "type": "uint256"
        }
      ],
      "stateMutability": "view",
      "type": "function"
    },
    {
      "inputs": [],
      "name": "activePool",
      "outputs": [
        {
          "internalType": "contract IActivePool",
          "name": "",
          "type": "address"
        }
      ],
      "stateMutability": "view",
      "type": "function"
    },
    {
      "inputs": [
        {
          "internalType": "address",
          "name": "_upperHint",
          "type": "address"
        },
        {
          "internalType": "address",
          "name": "_lowerHint",
          "type": "address"
        }
      ],
      "name": "addColl",
      "outputs": [],
      "stateMutability": "payable",
      "type": "function"
    },
    {
      "inputs": [
        {
          "internalType": "uint256",
          "name": "_maxFeePercentage",
          "type": "uint256"
        },
        {
          "internalType": "uint256",
          "name": "_collWithdrawal",
          "type": "uint256"
        },
        {
          "internalType": "uint256",
          "name": "_USDHChange",
          "type": "uint256"
        },
        {
          "internalType": "bool",
          "name": "_isDebtIncrease",
          "type": "bool"
        },
        {
          "internalType": "address",
          "name": "_upperHint",
          "type": "address"
        },
        {
          "internalType": "address",
          "name": "_lowerHint",
          "type": "address"
        }
      ],
      "name": "adjustTrove",
      "outputs": [],
      "stateMutability": "payable",
      "type": "function"
    },
    {
      "inputs": [
        {
          "internalType": "address",
          "name": "_borrower",
          "type": "address"
        },
        {
          "internalType": "uint256",
          "name": "_collWithdrawal",
          "type": "uint256"
        },
        {
          "internalType": "uint256",
          "name": "_debtChange",
          "type": "uint256"
        },
        {
          "internalType": "bool",
          "name": "_isDebtIncrease",
          "type": "bool"
        },
        {
          "internalType": "address",
          "name": "_upperHint",
          "type": "address"
        },
        {
          "internalType": "address",
          "name": "_lowerHint",
          "type": "address"
        }
      ],
      "name": "callInternalAdjustLoan",
      "outputs": [],
      "stateMutability": "nonpayable",
      "type": "function"
    },
    {
      "inputs": [],
      "name": "claimCollateral",
      "outputs": [],
      "stateMutability": "nonpayable",
      "type": "function"
    },
    {
      "inputs": [],
      "name": "closeTrove",
      "outputs": [],
      "stateMutability": "nonpayable",
      "type": "function"
    },
    {
      "inputs": [],
      "name": "defaultPool",
      "outputs": [
        {
          "internalType": "contract IDefaultPool",
          "name": "",
          "type": "address"
        }
      ],
      "stateMutability": "view",
      "type": "function"
    },
    {
      "inputs": [
        {
          "internalType": "uint256",
          "name": "_debt",
          "type": "uint256"
        }
      ],
      "name": "getCompositeDebt",
      "outputs": [
        {
          "internalType": "uint256",
          "name": "",
          "type": "uint256"
        }
      ],
      "stateMutability": "pure",
      "type": "function"
    },
    {
      "inputs": [],
      "name": "getEntireSystemColl",
      "outputs": [
        {
          "internalType": "uint256",
          "name": "entireSystemColl",
          "type": "uint256"
        }
      ],
      "stateMutability": "view",
      "type": "function"
    },
    {
      "inputs": [],
      "name": "getEntireSystemDebt",
      "outputs": [
        {
          "internalType": "uint256",
          "name": "entireSystemDebt",
          "type": "uint256"
        }
      ],
      "stateMutability": "view",
      "type": "function"
    },
    {
      "inputs": [
        {
          "internalType": "uint256",
          "name": "_coll",
          "type": "uint256"
        },
        {
          "internalType": "uint256",
          "name": "_debt",
          "type": "uint256"
        },
        {
          "internalType": "uint256",
          "name": "_collChange",
          "type": "uint256"
        },
        {
          "internalType": "bool",
          "name": "isCollIncrease",
          "type": "bool"
        },
        {
          "internalType": "uint256",
          "name": "_debtChange",
          "type": "uint256"
        },
        {
          "internalType": "bool",
          "name": "isDebtIncrease",
          "type": "bool"
        },
        {
          "internalType": "uint256",
          "name": "_price",
          "type": "uint256"
        }
      ],
      "name": "getNewICRFromTroveChange",
      "outputs": [
        {
          "internalType": "uint256",
          "name": "",
          "type": "uint256"
        }
      ],
      "stateMutability": "pure",
      "type": "function"
    },
    {
      "inputs": [
        {
          "internalType": "uint256",
          "name": "_collChange",
          "type": "uint256"
        },
        {
          "internalType": "bool",
          "name": "isCollIncrease",
          "type": "bool"
        },
        {
          "internalType": "uint256",
          "name": "_debtChange",
          "type": "uint256"
        },
        {
          "internalType": "bool",
          "name": "isDebtIncrease",
          "type": "bool"
        },
        {
          "internalType": "uint256",
          "name": "_price",
          "type": "uint256"
        }
      ],
      "name": "getNewTCRFromTroveChange",
      "outputs": [
        {
          "internalType": "uint256",
          "name": "",
          "type": "uint256"
        }
      ],
      "stateMutability": "view",
      "type": "function"
    },
    {
      "inputs": [
        {
          "internalType": "uint256",
          "name": "_coll",
          "type": "uint256"
        },
        {
          "internalType": "uint256",
          "name": "_price",
          "type": "uint256"
        }
      ],
      "name": "getUSDValue",
      "outputs": [
        {
          "internalType": "uint256",
          "name": "",
          "type": "uint256"
        }
      ],
      "stateMutability": "pure",
      "type": "function"
    },
    {
      "inputs": [],
      "name": "halalStaking",
      "outputs": [
        {
          "internalType": "contract IHALALStaking",
          "name": "",
          "type": "address"
        }
      ],
      "stateMutability": "view",
      "type": "function"
    },
    {
      "inputs": [],
      "name": "halalStakingAddress",
      "outputs": [
        {
          "internalType": "address",
          "name": "",
          "type": "address"
        }
      ],
      "stateMutability": "view",
      "type": "function"
    },
    {
      "inputs": [],
      "name": "isOwner",
      "outputs": [
        {
          "internalType": "bool",
          "name": "",
          "type": "bool"
        }
      ],
      "stateMutability": "view",
      "type": "function"
    },
    {
      "inputs": [
        {
          "internalType": "address",
          "name": "_borrower",
          "type": "address"
        },
        {
          "internalType": "address",
          "name": "_upperHint",
          "type": "address"
        },
        {
          "internalType": "address",
          "name": "_lowerHint",
          "type": "address"
        }
      ],
      "name": "moveETHGainToTrove",
      "outputs": [],
      "stateMutability": "payable",
      "type": "function"
    },
    {
      "inputs": [
        {
          "internalType": "uint256",
          "name": "_maxFeePercentage",
          "type": "uint256"
        },
        {
          "internalType": "uint256",
          "name": "_USDHAmount",
          "type": "uint256"
        },
        {
          "internalType": "address",
          "name": "_upperHint",
          "type": "address"
        },
        {
          "internalType": "address",
          "name": "_lowerHint",
          "type": "address"
        }
      ],
      "name": "openTrove",
      "outputs": [],
      "stateMutability": "payable",
      "type": "function"
    },
    {
      "inputs": [],
      "name": "owner",
      "outputs": [
        {
          "internalType": "address",
          "name": "",
          "type": "address"
        }
      ],
      "stateMutability": "view",
      "type": "function"
    },
    {
      "inputs": [],
      "name": "priceFeed",
      "outputs": [
        {
          "internalType": "contract IPriceFeed",
          "name": "",
          "type": "address"
        }
      ],
      "stateMutability": "view",
      "type": "function"
    },
    {
      "inputs": [
        {
          "internalType": "uint256",
          "name": "_USDHAmount",
          "type": "uint256"
        },
        {
          "internalType": "address",
          "name": "_upperHint",
          "type": "address"
        },
        {
          "internalType": "address",
          "name": "_lowerHint",
          "type": "address"
        }
      ],
      "name": "repayUSDH",
      "outputs": [],
      "stateMutability": "nonpayable",
      "type": "function"
    },
    {
      "inputs": [
        {
          "internalType": "address",
          "name": "_troveManagerAddress",
          "type": "address"
        },
        {
          "internalType": "address",
          "name": "_activePoolAddress",
          "type": "address"
        },
        {
          "internalType": "address",
          "name": "_defaultPoolAddress",
          "type": "address"
        },
        {
          "internalType": "address",
          "name": "_stabilityPoolAddress",
          "type": "address"
        },
        {
          "internalType": "address",
          "name": "_gasPoolAddress",
          "type": "address"
        },
        {
          "internalType": "address",
          "name": "_collSurplusPoolAddress",
          "type": "address"
        },
        {
          "internalType": "address",
          "name": "_priceFeedAddress",
          "type": "address"
        },
        {
          "internalType": "address",
          "name": "_sortedTrovesAddress",
          "type": "address"
        },
        {
          "internalType": "address",
          "name": "_usdhTokenAddress",
          "type": "address"
        },
        {
          "internalType": "address",
          "name": "_halalStakingAddress",
          "type": "address"
        }
      ],
      "name": "setAddresses",
      "outputs": [],
      "stateMutability": "nonpayable",
      "type": "function"
    },
    {
      "inputs": [],
      "name": "sortedTroves",
      "outputs": [
        {
          "internalType": "contract ISortedTroves",
          "name": "",
          "type": "address"
        }
      ],
      "stateMutability": "view",
      "type": "function"
    },
    {
      "inputs": [],
      "name": "troveManager",
      "outputs": [
        {
          "internalType": "contract ITroveManager",
          "name": "",
          "type": "address"
        }
      ],
      "stateMutability": "view",
      "type": "function"
    },
    {
      "inputs": [],
      "name": "usdhToken",
      "outputs": [
        {
          "internalType": "contract IUSDHToken",
          "name": "",
          "type": "address"
        }
      ],
      "stateMutability": "view",
      "type": "function"
    },
    {
      "inputs": [
        {
          "internalType": "uint256",
          "name": "_collWithdrawal",
          "type": "uint256"
        },
        {
          "internalType": "address",
          "name": "_upperHint",
          "type": "address"
        },
        {
          "internalType": "address",
          "name": "_lowerHint",
          "type": "address"
        }
      ],
      "name": "withdrawColl",
      "outputs": [],
      "stateMutability": "nonpayable",
      "type": "function"
    },
    {
      "inputs": [
        {
          "internalType": "uint256",
          "name": "_maxFeePercentage",
          "type": "uint256"
        },
        {
          "internalType": "uint256",
          "name": "_USDHAmount",
          "type": "uint256"
        },
        {
          "internalType": "address",
          "name": "_upperHint",
          "type": "address"
        },
        {
          "internalType": "address",
          "name": "_lowerHint",
          "type": "address"
        }
      ],
      "name": "withdrawUSDH",
      "outputs": [],
      "stateMutability": "nonpayable",
      "type": "function"
    },
    {
      "stateMutability": "payable",
      "type": "receive"
    }
  ],
  "bytecode": "0x608060405234801561001057600080fd5b50600380546001600160a01b031916339081179091556040516000907f8be0079c531659141344cd1fd0a4f28419497f9722a3daafe3b4186f6b6457e0908290a36138cd806100606000396000f3fe6080604052600436106101d35760003560e01c8063795d26c3116100f8578063a3f4df7e11610090578063a3f4df7e1461060f578063ae91875414610699578063c62dad68146106ae578063c6a6cf20146106f5578063ceb6680f1461073d578063daa3c0d814610752578063ea9638bf14610767578063f08e92c11461079f578063f92d3433146107b4576101da565b8063795d26c3146104d15780637f7dde4a146104e6578063860665b3146104fb57806387eb305d14610535578063887105d31461057b5780638ba96817146105905780638da5cb5b146105d15780638f32d59b146105e6578063a20baee614610274576101da565b80635530273c1161016b5780635530273c146103605780635733d58f146103a157806368647db1146103b65780636c37a4af146103e45780636f0b0c1c146104625780636f30d2121461047757806372fe25aa14610274578063741bef1a146104a7578063794e5724146104bc576101da565b80630e704d50146101df5780631bf43555146101f65780632cdcd7221461021d578063379ce628146102745780633cc74225146102895780633d83908a146102ba5780634870dd9a146102cf5780634ff81443146102e457806351584ca41461030e576101da565b366101da57005b600080fd5b3480156101eb57600080fd5b506101f46107c9565b005b34801561020257600080fd5b5061020b610bc1565b60408051918252519081900360200190f35b34801561022957600080fd5b506101f4600480360360c081101561024057600080fd5b506001600160a01b0381358116916020810135916040820135916060810135151591608082013581169160a0013516610bcd565b34801561028057600080fd5b5061020b610be5565b34801561029557600080fd5b5061029e610bf1565b604080516001600160a01b039092168252519081900360200190f35b3480156102c657600080fd5b5061029e610c00565b3480156102db57600080fd5b5061020b610c0f565b3480156102f057600080fd5b5061020b6004803603602081101561030757600080fd5b5035610c14565b34801561031a57600080fd5b5061020b600480360360e081101561033157600080fd5b50803590602081013590604081013590606081013515159060808101359060a081013515159060c00135610c25565b34801561036c57600080fd5b506101f46004803603606081101561038357600080fd5b508035906001600160a01b0360208201358116916040013516610c42565b3480156103ad57600080fd5b5061020b610c58565b6101f4600480360360408110156103cc57600080fd5b506001600160a01b0381358116916020013516610c64565b3480156103f057600080fd5b506101f4600480360361014081101561040857600080fd5b506001600160a01b038135811691602081013582169160408201358116916060810135821691608082013581169160a081013582169160c082013581169160e0810135821691610100820135811691610120013516610c7a565b34801561046e57600080fd5b506101f461102b565b34801561048357600080fd5b5061020b6004803603604081101561049a57600080fd5b5080359060200135611091565b3480156104b357600080fd5b5061029e6110a4565b3480156104c857600080fd5b5061020b6110b3565b3480156104dd57600080fd5b5061020b6110bf565b3480156104f257600080fd5b5061029e6111c0565b6101f46004803603608081101561051157600080fd5b508035906020810135906001600160a01b03604082013581169160600135166111cf565b34801561054157600080fd5b5061020b600480360360a081101561055857600080fd5b508035906020810135151590604081013590606081013515159060800135611803565b34801561058757600080fd5b5061020b61181c565b34801561059c57600080fd5b506101f4600480360360608110156105b357600080fd5b508035906001600160a01b03602082013581169160400135166118d8565b3480156105dd57600080fd5b5061029e6118ea565b3480156105f257600080fd5b506105fb6118f9565b604080519115158252519081900360200190f35b34801561061b57600080fd5b5061062461190a565b6040805160208082528351818301528351919283929083019185019080838360005b8381101561065e578181015183820152602001610646565b50505050905090810190601f16801561068b5780820380516001836020036101000a031916815260200191505b509250505060405180910390f35b3480156106a557600080fd5b5061029e611938565b3480156106ba57600080fd5b506101f4600480360360808110156106d157600080fd5b508035906020810135906001600160a01b0360408201358116916060013516611947565b6101f4600480360360c081101561070b57600080fd5b5080359060208101359060408101359060608101351515906001600160a01b03608082013581169160a0013516611958565b34801561074957600080fd5b5061029e611967565b34801561075e57600080fd5b5061029e611976565b6101f46004803603606081101561077d57600080fd5b506001600160a01b038135811691602081013582169160409091013516611985565b3480156107ab57600080fd5b5061029e61199f565b3480156107c057600080fd5b5061020b6119ae565b600454600054600a546001600160a01b039283169291821691166107ed83336119b9565b60025460408051630fdb11cf60e01b815290516000926001600160a01b031691630fdb11cf91600480830192602092919082900301818787803b15801561083357600080fd5b505af1158015610847573d6000803e3d6000fd5b505050506040513d602081101561085d57600080fd5b5051905061086a81611a7e565b60408051630b07655760e01b815233600482015290516001600160a01b03861691630b07655791602480830192600092919082900301818387803b1580156108b157600080fd5b505af11580156108c5573d6000803e3d6000fd5b5050604080516309019aaf60e31b81523360048201529051600093506001600160a01b038816925063480cd57891602480820192602092909190829003018186803b15801561091357600080fd5b505afa158015610927573d6000803e3d6000fd5b505050506040513d602081101561093d57600080fd5b50516040805163d66a255360e01b815233600482015290519192506000916001600160a01b0388169163d66a2553916024808301926020929190829003018186803b15801561098b57600080fd5b505afa15801561099f573d6000803e3d6000fd5b505050506040513d60208110156109b557600080fd5b505190506109db84336109d684670de0b6b3a764000063ffffffff611ac616565b611b08565b60006109ec83600084600088611bc8565b90506109f781611c53565b60408051631fc5750960e31b815233600482015290516001600160a01b0389169163fe2ba84891602480830192600092919082900301818387803b158015610a3e57600080fd5b505af1158015610a52573d6000803e3d6000fd5b5050604080516365e89c5760e11b815233600482015290516001600160a01b038b16935063cbd138ae9250602480830192600092919082900301818387803b158015610a9d57600080fd5b505af1158015610ab1573d6000803e3d6000fd5b50505050336001600160a01b03166000805160206136a68339815191526000806000600160405180858152602001848152602001838152602001826002811115610af757fe5b60ff16815260200194505050505060405180910390a2610b30868633610b2b86670de0b6b3a764000063ffffffff611ac616565b611c9a565b600654610b5290879087906001600160a01b0316670de0b6b3a7640000611c9a565b604080516364a197f360e01b81523360048201526024810185905290516001600160a01b038816916364a197f391604480830192600092919082900301818387803b158015610ba057600080fd5b505af1158015610bb4573d6000803e3d6000fd5b5050505050505050505050565b677ce66c50e284000081565b610bdd8686868686866000611d76565b505050505050565b670de0b6b3a764000081565b6001546001600160a01b031681565b6004546001600160a01b031681565b60c881565b6000610c1f82612373565b92915050565b6000610c368888888888888861238d565b98975050505050505050565b610c53338460008086866000611d76565b505050565b6714d1120d7b16000081565b610c7633600080600086866000611d76565b5050565b610c826118f9565b610cd3576040805162461bcd60e51b815260206004820181905260248201527f4f776e61626c653a2063616c6c6572206973206e6f7420746865206f776e6572604482015290519081900360640190fd5b610cdc8a6123c0565b610ce5896123c0565b610cee886123c0565b610cf7876123c0565b610d00866123c0565b610d09856123c0565b610d12846123c0565b610d1b836123c0565b610d24826123c0565b610d2d816123c0565b600480546001600160a01b03199081166001600160a01b038d81169182179093556000805483168d85161790556001805483168c85161790556005805483168b85161790556006805483168a8516179055600780548316898516179055600280548316888516179055600b80548316878516179055600a80548316868516179055600980548316938516938417905560088054909216909217905560408051918252517f143219c9e69b09e07e095fcc889b43d8f46ca892bba65f08dc3a0050869a5678916020908290030190a1604080516001600160a01b038b16815290517f78f058b189175430c48dc02699e3a0031ea4ff781536dc2fab847de4babdd8829181900360200190a1604080516001600160a01b038a16815290517f5ee0cae2f063ed938bb55046f6a932fb6ae792bf43624806bb90abe68a50be9b9181900360200190a1604080516001600160a01b038916815290517f82966d27eea39b038ee0fa30cd16532bb24f6e65d31cb58fb227aa5766cdcc7f9181900360200190a1604080516001600160a01b038816815290517fcfb07d791fcafc032b35837b50eb84b74df518cf4cc287e8084f47630fa70fa09181900360200190a1604080516001600160a01b038716815290517fe67f36a6e961157d6eff83b91f3af5a62131ceb6f04954ef74f51c1c05e7f88d9181900360200190a1604080516001600160a01b038616815290517f8c537274438aa850a330284665d81a85dd38267d09e4050d416bfc94142db2649181900360200190a1604080516001600160a01b038516815290517f65f4cf077bc01e4742eb5ad98326f6e95b63548ea24b17f8d5e823111fe788009181900360200190a1604080516001600160a01b038416815290517f5708bcd180e4da14a958eda749d47d0b1890743f14a286a3c7e88827a25c76a39181900360200190a1604080516001600160a01b038316815290517fe023fadc7af87342d2a3c323ff7df8cb11fef0409ea544984959f2fc037e6f2d9181900360200190a161101f61246f565b50505050505050505050565b6007546040805163b32beb5b60e01b815233600482015290516001600160a01b039092169163b32beb5b9160248082019260009290919082900301818387803b15801561107757600080fd5b505af115801561108b573d6000803e3d6000fd5b50505050565b600061109d83836124b9565b9392505050565b6002546001600160a01b031681565b670f43fc2c04ee000081565b6000805460408051639ed76b3160e01b8152905183926001600160a01b031691639ed76b31916004808301926020929190829003018186803b15801561110457600080fd5b505afa158015611118573d6000803e3d6000fd5b505050506040513d602081101561112e57600080fd5b505160015460408051639ed76b3160e01b815290519293506000926001600160a01b0390921691639ed76b3191600480820192602092909190829003018186803b15801561117b57600080fd5b505afa15801561118f573d6000803e3d6000fd5b505050506040513d60208110156111a557600080fd5b505190506111b9828263ffffffff6124ec16565b9250505090565b6000546001600160a01b031681565b6111d76133bc565b50604080516060810182526004546001600160a01b03908116825260005481166020830152600a54169181019190915261120f6133dc565b600260009054906101000a90046001600160a01b03166001600160a01b0316630fdb11cf6040518163ffffffff1660e01b8152600401602060405180830381600087803b15801561125f57600080fd5b505af1158015611273573d6000803e3d6000fd5b505050506040513d602081101561128957600080fd5b505180825260009061129a90612546565b90506112a68782612563565b82516112b2903361260f565b60408201869052806112f3576112d283600001518460400151888a6126eb565b6020830181905260408301516112ed9163ffffffff6124ec16565b60408301525b611300826040015161289b565b61130d8260400151612373565b6060830181905261131a57fe5b61132d34836060015184600001516128e2565b60808301526060820151611342903490612914565b60a0830152801561135f5761135a8260800151612949565b611392565b61136c8260800151612990565b6000611385346001856060015160018760000151611bc8565b905061139081611c53565b505b825160408051635d6b480f60e01b81523360048201526001602482015290516001600160a01b0390921691635d6b480f9160448082019260009290919082900301818387803b1580156113e457600080fd5b505af11580156113f8573d6000803e3d6000fd5b50508451604080516372423c1760e01b815233600482015234602482015290516001600160a01b0390921693506372423c1792506044808201926020929091908290030181600087803b15801561144e57600080fd5b505af1158015611462573d6000803e3d6000fd5b505050506040513d602081101561147857600080fd5b50508251606083015160408051639976cf4560e01b81523360048201526024810192909252516001600160a01b0390921691639976cf45916044808201926020929091908290030181600087803b1580156114d257600080fd5b505af11580156114e6573d6000803e3d6000fd5b505050506040513d60208110156114fc57600080fd5b50508251604080516382fe3eb960e01b815233600482015290516001600160a01b03909216916382fe3eb99160248082019260009290919082900301818387803b15801561154957600080fd5b505af115801561155d573d6000803e3d6000fd5b5050845160408051630c7940bd60e11b815233600482015290516001600160a01b0390921693506318f2817a92506024808201926020929091908290030181600087803b1580156115ad57600080fd5b505af11580156115c1573d6000803e3d6000fd5b505050506040513d60208110156115d757600080fd5b505160c0830152600b5460a0830151604080516346f7cf8760e01b815233600482015260248101929092526001600160a01b038881166044840152878116606484015290519216916346f7cf879160848082019260009290919082900301818387803b15801561164657600080fd5b505af115801561165a573d6000803e3d6000fd5b50508451604080516315d549f160e01b815233600482015290516001600160a01b0390921693506315d549f192506024808201926020929091908290030181600087803b1580156116aa57600080fd5b505af11580156116be573d6000803e3d6000fd5b505050506040513d60208110156116d457600080fd5b505160e08301819052604080519182525133917f59cfd0cd754bc5748b6770e94a4ffa5f678d885cb899dcfadc5734edb97c67ab919081900360200190a26117208360200151346129d7565b6117398360200151846040015133898660400151612a67565b602083015160408401516006546117649291906001600160a01b0316670de0b6b3a764000080612a67565b336001600160a01b03166000805160206136a68339815191528360600151348560c001516000604051808581526020018481526020018381526020018260028111156117ac57fe5b60ff16815260200194505050505060405180910390a2602080830151604080519182525133927fa6c33c96b3256180e556535d65a4848a9e177c91eb5aae806744a63d63234adc928290030190a250505050505050565b60006118128686868686611bc8565b9695505050505050565b6000805460408051630a7b61df60e11b8152905183926001600160a01b0316916314f6c3be916004808301926020929190829003018186803b15801561186157600080fd5b505afa158015611875573d6000803e3d6000fd5b505050506040513d602081101561188b57600080fd5b505160015460408051630a7b61df60e11b815290519293506000926001600160a01b03909216916314f6c3be91600480820192602092909190829003018186803b15801561117b57600080fd5b610c5333600085600086866000611d76565b6003546001600160a01b031690565b6003546001600160a01b0316331490565b60405180604001604052806012815260200171426f72726f7765724f7065726174696f6e7360701b81525081565b600b546001600160a01b031681565b61108b33600085600186868a611d76565b610bdd3386868686868c611d76565b6009546001600160a01b031681565b6008546001600160a01b031681565b61198d612b44565b610c5383600080600086866000611d76565b600a546001600160a01b031681565b6611c37937e0800081565b6000826001600160a01b03166321e37801836040518263ffffffff1660e01b815260040180826001600160a01b03166001600160a01b0316815260200191505060206040518083038186803b158015611a1157600080fd5b505afa158015611a25573d6000803e3d6000fd5b505050506040513d6020811015611a3b57600080fd5b5051905060018114610c535760405162461bcd60e51b815260040180806020018281038252602e815260200180613678602e913960400191505060405180910390fd5b611a8781612546565b15611ac35760405162461bcd60e51b81526004018080602001828103825260398152602001806135266039913960400191505060405180910390fd5b50565b600061109d83836040518060400160405280601e81526020017f536166654d6174683a207375627472616374696f6e206f766572666c6f770000815250612b8f565b80836001600160a01b03166370a08231846040518263ffffffff1660e01b815260040180826001600160a01b03166001600160a01b0316815260200191505060206040518083038186803b158015611b5f57600080fd5b505afa158015611b73573d6000803e3d6000fd5b505050506040513d6020811015611b8957600080fd5b50511015610c535760405162461bcd60e51b815260040180806020018281038252603d8152602001806134b9603d913960400191505060405180910390fd5b600080611bd361181c565b90506000611bdf6110bf565b905086611bfb57611bf6828963ffffffff611ac616565b611c0b565b611c0b828963ffffffff6124ec16565b915084611c2757611c22818763ffffffff611ac616565b611c37565b611c37818763ffffffff6124ec16565b90506000611c468383876128e2565b9998505050505050505050565b6714d1120d7b160000811015611ac35760405162461bcd60e51b815260040180806020018281038252604981526020018061362f6049913960600191505060405180910390fd5b836001600160a01b03166306807413826040518263ffffffff1660e01b815260040180828152602001915050600060405180830381600087803b158015611ce057600080fd5b505af1158015611cf4573d6000803e3d6000fd5b50505050826001600160a01b0316639dc29fac83836040518363ffffffff1660e01b815260040180836001600160a01b03166001600160a01b0316815260200182815260200192505050600060405180830381600087803b158015611d5857600080fd5b505af1158015611d6c573d6000803e3d6000fd5b5050505050505050565b611d7e6133bc565b50604080516060810182526004546001600160a01b03908116825260005481166020830152600a541691810191909152611db6613421565b600260009054906101000a90046001600160a01b03166001600160a01b0316630fdb11cf6040518163ffffffff1660e01b8152600401602060405180830381600087803b158015611e0657600080fd5b505af1158015611e1a573d6000803e3d6000fd5b505050506040513d6020811015611e3057600080fd5b5051808252600090611e4190612546565b90508615611e5c57611e538482612563565b611e5c88612c26565b611e6589612c65565b611e6f8989612cab565b8251611e7b908b6119b9565b336001600160a01b038b161480611eb157506005546001600160a01b031633148015611ea75750600034115b8015611eb1575087155b611eb757fe5b82600001516001600160a01b0316630b0765578b6040518263ffffffff1660e01b815260040180826001600160a01b03166001600160a01b03168152602001915050600060405180830381600087803b158015611f1357600080fd5b505af1158015611f27573d6000803e3d6000fd5b50505050611f35348a612cfd565b15156060840152602083015260408201889052868015611f53575080155b15611f8e57611f6c836000015184604001518a876126eb565b61012083018190526040830151611f889163ffffffff6124ec16565b60408301525b82600001516001600160a01b031663d66a25538b6040518263ffffffff1660e01b815260040180826001600160a01b03166001600160a01b0316815260200191505060206040518083038186803b158015611fe857600080fd5b505afa158015611ffc573d6000803e3d6000fd5b505050506040513d602081101561201257600080fd5b505160808301528251604080516309019aaf60e31b81526001600160a01b038d811660048301529151919092169163480cd578916024808301926020929190829003018186803b15801561206557600080fd5b505afa158015612079573d6000803e3d6000fd5b505050506040513d602081101561208f57600080fd5b505160a08301819052608083015183516120aa9291906128e2565b8260c00181815250506120da8260a0015183608001518460200151856060015186604001518c886000015161238d565b60e083015260a08201518911156120ed57fe5b6120f9818a8985612d1c565b861580156121075750600088115b1561215a5761213561213083604001516121248560800151612d90565b9063ffffffff611ac616565b61289b565b61214782608001518360400151612daa565b61215a83604001518b8460400151611b08565b61217883600001518b8460200151856060015186604001518c612e00565b610140840152610160830152825160408051630c7940bd60e11b81526001600160a01b038d81166004830152915191909216916318f2817a9160248083019260209291908290030181600087803b1580156121d257600080fd5b505af11580156121e6573d6000803e3d6000fd5b505050506040513d60208110156121fc57600080fd5b505161018083015260a08201516080830151602084015160608501516040860151600094612230949093909290918d613060565b600b546040805163015f109360e51b81526001600160a01b038f81166004830152602482018590528b811660448301528a811660648301529151939450911691632be212609160848082019260009290919082900301818387803b15801561229757600080fd5b505af11580156122ab573d6000803e3d6000fd5b505050508a6001600160a01b03166000805160206136a68339815191528461014001518561016001518661018001516002604051808581526020018481526020018381526020018260028111156122fe57fe5b60ff16815260200194505050505060405180910390a2610120830151604080519182525133917fa6c33c96b3256180e556535d65a4848a9e177c91eb5aae806744a63d63234adc919081900360200190a2610bb48460200151856040015133866020015187606001518e8e8a60400151613091565b6000610c1f82670de0b6b3a764000063ffffffff6124ec16565b60008060006123a08a8a8a8a8a8a61314c565b9150915060006123b18383876128e2565b9b9a5050505050505050505050565b6001600160a01b03811661241b576040805162461bcd60e51b815260206004820152601e60248201527f4163636f756e742063616e6e6f74206265207a65726f20616464726573730000604482015290519081900360640190fd5b803b80610c76576040805162461bcd60e51b815260206004820181905260248201527f4163636f756e7420636f64652073697a652063616e6e6f74206265207a65726f604482015290519081900360640190fd5b6003546040516000916001600160a01b0316907f8be0079c531659141344cd1fd0a4f28419497f9722a3daafe3b4186f6b6457e0908390a3600380546001600160a01b0319169055565b6000806124e4670de0b6b3a76400006124d8858763ffffffff6131a716565b9063ffffffff61320016565b949350505050565b60008282018381101561109d576040805162461bcd60e51b815260206004820152601b60248201527f536166654d6174683a206164646974696f6e206f766572666c6f770000000000604482015290519081900360640190fd5b60008061255283613242565b6714d1120d7b160000119392505050565b80156125b557670de0b6b3a76400008211156125b05760405162461bcd60e51b81526004018080602001828103825260328152602001806135966032913960400191505060405180910390fd5b610c76565b6611c37937e0800082108015906125d45750670de0b6b3a76400008211155b610c765760405162461bcd60e51b81526004018080602001828103825260308152602001806137f36030913960400191505060405180910390fd5b6000826001600160a01b03166321e37801836040518263ffffffff1660e01b815260040180826001600160a01b03166001600160a01b0316815260200191505060206040518083038186803b15801561266757600080fd5b505afa15801561267b573d6000803e3d6000fd5b505050506040513d602081101561269157600080fd5b505190506001811415610c53576040805162461bcd60e51b815260206004820152601c60248201527f426f72726f7765724f70733a2054726f76652069732061637469766500000000604482015290519081900360640190fd5b6000846001600160a01b0316635dba4c4a6040518163ffffffff1660e01b8152600401600060405180830381600087803b15801561272857600080fd5b505af115801561273c573d6000803e3d6000fd5b505050506000856001600160a01b031663631203b0856040518263ffffffff1660e01b81526004018082815260200191505060206040518083038186803b15801561278657600080fd5b505afa15801561279a573d6000803e3d6000fd5b505050506040513d60208110156127b057600080fd5b505190506127bf818585613266565b60085460408051632c36f06160e21b81526004810184905290516001600160a01b039092169163b0dbc1849160248082019260009290919082900301818387803b15801561280c57600080fd5b505af1158015612820573d6000803e3d6000fd5b5050600954604080516340c10f1960e01b81526001600160a01b03928316600482015260248101869052905191891693506340c10f19925060448082019260009290919082900301818387803b15801561287957600080fd5b505af115801561288d573d6000803e3d6000fd5b509298975050505050505050565b677ce66c50e2840000811015611ac35760405162461bcd60e51b815260040180806020018281038252603a81526020018061374d603a913960400191505060405180910390fd5b60008215612909576000612900846124d8878663ffffffff6131a716565b915061109d9050565b506000199392505050565b6000811561294057612939826124d88568056bc75e2d6310000063ffffffff6131a716565b9050610c1f565b50600019610c1f565b6714d1120d7b160000811015611ac35760405162461bcd60e51b815260040180806020018281038252603781526020018061355f6037913960400191505060405180910390fd5b670f43fc2c04ee0000811015611ac35760405162461bcd60e51b81526004018080602001828103825260498152602001806137046049913960600191505060405180910390fd5b6040516000906001600160a01b0384169083908381818185875af1925050503d8060008114612a22576040519150601f19603f3d011682016040523d82523d6000602084013e612a27565b606091505b5050905080610c535760405162461bcd60e51b815260040180806020018281038252602d81526020018061348c602d913960400191505060405180910390fd5b846001600160a01b0316637f9856f5826040518263ffffffff1660e01b815260040180828152602001915050600060405180830381600087803b158015612aad57600080fd5b505af1158015612ac1573d6000803e3d6000fd5b50505050836001600160a01b03166340c10f1984846040518363ffffffff1660e01b815260040180836001600160a01b03166001600160a01b0316815260200182815260200192505050600060405180830381600087803b158015612b2557600080fd5b505af1158015612b39573d6000803e3d6000fd5b505050505050505050565b6005546001600160a01b03163314612b8d5760405162461bcd60e51b81526004018080602001828103825260298152602001806137ca6029913960400191505060405180910390fd5b565b60008184841115612c1e5760405162461bcd60e51b81526004018080602001828103825283818151815260200191508051906020019080838360005b83811015612be3578181015183820152602001612bcb565b50505050905090810190601f168015612c105780820380516001836020036101000a031916815260200191505b509250505060405180910390fd5b505050900390565b60008111611ac35760405162461bcd60e51b81526004018080602001828103825260378152602001806138236037913960400191505060405180910390fd5b341580612c70575080155b611ac35760405162461bcd60e51b81526004018080602001828103825260308152602001806134f66030913960400191505060405180910390fd5b34151580612cb857508115155b80612cc257508015155b610c765760405162461bcd60e51b81526004018080602001828103825260468152602001806135c86046913960600191505060405180910390fd5b6000808315612d1157508290506001612d15565b8291505b9250929050565b8315612d5557612d2b836132db565b8115612d5057612d3e8160e00151612949565b612d508160e001518260c00151613318565b61108b565b612d628160e00151612990565b612d7f816020015182606001518360400151858560000151611bc8565b610100820181905261108b90611c53565b6000610c1f82670de0b6b3a764000063ffffffff611ac616565b612dc282670de0b6b3a764000063ffffffff611ac616565b811115610c765760405162461bcd60e51b81526004018080602001828103825260438152602001806137876043913960600191505060405180910390fd5b600080600085612e9b57886001600160a01b031663d3d6f84389896040518363ffffffff1660e01b815260040180836001600160a01b03166001600160a01b0316815260200182815260200192505050602060405180830381600087803b158015612e6a57600080fd5b505af1158015612e7e573d6000803e3d6000fd5b505050506040513d6020811015612e9457600080fd5b5051612f28565b886001600160a01b03166372423c1789896040518363ffffffff1660e01b815260040180836001600160a01b03166001600160a01b0316815260200182815260200192505050602060405180830381600087803b158015612efb57600080fd5b505af1158015612f0f573d6000803e3d6000fd5b505050506040513d6020811015612f2557600080fd5b50515b9050600084612fc257896001600160a01b03166312610e928a886040518363ffffffff1660e01b815260040180836001600160a01b03166001600160a01b0316815260200182815260200192505050602060405180830381600087803b158015612f9157600080fd5b505af1158015612fa5573d6000803e3d6000fd5b505050506040513d6020811015612fbb57600080fd5b505161304f565b896001600160a01b0316639976cf458a886040518363ffffffff1660e01b815260040180836001600160a01b03166001600160a01b0316815260200182815260200192505050602060405180830381600087803b15801561302257600080fd5b505af1158015613036573d6000803e3d6000fd5b505050506040513d602081101561304c57600080fd5b50515b919a91995090975050505050505050565b600080600061307389898989898961314c565b9150915060006130838383612914565b9a9950505050505050505050565b81156130a9576130a48888888685612a67565b6130b5565b6130b588888886611c9a565b83156130ca576130c588866129d7565b611d6c565b876001600160a01b03166364a197f387876040518363ffffffff1660e01b815260040180836001600160a01b03166001600160a01b0316815260200182815260200192505050600060405180830381600087803b15801561312a57600080fd5b505af115801561313e573d6000803e3d6000fd5b505050505050505050505050565b60008087878661316b576131668a8963ffffffff611ac616565b61317b565b61317b8a8963ffffffff6124ec16565b91508461319757613192898763ffffffff611ac616565b61304f565b61304f898763ffffffff6124ec16565b6000826131b657506000610c1f565b828202828482816131c357fe5b041461109d5760405162461bcd60e51b815260040180806020018281038252602181526020018061360e6021913960400191505060405180910390fd5b600061109d83836040518060400160405280601a81526020017f536166654d6174683a206469766973696f6e206279207a65726f000000000000815250613357565b60008061324d61181c565b905060006132596110bf565b90506124e48282866128e2565b6000613284836124d886670de0b6b3a764000063ffffffff6131a716565b90508181111561108b576040805162461bcd60e51b815260206004820152601d60248201527f4665652065786365656465642070726f7669646564206d6178696d756d000000604482015290519081900360640190fd5b8015611ac35760405162461bcd60e51b815260040180806020018281038252603e8152602001806136c6603e913960400191505060405180910390fd5b80821015610c765760405162461bcd60e51b815260040180806020018281038252603e81526020018061385a603e913960400191505060405180910390fd5b600081836133a65760405162461bcd60e51b8152602060048201818152835160248401528351909283926044909101919085019080838360008315612be3578181015183820152602001612bcb565b5060008385816133b257fe5b0495945050505050565b604080516060810182526000808252602082018190529181019190915290565b60405180610100016040528060008152602001600081526020016000815260200160008152602001600081526020016000815260200160008152602001600081525090565b604051806101a00160405280600081526020016000815260200160008152602001600015158152602001600081526020016000815260200160008152602001600081526020016000815260200160008152602001600081526020016000815260200160008152509056fe426f72726f7765724f70733a2053656e64696e672045544820746f20416374697665506f6f6c206661696c6564426f72726f7765724f70733a2043616c6c657220646f65736e74206861766520656e6f756768205553444820746f206d616b652072657061796d656e74426f72726f7765724f7065726174696f6e733a2043616e6e6f7420776974686472617720616e642061646420636f6c6c426f72726f7765724f70733a204f7065726174696f6e206e6f74207065726d697474656420647572696e67205265636f76657279204d6f6465426f72726f7765724f70733a204f7065726174696f6e206d757374206c656176652074726f7665207769746820494352203e3d204343524d6178206665652070657263656e74616765206d757374206c657373207468616e206f7220657175616c20746f2031303025426f72726f7765724f70733a205468657265206d75737420626520656974686572206120636f6c6c61746572616c206368616e6765206f7220612064656274206368616e6765536166654d6174683a206d756c7469706c69636174696f6e206f766572666c6f77426f72726f7765724f70733a20416e206f7065726174696f6e207468617420776f756c6420726573756c7420696e20544352203c20434352206973206e6f74207065726d6974746564426f72726f7765724f70733a2054726f766520646f6573206e6f74206578697374206f7220697320636c6f736564c3770d654ed33aeea6bf11ac8ef05d02a6a04ed4686dd2f624d853bbec43cc8b426f72726f7765724f70733a20436f6c6c61746572616c207769746864726177616c206e6f74207065726d6974746564205265636f76657279204d6f6465426f72726f7765724f70733a20416e206f7065726174696f6e207468617420776f756c6420726573756c7420696e20494352203c204d4352206973206e6f74207065726d6974746564426f72726f7765724f70733a2054726f76652773206e65742064656274206d7573742062652067726561746572207468616e206d696e696d756d426f72726f7765724f70733a20416d6f756e7420726570616964206d757374206e6f74206265206c6172676572207468616e207468652054726f766527732064656274426f72726f7765724f70733a2043616c6c6572206973206e6f742053746162696c69747920506f6f6c4d6178206665652070657263656e74616765206d757374206265206265747765656e20302e352520616e642031303025426f72726f7765724f70733a204465627420696e637265617365207265717569726573206e6f6e2d7a65726f20646562744368616e6765426f72726f7765724f70733a2043616e6e6f7420646563726561736520796f75722054726f766527732049435220696e205265636f76657279204d6f6465a2646970667358221220a6ca50bbd0716e8ef4eebf621a4081c50fc2128b332f45e2bb642da026f3de5864736f6c634300060b0033",
  "linkReferences": {},
  "deployedLinkReferences": {}
}