{
  "_format": "hh-sol-artifact-1",
  "contractName": "BorrowerOperations",
  "sourceName": "contracts/BorrowerOperations.sol",
  "abi": [
    {
      "anonymous": false,
      "inputs": [
        {
          "indexed": false,
          "internalType": "address",
          "name": "_activePoolAddress",
          "type": "address"
        }
      ],
      "name": "ActivePoolAddressChanged",
      "type": "event"
    },
    {
      "anonymous": false,
      "inputs": [
        {
          "indexed": false,
          "internalType": "address",
          "name": "_collSurplusPoolAddress",
          "type": "address"
        }
      ],
      "name": "CollSurplusPoolAddressChanged",
      "type": "event"
    },
    {
      "anonymous": false,
      "inputs": [
        {
          "indexed": false,
          "internalType": "address",
          "name": "_defaultPoolAddress",
          "type": "address"
        }
      ],
      "name": "DefaultPoolAddressChanged",
      "type": "event"
    },
    {
      "anonymous": false,
      "inputs": [
        {
          "indexed": false,
          "internalType": "address",
          "name": "_gasPoolAddress",
          "type": "address"
        }
      ],
      "name": "GasPoolAddressChanged",
      "type": "event"
    },
    {
      "anonymous": false,
      "inputs": [
        {
          "indexed": false,
          "internalType": "address",
          "name": "_halalStakingAddress",
          "type": "address"
        }
      ],
      "name": "HALALStakingAddressChanged",
      "type": "event"
    },
    {
      "anonymous": false,
      "inputs": [
        {
          "indexed": true,
          "internalType": "address",
          "name": "previousOwner",
          "type": "address"
        },
        {
          "indexed": true,
          "internalType": "address",
          "name": "newOwner",
          "type": "address"
        }
      ],
      "name": "OwnershipTransferred",
      "type": "event"
    },
    {
      "anonymous": false,
      "inputs": [
        {
          "indexed": false,
          "internalType": "address",
          "name": "_newPriceFeedAddress",
          "type": "address"
        }
      ],
      "name": "PriceFeedAddressChanged",
      "type": "event"
    },
    {
      "anonymous": false,
      "inputs": [
        {
          "indexed": false,
          "internalType": "address",
          "name": "_sortedTrovesAddress",
          "type": "address"
        }
      ],
      "name": "SortedTrovesAddressChanged",
      "type": "event"
    },
    {
      "anonymous": false,
      "inputs": [
        {
          "indexed": false,
          "internalType": "address",
          "name": "_stabilityPoolAddress",
          "type": "address"
        }
      ],
      "name": "StabilityPoolAddressChanged",
      "type": "event"
    },
    {
      "anonymous": false,
      "inputs": [
        {
          "indexed": true,
          "internalType": "address",
          "name": "_borrower",
          "type": "address"
        },
        {
          "indexed": false,
          "internalType": "uint256",
          "name": "arrayIndex",
          "type": "uint256"
        }
      ],
      "name": "TroveCreated",
      "type": "event"
    },
    {
      "anonymous": false,
      "inputs": [
        {
          "indexed": false,
          "internalType": "address",
          "name": "_newTroveManagerAddress",
          "type": "address"
        }
      ],
      "name": "TroveManagerAddressChanged",
      "type": "event"
    },
    {
      "anonymous": false,
      "inputs": [
        {
          "indexed": true,
          "internalType": "address",
          "name": "_borrower",
          "type": "address"
        },
        {
          "indexed": false,
          "internalType": "uint256",
          "name": "_debt",
          "type": "uint256"
        },
        {
          "indexed": false,
          "internalType": "uint256",
          "name": "_coll",
          "type": "uint256"
        },
        {
          "indexed": false,
          "internalType": "uint256",
          "name": "stake",
          "type": "uint256"
        },
        {
          "indexed": false,
          "internalType": "enum BorrowerOperations.BorrowerOperation",
          "name": "operation",
          "type": "uint8"
        }
      ],
      "name": "TroveUpdated",
      "type": "event"
    },
    {
      "anonymous": false,
      "inputs": [
        {
          "indexed": true,
          "internalType": "address",
          "name": "_borrower",
          "type": "address"
        },
        {
          "indexed": false,
          "internalType": "uint256",
          "name": "_USDHFee",
          "type": "uint256"
        }
      ],
      "name": "USDHBorrowingFeePaid",
      "type": "event"
    },
    {
      "anonymous": false,
      "inputs": [
        {
          "indexed": false,
          "internalType": "address",
          "name": "_usdhTokenAddress",
          "type": "address"
        }
      ],
      "name": "USDHTokenAddressChanged",
      "type": "event"
    },
    {
      "inputs": [],
      "name": "BORROWING_FEE_FLOOR",
      "outputs": [
        {
          "internalType": "uint256",
          "name": "",
          "type": "uint256"
        }
      ],
      "stateMutability": "view",
      "type": "function"
    },
    {
      "inputs": [],
      "name": "CCR",
      "outputs": [
        {
          "internalType": "uint256",
          "name": "",
          "type": "uint256"
        }
      ],
      "stateMutability": "view",
      "type": "function"
    },
    {
      "inputs": [],
      "name": "DECIMAL_PRECISION",
      "outputs": [
        {
          "internalType": "uint256",
          "name": "",
          "type": "uint256"
        }
      ],
      "stateMutability": "view",
      "type": "function"
    },
    {
      "inputs": [],
      "name": "MCR",
      "outputs": [
        {
          "internalType": "uint256",
          "name": "",
          "type": "uint256"
        }
      ],
      "stateMutability": "view",
      "type": "function"
    },
    {
      "inputs": [],
      "name": "MIN_NET_DEBT",
      "outputs": [
        {
          "internalType": "uint256",
          "name": "",
          "type": "uint256"
        }
      ],
      "stateMutability": "view",
      "type": "function"
    },
    {
      "inputs": [],
      "name": "NAME",
      "outputs": [
        {
          "internalType": "string",
          "name": "",
          "type": "string"
        }
      ],
      "stateMutability": "view",
      "type": "function"
    },
    {
      "inputs": [],
      "name": "PERCENT_DIVISOR",
      "outputs": [
        {
          "internalType": "uint256",
          "name": "",
          "type": "uint256"
        }
      ],
      "stateMutability": "view",
      "type": "function"
    },
    {
      "inputs": [],
      "name": "USDH_GAS_COMPENSATION",
      "outputs": [
        {
          "internalType": "uint256",
          "name": "",
          "type": "uint256"
        }
      ],
      "stateMutability": "view",
      "type": "function"
    },
    {
      "inputs": [],
      "name": "_100pct",
      "outputs": [
        {
          "internalType": "uint256",
          "name": "",
          "type": "uint256"
        }
      ],
      "stateMutability": "view",
      "type": "function"
    },
    {
      "inputs": [],
      "name": "activePool",
      "outputs": [
        {
          "internalType": "contract IActivePool",
          "name": "",
          "type": "address"
        }
      ],
      "stateMutability": "view",
      "type": "function"
    },
    {
      "inputs": [
        {
          "internalType": "address",
          "name": "_upperHint",
          "type": "address"
        },
        {
          "internalType": "address",
          "name": "_lowerHint",
          "type": "address"
        }
      ],
      "name": "addColl",
      "outputs": [],
      "stateMutability": "payable",
      "type": "function"
    },
    {
      "inputs": [
        {
          "internalType": "uint256",
          "name": "_maxFeePercentage",
          "type": "uint256"
        },
        {
          "internalType": "uint256",
          "name": "_collWithdrawal",
          "type": "uint256"
        },
        {
          "internalType": "uint256",
          "name": "_USDHChange",
          "type": "uint256"
        },
        {
          "internalType": "bool",
          "name": "_isDebtIncrease",
          "type": "bool"
        },
        {
          "internalType": "address",
          "name": "_upperHint",
          "type": "address"
        },
        {
          "internalType": "address",
          "name": "_lowerHint",
          "type": "address"
        }
      ],
      "name": "adjustTrove",
      "outputs": [],
      "stateMutability": "payable",
      "type": "function"
    },
    {
      "inputs": [],
      "name": "claimCollateral",
      "outputs": [],
      "stateMutability": "nonpayable",
      "type": "function"
    },
    {
      "inputs": [],
      "name": "closeTrove",
      "outputs": [],
      "stateMutability": "nonpayable",
      "type": "function"
    },
    {
      "inputs": [],
      "name": "defaultPool",
      "outputs": [
        {
          "internalType": "contract IDefaultPool",
          "name": "",
          "type": "address"
        }
      ],
      "stateMutability": "view",
      "type": "function"
    },
    {
      "inputs": [
        {
          "internalType": "uint256",
          "name": "_debt",
          "type": "uint256"
        }
      ],
      "name": "getCompositeDebt",
      "outputs": [
        {
          "internalType": "uint256",
          "name": "",
          "type": "uint256"
        }
      ],
      "stateMutability": "pure",
      "type": "function"
    },
    {
      "inputs": [],
      "name": "getEntireSystemColl",
      "outputs": [
        {
          "internalType": "uint256",
          "name": "entireSystemColl",
          "type": "uint256"
        }
      ],
      "stateMutability": "view",
      "type": "function"
    },
    {
      "inputs": [],
      "name": "getEntireSystemDebt",
      "outputs": [
        {
          "internalType": "uint256",
          "name": "entireSystemDebt",
          "type": "uint256"
        }
      ],
      "stateMutability": "view",
      "type": "function"
    },
    {
      "inputs": [],
      "name": "halalStaking",
      "outputs": [
        {
          "internalType": "contract IHALALStaking",
          "name": "",
          "type": "address"
        }
      ],
      "stateMutability": "view",
      "type": "function"
    },
    {
      "inputs": [],
      "name": "halalStakingAddress",
      "outputs": [
        {
          "internalType": "address",
          "name": "",
          "type": "address"
        }
      ],
      "stateMutability": "view",
      "type": "function"
    },
    {
      "inputs": [],
      "name": "isOwner",
      "outputs": [
        {
          "internalType": "bool",
          "name": "",
          "type": "bool"
        }
      ],
      "stateMutability": "view",
      "type": "function"
    },
    {
      "inputs": [
        {
          "internalType": "address",
          "name": "_borrower",
          "type": "address"
        },
        {
          "internalType": "address",
          "name": "_upperHint",
          "type": "address"
        },
        {
          "internalType": "address",
          "name": "_lowerHint",
          "type": "address"
        }
      ],
      "name": "moveETHGainToTrove",
      "outputs": [],
      "stateMutability": "payable",
      "type": "function"
    },
    {
      "inputs": [
        {
          "internalType": "uint256",
          "name": "_maxFeePercentage",
          "type": "uint256"
        },
        {
          "internalType": "uint256",
          "name": "_USDHAmount",
          "type": "uint256"
        },
        {
          "internalType": "address",
          "name": "_upperHint",
          "type": "address"
        },
        {
          "internalType": "address",
          "name": "_lowerHint",
          "type": "address"
        }
      ],
      "name": "openTrove",
      "outputs": [],
      "stateMutability": "payable",
      "type": "function"
    },
    {
      "inputs": [],
      "name": "owner",
      "outputs": [
        {
          "internalType": "address",
          "name": "",
          "type": "address"
        }
      ],
      "stateMutability": "view",
      "type": "function"
    },
    {
      "inputs": [],
      "name": "priceFeed",
      "outputs": [
        {
          "internalType": "contract IPriceFeed",
          "name": "",
          "type": "address"
        }
      ],
      "stateMutability": "view",
      "type": "function"
    },
    {
      "inputs": [
        {
          "internalType": "uint256",
          "name": "_USDHAmount",
          "type": "uint256"
        },
        {
          "internalType": "address",
          "name": "_upperHint",
          "type": "address"
        },
        {
          "internalType": "address",
          "name": "_lowerHint",
          "type": "address"
        }
      ],
      "name": "repayUSDH",
      "outputs": [],
      "stateMutability": "nonpayable",
      "type": "function"
    },
    {
      "inputs": [
        {
          "internalType": "address",
          "name": "_troveManagerAddress",
          "type": "address"
        },
        {
          "internalType": "address",
          "name": "_activePoolAddress",
          "type": "address"
        },
        {
          "internalType": "address",
          "name": "_defaultPoolAddress",
          "type": "address"
        },
        {
          "internalType": "address",
          "name": "_stabilityPoolAddress",
          "type": "address"
        },
        {
          "internalType": "address",
          "name": "_gasPoolAddress",
          "type": "address"
        },
        {
          "internalType": "address",
          "name": "_collSurplusPoolAddress",
          "type": "address"
        },
        {
          "internalType": "address",
          "name": "_priceFeedAddress",
          "type": "address"
        },
        {
          "internalType": "address",
          "name": "_sortedTrovesAddress",
          "type": "address"
        },
        {
          "internalType": "address",
          "name": "_usdhTokenAddress",
          "type": "address"
        },
        {
          "internalType": "address",
          "name": "_halalStakingAddress",
          "type": "address"
        }
      ],
      "name": "setAddresses",
      "outputs": [],
      "stateMutability": "nonpayable",
      "type": "function"
    },
    {
      "inputs": [],
      "name": "sortedTroves",
      "outputs": [
        {
          "internalType": "contract ISortedTroves",
          "name": "",
          "type": "address"
        }
      ],
      "stateMutability": "view",
      "type": "function"
    },
    {
      "inputs": [],
      "name": "troveManager",
      "outputs": [
        {
          "internalType": "contract ITroveManager",
          "name": "",
          "type": "address"
        }
      ],
      "stateMutability": "view",
      "type": "function"
    },
    {
      "inputs": [],
      "name": "usdhToken",
      "outputs": [
        {
          "internalType": "contract IUSDHToken",
          "name": "",
          "type": "address"
        }
      ],
      "stateMutability": "view",
      "type": "function"
    },
    {
      "inputs": [
        {
          "internalType": "uint256",
          "name": "_collWithdrawal",
          "type": "uint256"
        },
        {
          "internalType": "address",
          "name": "_upperHint",
          "type": "address"
        },
        {
          "internalType": "address",
          "name": "_lowerHint",
          "type": "address"
        }
      ],
      "name": "withdrawColl",
      "outputs": [],
      "stateMutability": "nonpayable",
      "type": "function"
    },
    {
      "inputs": [
        {
          "internalType": "uint256",
          "name": "_maxFeePercentage",
          "type": "uint256"
        },
        {
          "internalType": "uint256",
          "name": "_USDHAmount",
          "type": "uint256"
        },
        {
          "internalType": "address",
          "name": "_upperHint",
          "type": "address"
        },
        {
          "internalType": "address",
          "name": "_lowerHint",
          "type": "address"
        }
      ],
      "name": "withdrawUSDH",
      "outputs": [],
      "stateMutability": "nonpayable",
      "type": "function"
    }
  ],
  "bytecode": "0x608060405234801561001057600080fd5b50600380546001600160a01b031916339081179091556040516000907f8be0079c531659141344cd1fd0a4f28419497f9722a3daafe3b4186f6b6457e0908290a3613706806100606000396000f3fe6080604052600436106101a35760003560e01c80637f7dde4a116100e2578063ae91875411610085578063ae91875414610543578063c62dad6814610558578063c6a6cf201461059f578063ceb6680f146105e7578063daa3c0d8146105fc578063ea9638bf14610611578063f08e92c114610649578063f92d34331461065e576101a3565b80637f7dde4a146103d6578063860665b3146103eb578063887105d3146104255780638ba968171461043a5780638da5cb5b1461047b5780638f32d59b14610490578063a20baee6146101e6578063a3f4df7e146104b9576101a3565b80635733d58f1161014a5780635733d58f146102c157806368647db1146102d65780636c37a4af146103045780636f0b0c1c1461038257806372fe25aa146101e6578063741bef1a14610397578063794e5724146103ac578063795d26c3146103c1576101a3565b80630e704d50146101a85780631bf43555146101bf578063379ce628146101e65780633cc74225146101fb5780633d83908a1461022c5780634870dd9a146102415780634ff81443146102565780635530273c14610280575b600080fd5b3480156101b457600080fd5b506101bd610673565b005b3480156101cb57600080fd5b506101d4610a6b565b60408051918252519081900360200190f35b3480156101f257600080fd5b506101d4610a77565b34801561020757600080fd5b50610210610a83565b604080516001600160a01b039092168252519081900360200190f35b34801561023857600080fd5b50610210610a92565b34801561024d57600080fd5b506101d4610aa1565b34801561026257600080fd5b506101d46004803603602081101561027957600080fd5b5035610aa6565b34801561028c57600080fd5b506101bd600480360360608110156102a357600080fd5b508035906001600160a01b0360208201358116916040013516610ab7565b3480156102cd57600080fd5b506101d4610acd565b6101bd600480360360408110156102ec57600080fd5b506001600160a01b0381358116916020013516610ad9565b34801561031057600080fd5b506101bd600480360361014081101561032857600080fd5b506001600160a01b038135811691602081013582169160408201358116916060810135821691608082013581169160a081013582169160c082013581169160e0810135821691610100820135811691610120013516610aef565b34801561038e57600080fd5b506101bd610ea0565b3480156103a357600080fd5b50610210610f06565b3480156103b857600080fd5b506101d4610f15565b3480156103cd57600080fd5b506101d4610f21565b3480156103e257600080fd5b50610210611022565b6101bd6004803603608081101561040157600080fd5b508035906020810135906001600160a01b0360408201358116916060013516611031565b34801561043157600080fd5b506101d4611665565b34801561044657600080fd5b506101bd6004803603606081101561045d57600080fd5b508035906001600160a01b0360208201358116916040013516611721565b34801561048757600080fd5b50610210611733565b34801561049c57600080fd5b506104a5611742565b604080519115158252519081900360200190f35b3480156104c557600080fd5b506104ce611753565b6040805160208082528351818301528351919283929083019185019080838360005b838110156105085781810151838201526020016104f0565b50505050905090810190601f1680156105355780820380516001836020036101000a031916815260200191505b509250505060405180910390f35b34801561054f57600080fd5b50610210611781565b34801561056457600080fd5b506101bd6004803603608081101561057b57600080fd5b508035906020810135906001600160a01b0360408201358116916060013516611790565b6101bd600480360360c08110156105b557600080fd5b5080359060208101359060408101359060608101351515906001600160a01b03608082013581169160a00135166117a1565b3480156105f357600080fd5b506102106117b8565b34801561060857600080fd5b506102106117c7565b6101bd6004803603606081101561062757600080fd5b506001600160a01b0381358116916020810135821691604090910135166117d6565b34801561065557600080fd5b506102106117f0565b34801561066a57600080fd5b506101d46117ff565b600454600054600a546001600160a01b03928316929182169116610697833361180a565b60025460408051630fdb11cf60e01b815290516000926001600160a01b031691630fdb11cf91600480830192602092919082900301818787803b1580156106dd57600080fd5b505af11580156106f1573d6000803e3d6000fd5b505050506040513d602081101561070757600080fd5b50519050610714816118cf565b60408051630b07655760e01b815233600482015290516001600160a01b03861691630b07655791602480830192600092919082900301818387803b15801561075b57600080fd5b505af115801561076f573d6000803e3d6000fd5b5050604080516309019aaf60e31b81523360048201529051600093506001600160a01b038816925063480cd57891602480820192602092909190829003018186803b1580156107bd57600080fd5b505afa1580156107d1573d6000803e3d6000fd5b505050506040513d60208110156107e757600080fd5b50516040805163d66a255360e01b815233600482015290519192506000916001600160a01b0388169163d66a2553916024808301926020929190829003018186803b15801561083557600080fd5b505afa158015610849573d6000803e3d6000fd5b505050506040513d602081101561085f57600080fd5b50519050610885843361088084670de0b6b3a764000063ffffffff61191716565b611960565b600061089683600084600088611a20565b90506108a181611aab565b60408051631fc5750960e31b815233600482015290516001600160a01b0389169163fe2ba84891602480830192600092919082900301818387803b1580156108e857600080fd5b505af11580156108fc573d6000803e3d6000fd5b5050604080516365e89c5760e11b815233600482015290516001600160a01b038b16935063cbd138ae9250602480830192600092919082900301818387803b15801561094757600080fd5b505af115801561095b573d6000803e3d6000fd5b50505050336001600160a01b03166000805160206134df83398151915260008060006001604051808581526020018481526020018381526020018260028111156109a157fe5b60ff16815260200194505050505060405180910390a26109da8686336109d586670de0b6b3a764000063ffffffff61191716565b611af2565b6006546109fc90879087906001600160a01b0316670de0b6b3a7640000611af2565b604080516364a197f360e01b81523360048201526024810185905290516001600160a01b038816916364a197f391604480830192600092919082900301818387803b158015610a4a57600080fd5b505af1158015610a5e573d6000803e3d6000fd5b5050505050505050505050565b677ce66c50e284000081565b670de0b6b3a764000081565b6001546001600160a01b031681565b6004546001600160a01b031681565b60c881565b6000610ab182611bce565b92915050565b610ac8338460008086866000611be8565b505050565b6714d1120d7b16000081565b610aeb33600080600086866000611be8565b5050565b610af7611742565b610b48576040805162461bcd60e51b815260206004820181905260248201527f4f776e61626c653a2063616c6c6572206973206e6f7420746865206f776e6572604482015290519081900360640190fd5b610b518a6121e5565b610b5a896121e5565b610b63886121e5565b610b6c876121e5565b610b75866121e5565b610b7e856121e5565b610b87846121e5565b610b90836121e5565b610b99826121e5565b610ba2816121e5565b600480546001600160a01b03199081166001600160a01b038d81169182179093556000805483168d85161790556001805483168c85161790556005805483168b85161790556006805483168a8516179055600780548316898516179055600280548316888516179055600b80548316878516179055600a80548316868516179055600980548316938516938417905560088054909216909217905560408051918252517f143219c9e69b09e07e095fcc889b43d8f46ca892bba65f08dc3a0050869a5678916020908290030190a1604080516001600160a01b038b16815290517f78f058b189175430c48dc02699e3a0031ea4ff781536dc2fab847de4babdd8829181900360200190a1604080516001600160a01b038a16815290517f5ee0cae2f063ed938bb55046f6a932fb6ae792bf43624806bb90abe68a50be9b9181900360200190a1604080516001600160a01b038916815290517f82966d27eea39b038ee0fa30cd16532bb24f6e65d31cb58fb227aa5766cdcc7f9181900360200190a1604080516001600160a01b038816815290517fcfb07d791fcafc032b35837b50eb84b74df518cf4cc287e8084f47630fa70fa09181900360200190a1604080516001600160a01b038716815290517fe67f36a6e961157d6eff83b91f3af5a62131ceb6f04954ef74f51c1c05e7f88d9181900360200190a1604080516001600160a01b038616815290517f8c537274438aa850a330284665d81a85dd38267d09e4050d416bfc94142db2649181900360200190a1604080516001600160a01b038516815290517f65f4cf077bc01e4742eb5ad98326f6e95b63548ea24b17f8d5e823111fe788009181900360200190a1604080516001600160a01b038416815290517f5708bcd180e4da14a958eda749d47d0b1890743f14a286a3c7e88827a25c76a39181900360200190a1604080516001600160a01b038316815290517fe023fadc7af87342d2a3c323ff7df8cb11fef0409ea544984959f2fc037e6f2d9181900360200190a1610e94612294565b50505050505050505050565b6007546040805163b32beb5b60e01b815233600482015290516001600160a01b039092169163b32beb5b9160248082019260009290919082900301818387803b158015610eec57600080fd5b505af1158015610f00573d6000803e3d6000fd5b50505050565b6002546001600160a01b031681565b670f43fc2c04ee000081565b6000805460408051639ed76b3160e01b8152905183926001600160a01b031691639ed76b31916004808301926020929190829003018186803b158015610f6657600080fd5b505afa158015610f7a573d6000803e3d6000fd5b505050506040513d6020811015610f9057600080fd5b505160015460408051639ed76b3160e01b815290519293506000926001600160a01b0390921691639ed76b3191600480820192602092909190829003018186803b158015610fdd57600080fd5b505afa158015610ff1573d6000803e3d6000fd5b505050506040513d602081101561100757600080fd5b5051905061101b828263ffffffff6122de16565b9250505090565b6000546001600160a01b031681565b6110396131f5565b50604080516060810182526004546001600160a01b03908116825260005481166020830152600a541691810191909152611071613215565b600260009054906101000a90046001600160a01b03166001600160a01b0316630fdb11cf6040518163ffffffff1660e01b8152600401602060405180830381600087803b1580156110c157600080fd5b505af11580156110d5573d6000803e3d6000fd5b505050506040513d60208110156110eb57600080fd5b50518082526000906110fc90612338565b90506111088782612355565b82516111149033612401565b60408201869052806111555761113483600001518460400151888a6124dd565b60208301819052604083015161114f9163ffffffff6122de16565b60408301525b611162826040015161268d565b61116f8260400151611bce565b6060830181905261117c57fe5b61118f34836060015184600001516126d4565b608083015260608201516111a4903490612712565b60a083015280156111c1576111bc8260800151612747565b6111f4565b6111ce826080015161278e565b60006111e7346001856060015160018760000151611a20565b90506111f281611aab565b505b825160408051635d6b480f60e01b81523360048201526001602482015290516001600160a01b0390921691635d6b480f9160448082019260009290919082900301818387803b15801561124657600080fd5b505af115801561125a573d6000803e3d6000fd5b50508451604080516372423c1760e01b815233600482015234602482015290516001600160a01b0390921693506372423c1792506044808201926020929091908290030181600087803b1580156112b057600080fd5b505af11580156112c4573d6000803e3d6000fd5b505050506040513d60208110156112da57600080fd5b50508251606083015160408051639976cf4560e01b81523360048201526024810192909252516001600160a01b0390921691639976cf45916044808201926020929091908290030181600087803b15801561133457600080fd5b505af1158015611348573d6000803e3d6000fd5b505050506040513d602081101561135e57600080fd5b50508251604080516382fe3eb960e01b815233600482015290516001600160a01b03909216916382fe3eb99160248082019260009290919082900301818387803b1580156113ab57600080fd5b505af11580156113bf573d6000803e3d6000fd5b5050845160408051630c7940bd60e11b815233600482015290516001600160a01b0390921693506318f2817a92506024808201926020929091908290030181600087803b15801561140f57600080fd5b505af1158015611423573d6000803e3d6000fd5b505050506040513d602081101561143957600080fd5b505160c0830152600b5460a0830151604080516346f7cf8760e01b815233600482015260248101929092526001600160a01b038881166044840152878116606484015290519216916346f7cf879160848082019260009290919082900301818387803b1580156114a857600080fd5b505af11580156114bc573d6000803e3d6000fd5b50508451604080516315d549f160e01b815233600482015290516001600160a01b0390921693506315d549f192506024808201926020929091908290030181600087803b15801561150c57600080fd5b505af1158015611520573d6000803e3d6000fd5b505050506040513d602081101561153657600080fd5b505160e08301819052604080519182525133917f59cfd0cd754bc5748b6770e94a4ffa5f678d885cb899dcfadc5734edb97c67ab919081900360200190a26115828360200151346127d5565b61159b8360200151846040015133898660400151612865565b602083015160408401516006546115c69291906001600160a01b0316670de0b6b3a764000080612865565b336001600160a01b03166000805160206134df8339815191528360600151348560c0015160006040518085815260200184815260200183815260200182600281111561160e57fe5b60ff16815260200194505050505060405180910390a2602080830151604080519182525133927fa6c33c96b3256180e556535d65a4848a9e177c91eb5aae806744a63d63234adc928290030190a250505050505050565b6000805460408051630a7b61df60e11b8152905183926001600160a01b0316916314f6c3be916004808301926020929190829003018186803b1580156116aa57600080fd5b505afa1580156116be573d6000803e3d6000fd5b505050506040513d60208110156116d457600080fd5b505160015460408051630a7b61df60e11b815290519293506000926001600160a01b03909216916314f6c3be91600480820192602092909190829003018186803b158015610fdd57600080fd5b610ac833600085600086866000611be8565b6003546001600160a01b031690565b6003546001600160a01b0316331490565b60405180604001604052806012815260200171426f72726f7765724f7065726174696f6e7360701b81525081565b600b546001600160a01b031681565b610f0033600085600186868a611be8565b6117b03386868686868c611be8565b505050505050565b6009546001600160a01b031681565b6008546001600160a01b031681565b6117de612942565b610ac883600080600086866000611be8565b600a546001600160a01b031681565b6611c37937e0800081565b6000826001600160a01b03166321e37801836040518263ffffffff1660e01b815260040180826001600160a01b03166001600160a01b0316815260200191505060206040518083038186803b15801561186257600080fd5b505afa158015611876573d6000803e3d6000fd5b505050506040513d602081101561188c57600080fd5b5051905060018114610ac85760405162461bcd60e51b815260040180806020018281038252602e8152602001806134b1602e913960400191505060405180910390fd5b6118d881612338565b156119145760405162461bcd60e51b815260040180806020018281038252603981526020018061335f6039913960400191505060405180910390fd5b50565b600061195983836040518060400160405280601e81526020017f536166654d6174683a207375627472616374696f6e206f766572666c6f77000081525061298d565b9392505050565b80836001600160a01b03166370a08231846040518263ffffffff1660e01b815260040180826001600160a01b03166001600160a01b0316815260200191505060206040518083038186803b1580156119b757600080fd5b505afa1580156119cb573d6000803e3d6000fd5b505050506040513d60208110156119e157600080fd5b50511015610ac85760405162461bcd60e51b815260040180806020018281038252603d8152602001806132f2603d913960400191505060405180910390fd5b600080611a2b611665565b90506000611a37610f21565b905086611a5357611a4e828963ffffffff61191716565b611a63565b611a63828963ffffffff6122de16565b915084611a7f57611a7a818763ffffffff61191716565b611a8f565b611a8f818763ffffffff6122de16565b90506000611a9e8383876126d4565b9998505050505050505050565b6714d1120d7b1600008110156119145760405162461bcd60e51b81526004018080602001828103825260498152602001806134686049913960600191505060405180910390fd5b836001600160a01b03166306807413826040518263ffffffff1660e01b815260040180828152602001915050600060405180830381600087803b158015611b3857600080fd5b505af1158015611b4c573d6000803e3d6000fd5b50505050826001600160a01b0316639dc29fac83836040518363ffffffff1660e01b815260040180836001600160a01b03166001600160a01b0316815260200182815260200192505050600060405180830381600087803b158015611bb057600080fd5b505af1158015611bc4573d6000803e3d6000fd5b5050505050505050565b6000610ab182670de0b6b3a764000063ffffffff6122de16565b611bf06131f5565b50604080516060810182526004546001600160a01b03908116825260005481166020830152600a541691810191909152611c2861325a565b600260009054906101000a90046001600160a01b03166001600160a01b0316630fdb11cf6040518163ffffffff1660e01b8152600401602060405180830381600087803b158015611c7857600080fd5b505af1158015611c8c573d6000803e3d6000fd5b505050506040513d6020811015611ca257600080fd5b5051808252600090611cb390612338565b90508615611cce57611cc58482612355565b611cce88612a24565b611cd789612a63565b611ce18989612aa9565b8251611ced908b61180a565b336001600160a01b038b161480611d2357506005546001600160a01b031633148015611d195750600034115b8015611d23575087155b611d2957fe5b82600001516001600160a01b0316630b0765578b6040518263ffffffff1660e01b815260040180826001600160a01b03166001600160a01b03168152602001915050600060405180830381600087803b158015611d8557600080fd5b505af1158015611d99573d6000803e3d6000fd5b50505050611da7348a612afb565b15156060840152602083015260408201889052868015611dc5575080155b15611e0057611dde836000015184604001518a876124dd565b61012083018190526040830151611dfa9163ffffffff6122de16565b60408301525b82600001516001600160a01b031663d66a25538b6040518263ffffffff1660e01b815260040180826001600160a01b03166001600160a01b0316815260200191505060206040518083038186803b158015611e5a57600080fd5b505afa158015611e6e573d6000803e3d6000fd5b505050506040513d6020811015611e8457600080fd5b505160808301528251604080516309019aaf60e31b81526001600160a01b038d811660048301529151919092169163480cd578916024808301926020929190829003018186803b158015611ed757600080fd5b505afa158015611eeb573d6000803e3d6000fd5b505050506040513d6020811015611f0157600080fd5b505160a0830181905260808301518351611f1c9291906126d4565b8260c0018181525050611f4c8260a0015183608001518460200151856060015186604001518c8860000151612b1a565b60e083015260a0820151891115611f5f57fe5b611f6b818a8985612b4d565b86158015611f795750600088115b15611fcc57611fa7611fa28360400151611f968560800151612bc1565b9063ffffffff61191716565b61268d565b611fb982608001518360400151612bdb565b611fcc83604001518b8460400151611960565b611fea83600001518b8460200151856060015186604001518c612c31565b610140840152610160830152825160408051630c7940bd60e11b81526001600160a01b038d81166004830152915191909216916318f2817a9160248083019260209291908290030181600087803b15801561204457600080fd5b505af1158015612058573d6000803e3d6000fd5b505050506040513d602081101561206e57600080fd5b505161018083015260a082015160808301516020840151606085015160408601516000946120a2949093909290918d612e91565b600b546040805163015f109360e51b81526001600160a01b038f81166004830152602482018590528b811660448301528a811660648301529151939450911691632be212609160848082019260009290919082900301818387803b15801561210957600080fd5b505af115801561211d573d6000803e3d6000fd5b505050508a6001600160a01b03166000805160206134df83398151915284610140015185610160015186610180015160026040518085815260200184815260200183815260200182600281111561217057fe5b60ff16815260200194505050505060405180910390a2610120830151604080519182525133917fa6c33c96b3256180e556535d65a4848a9e177c91eb5aae806744a63d63234adc919081900360200190a2610a5e8460200151856040015133866020015187606001518e8e8a60400151612ec2565b6001600160a01b038116612240576040805162461bcd60e51b815260206004820152601e60248201527f4163636f756e742063616e6e6f74206265207a65726f20616464726573730000604482015290519081900360640190fd5b803b80610aeb576040805162461bcd60e51b815260206004820181905260248201527f4163636f756e7420636f64652073697a652063616e6e6f74206265207a65726f604482015290519081900360640190fd5b6003546040516000916001600160a01b0316907f8be0079c531659141344cd1fd0a4f28419497f9722a3daafe3b4186f6b6457e0908390a3600380546001600160a01b0319169055565b600082820183811015611959576040805162461bcd60e51b815260206004820152601b60248201527f536166654d6174683a206164646974696f6e206f766572666c6f770000000000604482015290519081900360640190fd5b60008061234483612f7d565b6714d1120d7b160000119392505050565b80156123a757670de0b6b3a76400008211156123a25760405162461bcd60e51b81526004018080602001828103825260328152602001806133cf6032913960400191505060405180910390fd5b610aeb565b6611c37937e0800082108015906123c65750670de0b6b3a76400008211155b610aeb5760405162461bcd60e51b815260040180806020018281038252603081526020018061362c6030913960400191505060405180910390fd5b6000826001600160a01b03166321e37801836040518263ffffffff1660e01b815260040180826001600160a01b03166001600160a01b0316815260200191505060206040518083038186803b15801561245957600080fd5b505afa15801561246d573d6000803e3d6000fd5b505050506040513d602081101561248357600080fd5b505190506001811415610ac8576040805162461bcd60e51b815260206004820152601c60248201527f426f72726f7765724f70733a2054726f76652069732061637469766500000000604482015290519081900360640190fd5b6000846001600160a01b0316635dba4c4a6040518163ffffffff1660e01b8152600401600060405180830381600087803b15801561251a57600080fd5b505af115801561252e573d6000803e3d6000fd5b505050506000856001600160a01b031663631203b0856040518263ffffffff1660e01b81526004018082815260200191505060206040518083038186803b15801561257857600080fd5b505afa15801561258c573d6000803e3d6000fd5b505050506040513d60208110156125a257600080fd5b505190506125b1818585612fa9565b60085460408051632c36f06160e21b81526004810184905290516001600160a01b039092169163b0dbc1849160248082019260009290919082900301818387803b1580156125fe57600080fd5b505af1158015612612573d6000803e3d6000fd5b5050600954604080516340c10f1960e01b81526001600160a01b03928316600482015260248101869052905191891693506340c10f19925060448082019260009290919082900301818387803b15801561266b57600080fd5b505af115801561267f573d6000803e3d6000fd5b509298975050505050505050565b677ce66c50e28400008110156119145760405162461bcd60e51b815260040180806020018281038252603a815260200180613586603a913960400191505060405180910390fd5b600082156127075760006126fe846126f2878663ffffffff61301e16565b9063ffffffff61307716565b91506119599050565b506000199392505050565b6000811561273e57612737826126f28568056bc75e2d6310000063ffffffff61301e16565b9050610ab1565b50600019610ab1565b6714d1120d7b1600008110156119145760405162461bcd60e51b81526004018080602001828103825260378152602001806133986037913960400191505060405180910390fd5b670f43fc2c04ee00008110156119145760405162461bcd60e51b815260040180806020018281038252604981526020018061353d6049913960600191505060405180910390fd5b6040516000906001600160a01b0384169083908381818185875af1925050503d8060008114612820576040519150601f19603f3d011682016040523d82523d6000602084013e612825565b606091505b5050905080610ac85760405162461bcd60e51b815260040180806020018281038252602d8152602001806132c5602d913960400191505060405180910390fd5b846001600160a01b0316637f9856f5826040518263ffffffff1660e01b815260040180828152602001915050600060405180830381600087803b1580156128ab57600080fd5b505af11580156128bf573d6000803e3d6000fd5b50505050836001600160a01b03166340c10f1984846040518363ffffffff1660e01b815260040180836001600160a01b03166001600160a01b0316815260200182815260200192505050600060405180830381600087803b15801561292357600080fd5b505af1158015612937573d6000803e3d6000fd5b505050505050505050565b6005546001600160a01b0316331461298b5760405162461bcd60e51b81526004018080602001828103825260298152602001806136036029913960400191505060405180910390fd5b565b60008184841115612a1c5760405162461bcd60e51b81526004018080602001828103825283818151815260200191508051906020019080838360005b838110156129e15781810151838201526020016129c9565b50505050905090810190601f168015612a0e5780820380516001836020036101000a031916815260200191505b509250505060405180910390fd5b505050900390565b600081116119145760405162461bcd60e51b815260040180806020018281038252603781526020018061365c6037913960400191505060405180910390fd5b341580612a6e575080155b6119145760405162461bcd60e51b815260040180806020018281038252603081526020018061332f6030913960400191505060405180910390fd5b34151580612ab657508115155b80612ac057508015155b610aeb5760405162461bcd60e51b81526004018080602001828103825260468152602001806134016046913960600191505060405180910390fd5b6000808315612b0f57508290506001612b13565b8291505b9250929050565b6000806000612b2d8a8a8a8a8a8a6130b9565b915091506000612b3e8383876126d4565b9b9a5050505050505050505050565b8315612b8657612b5c83613114565b8115612b8157612b6f8160e00151612747565b612b818160e001518260c00151613151565b610f00565b612b938160e0015161278e565b612bb0816020015182606001518360400151858560000151611a20565b6101008201819052610f0090611aab565b6000610ab182670de0b6b3a764000063ffffffff61191716565b612bf382670de0b6b3a764000063ffffffff61191716565b811115610aeb5760405162461bcd60e51b81526004018080602001828103825260438152602001806135c06043913960600191505060405180910390fd5b600080600085612ccc57886001600160a01b031663d3d6f84389896040518363ffffffff1660e01b815260040180836001600160a01b03166001600160a01b0316815260200182815260200192505050602060405180830381600087803b158015612c9b57600080fd5b505af1158015612caf573d6000803e3d6000fd5b505050506040513d6020811015612cc557600080fd5b5051612d59565b886001600160a01b03166372423c1789896040518363ffffffff1660e01b815260040180836001600160a01b03166001600160a01b0316815260200182815260200192505050602060405180830381600087803b158015612d2c57600080fd5b505af1158015612d40573d6000803e3d6000fd5b505050506040513d6020811015612d5657600080fd5b50515b9050600084612df357896001600160a01b03166312610e928a886040518363ffffffff1660e01b815260040180836001600160a01b03166001600160a01b0316815260200182815260200192505050602060405180830381600087803b158015612dc257600080fd5b505af1158015612dd6573d6000803e3d6000fd5b505050506040513d6020811015612dec57600080fd5b5051612e80565b896001600160a01b0316639976cf458a886040518363ffffffff1660e01b815260040180836001600160a01b03166001600160a01b0316815260200182815260200192505050602060405180830381600087803b158015612e5357600080fd5b505af1158015612e67573d6000803e3d6000fd5b505050506040513d6020811015612e7d57600080fd5b50515b919a91995090975050505050505050565b6000806000612ea48989898989896130b9565b915091506000612eb48383612712565b9a9950505050505050505050565b8115612eda57612ed58888888685612865565b612ee6565b612ee688888886611af2565b8315612efb57612ef688866127d5565b611bc4565b876001600160a01b03166364a197f387876040518363ffffffff1660e01b815260040180836001600160a01b03166001600160a01b0316815260200182815260200192505050600060405180830381600087803b158015612f5b57600080fd5b505af1158015612f6f573d6000803e3d6000fd5b505050505050505050505050565b600080612f88611665565b90506000612f94610f21565b9050612fa18282866126d4565b949350505050565b6000612fc7836126f286670de0b6b3a764000063ffffffff61301e16565b905081811115610f00576040805162461bcd60e51b815260206004820152601d60248201527f4665652065786365656465642070726f7669646564206d6178696d756d000000604482015290519081900360640190fd5b60008261302d57506000610ab1565b8282028284828161303a57fe5b04146119595760405162461bcd60e51b81526004018080602001828103825260218152602001806134476021913960400191505060405180910390fd5b600061195983836040518060400160405280601a81526020017f536166654d6174683a206469766973696f6e206279207a65726f000000000000815250613190565b6000808787866130d8576130d38a8963ffffffff61191716565b6130e8565b6130e88a8963ffffffff6122de16565b915084613104576130ff898763ffffffff61191716565b612e80565b612e80898763ffffffff6122de16565b80156119145760405162461bcd60e51b815260040180806020018281038252603e8152602001806134ff603e913960400191505060405180910390fd5b80821015610aeb5760405162461bcd60e51b815260040180806020018281038252603e815260200180613693603e913960400191505060405180910390fd5b600081836131df5760405162461bcd60e51b81526020600482018181528351602484015283519092839260449091019190850190808383600083156129e15781810151838201526020016129c9565b5060008385816131eb57fe5b0495945050505050565b604080516060810182526000808252602082018190529181019190915290565b60405180610100016040528060008152602001600081526020016000815260200160008152602001600081526020016000815260200160008152602001600081525090565b604051806101a00160405280600081526020016000815260200160008152602001600015158152602001600081526020016000815260200160008152602001600081526020016000815260200160008152602001600081526020016000815260200160008152509056fe426f72726f7765724f70733a2053656e64696e672045544820746f20416374697665506f6f6c206661696c6564426f72726f7765724f70733a2043616c6c657220646f65736e74206861766520656e6f756768205553444820746f206d616b652072657061796d656e74426f72726f7765724f7065726174696f6e733a2043616e6e6f7420776974686472617720616e642061646420636f6c6c426f72726f7765724f70733a204f7065726174696f6e206e6f74207065726d697474656420647572696e67205265636f76657279204d6f6465426f72726f7765724f70733a204f7065726174696f6e206d757374206c656176652074726f7665207769746820494352203e3d204343524d6178206665652070657263656e74616765206d757374206c657373207468616e206f7220657175616c20746f2031303025426f72726f7765724f70733a205468657265206d75737420626520656974686572206120636f6c6c61746572616c206368616e6765206f7220612064656274206368616e6765536166654d6174683a206d756c7469706c69636174696f6e206f766572666c6f77426f72726f7765724f70733a20416e206f7065726174696f6e207468617420776f756c6420726573756c7420696e20544352203c20434352206973206e6f74207065726d6974746564426f72726f7765724f70733a2054726f766520646f6573206e6f74206578697374206f7220697320636c6f736564c3770d654ed33aeea6bf11ac8ef05d02a6a04ed4686dd2f624d853bbec43cc8b426f72726f7765724f70733a20436f6c6c61746572616c207769746864726177616c206e6f74207065726d6974746564205265636f76657279204d6f6465426f72726f7765724f70733a20416e206f7065726174696f6e207468617420776f756c6420726573756c7420696e20494352203c204d4352206973206e6f74207065726d6974746564426f72726f7765724f70733a2054726f76652773206e65742064656274206d7573742062652067726561746572207468616e206d696e696d756d426f72726f7765724f70733a20416d6f756e7420726570616964206d757374206e6f74206265206c6172676572207468616e207468652054726f766527732064656274426f72726f7765724f70733a2043616c6c6572206973206e6f742053746162696c69747920506f6f6c4d6178206665652070657263656e74616765206d757374206265206265747765656e20302e352520616e642031303025426f72726f7765724f70733a204465627420696e637265617365207265717569726573206e6f6e2d7a65726f20646562744368616e6765426f72726f7765724f70733a2043616e6e6f7420646563726561736520796f75722054726f766527732049435220696e205265636f76657279204d6f6465a264697066735822122099af9998e4435a91d4ef7ed63724028512c5aaa5a2ca73958a6aced701cb884a64736f6c634300060b0033",
  "linkReferences": {},
  "deployedLinkReferences": {}
}