{
  "_format": "hh-sol-artifact-1",
  "contractName": "CommunityIssuanceTester",
  "sourceName": "contracts/TestContracts/CommunityIssuanceTester.sol",
  "abi": [
    {
      "anonymous": false,
      "inputs": [
        {
          "indexed": false,
          "internalType": "address",
          "name": "_halalTokenAddress",
          "type": "address"
        }
      ],
      "name": "HALALTokenAddressSet",
      "type": "event"
    },
    {
      "anonymous": false,
      "inputs": [
        {
          "indexed": true,
          "internalType": "address",
          "name": "previousOwner",
          "type": "address"
        },
        {
          "indexed": true,
          "internalType": "address",
          "name": "newOwner",
          "type": "address"
        }
      ],
      "name": "OwnershipTransferred",
      "type": "event"
    },
    {
      "anonymous": false,
      "inputs": [
        {
          "indexed": false,
          "internalType": "address",
          "name": "_stabilityPoolAddress",
          "type": "address"
        }
      ],
      "name": "StabilityPoolAddressSet",
      "type": "event"
    },
    {
      "anonymous": false,
      "inputs": [
        {
          "indexed": false,
          "internalType": "uint256",
          "name": "_totalHALALIssued",
          "type": "uint256"
        }
      ],
      "name": "TotalHALALIssuedUpdated",
      "type": "event"
    },
    {
      "inputs": [],
      "name": "DECIMAL_PRECISION",
      "outputs": [
        {
          "internalType": "uint256",
          "name": "",
          "type": "uint256"
        }
      ],
      "stateMutability": "view",
      "type": "function"
    },
    {
      "inputs": [],
      "name": "HALALSupplyCap",
      "outputs": [
        {
          "internalType": "uint256",
          "name": "",
          "type": "uint256"
        }
      ],
      "stateMutability": "view",
      "type": "function"
    },
    {
      "inputs": [],
      "name": "ISSUANCE_FACTOR",
      "outputs": [
        {
          "internalType": "uint256",
          "name": "",
          "type": "uint256"
        }
      ],
      "stateMutability": "view",
      "type": "function"
    },
    {
      "inputs": [],
      "name": "NAME",
      "outputs": [
        {
          "internalType": "string",
          "name": "",
          "type": "string"
        }
      ],
      "stateMutability": "view",
      "type": "function"
    },
    {
      "inputs": [],
      "name": "SECONDS_IN_ONE_MINUTE",
      "outputs": [
        {
          "internalType": "uint256",
          "name": "",
          "type": "uint256"
        }
      ],
      "stateMutability": "view",
      "type": "function"
    },
    {
      "inputs": [],
      "name": "deploymentTime",
      "outputs": [
        {
          "internalType": "uint256",
          "name": "",
          "type": "uint256"
        }
      ],
      "stateMutability": "view",
      "type": "function"
    },
    {
      "inputs": [],
      "name": "getCumulativeIssuanceFraction",
      "outputs": [
        {
          "internalType": "uint256",
          "name": "",
          "type": "uint256"
        }
      ],
      "stateMutability": "view",
      "type": "function"
    },
    {
      "inputs": [],
      "name": "halalToken",
      "outputs": [
        {
          "internalType": "contract IHALALToken",
          "name": "",
          "type": "address"
        }
      ],
      "stateMutability": "view",
      "type": "function"
    },
    {
      "inputs": [],
      "name": "isOwner",
      "outputs": [
        {
          "internalType": "bool",
          "name": "",
          "type": "bool"
        }
      ],
      "stateMutability": "view",
      "type": "function"
    },
    {
      "inputs": [],
      "name": "issueHALAL",
      "outputs": [
        {
          "internalType": "uint256",
          "name": "",
          "type": "uint256"
        }
      ],
      "stateMutability": "nonpayable",
      "type": "function"
    },
    {
      "inputs": [
        {
          "internalType": "uint256",
          "name": "_amount",
          "type": "uint256"
        }
      ],
      "name": "obtainHALAL",
      "outputs": [],
      "stateMutability": "nonpayable",
      "type": "function"
    },
    {
      "inputs": [],
      "name": "owner",
      "outputs": [
        {
          "internalType": "address",
          "name": "",
          "type": "address"
        }
      ],
      "stateMutability": "view",
      "type": "function"
    },
    {
      "inputs": [
        {
          "internalType": "address",
          "name": "_account",
          "type": "address"
        },
        {
          "internalType": "uint256",
          "name": "_HALALamount",
          "type": "uint256"
        }
      ],
      "name": "sendHALAL",
      "outputs": [],
      "stateMutability": "nonpayable",
      "type": "function"
    },
    {
      "inputs": [
        {
          "internalType": "address",
          "name": "_halalTokenAddress",
          "type": "address"
        },
        {
          "internalType": "address",
          "name": "_stabilityPoolAddress",
          "type": "address"
        }
      ],
      "name": "setAddresses",
      "outputs": [],
      "stateMutability": "nonpayable",
      "type": "function"
    },
    {
      "inputs": [],
      "name": "stabilityPoolAddress",
      "outputs": [
        {
          "internalType": "address",
          "name": "",
          "type": "address"
        }
      ],
      "stateMutability": "view",
      "type": "function"
    },
    {
      "inputs": [],
      "name": "totalHALALIssued",
      "outputs": [
        {
          "internalType": "uint256",
          "name": "",
          "type": "uint256"
        }
      ],
      "stateMutability": "view",
      "type": "function"
    },
    {
      "inputs": [],
      "name": "unprotectedIssueHALAL",
      "outputs": [
        {
          "internalType": "uint256",
          "name": "",
          "type": "uint256"
        }
      ],
      "stateMutability": "nonpayable",
      "type": "function"
    }
  ],
  "bytecode": "0x60a060405234801561001057600080fd5b50600080546001600160a01b0319163390811782556040519091907f8be0079c531659141344cd1fd0a4f28419497f9722a3daafe3b4186f6b6457e0908290a342608052608051610c66610073600039806106d1528061074c5250610c666000f3fe608060405234801561001057600080fd5b50600436106100eb5760003560e01c806390107afe1161009257806390107afe146101985780639102ebac146101c657806392fc44a0146101ce5780639d5b044d146101d6578063a1ad3a9b146101de578063a20baee6146101fb578063a3f4df7e14610203578063cc0aa38b14610280578063ecda10f514610288576100eb565b80630b622ab2146100f05780630fc83da3146101145780631d2e76df1461012e57806334de26161461015c5780634fbd368e1461016457806361ec893d1461016c5780638da5cb5b146101745780638f32d59b1461017c575b600080fd5b6100f8610290565b604080516001600160a01b039092168252519081900360200190f35b61011c61029f565b60408051918252519081900360200190f35b61015a6004803603604081101561014457600080fd5b506001600160a01b0381351690602001356102ab565b005b61011c610339565b61011c6103db565b61011c6103ea565b6100f86103ef565b6101846103fe565b604080519115158252519081900360200190f35b61015a600480360360408110156101ae57600080fd5b506001600160a01b038135811691602001351661040f565b61011c6105b5565b61011c6105bb565b61011c6105fa565b61015a600480360360208110156101f457600080fd5b5035610609565b61011c610687565b61020b610693565b6040805160208082528351818301528351919283929083019185019080838360005b8381101561024557818101518382015260200161022d565b50505050905090810190601f1680156102725780820380516001836020036101000a031916815260200191505b509250505060405180910390f35b6100f86106c0565b61011c6106cf565b6002546001600160a01b031681565b670de0b5809a6f939881565b6102b36106f3565b6001546040805163a9059cbb60e01b81526001600160a01b038581166004830152602482018590529151919092169163a9059cbb9160448083019260209291908290030181600087803b15801561030957600080fd5b505af115801561031d573d6000803e3d6000fd5b505050506040513d602081101561033357600080fd5b50505050565b60006103436106f3565b6000610380670de0b6b3a764000061037461035c61073e565b6a1a784379d99db4200000009063ffffffff6107c316565b9063ffffffff61082516565b905060006103996003548361086790919063ffffffff16565b60038390556040805184815290519192507f6f2d8fd221f792fc29f0fbee211c5b5560cd3180ebb523d8ff139d6ae88c36cd919081900360200190a191505090565b6a1a784379d99db42000000081565b603c81565b6000546001600160a01b031690565b6000546001600160a01b0316331490565b6104176103fe565b610468576040805162461bcd60e51b815260206004820181905260248201527f4f776e61626c653a2063616c6c6572206973206e6f7420746865206f776e6572604482015290519081900360640190fd5b610471826108a9565b61047a816108a9565b600180546001600160a01b038085166001600160a01b0319928316179283905560028054858316931692909217909155604080516370a0823160e01b81523060048201529051600093909216916370a0823191602480820192602092909190829003018186803b1580156104ed57600080fd5b505afa158015610501573d6000803e3d6000fd5b505050506040513d602081101561051757600080fd5b505190506a1a784379d99db42000000081101561053057fe5b604080516001600160a01b038516815290517f879192e61e931d886ef223451d244ecee9cfbcd3f4154597823632897569cb3d9181900360200190a1604080516001600160a01b038416815290517f45c53611bc8ba9e11f4f8173bda9e3faf89c395ddb83f9a55230b156828db3159181900360200190a16105b061095c565b505050565b60035481565b6000806105d5670de0b6b3a764000061037461035c61073e565b905060006105ee6003548361086790919063ffffffff16565b60039290925550905090565b600061060461073e565b905090565b6001546040805163a9059cbb60e01b81523360048201526024810184905290516001600160a01b039092169163a9059cbb916044808201926020929091908290030181600087803b15801561065d57600080fd5b505af1158015610671573d6000803e3d6000fd5b505050506040513d60208110156105b057600080fd5b670de0b6b3a764000081565b60405180604001604052806011815260200170436f6d6d756e69747949737375616e636560781b81525081565b6001546001600160a01b031681565b7f000000000000000000000000000000000000000000000000000000000000000081565b6002546001600160a01b0316331461073c5760405162461bcd60e51b8152600401808060200182810382526023815260200180610c0e6023913960400191505060405180910390fd5b565b600080610776603c610374427f000000000000000000000000000000000000000000000000000000000000000063ffffffff61086716565b9050600061078c670de0b5809a6f9398836109a6565b905060006107a8670de0b6b3a76400008363ffffffff61086716565b9050670de0b6b3a76400008111156107bc57fe5b9250505090565b6000826107d25750600061081f565b828202828482816107df57fe5b041461081c5760405162461bcd60e51b8152600401808060200182810382526021815260200180610bed6021913960400191505060405180910390fd5b90505b92915050565b600061081c83836040518060400160405280601a81526020017f536166654d6174683a206469766973696f6e206279207a65726f000000000000815250610a5b565b600061081c83836040518060400160405280601e81526020017f536166654d6174683a207375627472616374696f6e206f766572666c6f770000815250610afd565b6001600160a01b038116610904576040805162461bcd60e51b815260206004820152601e60248201527f4163636f756e742063616e6e6f74206265207a65726f20616464726573730000604482015290519081900360640190fd5b803b80610958576040805162461bcd60e51b815260206004820181905260248201527f4163636f756e7420636f64652073697a652063616e6e6f74206265207a65726f604482015290519081900360640190fd5b5050565b600080546040516001600160a01b03909116907f8be0079c531659141344cd1fd0a4f28419497f9722a3daafe3b4186f6b6457e0908390a3600080546001600160a01b0319169055565b6000631f5405008211156109bc57631f54050091505b816109d05750670de0b6b3a764000061081f565b670de0b6b3a764000083835b6001811115610a475760028106610a11576109f78283610b57565b9150610a0a81600263ffffffff61082516565b9050610a42565b610a1b8284610b57565b9250610a278283610b57565b9150610a3f600261037483600163ffffffff61086716565b90505b6109dc565b610a518284610b57565b9695505050505050565b60008183610ae75760405162461bcd60e51b81526004018080602001828103825283818151815260200191508051906020019080838360005b83811015610aac578181015183820152602001610a94565b50505050905090810190601f168015610ad95780820380516001836020036101000a031916815260200191505b509250505060405180910390fd5b506000838581610af357fe5b0495945050505050565b60008184841115610b4f5760405162461bcd60e51b8152602060048201818152835160248401528351909283926044909101919085019080838360008315610aac578181015183820152602001610a94565b505050900390565b600080610b6a848463ffffffff6107c316565b9050610b8a670de0b6b3a7640000610374836706f05b59d3b20000610b92565b949350505050565b60008282018381101561081c576040805162461bcd60e51b815260206004820152601b60248201527f536166654d6174683a206164646974696f6e206f766572666c6f770000000000604482015290519081900360640190fdfe536166654d6174683a206d756c7469706c69636174696f6e206f766572666c6f77436f6d6d756e69747949737375616e63653a2063616c6c6572206973206e6f74205350a2646970667358221220eddb05462f0604b813b34832dbf16ed595d98daadd8f984741b141abf46fe1e064736f6c634300060b0033",
  "linkReferences": {},
  "deployedLinkReferences": {}
}