{
  "_format": "hh-sol-artifact-1",
  "contractName": "EchidnaTester",
  "sourceName": "contracts/TestContracts/EchidnaTester.sol",
  "abi": [
    {
      "inputs": [],
      "stateMutability": "payable",
      "type": "constructor"
    },
    {
      "inputs": [],
      "name": "activePool",
      "outputs": [
        {
          "internalType": "contract ActivePool",
          "name": "",
          "type": "address"
        }
      ],
      "stateMutability": "view",
      "type": "function"
    },
    {
      "inputs": [
        {
          "internalType": "uint256",
          "name": "_i",
          "type": "uint256"
        },
        {
          "internalType": "uint256",
          "name": "_ETH",
          "type": "uint256"
        }
      ],
      "name": "addCollExt",
      "outputs": [],
      "stateMutability": "payable",
      "type": "function"
    },
    {
      "inputs": [
        {
          "internalType": "uint256",
          "name": "_i",
          "type": "uint256"
        },
        {
          "internalType": "uint256",
          "name": "_ETH",
          "type": "uint256"
        },
        {
          "internalType": "address",
          "name": "_upperHint",
          "type": "address"
        },
        {
          "internalType": "address",
          "name": "_lowerHint",
          "type": "address"
        }
      ],
      "name": "addCollRawExt",
      "outputs": [],
      "stateMutability": "payable",
      "type": "function"
    },
    {
      "inputs": [
        {
          "internalType": "uint256",
          "name": "_i",
          "type": "uint256"
        },
        {
          "internalType": "uint256",
          "name": "_ETH",
          "type": "uint256"
        },
        {
          "internalType": "uint256",
          "name": "_collWithdrawal",
          "type": "uint256"
        },
        {
          "internalType": "uint256",
          "name": "_debtChange",
          "type": "uint256"
        },
        {
          "internalType": "bool",
          "name": "_isDebtIncrease",
          "type": "bool"
        }
      ],
      "name": "adjustTroveExt",
      "outputs": [],
      "stateMutability": "payable",
      "type": "function"
    },
    {
      "inputs": [
        {
          "internalType": "uint256",
          "name": "_i",
          "type": "uint256"
        },
        {
          "internalType": "uint256",
          "name": "_ETH",
          "type": "uint256"
        },
        {
          "internalType": "uint256",
          "name": "_collWithdrawal",
          "type": "uint256"
        },
        {
          "internalType": "uint256",
          "name": "_debtChange",
          "type": "uint256"
        },
        {
          "internalType": "bool",
          "name": "_isDebtIncrease",
          "type": "bool"
        },
        {
          "internalType": "address",
          "name": "_upperHint",
          "type": "address"
        },
        {
          "internalType": "address",
          "name": "_lowerHint",
          "type": "address"
        },
        {
          "internalType": "uint256",
          "name": "_maxFee",
          "type": "uint256"
        }
      ],
      "name": "adjustTroveRawExt",
      "outputs": [],
      "stateMutability": "payable",
      "type": "function"
    },
    {
      "inputs": [
        {
          "internalType": "uint256",
          "name": "_i",
          "type": "uint256"
        },
        {
          "internalType": "address",
          "name": "spender",
          "type": "address"
        },
        {
          "internalType": "uint256",
          "name": "amount",
          "type": "uint256"
        }
      ],
      "name": "approveExt",
      "outputs": [
        {
          "internalType": "bool",
          "name": "",
          "type": "bool"
        }
      ],
      "stateMutability": "nonpayable",
      "type": "function"
    },
    {
      "inputs": [
        {
          "internalType": "uint256",
          "name": "_i",
          "type": "uint256"
        },
        {
          "internalType": "address[]",
          "name": "_troveArray",
          "type": "address[]"
        }
      ],
      "name": "batchLiquidateTrovesExt",
      "outputs": [],
      "stateMutability": "nonpayable",
      "type": "function"
    },
    {
      "inputs": [],
      "name": "borrowerOperations",
      "outputs": [
        {
          "internalType": "contract BorrowerOperations",
          "name": "",
          "type": "address"
        }
      ],
      "stateMutability": "view",
      "type": "function"
    },
    {
      "inputs": [
        {
          "internalType": "uint256",
          "name": "_i",
          "type": "uint256"
        }
      ],
      "name": "closeTroveExt",
      "outputs": [],
      "stateMutability": "nonpayable",
      "type": "function"
    },
    {
      "inputs": [],
      "name": "collSurplusPool",
      "outputs": [
        {
          "internalType": "contract CollSurplusPool",
          "name": "",
          "type": "address"
        }
      ],
      "stateMutability": "view",
      "type": "function"
    },
    {
      "inputs": [
        {
          "internalType": "uint256",
          "name": "_i",
          "type": "uint256"
        },
        {
          "internalType": "address",
          "name": "spender",
          "type": "address"
        },
        {
          "internalType": "uint256",
          "name": "subtractedValue",
          "type": "uint256"
        }
      ],
      "name": "decreaseAllowanceExt",
      "outputs": [
        {
          "internalType": "bool",
          "name": "",
          "type": "bool"
        }
      ],
      "stateMutability": "nonpayable",
      "type": "function"
    },
    {
      "inputs": [],
      "name": "defaultPool",
      "outputs": [
        {
          "internalType": "contract DefaultPool",
          "name": "",
          "type": "address"
        }
      ],
      "stateMutability": "view",
      "type": "function"
    },
    {
      "inputs": [
        {
          "internalType": "uint256",
          "name": "",
          "type": "uint256"
        }
      ],
      "name": "echidnaProxies",
      "outputs": [
        {
          "internalType": "contract EchidnaProxy",
          "name": "",
          "type": "address"
        }
      ],
      "stateMutability": "view",
      "type": "function"
    },
    {
      "inputs": [],
      "name": "echidna_ETH_balances",
      "outputs": [
        {
          "internalType": "bool",
          "name": "",
          "type": "bool"
        }
      ],
      "stateMutability": "view",
      "type": "function"
    },
    {
      "inputs": [],
      "name": "echidna_USDH_global_balances",
      "outputs": [
        {
          "internalType": "bool",
          "name": "",
          "type": "bool"
        }
      ],
      "stateMutability": "view",
      "type": "function"
    },
    {
      "inputs": [],
      "name": "echidna_canary_active_pool_balance",
      "outputs": [
        {
          "internalType": "bool",
          "name": "",
          "type": "bool"
        }
      ],
      "stateMutability": "view",
      "type": "function"
    },
    {
      "inputs": [],
      "name": "echidna_canary_number_of_troves",
      "outputs": [
        {
          "internalType": "bool",
          "name": "",
          "type": "bool"
        }
      ],
      "stateMutability": "view",
      "type": "function"
    },
    {
      "inputs": [],
      "name": "echidna_price",
      "outputs": [
        {
          "internalType": "bool",
          "name": "",
          "type": "bool"
        }
      ],
      "stateMutability": "view",
      "type": "function"
    },
    {
      "inputs": [],
      "name": "echidna_trove_properties",
      "outputs": [
        {
          "internalType": "bool",
          "name": "",
          "type": "bool"
        }
      ],
      "stateMutability": "view",
      "type": "function"
    },
    {
      "inputs": [],
      "name": "echidna_troves_order",
      "outputs": [
        {
          "internalType": "bool",
          "name": "",
          "type": "bool"
        }
      ],
      "stateMutability": "view",
      "type": "function"
    },
    {
      "inputs": [],
      "name": "gasPool",
      "outputs": [
        {
          "internalType": "contract GasPool",
          "name": "",
          "type": "address"
        }
      ],
      "stateMutability": "view",
      "type": "function"
    },
    {
      "inputs": [
        {
          "internalType": "uint256",
          "name": "_i",
          "type": "uint256"
        },
        {
          "internalType": "address",
          "name": "spender",
          "type": "address"
        },
        {
          "internalType": "uint256",
          "name": "addedValue",
          "type": "uint256"
        }
      ],
      "name": "increaseAllowanceExt",
      "outputs": [
        {
          "internalType": "bool",
          "name": "",
          "type": "bool"
        }
      ],
      "stateMutability": "nonpayable",
      "type": "function"
    },
    {
      "inputs": [
        {
          "internalType": "uint256",
          "name": "_i",
          "type": "uint256"
        },
        {
          "internalType": "address",
          "name": "_user",
          "type": "address"
        }
      ],
      "name": "liquidateExt",
      "outputs": [],
      "stateMutability": "nonpayable",
      "type": "function"
    },
    {
      "inputs": [
        {
          "internalType": "uint256",
          "name": "_i",
          "type": "uint256"
        },
        {
          "internalType": "uint256",
          "name": "_n",
          "type": "uint256"
        }
      ],
      "name": "liquidateTrovesExt",
      "outputs": [],
      "stateMutability": "nonpayable",
      "type": "function"
    },
    {
      "inputs": [
        {
          "internalType": "uint256",
          "name": "_i",
          "type": "uint256"
        },
        {
          "internalType": "uint256",
          "name": "_ETH",
          "type": "uint256"
        },
        {
          "internalType": "uint256",
          "name": "_USDHAmount",
          "type": "uint256"
        }
      ],
      "name": "openTroveExt",
      "outputs": [],
      "stateMutability": "payable",
      "type": "function"
    },
    {
      "inputs": [
        {
          "internalType": "uint256",
          "name": "_i",
          "type": "uint256"
        },
        {
          "internalType": "uint256",
          "name": "_ETH",
          "type": "uint256"
        },
        {
          "internalType": "uint256",
          "name": "_USDHAmount",
          "type": "uint256"
        },
        {
          "internalType": "address",
          "name": "_upperHint",
          "type": "address"
        },
        {
          "internalType": "address",
          "name": "_lowerHint",
          "type": "address"
        },
        {
          "internalType": "uint256",
          "name": "_maxFee",
          "type": "uint256"
        }
      ],
      "name": "openTroveRawExt",
      "outputs": [],
      "stateMutability": "payable",
      "type": "function"
    },
    {
      "inputs": [
        {
          "internalType": "uint256",
          "name": "_i",
          "type": "uint256"
        },
        {
          "internalType": "uint256",
          "name": "_amount",
          "type": "uint256"
        },
        {
          "internalType": "address",
          "name": "_frontEndTag",
          "type": "address"
        }
      ],
      "name": "provideToSPExt",
      "outputs": [],
      "stateMutability": "nonpayable",
      "type": "function"
    },
    {
      "inputs": [
        {
          "internalType": "uint256",
          "name": "_i",
          "type": "uint256"
        },
        {
          "internalType": "uint256",
          "name": "_USDHAmount",
          "type": "uint256"
        },
        {
          "internalType": "address",
          "name": "_firstRedemptionHint",
          "type": "address"
        },
        {
          "internalType": "address",
          "name": "_upperPartialRedemptionHint",
          "type": "address"
        },
        {
          "internalType": "address",
          "name": "_lowerPartialRedemptionHint",
          "type": "address"
        },
        {
          "internalType": "uint256",
          "name": "_partialRedemptionHintNICR",
          "type": "uint256"
        }
      ],
      "name": "redeemCollateralExt",
      "outputs": [],
      "stateMutability": "nonpayable",
      "type": "function"
    },
    {
      "inputs": [
        {
          "internalType": "uint256",
          "name": "_i",
          "type": "uint256"
        },
        {
          "internalType": "uint256",
          "name": "_amount",
          "type": "uint256"
        },
        {
          "internalType": "address",
          "name": "_upperHint",
          "type": "address"
        },
        {
          "internalType": "address",
          "name": "_lowerHint",
          "type": "address"
        }
      ],
      "name": "repayUSDHExt",
      "outputs": [],
      "stateMutability": "nonpayable",
      "type": "function"
    },
    {
      "inputs": [
        {
          "internalType": "uint256",
          "name": "_price",
          "type": "uint256"
        }
      ],
      "name": "setPriceExt",
      "outputs": [],
      "stateMutability": "nonpayable",
      "type": "function"
    },
    {
      "inputs": [],
      "name": "stabilityPool",
      "outputs": [
        {
          "internalType": "contract StabilityPool",
          "name": "",
          "type": "address"
        }
      ],
      "stateMutability": "view",
      "type": "function"
    },
    {
      "inputs": [
        {
          "internalType": "uint256",
          "name": "_i",
          "type": "uint256"
        },
        {
          "internalType": "address",
          "name": "recipient",
          "type": "address"
        },
        {
          "internalType": "uint256",
          "name": "amount",
          "type": "uint256"
        }
      ],
      "name": "transferExt",
      "outputs": [
        {
          "internalType": "bool",
          "name": "",
          "type": "bool"
        }
      ],
      "stateMutability": "nonpayable",
      "type": "function"
    },
    {
      "inputs": [
        {
          "internalType": "uint256",
          "name": "_i",
          "type": "uint256"
        },
        {
          "internalType": "address",
          "name": "sender",
          "type": "address"
        },
        {
          "internalType": "address",
          "name": "recipient",
          "type": "address"
        },
        {
          "internalType": "uint256",
          "name": "amount",
          "type": "uint256"
        }
      ],
      "name": "transferFromExt",
      "outputs": [
        {
          "internalType": "bool",
          "name": "",
          "type": "bool"
        }
      ],
      "stateMutability": "nonpayable",
      "type": "function"
    },
    {
      "inputs": [],
      "name": "troveManager",
      "outputs": [
        {
          "internalType": "contract TroveManager",
          "name": "",
          "type": "address"
        }
      ],
      "stateMutability": "view",
      "type": "function"
    },
    {
      "inputs": [],
      "name": "usdhToken",
      "outputs": [
        {
          "internalType": "contract USDHToken",
          "name": "",
          "type": "address"
        }
      ],
      "stateMutability": "view",
      "type": "function"
    },
    {
      "inputs": [
        {
          "internalType": "uint256",
          "name": "_i",
          "type": "uint256"
        },
        {
          "internalType": "uint256",
          "name": "_amount",
          "type": "uint256"
        },
        {
          "internalType": "address",
          "name": "_upperHint",
          "type": "address"
        },
        {
          "internalType": "address",
          "name": "_lowerHint",
          "type": "address"
        }
      ],
      "name": "withdrawCollExt",
      "outputs": [],
      "stateMutability": "nonpayable",
      "type": "function"
    },
    {
      "inputs": [
        {
          "internalType": "uint256",
          "name": "_i",
          "type": "uint256"
        },
        {
          "internalType": "uint256",
          "name": "_amount",
          "type": "uint256"
        }
      ],
      "name": "withdrawFromSPExt",
      "outputs": [],
      "stateMutability": "nonpayable",
      "type": "function"
    },
    {
      "inputs": [
        {
          "internalType": "uint256",
          "name": "_i",
          "type": "uint256"
        },
        {
          "internalType": "uint256",
          "name": "_amount",
          "type": "uint256"
        },
        {
          "internalType": "address",
          "name": "_upperHint",
          "type": "address"
        },
        {
          "internalType": "address",
          "name": "_lowerHint",
          "type": "address"
        },
        {
          "internalType": "uint256",
          "name": "_maxFee",
          "type": "uint256"
        }
      ],
      "name": "withdrawUSDHExt",
      "outputs": [],
      "stateMutability": "nonpayable",
      "type": "function"
    }
  ],
  "bytecode": "0x6080604052604051620000129062000ab0565b604051809103906000f0801580156200002f573d6000803e3d6000fd5b50600380546001600160a01b0319166001600160a01b03929092169190911790556040516200005e9062000abe565b604051809103906000f0801580156200007b573d6000803e3d6000fd5b50600480546001600160a01b0319166001600160a01b0392909216919091179055604051620000aa9062000acc565b604051809103906000f080158015620000c7573d6000803e3d6000fd5b50600580546001600160a01b0319166001600160a01b0392909216919091179055604051620000f69062000ada565b604051809103906000f08015801562000113573d6000803e3d6000fd5b50600680546001600160a01b0319166001600160a01b0392909216919091179055604051620001429062000ae8565b604051809103906000f0801580156200015f573d6000803e3d6000fd5b50600780546001600160a01b0319166001600160a01b03929092169190911790556040516200018e9062000af6565b604051809103906000f080158015620001ab573d6000803e3d6000fd5b50600880546001600160a01b0319166001600160a01b039283161790556003546007546004546040519284169391821692911690620001ea9062000b03565b6001600160a01b03938416815291831660208301529091166040808301919091525190819003606001906000f0801580156200022a573d6000803e3d6000fd5b50600a80546001600160a01b0319166001600160a01b0392909216919091179055604051620002599062000b11565b604051809103906000f08015801562000276573d6000803e3d6000fd5b50600980546001600160a01b0319166001600160a01b0392909216919091179055604051620002a59062000b1f565b604051809103906000f080158015620002c2573d6000803e3d6000fd5b50600b80546001600160a01b0319166001600160a01b0392909216919091179055604051620002f19062000b2d565b604051809103906000f0801580156200030e573d6000803e3d6000fd5b50600c80546001600160a01b0319166001600160a01b03928316179081905560035460048054600554600654600754600854600954600b54600a5460408051631e61717960e21b8152988d1699890199909952958b166024880152938a166044870152918916606486015288166084850152871660a4840152861660c4830152851660e482015292841661010484015260006101248401819052610144840181905290519190931692637985c5e492610164808201939182900301818387803b158015620003db57600080fd5b505af1158015620003f0573d6000803e3d6000fd5b505060048054600354600554600654600754600854600954600b54600c54600a5460408051636c37a4af60e01b81526001600160a01b039a8b169c81019c909c5297891660248c015295881660448b015293871660648a01529186166084890152851660a4880152841660c4870152831660e48601528216610104850152600061012485018190529051919092169450636c37a4af93506101448084019382900301818387803b158015620004a457600080fd5b505af1158015620004b9573d6000803e3d6000fd5b50506005546004805460035460075460065460408051634a945f8d60e01b81526001600160a01b039586169681019690965292841660248601529083166044850152821660648401525192169350634a945f8d925060848082019260009290919082900301818387803b1580156200053057600080fd5b505af115801562000545573d6000803e3d6000fd5b5050600654600354600554604080516348083d7f60e11b81526001600160a01b0393841660048201529183166024830152519190921693506390107afe9250604480830192600092919082900301818387803b158015620005a557600080fd5b505af1158015620005ba573d6000803e3d6000fd5b505060075460048054600354600554600a54600c54600b546040805163eaa8ba7f60e01b81526001600160a01b039788169881019890985294861660248801529285166044870152908416606486015283166084850152821660a4840152600060c48401819052905191909316945063eaa8ba7f935060e4808301939282900301818387803b1580156200064d57600080fd5b505af115801562000662573d6000803e3d6000fd5b50506009546004805460035460055460408051630d8efe5960e21b81526001600160a01b0394851695810195909552918316602485015282166044840152519216935063363bf964925060648082019260009290919082900301818387803b158015620006ce57600080fd5b505af1158015620006e3573d6000803e3d6000fd5b5050600c546003546004805460408051631e6edaf360e31b8152670de0b6b3a7640000938101939093526001600160a01b03938416602484015290831660448301525191909216935063f376d7989250606480830192600092919082900301818387803b1580156200075457600080fd5b505af115801562000769573d6000803e3d6000fd5b506000925050505b6064811015620008a957600354600454600754600a546040516001600160a01b0394851694938416939283169290911690620007ad9062000b3b565b6001600160a01b039485168152928416602084015290831660408084019190915292166060820152905190819003608001906000f080158015620007f5573d6000803e3d6000fd5b50600d82606481106200080457fe5b0180546001600160a01b0319166001600160a01b03929092169190911790556000600d82606481106200083357fe5b01546040516001600160a01b039091169069d3c21bcecceda100000090600081818185875af1925050503d80600081146200088b576040519150601f19603f3d011682016040523d82523d6000602084013e62000890565b606091505b50509050806200089f57600080fd5b5060010162000771565b506004805460408051631e5395c960e21b815290516001600160a01b039092169263794e5724928282019260209290829003018186803b158015620008ed57600080fd5b505afa15801562000902573d6000803e3d6000fd5b505050506040513d60208110156200091957600080fd5b50516000556004805460408051635733d58f60e01b815290516001600160a01b0390921692635733d58f928282019260209290829003018186803b1580156200096157600080fd5b505afa15801562000976573d6000803e3d6000fd5b505050506040513d60208110156200098d57600080fd5b505160015560048054604080516306f39cc560e31b815290516001600160a01b039092169263379ce628928282019260209290829003018186803b158015620009d557600080fd5b505afa158015620009ea573d6000803e3d6000fd5b505050506040513d602081101562000a0157600080fd5b505160025560005462000a1357600080fd5b60006001541162000a2357600080fd5b600b54604080516391b7f5ed60e01b815269021e19e0c9bab2400000600482015290516001600160a01b03909216916391b7f5ed916024808201926020929091908290030181600087803b15801562000a7b57600080fd5b505af115801562000a90573d6000803e3d6000fd5b505050506040513d602081101562000aa757600080fd5b5062000b499050565b615adb80620032e683390190565b6137668062008dc183390190565b610c1c806200c52783390190565b6109f7806200d14383390190565b61396d806200db3a83390190565b605c80620114a783390190565b6118ad806201150383390190565b610b998062012db083390190565b61013b806201394983390190565b61192d8062013a8483390190565b610e3580620153b183390190565b61278d8062000b596000396000f3fe6080604052600436106102055760003560e01c80637ca8b02811610113578063baf5d65f116100ab578063e44891271161006f578063e44891271461086d578063efa83cf91461089d578063f08e92c1146108e5578063f2a903a7146108fa578063fa08b0381461090f57610205565b8063baf5d65f14610766578063c325347f14610796578063cda775f91461081a578063d21af9681461082f578063da4816991461085857610205565b80637ca8b028146105ce5780637f7dde4a146106235780638e4707d31461063857806391a4a42614610677578063980c55d7146106a15780639cdd0978146106b65780639f56ac18146106f5578063a2f5cbdd1461070a578063a3d368341461071f57610205565b806340ba2e27116101a1578063597ec79911610165578063597ec799146104ca57806359bed84b14610521578063696909361461053657806377553ad4146105705780637c22900e1461058557610205565b806340ba2e27146104055780634557559f1461042f5780634e792a301461045957806357285cc5146104925780635895ac4e146104b557610205565b8063048c661d1461020a57806304bbf59c1461023b578063119be5d01461028e5780631c6fbd23146102cd5780632047f6dd146103065780632ba3da081461034d5780633ca4afc11461039c5780633cc74225146103db5780633d83908a146103f0575b600080fd5b34801561021657600080fd5b5061021f610924565b604080516001600160a01b039092168252519081900360200190f35b34801561024757600080fd5b5061027a6004803603606081101561025e57600080fd5b508035906001600160a01b036020820135169060400135610933565b604080519115158252519081900360200190f35b34801561029a57600080fd5b5061027a600480360360608110156102b157600080fd5b508035906001600160a01b0360208201351690604001356109d3565b610304600480360360a08110156102e357600080fd5b50803590602081013590604081013590606081013590608001351515610a3e565b005b34801561031257600080fd5b506103046004803603608081101561032957600080fd5b508035906020810135906001600160a01b0360408201358116916060013516610b26565b34801561035957600080fd5b50610304600480360360a081101561037057600080fd5b508035906020810135906001600160a01b03604082013581169160608101359091169060800135610bb6565b3480156103a857600080fd5b50610304600480360360608110156103bf57600080fd5b50803590602081013590604001356001600160a01b0316610c4e565b3480156103e757600080fd5b5061021f610cd5565b3480156103fc57600080fd5b5061021f610ce4565b34801561041157600080fd5b506103046004803603602081101561042857600080fd5b5035610cf3565b34801561043b57600080fd5b506103046004803603602081101561045257600080fd5b5035610d73565b34801561046557600080fd5b506103046004803603604081101561047c57600080fd5b50803590602001356001600160a01b0316610df9565b610304600480360360408110156104a857600080fd5b5080359060200135610e78565b3480156104c157600080fd5b5061027a610f0b565b61030460048036036101008110156104e157600080fd5b5080359060208101359060408101359060608101359060808101351515906001600160a01b0360a082013581169160c08101359091169060e00135610fa2565b34801561052d57600080fd5b5061027a611053565b6103046004803603608081101561054c57600080fd5b508035906020810135906001600160a01b0360408201358116916060013516611308565b34801561057c57600080fd5b5061021f611379565b34801561059157600080fd5b5061027a600480360360808110156105a857600080fd5b508035906001600160a01b03602082013581169160408101359091169060600135611388565b3480156105da57600080fd5b50610304600480360360c08110156105f157600080fd5b508035906020810135906001600160a01b03604082013581169160608101358216916080820135169060a00135611431565b34801561062f57600080fd5b5061021f6114de565b34801561064457600080fd5b5061027a6004803603606081101561065b57600080fd5b508035906001600160a01b0360208201351690604001356114ed565b34801561068357600080fd5b5061021f6004803603602081101561069a57600080fd5b5035611558565b3480156106ad57600080fd5b5061027a611575565b3480156106c257600080fd5b5061027a600480360360608110156106d957600080fd5b508035906001600160a01b036020820135169060400135611837565b34801561070157600080fd5b5061027a6118a2565b34801561071657600080fd5b5061027a6118c5565b34801561072b57600080fd5b506103046004803603608081101561074257600080fd5b508035906020810135906001600160a01b03604082013581169160600135166118da565b34801561077257600080fd5b506103046004803603604081101561078957600080fd5b508035906020013561194b565b3480156107a257600080fd5b50610304600480360360408110156107b957600080fd5b813591908101906040810160208201356401000000008111156107db57600080fd5b8201836020820111156107ed57600080fd5b8035906020019184602083028401116401000000008311171561080f57600080fd5b5090925090506119ac565b34801561082657600080fd5b5061021f611a3d565b6103046004803603606081101561084557600080fd5b5080359060208101359060400135611a4c565b34801561086457600080fd5b5061027a611b9d565b34801561087957600080fd5b506103046004803603604081101561089057600080fd5b5080359060200135611fc3565b610304600480360360c08110156108b357600080fd5b508035906020810135906040810135906001600160a01b03606082013581169160808101359091169060a00135612024565b3480156108f157600080fd5b5061021f6120a3565b34801561090657600080fd5b5061027a6120b2565b34801561091b57600080fd5b5061021f6122f3565b6007546001600160a01b031681565b600080606485069050600d816064811061094957fe5b01546040805163d466e4eb60e01b81526001600160a01b038781166004830152602482018790529151919092169163d466e4eb9160448083019260209291908290030181600087803b15801561099e57600080fd5b505af11580156109b2573d6000803e3d6000fd5b505050506040513d60208110156109c857600080fd5b509195945050505050565b600080606485069050600d81606481106109e957fe5b01546040805163cf83544f60e01b81526001600160a01b038781166004830152602482018790529151919092169163cf83544f9160448083019260209291908290030181600087803b15801561099e57600080fd5b60006064860690506000600d8260648110610a5557fe5b0154600080546001600160a01b039092169250823191610a789083908a90612302565b9050858515610a9157610a8e82886000546123de565b90505b60408051631942d56760e21b815260048101849052602481018a905260448101839052871515606482015260006084820181905260a4820181905260c4820181905291516001600160a01b0387169263650b559c9260e4808201939182900301818387803b158015610b0257600080fd5b505af1158015610b16573d6000803e3d6000fd5b5050505050505050505050505050565b6000606485069050600d8160648110610b3b57fe5b015460408051630425aa8360e01b8152600481018790526001600160a01b038681166024830152858116604483015291519190921691630425aa8391606480830192600092919082900301818387803b158015610b9757600080fd5b505af1158015610bab573d6000803e3d6000fd5b505050505050505050565b6000606486069050600d8160648110610bcb57fe5b015460408051630bce952960e11b8152600481018890526001600160a01b0387811660248301528681166044830152606482018690529151919092169163179d2a5291608480830192600092919082900301818387803b158015610c2e57600080fd5b505af1158015610c42573d6000803e3d6000fd5b50505050505050505050565b6000606484069050600d8160648110610c6357fe5b015460408051634c36240b60e01b8152600481018690526001600160a01b03858116602483015291519190921691634c36240b91604480830192600092919082900301818387803b158015610cb757600080fd5b505af1158015610ccb573d6000803e3d6000fd5b5050505050505050565b6006546001600160a01b031681565b6003546001600160a01b031681565b6000606482069050600d8160648110610d0857fe5b0160009054906101000a90046001600160a01b03166001600160a01b0316634903a3dd6040518163ffffffff1660e01b8152600401600060405180830381600087803b158015610d5757600080fd5b505af1158015610d6b573d6000803e3d6000fd5b505050505050565b600b54604080516391b7f5ed60e01b81526004810184905290516000926001600160a01b0316916391b7f5ed91602480830192602092919082900301818787803b158015610dc057600080fd5b505af1158015610dd4573d6000803e3d6000fd5b505050506040513d6020811015610dea57600080fd5b5051905080610df557fe5b5050565b6000606483069050600d8160648110610e0e57fe5b015460408051634d37261f60e01b81526001600160a01b03858116600483015291519190921691634d37261f91602480830192600092919082900301818387803b158015610e5b57600080fd5b505af1158015610e6f573d6000803e3d6000fd5b50505050505050565b60006064830690506000600d8260648110610e8f57fe5b0154600080546001600160a01b039092169250823191610eb29083908790612302565b604080516332e859b960e01b8152600481018390526000602482018190526044820181905291519293506001600160a01b038616926332e859b99260648084019391929182900301818387803b158015610c2e57600080fd5b600080600b60009054906101000a90046001600160a01b03166001600160a01b03166398d5fdca6040518163ffffffff1660e01b815260040160206040518083038186803b158015610f5c57600080fd5b505afa158015610f70573d6000803e3d6000fd5b505050506040513d6020811015610f8657600080fd5b5051905080610f99576000915050610f9f565b60019150505b90565b6000606489069050600d8160648110610fb757fe5b015460408051631942d56760e21b8152600481018b9052602481018a90526044810189905287151560648201526001600160a01b03878116608483015286811660a483015260c482018690529151919092169163650b559c9160e480830192600092919082900301818387803b15801561103057600080fd5b505af1158015611044573d6000803e3d6000fd5b50505050505050505050505050565b600080600c60009054906101000a90046001600160a01b03166001600160a01b0316631e2231436040518163ffffffff1660e01b815260040160206040518083038186803b1580156110a457600080fd5b505afa1580156110b8573d6000803e3d6000fd5b505050506040513d60208110156110ce57600080fd5b5051600c546040805163765e015960e01b81526001600160a01b0380851660048301529151939450600093919092169163765e0159916024808301926020929190829003018186803b15801561112357600080fd5b505afa158015611137573d6000803e3d6000fd5b505050506040513d602081101561114d57600080fd5b505190505b6001600160a01b0382161580159061117257506001600160a01b03811615155b156112ff576003546040805163b0d8e18160e01b81526001600160a01b0385811660048301529151919092169163b0d8e181916024808301926020929190829003018186803b1580156111c457600080fd5b505afa1580156111d8573d6000803e3d6000fd5b505050506040513d60208110156111ee57600080fd5b50516003546040805163b0d8e18160e01b81526001600160a01b0385811660048301529151919092169163b0d8e181916024808301926020929190829003018186803b15801561123d57600080fd5b505afa158015611251573d6000803e3d6000fd5b505050506040513d602081101561126757600080fd5b5051111561127a57600092505050610f9f565b600c546040805163765e015960e01b81526001600160a01b03808516600483015291519394508493919092169163765e0159916024808301926020929190829003018186803b1580156112cc57600080fd5b505afa1580156112e0573d6000803e3d6000fd5b505050506040513d60208110156112f657600080fd5b50519050611152565b60019250505090565b6000606485069050600d816064811061131d57fe5b0154604080516332e859b960e01b8152600481018790526001600160a01b0386811660248301528581166044830152915191909216916332e859b991606480830192600092919082900301818387803b158015610b9757600080fd5b6004546001600160a01b031681565b600080606486069050600d816064811061139e57fe5b015460408051636ca5e76160e11b81526001600160a01b0388811660048301528781166024830152604482018790529151919092169163d94bcec29160648083019260209291908290030181600087803b1580156113fb57600080fd5b505af115801561140f573d6000803e3d6000fd5b505050506040513d602081101561142557600080fd5b50919695505050505050565b6000606487069050600d816064811061144657fe5b0154604080516335b1017960e01b8152600481018990526001600160a01b0388811660248301528781166044830152868116606483015260848201869052600060a4830181905260c4830181905292519316926335b101799260e48084019391929182900301818387803b1580156114bd57600080fd5b505af11580156114d1573d6000803e3d6000fd5b5050505050505050505050565b6005546001600160a01b031681565b600080606485069050600d816064811061150357fe5b015460408051636628d36160e11b81526001600160a01b038781166004830152602482018790529151919092169163cc51a6c29160448083019260209291908290030181600087803b15801561099e57600080fd5b600d816064811061156557fe5b01546001600160a01b0316905081565b600080600c60009054906101000a90046001600160a01b03166001600160a01b0316631e2231436040518163ffffffff1660e01b815260040160206040518083038186803b1580156115c657600080fd5b505afa1580156115da573d6000803e3d6000fd5b505050506040513d60208110156115f057600080fd5b505190505b6001600160a01b03811615610f99576001600354604080516321e3780160e01b81526001600160a01b038581166004830152915191909216916321e37801916024808301926020929190829003018186803b15801561165357600080fd5b505afa158015611667573d6000803e3d6000fd5b505050506040513d602081101561167d57600080fd5b5051600481111561168a57fe5b600481111561169557fe5b146116a4576000915050610f9f565b6002546003546040805163d66a255360e01b81526001600160a01b0385811660048301529151919092169163d66a2553916024808301926020929190829003018186803b1580156116f457600080fd5b505afa158015611708573d6000803e3d6000fd5b505050506040513d602081101561171e57600080fd5b50511015611730576000915050610f9f565b60035460408051630326771360e51b81526001600160a01b038481166004830152915191909216916364cee260916024808301926020929190829003018186803b15801561177d57600080fd5b505afa158015611791573d6000803e3d6000fd5b505050506040513d60208110156117a757600080fd5b50516117b7576000915050610f9f565b600c546040805163765e015960e01b81526001600160a01b0384811660048301529151919092169163765e0159916024808301926020929190829003018186803b15801561180457600080fd5b505afa158015611818573d6000803e3d6000fd5b505050506040513d602081101561182e57600080fd5b505190506115f5565b600080606485069050600d816064811061184d57fe5b01546040805163390b5f2760e01b81526001600160a01b038781166004830152602482018790529151919092169163390b5f279160448083019260209291908290030181600087803b15801561099e57600080fd5b6005546000906001600160a01b031631156118bf57506000610f9f565b50600190565b6000601460715411156118bf57506000610f9f565b6000606485069050600d81606481106118ef57fe5b015460408051633ddd87af60e11b8152600481018790526001600160a01b038681166024830152858116604483015291519190921691637bbb0f5e91606480830192600092919082900301818387803b158015610b9757600080fd5b6000606483069050600d816064811061196057fe5b01546040805163f47a1ea760e01b81526004810185905290516001600160a01b039092169163f47a1ea79160248082019260009290919082900301818387803b158015610e5b57600080fd5b6000606484069050600d81606481106119c157fe5b0154604051634afbac5160e01b8152602060048201818152602483018690526001600160a01b0390931692634afbac5192879287929182916044909101908590850280828437600081840152601f19601f8201169050808301925050509350505050600060405180830381600087803b158015610cb757600080fd5b6009546001600160a01b031681565b60006064840690506000600d8260648110611a6357fe5b01546001546001600160a01b039091169150813190600090611a889083908890612302565b90506000611a9982876001546123de565b60408051639113473160e01b81526004810185905260248101839052600060448201819052606482018190526084820181905291519293506001600160a01b0387169263911347319260a48084019391929182900301818387803b158015611b0057600080fd5b505af1158015611b14573d6000803e3d6000fd5b50505050600360009054906101000a90046001600160a01b03166001600160a01b03166349eefeee6040518163ffffffff1660e01b815260040160206040518083038186803b158015611b6657600080fd5b505afa158015611b7a573d6000803e3d6000fd5b505050506040513d6020811015611b9057600080fd5b50516071819055610ccb57fe5b600080600a60009054906101000a90046001600160a01b03166001600160a01b03166318160ddd6040518163ffffffff1660e01b815260040160206040518083038186803b158015611bee57600080fd5b505afa158015611c02573d6000803e3d6000fd5b505050506040513d6020811015611c1857600080fd5b5051600a54600854604080516370a0823160e01b81526001600160a01b039283166004820152905193945060009391909216916370a08231916024808301926020929190829003018186803b158015611c7057600080fd5b505afa158015611c84573d6000803e3d6000fd5b505050506040513d6020811015611c9a57600080fd5b505160055460408051639ed76b3160e01b815290519293506000926001600160a01b0390921691639ed76b3191600480820192602092909190829003018186803b158015611ce757600080fd5b505afa158015611cfb573d6000803e3d6000fd5b505050506040513d6020811015611d1157600080fd5b505160065460408051639ed76b3160e01b815290519293506000926001600160a01b0390921691639ed76b3191600480820192602092909190829003018186803b158015611d5e57600080fd5b505afa158015611d72573d6000803e3d6000fd5b505050506040513d6020811015611d8857600080fd5b505190508181018414611da2576000945050505050610f9f565b6007546040805163c3c0266760e01b815290516000926001600160a01b03169163c3c02667916004808301926020929190829003018186803b158015611de757600080fd5b505afa158015611dfb573d6000803e3d6000fd5b505050506040513d6020811015611e1157600080fd5b5051600c5460408051631e22314360e01b815290519293506000926001600160a01b0390921691631e22314391600480820192602092909190829003018186803b158015611e5e57600080fd5b505afa158015611e72573d6000803e3d6000fd5b505050506040513d6020811015611e8857600080fd5b5051905060005b6001600160a01b03821615611f9a57600a54604080516370a0823160e01b81526001600160a01b038581166004830152915191909216916370a08231916024808301926020929190829003018186803b158015611eeb57600080fd5b505afa158015611eff573d6000803e3d6000fd5b505050506040513d6020811015611f1557600080fd5b5051600c546040805163765e015960e01b81526001600160a01b0386811660048301529151949093019391169163765e0159916024808301926020929190829003018186803b158015611f6757600080fd5b505afa158015611f7b573d6000803e3d6000fd5b505050506040513d6020811015611f9157600080fd5b50519150611e8f565b85818401018711611fb5576000975050505050505050610f9f565b600197505050505050505090565b6000606483069050600d8160648110611fd857fe5b01546040805163320d84db60e11b81526004810185905290516001600160a01b039092169163641b09b69160248082019260009290919082900301818387803b158015610e5b57600080fd5b6000606487069050600d816064811061203957fe5b015460408051639113473160e01b815260048101899052602481018890526001600160a01b0387811660448301528681166064830152608482018690529151919092169163911347319160a480830192600092919082900301818387803b1580156114bd57600080fd5b600a546001600160a01b031681565b6003546000906001600160a01b031631156120cf57506000610f9f565b6004546001600160a01b031631156120e957506000610f9f565b600560009054906101000a90046001600160a01b03166001600160a01b03166314f6c3be6040518163ffffffff1660e01b815260040160206040518083038186803b15801561213757600080fd5b505afa15801561214b573d6000803e3d6000fd5b505050506040513d602081101561216157600080fd5b50516005546001600160a01b0316311461217d57506000610f9f565b600660009054906101000a90046001600160a01b03166001600160a01b03166314f6c3be6040518163ffffffff1660e01b815260040160206040518083038186803b1580156121cb57600080fd5b505afa1580156121df573d6000803e3d6000fd5b505050506040513d60208110156121f557600080fd5b50516006546001600160a01b0316311461221157506000610f9f565b600760009054906101000a90046001600160a01b03166001600160a01b03166314f6c3be6040518163ffffffff1660e01b815260040160206040518083038186803b15801561225f57600080fd5b505afa158015612273573d6000803e3d6000fd5b505050506040513d602081101561228957600080fd5b50516007546001600160a01b031631146122a557506000610f9f565b600a546001600160a01b031631156122bf57506000610f9f565b600b546001600160a01b031631156122d957506000610f9f565b600c546001600160a01b031631156118bf57506000610f9f565b6008546001600160a01b031681565b600080600b60009054906101000a90046001600160a01b03166001600160a01b03166398d5fdca6040518163ffffffff1660e01b815260040160206040518083038186803b15801561235357600080fd5b505afa158015612367573d6000803e3d6000fd5b505050506040513d602081101561237d57600080fd5b505190508061238b57600080fd5b60006123b2826123a6600254876124ca90919063ffffffff16565b9063ffffffff61252c16565b90508086116123c057600080fd5b600081870386816123cd57fe5b0691909101925050505b9392505050565b600080600b60009054906101000a90046001600160a01b03166001600160a01b03166398d5fdca6040518163ffffffff1660e01b815260040160206040518083038186803b15801561242f57600080fd5b505afa158015612443573d6000803e3d6000fd5b505050506040513d602081101561245957600080fd5b5051600254909150849060009061247790839063ffffffff61256e16565b905060006124868883866125c8565b9050858110156124be576124a4866123a68a8763ffffffff6124ca16565b91506124bb600254836125f890919063ffffffff16565b92505b50909695505050505050565b6000826124d957506000612526565b828202828482816124e657fe5b04146125235760405162461bcd60e51b81526004018080602001828103825260218152602001806127376021913960400191505060405180910390fd5b90505b92915050565b600061252383836040518060400160405280601a81526020017f536166654d6174683a206469766973696f6e206279207a65726f00000000000081525061263a565b600082820183811015612523576040805162461bcd60e51b815260206004820152601b60248201527f536166654d6174683a206164646974696f6e206f766572666c6f770000000000604482015290519081900360640190fd5b600082156125ef5760006125e6846123a6878663ffffffff6124ca16565b91506123d79050565b506000196123d7565b600061252383836040518060400160405280601e81526020017f536166654d6174683a207375627472616374696f6e206f766572666c6f7700008152506126dc565b600081836126c65760405162461bcd60e51b81526004018080602001828103825283818151815260200191508051906020019080838360005b8381101561268b578181015183820152602001612673565b50505050905090810190601f1680156126b85780820380516001836020036101000a031916815260200191505b509250505060405180910390fd5b5060008385816126d257fe5b0495945050505050565b6000818484111561272e5760405162461bcd60e51b815260206004820181815283516024840152835190928392604490910191908501908083836000831561268b578181015183820152602001612673565b50505090039056fe536166654d6174683a206d756c7469706c69636174696f6e206f766572666c6f77a2646970667358221220f8955fb1f998dc3cf7806d9cb087a4c20f30ad89a1f60fc827dbde7634b81c9164736f6c634300060b0033608060405234801561001057600080fd5b50600380546001600160a01b031916339081179091556040516000907f8be0079c531659141344cd1fd0a4f28419497f9722a3daafe3b4186f6b6457e0908290a3615a7a80620000616000396000f3fe608060405234801561001057600080fd5b506004361061044a5760003560e01c8063795d26c31161023c578063b91af97c11610146578063d3d6f843116100c3578063e2ac77b011610087578063e2ac77b014610c7d578063f08e92c114610ca3578063f36b242514610cab578063f92d34331461064d578063fe2ba84814610cb35761044a565b8063d3d6f84314610be9578063d5b3563514610c15578063d66a255314610c32578063d9a7244414610c58578063daa3c0d814610c755761044a565b8063c7b554811161010a578063c7b5548114610b7f578063cbd138ae14610b87578063cc0aa38b14610bad578063d293c71014610bb5578063d380a37c14610be15761044a565b8063b91af97c14610acd578063bcd3752614610b19578063bf9befb114610b67578063c35bc55014610b6f578063c52861f214610b775761044a565b806396d711ff116101d4578063ae91875411610198578063ae91875414610a72578063b0d8e18114610a7a578063b5f9ecd614610aa0578063b7f8cf9b14610aa8578063b82f263d14610ab05761044a565b806396d711ff146109b95780639976cf45146109c15780639dd233d2146109ed578063a20baee6146106a9578063a3f4df7e146109f55761044a565b8063795d26c3146108df578063797250e3146108e75780637985c5e4146108ef5780637f7dde4a1461096b578063807d138d1461097357806382fe3eb91461097b578063887105d3146109a15780638da5cb5b146109a95780638f32d59b146109b15761044a565b8063480cd57811610358578063631203b0116102d557806372423c171161029957806372423c171461088657806372fe25aa146106a9578063741bef1a146108b2578063756b253e146108ba578063794e5724146108d75761044a565b8063631203b0146107af57806364cee260146107cc578063653d46e7146107f257806366ca4a211461080f5780636ef64338146108175761044a565b80635733d58f1161031c5780635733d58f146107455780635d6b480f1461074d5780635d8c9609146107795780635dba4c4a1461079f57806361ec893d146107a75761044a565b8063480cd578146106d65780634870dd9a146106fc57806349eefeee146107045780634ad4e7151461070c5780634e443d9e146107145761044a565b80631f68f20a116103e65780632e1c8e68116103aa5780632e1c8e681461065d5780632f86556814610683578063379ce628146106a95780633cc74225146106b1578063477d66cf146106b95761044a565b80631f68f20a1461061757806321e378011461061f578063240926691461064557806328d28b5b1461064d5780632b11551a146106555761044a565b8063048c661d1461044f578063071a7541146104735780630b0765571461048d57806312610e92146104b557806315d549f1146104e15780631673c79a1461050757806318f2817a146105465780631bf435551461056c5780631e8b1c2b14610574575b600080fd5b610457610cd9565b604080516001600160a01b039092168252519081900360200190f35b61047b610ce8565b60408051918252519081900360200190f35b6104b3600480360360208110156104a357600080fd5b50356001600160a01b0316610ced565b005b61047b600480360360408110156104cb57600080fd5b506001600160a01b038135169060200135610d15565b61047b600480360360208110156104f757600080fd5b50356001600160a01b0316610d6d565b61052d6004803603602081101561051d57600080fd5b50356001600160a01b0316610d91565b6040805192835260208301919091528051918290030190f35b61047b6004803603602081101561055c57600080fd5b50356001600160a01b0316610daa565b61047b610dbd565b6104b36004803603602081101561058a57600080fd5b8101906020810181356401000000008111156105a557600080fd5b8201836020820111156105b757600080fd5b803590602001918460208302840111640100000000831117156105d957600080fd5b919080806020026020016040519081016040528093929190818152602001838360200280828437600092019190915250929550610dc9945050505050565b61047b61116b565b61047b6004803603602081101561063557600080fd5b50356001600160a01b0316611171565b61047b61119b565b61047b6111ae565b61047b6111bf565b61047b6004803603602081101561067357600080fd5b50356001600160a01b03166111d1565b6104b36004803603602081101561069957600080fd5b50356001600160a01b031661129a565b61047b611300565b61045761130c565b61047b600480360360208110156106cf57600080fd5b503561131b565b61047b600480360360208110156106ec57600080fd5b50356001600160a01b031661132e565b61047b61134c565b61047b611351565b61047b611357565b6107316004803603602081101561072a57600080fd5b503561135d565b604080519115158252519081900360200190f35b61047b611368565b6104b36004803603604081101561076357600080fd5b506001600160a01b038135169060200135611374565b61047b6004803603602081101561078f57600080fd5b50356001600160a01b03166113c0565b6104b36113ee565b61047b611454565b61047b600480360360208110156107c557600080fd5b5035611459565b61047b600480360360208110156107e257600080fd5b50356001600160a01b0316611466565b6104b36004803603602081101561080857600080fd5b5035611484565b61047b611832565b61083d6004803603602081101561082d57600080fd5b50356001600160a01b0316611844565b6040518086815260200185815260200184815260200183600481111561085f57fe5b60ff1681526001600160801b03909216602083015250604080519182900301945092505050f35b61047b6004803603604081101561089c57600080fd5b506001600160a01b03813516906020013561187e565b6104576118db565b610457600480360360208110156108d057600080fd5b50356118ea565b61047b611911565b61047b61191d565b61047b611a1e565b6104b3600480360361016081101561090657600080fd5b506001600160a01b038135811691602081013582169160408201358116916060810135821691608082013581169160a081013582169160c082013581169160e08101358216916101008201358116916101208101358216916101409091013516611a24565b610457611e1d565b61047b611e2c565b6104b36004803603602081101561099157600080fd5b50356001600160a01b0316611e32565b61047b611e43565b610457611eff565b610731611f0e565b61047b611f1f565b61047b600480360360408110156109d757600080fd5b506001600160a01b038135169060200135611f25565b61047b611f58565b6109fd611f5e565b6040805160208082528351818301528351919283929083019185019080838360005b83811015610a37578181015183820152602001610a1f565b50505050905090810190601f168015610a645780820380516001836020036101000a031916815260200191505b509250505060405180910390f35b610457611f86565b61047b60048036036020811015610a9057600080fd5b50356001600160a01b0316611f95565b61047b611fbc565b610457611fc2565b61047b60048036036020811015610ac657600080fd5b5035611fd1565b610af360048036036020811015610ae357600080fd5b50356001600160a01b0316611fdc565b604080519485526020850193909352838301919091526060830152519081900360800190f35b6104b3600480360360e0811015610b2f57600080fd5b508035906001600160a01b03602082013581169160408101358216916060820135169060808101359060a08101359060c00135612040565b61047b6127e2565b61047b6127e8565b61047b6127ef565b61047b612801565b6104b360048036036020811015610b9d57600080fd5b50356001600160a01b031661280d565b610457612820565b61047b60048036036040811015610bcb57600080fd5b506001600160a01b03813516906020013561282f565b61047b61284e565b61047b60048036036040811015610bff57600080fd5b506001600160a01b038135169060200135612854565b61047b60048036036020811015610c2b57600080fd5b503561288a565b61047b60048036036020811015610c4857600080fd5b50356001600160a01b031661289d565b61045760048036036020811015610c6e57600080fd5b50356128b8565b6104576128e2565b61073160048036036020811015610c9357600080fd5b50356001600160a01b03166128f1565b61045761294f565b61047b61295e565b6104b360048036036020811015610cc957600080fd5b50356001600160a01b031661296b565b6005546001600160a01b031681565b600281565b610cf561297c565b600054600154610d12916001600160a01b039081169116836129c7565b50565b6000610d1f61297c565b6001600160a01b0383166000908152600e6020526040812054610d48908463ffffffff612ae916565b6001600160a01b0385166000908152600e602052604090208190559150505b92915050565b6000610d7761297c565b610d8082612b32565b6001600160801b031690505b919050565b6014602052600090815260409020805460019091015482565b6000610db461297c565b610d6782612bcc565b677ce66c50e284000081565b8051610e065760405162461bcd60e51b81526004018080602001828103825260368152602001806158b26036913960400191505060405180910390fd5b6000546001546005546001600160a01b03928316929182169116610e286155f8565b610e30615629565b600260009054906101000a90046001600160a01b03166001600160a01b0316630fdb11cf6040518163ffffffff1660e01b8152600401602060405180830381600087803b158015610e8057600080fd5b505af1158015610e94573d6000803e3d6000fd5b505050506040513d6020811015610eaa57600080fd5b505182526040805163c3c0266760e01b815290516001600160a01b0385169163c3c02667916004808301926020929190829003018186803b158015610eee57600080fd5b505afa158015610f02573d6000803e3d6000fd5b505050506040513d6020811015610f1857600080fd5b505160208301528151610f2a90612c7b565b1580156040840152610f5257610f4b8585846000015185602001518a612c98565b9050610f6a565b610f678585846000015185602001518a612ec8565b90505b6000816020015111610fad5760405162461bcd60e51b81526004018080602001828103825260228152602001806159f46022913960400191505060405180910390fd5b826001600160a01b031663335525ad82608001518360a001516040518363ffffffff1660e01b81526004018083815260200182815260200192505050600060405180830381600087803b15801561100357600080fd5b505af1158015611017573d6000803e3d6000fd5b5050505061102f85858360c001518460e00151612f90565b610100810151156110ae57600754610100820151604080516364a197f360e01b81526001600160a01b039384166004820152602481019290925251918716916364a197f39160448082019260009290919082900301818387803b15801561109557600080fd5b505af11580156110a9573d6000803e3d6000fd5b505050505b6110bc858260400151613211565b60208101516060830152610100810151604082015182516110f492916110e8919063ffffffff612ae916565b9063ffffffff612ae916565b608080840182905260608085015160408086015186840151825193845260208401969096528282015291810193909352517f4152c73dd2614c4f9fc35e8c9cf16013cd588c75b49a4c1673ecffdcbcda94039281900390910190a1611163853383606001518460400151613358565b505050505050565b600c5481565b6001600160a01b0381166000908152600e602052604081206003015460ff166004811115610d6757fe5b6064670de0b6b3a76400005b0460050281565b6103e8670de0b6b3a76400006111a7565b60006111cc600c5461345b565b905090565b6001600160a01b0381166000908152601460205260408120600101546013548290611202908363ffffffff612ae916565b905080158061123b575060016001600160a01b0385166000908152600e602052604090206003015460ff16600481111561123857fe5b14155b1561124b57600092505050610d8c565b6001600160a01b0384166000908152600e602052604081206002015490611290670de0b6b3a7640000611284848663ffffffff61349116565b9063ffffffff6134ea16565b9695505050505050565b6112a38161352c565b6040805160018082528183019092526060916020808301908036833701905050905081816000815181106112d357fe5b60200260200101906001600160a01b031690816001600160a01b0316815250506112fc81610dc9565b5050565b670de0b6b3a764000081565b6001546001600160a01b031681565b6000610d67611328611832565b83613594565b6001600160a01b03166000908152600e602052604090206001015490565b60c881565b60155490565b60175481565b6000610d6782612c7b565b6714d1120d7b16000081565b61137c61297c565b80600481111561138857fe5b6001600160a01b0383166000908152600e60205260409020600301805460ff191660018360048111156113b757fe5b02179055505050565b6001600160a01b0381166000908152601460205260408120546012548290611202908363ffffffff612ae916565b6113f661297c565b60006114006135b2565b9050670de0b6b3a764000081111561141457fe5b600c8190556040805182815290517fc454ee9b76c52f782a256af821b857ca6e125d1e3333bcede402fec2bed9600c9181900360200190a1610d126135f6565b603c81565b6000610d6761132861295e565b6001600160a01b03166000908152600e602052604090206002015490565b61148c615675565b506040805160e081018252600080546001600160a01b0390811683526001548116602084015292820181905260608201819052600b548316608083015260a0820181905260c08201526005549091166114e36155f8565b6114eb615629565b600260009054906101000a90046001600160a01b03166001600160a01b0316630fdb11cf6040518163ffffffff1660e01b8152600401602060405180830381600087803b15801561153b57600080fd5b505af115801561154f573d6000803e3d6000fd5b505050506040513d602081101561156557600080fd5b505182526040805163c3c0266760e01b815290516001600160a01b0385169163c3c02667916004808301926020929190829003018186803b1580156115a957600080fd5b505afa1580156115bd573d6000803e3d6000fd5b505050506040513d60208110156115d357600080fd5b5051602083015281516115e590612c7b565b158015604084015261160c57611605848360000151846020015188613652565b905061162c565b6116298460000151856020015184600001518560200151896139ed565b90505b600081602001511161166f5760405162461bcd60e51b81526004018080602001828103825260228152602001806159f46022913960400191505060405180910390fd5b826001600160a01b031663335525ad82608001518360a001516040518363ffffffff1660e01b81526004018083815260200182815260200192505050600060405180830381600087803b1580156116c557600080fd5b505af11580156116d9573d6000803e3d6000fd5b505050506116f9846000015185602001518360c001518460e00151612f90565b6101008101511561177a578351600754610100830151604080516364a197f360e01b81526001600160a01b03938416600482015260248101929092525191909216916364a197f391604480830192600092919082900301818387803b15801561176157600080fd5b505af1158015611775573d6000803e3d6000fd5b505050505b61178c84600001518260400151613211565b60208101516060830152610100810151604082015182516117b892916110e8919063ffffffff612ae916565b608080840182905260608085015160408086015186840151825193845260208401969096528282015291810193909352517f4152c73dd2614c4f9fc35e8c9cf16013cd588c75b49a4c1673ecffdcbcda94039281900390910190a161182b84600001513383606001518460400151613358565b5050505050565b60006111cc61183f6135b2565b613b1f565b600e6020526000908152604090208054600182015460028301546003909301549192909160ff81169061010090046001600160801b031685565b600061188861297c565b6001600160a01b0383166000908152600e60205260408120600101546118b4908463ffffffff613b4616565b6001600160a01b0385166000908152600e6020526040902060010181905591505092915050565b6002546001600160a01b031681565b601581815481106118f757fe5b6000918252602090912001546001600160a01b0316905081565b670f43fc2c04ee000081565b6000805460408051639ed76b3160e01b8152905183926001600160a01b031691639ed76b31916004808301926020929190829003018186803b15801561196257600080fd5b505afa158015611976573d6000803e3d6000fd5b505050506040513d602081101561198c57600080fd5b505160015460408051639ed76b3160e01b815290519293506000926001600160a01b0390921691639ed76b3191600480820192602092909190829003018186803b1580156119d957600080fd5b505afa1580156119ed573d6000803e3d6000fd5b505050506040513d6020811015611a0357600080fd5b50519050611a17828263ffffffff613b4616565b9250505090565b60165481565b611a2c611f0e565b611a7d576040805162461bcd60e51b815260206004820181905260248201527f4f776e61626c653a2063616c6c6572206973206e6f7420746865206f776e6572604482015290519081900360640190fd5b611a868b613ba0565b611a8f8a613ba0565b611a9889613ba0565b611aa188613ba0565b611aaa87613ba0565b611ab386613ba0565b611abc85613ba0565b611ac584613ba0565b611ace83613ba0565b611ad782613ba0565b611ae081613ba0565b600480546001600160a01b03199081166001600160a01b038e81169182179093556000805483168e85161790556001805483168d85161790556005805483168c85161790556006805483168b85161790556007805483168a8516179055600280548316898516179055600880548316888516179055600b80548316878516179055600980548316868516179055600a805490921692841692909217905560408051918252517f3ca631ffcd2a9b5d9ae18543fc82f58eb4ca33af9e6ab01b7a8e95331e6ed985916020908290030190a1604080516001600160a01b038c16815290517f78f058b189175430c48dc02699e3a0031ea4ff781536dc2fab847de4babdd8829181900360200190a1604080516001600160a01b038b16815290517f5ee0cae2f063ed938bb55046f6a932fb6ae792bf43624806bb90abe68a50be9b9181900360200190a1604080516001600160a01b038a16815290517f82966d27eea39b038ee0fa30cd16532bb24f6e65d31cb58fb227aa5766cdcc7f9181900360200190a1604080516001600160a01b038916815290517fcfb07d791fcafc032b35837b50eb84b74df518cf4cc287e8084f47630fa70fa09181900360200190a1604080516001600160a01b038816815290517fe67f36a6e961157d6eff83b91f3af5a62131ceb6f04954ef74f51c1c05e7f88d9181900360200190a1604080516001600160a01b038716815290517f8c537274438aa850a330284665d81a85dd38267d09e4050d416bfc94142db2649181900360200190a1604080516001600160a01b038616815290517f5708bcd180e4da14a958eda749d47d0b1890743f14a286a3c7e88827a25c76a39181900360200190a1604080516001600160a01b038516815290517f65f4cf077bc01e4742eb5ad98326f6e95b63548ea24b17f8d5e823111fe788009181900360200190a1604080516001600160a01b038416815290517f65198ffe5db0f3b1d85bbbd0bf136c421bda976f3bff505100a32cabef688c029181900360200190a1604080516001600160a01b038316815290517fe023fadc7af87342d2a3c323ff7df8cb11fef0409ea544984959f2fc037e6f2d9181900360200190a1611e10613c4f565b5050505050505050505050565b6000546001600160a01b031681565b60105481565b611e3a61297c565b610d1281613c99565b6000805460408051630a7b61df60e11b8152905183926001600160a01b0316916314f6c3be916004808301926020929190829003018186803b158015611e8857600080fd5b505afa158015611e9c573d6000803e3d6000fd5b505050506040513d6020811015611eb257600080fd5b505160015460408051630a7b61df60e11b815290519293506000926001600160a01b03909216916314f6c3be91600480820192602092909190829003018186803b1580156119d957600080fd5b6003546001600160a01b031690565b6003546001600160a01b0316331490565b60115481565b6000611f2f61297c565b6001600160a01b0383166000908152600e6020526040812054610d48908463ffffffff613b4616565b60125481565b6040518060400160405280600c81526020016b2a3937bb32a6b0b730b3b2b960a11b81525081565b600b546001600160a01b031681565b6000806000611fa384613d04565b915091506000611fb38383613d8a565b95945050505050565b60135481565b6004546001600160a01b031681565b6000610d6782613dbf565b6001600160a01b0381166000908152600e602052604081208054600190910154909180612008856111d1565b9150612013856113c0565b9050612025848363ffffffff613b4616565b9350612037838263ffffffff613b4616565b92509193509193565b612048615675565b506040805160e0810182526000546001600160a01b03908116825260015481166020830152600854811692820192909252600a5482166060820152600b5482166080820152600754821660a082015260065490911660c08201526120aa6156b1565b6120b383613deb565b6120bb613e45565b600260009054906101000a90046001600160a01b03166001600160a01b0316630fdb11cf6040518163ffffffff1660e01b8152600401602060405180830381600087803b15801561210b57600080fd5b505af115801561211f573d6000803e3d6000fd5b505050506040513d602081101561213557600080fd5b505160c0820181905261214790613f09565b61215089613f58565b61215f8260400151338b613f97565b61216761191d565b60e0820181905260408084015181516370a0823160e01b815233600482015291516001600160a01b03909116916370a08231916024808301926020929190829003018186803b1580156121b957600080fd5b505afa1580156121cd573d6000803e3d6000fd5b505050506040513d60208110156121e357600080fd5b505111156121ed57fe5b888152608082015160c0820151600091612208918b90614057565b1561221457508761233e565b82608001516001600160a01b0316634d6228316040518163ffffffff1660e01b815260040160206040518083038186803b15801561225157600080fd5b505afa158015612265573d6000803e3d6000fd5b505050506040513d602081101561227b57600080fd5b505190505b6001600160a01b038116158015906122ac5750670f43fc2c04ee00006122aa828460c0015161282f565b105b1561233e5782608001516001600160a01b031663b72703ac826040518263ffffffff1660e01b815260040180826001600160a01b03166001600160a01b0316815260200191505060206040518083038186803b15801561230b57600080fd5b505afa15801561231f573d6000803e3d6000fd5b505050506040513d602081101561233557600080fd5b50519050612280565b846123495760001994505b6001600160a01b038116158015906123615750815115155b801561236d5750600085115b156124a157848060019003955050600083608001516001600160a01b031663b72703ac836040518263ffffffff1660e01b815260040180826001600160a01b03166001600160a01b0316815260200191505060206040518083038186803b1580156123d757600080fd5b505afa1580156123eb573d6000803e3d6000fd5b505050506040513d602081101561240157600080fd5b50518451602086015191925061241791846129c7565b61241f6156f6565b612436858486600001518760c001518e8e8e6141ca565b90508060400151156124495750506124a1565b8051602085015161245f9163ffffffff613b4616565b602080860191909152810151604085015161247f9163ffffffff613b4616565b6040850152805184516124979163ffffffff612ae916565b8452509050612349565b60008260400151116124e45760405162461bcd60e51b81526004018080602001828103825260298152602001806157a36029913960400191505060405180910390fd5b6124fb82604001518360c001518460e00151614479565b506125098260400151614521565b60608301819052604083015161252091908661452e565b82600001516001600160a01b03166364a197f3846060015184606001516040518363ffffffff1660e01b815260040180836001600160a01b03166001600160a01b0316815260200182815260200192505050600060405180830381600087803b15801561258c57600080fd5b505af11580156125a0573d6000803e3d6000fd5b5050505082606001516001600160a01b0316631e3e2a1a83606001516040518263ffffffff1660e01b815260040180828152602001915050600060405180830381600087803b1580156125f257600080fd5b505af1158015612606573d6000803e3d6000fd5b505050506060820151604083015161261d91612ae9565b8260800181815250507f43a3f4082a4dbc33d78e317d2497d3a730bc7fc3574159dcea1056e62e5d9ad88a8360200151846040015185606001516040518085815260200184815260200183815260200182815260200194505050505060405180910390a182604001516001600160a01b0316639dc29fac3384602001516040518363ffffffff1660e01b815260040180836001600160a01b03166001600160a01b0316815260200182815260200192505050600060405180830381600087803b1580156126e957600080fd5b505af11580156126fd573d6000803e3d6000fd5b5050505082600001516001600160a01b0316630680741383602001516040518263ffffffff1660e01b815260040180828152602001915050600060405180830381600087803b15801561274f57600080fd5b505af1158015612763573d6000803e3d6000fd5b505084516080850151604080516364a197f360e01b81523360048201526024810192909252516001600160a01b0390921693506364a197f3925060448082019260009290919082900301818387803b1580156127be57600080fd5b505af11580156127d2573d6000803e3d6000fd5b5050505050505050505050505050565b600f5481565b6212750081565b60006111cc6127fc6135b2565b61345b565b670ddd4b8c6c7d70d881565b61281561297c565b610d128160026145a3565b6009546001600160a01b031681565b600080600061283d85613d04565b9150915060006112908383876146bc565b600d5481565b600061285e61297c565b6001600160a01b0383166000908152600e60205260408120600101546118b4908463ffffffff612ae916565b6000610d676128976127ef565b836146ec565b6001600160a01b03166000908152600e602052604090205490565b6000601582815481106128c757fe5b6000918252602090912001546001600160a01b031692915050565b600a546001600160a01b031681565b600060016001600160a01b0383166000908152600e602052604090206003015460ff16600481111561291f57fe5b1461292c57506000610d8c565b506012546001600160a01b03821660009081526014602052604090205410919050565b6008546001600160a01b031681565b60006111cc600c54613b1f565b61297361297c565b610d128161474b565b6004546001600160a01b031633146129c55760405162461bcd60e51b815260040180806020018281038252603b815260200180615877603b913960400191505060405180910390fd5b565b6129d0816128f1565b15612ae4576129de8161352c565b60006129e9826113c0565b905060006129f6836111d1565b6001600160a01b0384166000908152600e6020526040902060010154909150612a25908363ffffffff613b4616565b6001600160a01b0384166000908152600e60205260409020600181019190915554612a56908263ffffffff613b4616565b6001600160a01b0384166000908152600e6020526040902055612a7883613c99565b612a848585838561479b565b6001600160a01b0383166000818152600e602090815260408083208054600182015460029092015483519182529381019190915280820192909252606082019290925290516000805160206158578339815191529181900360800190a250505b505050565b6000612b2b83836040518060400160405280601e81526020017f536166654d6174683a207375627472616374696f6e206f766572666c6f77000081525061489d565b9392505050565b601580546001808201835560008381527f55f448fdea98c4d29eb340757ef0a66cd03dbb9538908a6a81d96026b71ec47590920180546001600160a01b0319166001600160a01b03861617905591549091612b8d9190612ae9565b6001600160a01b03929092166000908152600e602052604090206003018054610100600160881b0319166101006001600160801b038516021790555090565b6001600160a01b0381166000908152600e60205260408120600101548190612bf390614934565b6001600160a01b0384166000908152600e60205260409020600201805490829055600f5491925090612c3d908390612c31908463ffffffff612ae916565b9063ffffffff613b4616565b600f81905560408051918252517f6bac5e0eb3c44eb03a60ab11ec3a2c051771616aecadbcfff2630aabae5203829181900360200190a15092915050565b600080612c8783613dbf565b6714d1120d7b160000119392505050565b612ca0615629565b612ca8615719565b612cb0615629565b84825260006080830152612cc261191d565b60a0830152612ccf611e43565b60c0830152600060208301525b835182602001511015612ebd5783826020015181518110612cf957fe5b6020908102919091018101516001600160a01b0316606084018190526000908152600e909152604090206003015460019060ff166004811115612d3857fe5b14612d4257612ead565b612d5082606001518761282f565b60408301526080820151612e4f57670f43fc2c04ee0000826040015110158015612d7957508151155b15612d8357612ead565b6000612d988360c001518460a00151896146bc565b9050612db58989856060015186604001518760000151868d614970565b60808101518451919350612dcf919063ffffffff612ae916565b8352608082015160a0840151612dea9163ffffffff612ae916565b8360a0018181525050612e1f8261010001516110e884604001516110e88660a001518860c00151612ae990919063ffffffff16565b60c0840152612e2e8483614ca2565b9350612e438360c001518460a0015189614db9565b15608084015250612ead565b81608001518015612e6b5750670f43fc2c04ee00008260400151105b15612ead57612e84888884606001518560000151614dda565b60808101518351919250612e9e919063ffffffff612ae916565b8252612eaa8382614ca2565b92505b6020820180516001019052612cdc565b505095945050505050565b612ed0615629565b612ed8615719565b612ee0615629565b848252600060208301525b835182602001511015612ebd5783826020015181518110612f0857fe5b60209081029190910101516001600160a01b031660608301819052612f2d908761282f565b60408301819052670f43fc2c04ee00001115612f8057612f57888884606001518560000151614dda565b60808101518351919250612f71919063ffffffff612ae916565b8252612f7d8382614ca2565b92505b6020820180516001019052612eeb565b81612f9a5761320b565b601654600090612fbc90612c3184670de0b6b3a764000063ffffffff61349116565b90506000612fe1601754612c31670de0b6b3a76400008761349190919063ffffffff16565b90506000612ffa600f54846134ea90919063ffffffff16565b90506000613013600f54846134ea90919063ffffffff16565b905061303a61302d600f548461349190919063ffffffff16565b859063ffffffff612ae916565b601655600f546130629061305590839063ffffffff61349116565b849063ffffffff612ae916565b601755601254613078908363ffffffff613b4616565b60125560135461308e908263ffffffff613b4616565b601381905560125460408051918252602082019290925281517f9f8bc8ab0daf5bceef75ecfd2085d1fcc6548c657ea970d9a23a60610d0737e3929181900390910190a1876001600160a01b03166306807413876040518263ffffffff1660e01b815260040180828152602001915050600060405180830381600087803b15801561311857600080fd5b505af115801561312c573d6000803e3d6000fd5b50505050866001600160a01b0316637f9856f5876040518263ffffffff1660e01b815260040180828152602001915050600060405180830381600087803b15801561317657600080fd5b505af115801561318a573d6000803e3d6000fd5b50505050876001600160a01b03166364a197f388876040518363ffffffff1660e01b815260040180836001600160a01b03166001600160a01b0316815260200182815260200192505050600060405180830381600087803b1580156131ee57600080fd5b505af1158015613202573d6000803e3d6000fd5b50505050505050505b50505050565b600f546010819055506000826001600160a01b03166314f6c3be6040518163ffffffff1660e01b815260040160206040518083038186803b15801561325557600080fd5b505afa158015613269573d6000803e3d6000fd5b505050506040513d602081101561327f57600080fd5b505160015460408051630a7b61df60e11b815290519293506000926001600160a01b03909216916314f6c3be91600480820192602092909190829003018186803b1580156132cc57600080fd5b505afa1580156132e0573d6000803e3d6000fd5b505050506040513d60208110156132f657600080fd5b5051905061330e81612c31848663ffffffff612ae916565b601181905560105460408051918252602082019290925281517f51bf4c63ec3cba9d03d43238abbdd979dd91bd16d9895c74ceea9118c7baaf60929181900390910190a150505050565b81156133d75760085460065460408051631062c15f60e11b81526001600160a01b039283166004820152868316602482015260448101869052905191909216916320c582be91606480830192600092919082900301818387803b1580156133be57600080fd5b505af11580156133d2573d6000803e3d6000fd5b505050505b801561320b57836001600160a01b03166364a197f384836040518363ffffffff1660e01b815260040180836001600160a01b03166001600160a01b0316815260200182815260200192505050600060405180830381600087803b15801561343d57600080fd5b505af1158015613451573d6000803e3d6000fd5b5050505050505050565b6000610d67613483836103e8670de0b6b3a76400005b04600502613b4690919063ffffffff16565b670de0b6b3a7640000614f48565b6000826134a057506000610d67565b828202828482816134ad57fe5b0414612b2b5760405162461bcd60e51b81526004018080602001828103825260218152602001806158366021913960400191505060405180910390fd5b6000612b2b83836040518060400160405280601a81526020017f536166654d6174683a206469766973696f6e206279207a65726f000000000000815250614f5e565b60016001600160a01b0382166000908152600e602052604090206003015460ff16600481111561355857fe5b14610d125760405162461bcd60e51b815260040180806020018281038252602f815260200180615a16602f913960400191505060405180910390fd5b6000612b2b670de0b6b3a7640000611284858563ffffffff61349116565b6000806135bd614fc3565b905060006135d3670ddd4b8c6c7d70d883614fdf565b9050611a17670de0b6b3a764000061128483600c5461349190919063ffffffff16565b600061360d600d5442612ae990919063ffffffff16565b9050603c8110610d125742600d81905560408051918252517f860f8d2f0c74dd487e89e2883e3b25b8159ce1e1b3433a291cba7b82c508f3bc9181900360200190a150565b61365a615629565b613662615719565b61366a615629565b8482526000608083015261367c61191d565b60a0830152613689611e43565b8260c001818152505086608001516001600160a01b0316634d6228316040518163ffffffff1660e01b815260040160206040518083038186803b1580156136cf57600080fd5b505afa1580156136e3573d6000803e3d6000fd5b505050506040513d60208110156136f957600080fd5b50516001600160a01b039081166060840152608088015160408051631e22314360e01b815290516000939290921691631e22314391600480820192602092909190829003018186803b15801561374e57600080fd5b505afa158015613762573d6000803e3d6000fd5b505050506040513d602081101561377857600080fd5b50516000602085015290505b8483602001511080156137ad5750806001600160a01b031683606001516001600160a01b031614155b156139e257600088608001516001600160a01b031663b72703ac85606001516040518263ffffffff1660e01b815260040180826001600160a01b03166001600160a01b0316815260200191505060206040518083038186803b15801561381257600080fd5b505afa158015613826573d6000803e3d6000fd5b505050506040513d602081101561383c57600080fd5b50516060850151909150613850908961282f565b6040850152608084015161395457670f43fc2c04ee000084604001511015801561387957508351155b1561388457506139e2565b60006138998560c001518660a001518b6146bc565b8a5160208c01516060880151604089015189519495506138ba94868f614970565b608081015186519195506138d4919063ffffffff612ae916565b8552608084015160a08601516138ef9163ffffffff612ae916565b8560a00181815250506139248461010001516110e886604001516110e88860a001518a60c00151612ae990919063ffffffff16565b60c08601526139338685614ca2565b95506139488560c001518660a001518b614db9565b156080860152506139c4565b836080015180156139705750670f43fc2c04ee00008460400151105b156139be5761399189600001518a6020015186606001518760000151614dda565b608081015185519194506139ab919063ffffffff612ae916565b84526139b78584614ca2565b94506139c4565b506139e2565b6001600160a01b031660608401526020830180516001019052613784565b505050949350505050565b6139f5615629565b6139fd615719565b613a05615629565b600b54858352600060208401526001600160a01b03165b8483602001511015613b1357806001600160a01b0316634d6228316040518163ffffffff1660e01b815260040160206040518083038186803b158015613a6157600080fd5b505afa158015613a75573d6000803e3d6000fd5b505050506040513d6020811015613a8b57600080fd5b50516001600160a01b031660608401819052613aa7908861282f565b60408401819052670f43fc2c04ee00001115613afe57613ad1898985606001518660000151614dda565b60808101518451919350613aeb919063ffffffff612ae916565b8352613af78483614ca2565b9350613b03565b613b13565b6020830180516001019052613a1c565b50505095945050505050565b6000610d67613b39836103e8670de0b6b3a7640000613471565b66b1a2bc2ec50000614f48565b600082820183811015612b2b576040805162461bcd60e51b815260206004820152601b60248201527f536166654d6174683a206164646974696f6e206f766572666c6f770000000000604482015290519081900360640190fd5b6001600160a01b038116613bfb576040805162461bcd60e51b815260206004820152601e60248201527f4163636f756e742063616e6e6f74206265207a65726f20616464726573730000604482015290519081900360640190fd5b803b806112fc576040805162461bcd60e51b815260206004820181905260248201527f4163636f756e7420636f64652073697a652063616e6e6f74206265207a65726f604482015290519081900360640190fd5b6003546040516000916001600160a01b0316907f8be0079c531659141344cd1fd0a4f28419497f9722a3daafe3b4186f6b6457e0908390a3600380546001600160a01b0319169055565b601280546001600160a01b0383166000908152601460209081526040918290209283556013546001909301839055925481519081529283019190915280517fc437f324d85e369394148dd9d62f98f534b382e01ed3dd2eb98138fb6d3ab49a9281900390910190a150565b6000806000613d12846113c0565b90506000613d1f856111d1565b6001600160a01b0386166000908152600e602052604081206001015491925090613d4f908463ffffffff613b4616565b6001600160a01b0387166000908152600e602052604081205491925090613d7c908463ffffffff613b4616565b919550909350505050915091565b60008115613db657613daf826112848568056bc75e2d6310000063ffffffff61349116565b9050610d67565b50600019610d67565b600080613dca611e43565b90506000613dd661191d565b9050613de38282866146bc565b949350505050565b6611c37937e080008110801590613e0a5750670de0b6b3a76400008111155b610d125760405162461bcd60e51b815260040180806020018281038252603081526020018061599a6030913960400191505060405180910390fd5b60095460408051631e425be160e11b815290516000926001600160a01b031691633c84b7c2916004808301926020929190829003018186803b158015613e8a57600080fd5b505afa158015613e9e573d6000803e3d6000fd5b505050506040513d6020811015613eb457600080fd5b50519050613ecb816212750063ffffffff613b4616565b421015610d125760405162461bcd60e51b81526004018080602001828103825260408152602001806157f66040913960400191505060405180910390fd5b670f43fc2c04ee0000613f1b82613dbf565b1015610d125760405162461bcd60e51b815260040180806020018281038252602a8152602001806159ca602a913960400191505060405180910390fd5b60008111610d125760405162461bcd60e51b815260040180806020018281038252602e815260200180615936602e913960400191505060405180910390fd5b80836001600160a01b03166370a08231846040518263ffffffff1660e01b815260040180826001600160a01b03166001600160a01b0316815260200191505060206040518083038186803b158015613fee57600080fd5b505afa158015614002573d6000803e3d6000fd5b505050506040513d602081101561401857600080fd5b50511015612ae45760405162461bcd60e51b815260040180806020018281038252604e8152602001806158e8604e913960600191505060405180910390fd5b60006001600160a01b03831615806140ee5750836001600160a01b0316635dbe47e8846040518263ffffffff1660e01b815260040180826001600160a01b03166001600160a01b0316815260200191505060206040518083038186803b1580156140c057600080fd5b505afa1580156140d4573d6000803e3d6000fd5b505050506040513d60208110156140ea57600080fd5b5051155b806141095750670f43fc2c04ee0000614107848461282f565b105b1561411657506000612b2b565b6000846001600160a01b031663765e0159856040518263ffffffff1660e01b815260040180826001600160a01b03166001600160a01b0316815260200191505060206040518083038186803b15801561416e57600080fd5b505afa158015614182573d6000803e3d6000fd5b505050506040513d602081101561419857600080fd5b505190506001600160a01b0381161580611fb35750670f43fc2c04ee00006141c0828561282f565b1095945050505050565b6141d26156f6565b6001600160a01b0387166000908152600e602052604090205461420e90879061420990670de0b6b3a764000063ffffffff612ae916565b614f48565b80825261422f90869061128490670de0b6b3a764000063ffffffff61349116565b60208083019190915281516001600160a01b0389166000908152600e90925260408220546142629163ffffffff612ae916565b6020808401516001600160a01b038b166000908152600e909252604082206001015492935090916142989163ffffffff612ae916565b9050670de0b6b3a764000082141561432f576142b38961474b565b6142be8960046145a3565b6142d28a8a670de0b6b3a76400008461508a565b886001600160a01b0316600080516020615857833981519152600080600060036040518085815260200184815260200183815260200182600381111561431457fe5b60ff16815260200194505050505060405180910390a261446b565b600061433b8284613d8a565b9050848114158061435b5750677ce66c50e28400006143598461523f565b105b1561436f575050600160408301525061446e565b60808b01516040805163015f109360e51b81526001600160a01b038d81166004830152602482018590528a81166044830152898116606483015291519190921691632be2126091608480830192600092919082900301818387803b1580156143d657600080fd5b505af11580156143ea573d6000803e3d6000fd5b5050506001600160a01b038b166000908152600e60205260409020848155600101839055506144188a612bcc565b506001600160a01b038a166000818152600e6020908152604091829020600201548251878152918201869052818301526003606082015290516000805160206158578339815191529181900360800190a2505b50505b979650505050505050565b6000806144846135b2565b9050600061449c84611284888863ffffffff61349116565b905060006144c16144b483600263ffffffff6134ea16565b849063ffffffff613b4616565b90506144d581670de0b6b3a7640000614f48565b9050600081116144e157fe5b600c8190556040805182815290517fc454ee9b76c52f782a256af821b857ca6e125d1e3333bcede402fec2bed9600c9181900360200190a16112906135f6565b6000610d676128976111bf565b600061454c8361128486670de0b6b3a764000063ffffffff61349116565b90508181111561320b576040805162461bcd60e51b815260206004820152601d60248201527f4665652065786365656465642070726f7669646564206d6178696d756d000000604482015290519081900360640190fd5b60008160048111156145b157fe5b141580156145cb575060018160048111156145c857fe5b14155b6145d157fe5b6015546145dd81615259565b6001600160a01b0383166000908152600e60205260409020600301805483919060ff1916600183600481111561460f57fe5b02179055506001600160a01b0383166000908152600e602090815260408083206001808201859055908490556014909252822082815501556146518382615312565b600b5460408051631484968760e11b81526001600160a01b038681166004830152915191909216916329092d0e91602480830192600092919082900301818387803b15801561469f57600080fd5b505af11580156146b3573d6000803e3d6000fd5b50505050505050565b600082156146e35760006146da84611284878663ffffffff61349116565b9150612b2b9050565b50600019612b2b565b60008061470b670de0b6b3a7640000611284868663ffffffff61349116565b9050828110612b2b5760405162461bcd60e51b81526004018080602001828103825260368152602001806159646036913960400191505060405180910390fd5b6001600160a01b0381166000908152600e6020526040902060020154600f5461477a908263ffffffff612ae916565b600f55506001600160a01b03166000908152600e6020526040812060020155565b826001600160a01b03166306807413836040518263ffffffff1660e01b815260040180828152602001915050600060405180830381600087803b1580156147e157600080fd5b505af11580156147f5573d6000803e3d6000fd5b50505050836001600160a01b0316637f9856f5836040518263ffffffff1660e01b815260040180828152602001915050600060405180830381600087803b15801561483f57600080fd5b505af1158015614853573d6000803e3d6000fd5b50505050826001600160a01b031663be41205f826040518263ffffffff1660e01b815260040180828152602001915050600060405180830381600087803b15801561343d57600080fd5b6000818484111561492c5760405162461bcd60e51b81526004018080602001828103825283818151815260200191508051906020019080838360005b838110156148f15781810151838201526020016148d9565b50505050905090810190601f16801561491e5780820380516001836020036101000a031916815260200191505b509250505060405180910390fd5b505050900390565b60008060115460001415614949575081610d67565b60006010541161495557fe5b612b2b6011546112846010548661349190919063ffffffff16565b614978615629565b614980615761565b601554600110614990575061446e565b61499987611fdc565b604085015260208481019190915284018190529083526149b8906154b9565b60408301819052670de0b6b3a7640000606084015260208301516149e19163ffffffff612ae916565b8152670de0b6b3a76400008611614ae957614a0689898360200151846040015161479b565b614a0f8761474b565b60006080830181905260a0830152815160c0830152805160e0830152614a368760036145a3565b866001600160a01b031660008051602061578383398151915283600001518460200151600260405180848152602001838152602001826003811115614a7757fe5b60ff168152602001935050505060405180910390a2866001600160a01b03166000805160206158578339815191526000806000600260405180858152602001848152602001838152602001826003811115614ace57fe5b60ff16815260200194505050505060405180910390a2614c96565b670de0b6b3a764000086118015614b075750670f43fc2c04ee000086105b15614b5757614b2089898360200151846040015161479b565b614b298761474b565b81518151614b389190876154c0565b60e086015260c085015260a08401526080830152614a368760036145a3565b670f43fc2c04ee00008610158015614b6e57508386105b8015614b7b575081518510155b15614c8557614b9489898360200151846040015161479b565b84614b9b57fe5b614ba48761474b565b614bb7826000015183602001518561552c565b9150614bc48760036145a3565b61010082015115614c445760075461010083015160408051633f10abab60e01b81526001600160a01b038b81166004830152602482019390935290519190921691633f10abab91604480830192600092919082900301818387803b158015614c2b57600080fd5b505af1158015614c3f573d6000803e3d6000fd5b505050505b866001600160a01b031660008051602061578383398151915283600001518460a00151600260405180848152602001838152602001826003811115614a7757fe5b614c8d615629565b915061446e9050565b50979650505050505050565b614caa615629565b60408083015190840151614cc39163ffffffff613b4616565b604082015260608083015190840151614ce19163ffffffff613b4616565b606082015281516020840151614cfc9163ffffffff613b4616565b6020808301919091528201518351614d199163ffffffff613b4616565b815260808083015190840151614d349163ffffffff613b4616565b608082015260a08083015190840151614d529163ffffffff613b4616565b60a082015260c08083015190840151614d709163ffffffff613b4616565b60c082015260e08083015190840151614d8e9163ffffffff613b4616565b60e08201526101008083015190840151614dad9163ffffffff613b4616565b61010082015292915050565b600080614dc78585856146bc565b6714d1120d7b1600001195945050505050565b614de2615629565b614dea615761565b614df384611fdc565b60408501908152602085810192835286019290925291845290519051614e1d91889188919061479b565b614e268461474b565b614e3382602001516154b9565b60408301819052670de0b6b3a764000060608401526020830151600091614e60919063ffffffff612ae916565b9050614e71836000015182866154c0565b60e087015260c086015260a08501526080840152614e908560036145a3565b846001600160a01b031660008051602061578383398151915284600001518560200151600160405180848152602001838152602001826003811115614ed157fe5b60ff168152602001935050505060405180910390a2846001600160a01b03166000805160206158578339815191526000806000600160405180858152602001848152602001838152602001826003811115614f2857fe5b60ff16815260200194505050505060405180910390a25050949350505050565b6000818310614f575781612b2b565b5090919050565b60008183614fad5760405162461bcd60e51b81526020600482018181528351602484015283519092839260449091019190850190808383600083156148f15781810151838201526020016148d9565b506000838581614fb957fe5b0495945050505050565b60006111cc603c611284600d5442612ae990919063ffffffff16565b6000631f540500821115614ff557631f54050091505b816150095750670de0b6b3a7640000610d67565b670de0b6b3a764000083835b6001811115615080576002810661504a5761503082836155c5565b915061504381600263ffffffff6134ea16565b905061507b565b61505482846155c5565b925061506082836155c5565b9150615078600261128483600163ffffffff612ae916565b90505b615015565b61129082846155c5565b6040808501516006548251632770a7eb60e21b81526001600160a01b039182166004820152602481018690529251911691639dc29fac91604480830192600092919082900301818387803b1580156150e157600080fd5b505af11580156150f5573d6000803e3d6000fd5b5050505083600001516001600160a01b03166306807413836040518263ffffffff1660e01b815260040180828152602001915050600060405180830381600087803b15801561514357600080fd5b505af1158015615157573d6000803e3d6000fd5b505050508360a001516001600160a01b0316633f10abab84836040518363ffffffff1660e01b815260040180836001600160a01b03166001600160a01b0316815260200182815260200192505050600060405180830381600087803b1580156151bf57600080fd5b505af11580156151d3573d6000803e3d6000fd5b5050505083600001516001600160a01b03166364a197f38560a00151836040518363ffffffff1660e01b815260040180836001600160a01b03166001600160a01b0316815260200182815260200192505050600060405180830381600087803b15801561343d57600080fd5b6000610d6782670de0b6b3a764000063ffffffff612ae916565b6001811180156152d75750600b546040805163de8fa43160e01b815290516001926001600160a01b03169163de8fa431916004808301926020929190829003018186803b1580156152a957600080fd5b505afa1580156152bd573d6000803e3d6000fd5b505050506040513d60208110156152d357600080fd5b5051115b610d125760405162461bcd60e51b815260040180806020018281038252602a8152602001806157cc602a913960400191505060405180910390fd5b6001600160a01b0382166000908152600e602052604081206003015460ff169081600481111561533e57fe5b141580156153585750600181600481111561535557fe5b14155b61535e57fe5b6001600160a01b0383166000908152600e602052604081206003015461010090046001600160801b0316908390615396826001612ae9565b905080836001600160801b031611156153ab57fe5b6000601582815481106153ba57fe5b600091825260209091200154601580546001600160a01b03909216925082916001600160801b0387169081106153ec57fe5b600091825260208083209190910180546001600160a01b0319166001600160a01b03948516179055918316808252600e83526040918290206003018054610100600160881b0319166101006001600160801b038a169081029190911790915582519182529281019290925280517f02b04ae5f7be9ca7c103293a2aa15f3c339d15d6eda53b721fef7b0e609c831a9281900390910190a1601580548061548e57fe5b600082815260209020810160001990810180546001600160a01b031916905501905550505050505050565b60c8900490565b60008080808415615516576154d58786614f48565b93506154eb87611284888763ffffffff61349116565b92506154fd878563ffffffff612ae916565b915061550f868463ffffffff612ae916565b9050615523565b5060009250829150859050845b93509350935093565b615534615629565b83815260208101839052600061555c8361128487670f43fc2c04ee000063ffffffff61349116565b9050615567816154b9565b60408301819052670de0b6b3a764000060608401526080830186905261559490829063ffffffff612ae916565b60a08301526155a9848263ffffffff612ae916565b61010083015250600060c0820181905260e08201529392505050565b6000806155d8848463ffffffff61349116565b9050613de3670de0b6b3a7640000611284836706f05b59d3b20000613b46565b6040518060a00160405280600081526020016000815260200160001515815260200160008152602001600081525090565b6040518061012001604052806000815260200160008152602001600081526020016000815260200160008152602001600081526020016000815260200160008152602001600081525090565b6040805160e081018252600080825260208201819052918101829052606081018290526080810182905260a0810182905260c081019190915290565b60405180610100016040528060008152602001600081526020016000815260200160008152602001600081526020016000815260200160008152602001600081525090565b604051806060016040528060008152602001600081526020016000151581525090565b6040518060e0016040528060008152602001600081526020016000815260200160006001600160a01b0316815260200160001515815260200160008152602001600081525090565b6040518060600160405280600081526020016000815260200160008152509056feea67486ed7ebe3eea8ab3390efd4a3c8aae48be5bea27df104a8af786c40843454726f76654d616e616765723a20556e61626c6520746f2072656465656d20616e7920616d6f756e7454726f76654d616e616765723a204f6e6c79206f6e652074726f766520696e207468652073797374656d54726f76654d616e616765723a20526564656d7074696f6e7320617265206e6f7420616c6c6f77656420647572696e6720626f6f747374726170207068617365536166654d6174683a206d756c7469706c69636174696f6e206f766572666c6f77c3770d654ed33aeea6bf11ac8ef05d02a6a04ed4686dd2f624d853bbec43cc8b54726f76654d616e616765723a2043616c6c6572206973206e6f742074686520426f72726f7765724f7065726174696f6e7320636f6e747261637454726f76654d616e616765723a2043616c6c646174612061646472657373206172726179206d757374206e6f7420626520656d70747954726f76654d616e616765723a2052657175657374656420726564656d7074696f6e20616d6f756e74206d757374206265203c3d20757365722773205553444820746f6b656e2062616c616e636554726f76654d616e616765723a20416d6f756e74206d7573742062652067726561746572207468616e207a65726f54726f76654d616e616765723a2046656520776f756c642065617420757020616c6c2072657475726e656420636f6c6c61746572616c4d6178206665652070657263656e74616765206d757374206265206265747765656e20302e352520616e64203130302554726f76654d616e616765723a2043616e6e6f742072656465656d207768656e20544352203c204d435254726f76654d616e616765723a206e6f7468696e6720746f206c697175696461746554726f76654d616e616765723a2054726f766520646f6573206e6f74206578697374206f7220697320636c6f736564a2646970667358221220797a8dca5ae795504d37adac875056710c7a2c4c94956abdd9133aeda4490cb864736f6c634300060b0033608060405234801561001057600080fd5b50600380546001600160a01b031916339081179091556040516000907f8be0079c531659141344cd1fd0a4f28419497f9722a3daafe3b4186f6b6457e0908290a3613706806100606000396000f3fe6080604052600436106101a35760003560e01c80637f7dde4a116100e2578063ae91875411610085578063ae91875414610543578063c62dad6814610558578063c6a6cf201461059f578063ceb6680f146105e7578063daa3c0d8146105fc578063ea9638bf14610611578063f08e92c114610649578063f92d34331461065e576101a3565b80637f7dde4a146103d6578063860665b3146103eb578063887105d3146104255780638ba968171461043a5780638da5cb5b1461047b5780638f32d59b14610490578063a20baee6146101e6578063a3f4df7e146104b9576101a3565b80635733d58f1161014a5780635733d58f146102c157806368647db1146102d65780636c37a4af146103045780636f0b0c1c1461038257806372fe25aa146101e6578063741bef1a14610397578063794e5724146103ac578063795d26c3146103c1576101a3565b80630e704d50146101a85780631bf43555146101bf578063379ce628146101e65780633cc74225146101fb5780633d83908a1461022c5780634870dd9a146102415780634ff81443146102565780635530273c14610280575b600080fd5b3480156101b457600080fd5b506101bd610673565b005b3480156101cb57600080fd5b506101d4610a6b565b60408051918252519081900360200190f35b3480156101f257600080fd5b506101d4610a77565b34801561020757600080fd5b50610210610a83565b604080516001600160a01b039092168252519081900360200190f35b34801561023857600080fd5b50610210610a92565b34801561024d57600080fd5b506101d4610aa1565b34801561026257600080fd5b506101d46004803603602081101561027957600080fd5b5035610aa6565b34801561028c57600080fd5b506101bd600480360360608110156102a357600080fd5b508035906001600160a01b0360208201358116916040013516610ab7565b3480156102cd57600080fd5b506101d4610acd565b6101bd600480360360408110156102ec57600080fd5b506001600160a01b0381358116916020013516610ad9565b34801561031057600080fd5b506101bd600480360361014081101561032857600080fd5b506001600160a01b038135811691602081013582169160408201358116916060810135821691608082013581169160a081013582169160c082013581169160e0810135821691610100820135811691610120013516610aef565b34801561038e57600080fd5b506101bd610ea0565b3480156103a357600080fd5b50610210610f06565b3480156103b857600080fd5b506101d4610f15565b3480156103cd57600080fd5b506101d4610f21565b3480156103e257600080fd5b50610210611022565b6101bd6004803603608081101561040157600080fd5b508035906020810135906001600160a01b0360408201358116916060013516611031565b34801561043157600080fd5b506101d4611665565b34801561044657600080fd5b506101bd6004803603606081101561045d57600080fd5b508035906001600160a01b0360208201358116916040013516611721565b34801561048757600080fd5b50610210611733565b34801561049c57600080fd5b506104a5611742565b604080519115158252519081900360200190f35b3480156104c557600080fd5b506104ce611753565b6040805160208082528351818301528351919283929083019185019080838360005b838110156105085781810151838201526020016104f0565b50505050905090810190601f1680156105355780820380516001836020036101000a031916815260200191505b509250505060405180910390f35b34801561054f57600080fd5b50610210611781565b34801561056457600080fd5b506101bd6004803603608081101561057b57600080fd5b508035906020810135906001600160a01b0360408201358116916060013516611790565b6101bd600480360360c08110156105b557600080fd5b5080359060208101359060408101359060608101351515906001600160a01b03608082013581169160a00135166117a1565b3480156105f357600080fd5b506102106117b8565b34801561060857600080fd5b506102106117c7565b6101bd6004803603606081101561062757600080fd5b506001600160a01b0381358116916020810135821691604090910135166117d6565b34801561065557600080fd5b506102106117f0565b34801561066a57600080fd5b506101d46117ff565b600454600054600a546001600160a01b03928316929182169116610697833361180a565b60025460408051630fdb11cf60e01b815290516000926001600160a01b031691630fdb11cf91600480830192602092919082900301818787803b1580156106dd57600080fd5b505af11580156106f1573d6000803e3d6000fd5b505050506040513d602081101561070757600080fd5b50519050610714816118cf565b60408051630b07655760e01b815233600482015290516001600160a01b03861691630b07655791602480830192600092919082900301818387803b15801561075b57600080fd5b505af115801561076f573d6000803e3d6000fd5b5050604080516309019aaf60e31b81523360048201529051600093506001600160a01b038816925063480cd57891602480820192602092909190829003018186803b1580156107bd57600080fd5b505afa1580156107d1573d6000803e3d6000fd5b505050506040513d60208110156107e757600080fd5b50516040805163d66a255360e01b815233600482015290519192506000916001600160a01b0388169163d66a2553916024808301926020929190829003018186803b15801561083557600080fd5b505afa158015610849573d6000803e3d6000fd5b505050506040513d602081101561085f57600080fd5b50519050610885843361088084670de0b6b3a764000063ffffffff61191716565b611960565b600061089683600084600088611a20565b90506108a181611aab565b60408051631fc5750960e31b815233600482015290516001600160a01b0389169163fe2ba84891602480830192600092919082900301818387803b1580156108e857600080fd5b505af11580156108fc573d6000803e3d6000fd5b5050604080516365e89c5760e11b815233600482015290516001600160a01b038b16935063cbd138ae9250602480830192600092919082900301818387803b15801561094757600080fd5b505af115801561095b573d6000803e3d6000fd5b50505050336001600160a01b03166000805160206134df83398151915260008060006001604051808581526020018481526020018381526020018260028111156109a157fe5b60ff16815260200194505050505060405180910390a26109da8686336109d586670de0b6b3a764000063ffffffff61191716565b611af2565b6006546109fc90879087906001600160a01b0316670de0b6b3a7640000611af2565b604080516364a197f360e01b81523360048201526024810185905290516001600160a01b038816916364a197f391604480830192600092919082900301818387803b158015610a4a57600080fd5b505af1158015610a5e573d6000803e3d6000fd5b5050505050505050505050565b677ce66c50e284000081565b670de0b6b3a764000081565b6001546001600160a01b031681565b6004546001600160a01b031681565b60c881565b6000610ab182611bce565b92915050565b610ac8338460008086866000611be8565b505050565b6714d1120d7b16000081565b610aeb33600080600086866000611be8565b5050565b610af7611742565b610b48576040805162461bcd60e51b815260206004820181905260248201527f4f776e61626c653a2063616c6c6572206973206e6f7420746865206f776e6572604482015290519081900360640190fd5b610b518a6121e5565b610b5a896121e5565b610b63886121e5565b610b6c876121e5565b610b75866121e5565b610b7e856121e5565b610b87846121e5565b610b90836121e5565b610b99826121e5565b610ba2816121e5565b600480546001600160a01b03199081166001600160a01b038d81169182179093556000805483168d85161790556001805483168c85161790556005805483168b85161790556006805483168a8516179055600780548316898516179055600280548316888516179055600b80548316878516179055600a80548316868516179055600980548316938516938417905560088054909216909217905560408051918252517f143219c9e69b09e07e095fcc889b43d8f46ca892bba65f08dc3a0050869a5678916020908290030190a1604080516001600160a01b038b16815290517f78f058b189175430c48dc02699e3a0031ea4ff781536dc2fab847de4babdd8829181900360200190a1604080516001600160a01b038a16815290517f5ee0cae2f063ed938bb55046f6a932fb6ae792bf43624806bb90abe68a50be9b9181900360200190a1604080516001600160a01b038916815290517f82966d27eea39b038ee0fa30cd16532bb24f6e65d31cb58fb227aa5766cdcc7f9181900360200190a1604080516001600160a01b038816815290517fcfb07d791fcafc032b35837b50eb84b74df518cf4cc287e8084f47630fa70fa09181900360200190a1604080516001600160a01b038716815290517fe67f36a6e961157d6eff83b91f3af5a62131ceb6f04954ef74f51c1c05e7f88d9181900360200190a1604080516001600160a01b038616815290517f8c537274438aa850a330284665d81a85dd38267d09e4050d416bfc94142db2649181900360200190a1604080516001600160a01b038516815290517f65f4cf077bc01e4742eb5ad98326f6e95b63548ea24b17f8d5e823111fe788009181900360200190a1604080516001600160a01b038416815290517f5708bcd180e4da14a958eda749d47d0b1890743f14a286a3c7e88827a25c76a39181900360200190a1604080516001600160a01b038316815290517fe023fadc7af87342d2a3c323ff7df8cb11fef0409ea544984959f2fc037e6f2d9181900360200190a1610e94612294565b50505050505050505050565b6007546040805163b32beb5b60e01b815233600482015290516001600160a01b039092169163b32beb5b9160248082019260009290919082900301818387803b158015610eec57600080fd5b505af1158015610f00573d6000803e3d6000fd5b50505050565b6002546001600160a01b031681565b670f43fc2c04ee000081565b6000805460408051639ed76b3160e01b8152905183926001600160a01b031691639ed76b31916004808301926020929190829003018186803b158015610f6657600080fd5b505afa158015610f7a573d6000803e3d6000fd5b505050506040513d6020811015610f9057600080fd5b505160015460408051639ed76b3160e01b815290519293506000926001600160a01b0390921691639ed76b3191600480820192602092909190829003018186803b158015610fdd57600080fd5b505afa158015610ff1573d6000803e3d6000fd5b505050506040513d602081101561100757600080fd5b5051905061101b828263ffffffff6122de16565b9250505090565b6000546001600160a01b031681565b6110396131f5565b50604080516060810182526004546001600160a01b03908116825260005481166020830152600a541691810191909152611071613215565b600260009054906101000a90046001600160a01b03166001600160a01b0316630fdb11cf6040518163ffffffff1660e01b8152600401602060405180830381600087803b1580156110c157600080fd5b505af11580156110d5573d6000803e3d6000fd5b505050506040513d60208110156110eb57600080fd5b50518082526000906110fc90612338565b90506111088782612355565b82516111149033612401565b60408201869052806111555761113483600001518460400151888a6124dd565b60208301819052604083015161114f9163ffffffff6122de16565b60408301525b611162826040015161268d565b61116f8260400151611bce565b6060830181905261117c57fe5b61118f34836060015184600001516126d4565b608083015260608201516111a4903490612712565b60a083015280156111c1576111bc8260800151612747565b6111f4565b6111ce826080015161278e565b60006111e7346001856060015160018760000151611a20565b90506111f281611aab565b505b825160408051635d6b480f60e01b81523360048201526001602482015290516001600160a01b0390921691635d6b480f9160448082019260009290919082900301818387803b15801561124657600080fd5b505af115801561125a573d6000803e3d6000fd5b50508451604080516372423c1760e01b815233600482015234602482015290516001600160a01b0390921693506372423c1792506044808201926020929091908290030181600087803b1580156112b057600080fd5b505af11580156112c4573d6000803e3d6000fd5b505050506040513d60208110156112da57600080fd5b50508251606083015160408051639976cf4560e01b81523360048201526024810192909252516001600160a01b0390921691639976cf45916044808201926020929091908290030181600087803b15801561133457600080fd5b505af1158015611348573d6000803e3d6000fd5b505050506040513d602081101561135e57600080fd5b50508251604080516382fe3eb960e01b815233600482015290516001600160a01b03909216916382fe3eb99160248082019260009290919082900301818387803b1580156113ab57600080fd5b505af11580156113bf573d6000803e3d6000fd5b5050845160408051630c7940bd60e11b815233600482015290516001600160a01b0390921693506318f2817a92506024808201926020929091908290030181600087803b15801561140f57600080fd5b505af1158015611423573d6000803e3d6000fd5b505050506040513d602081101561143957600080fd5b505160c0830152600b5460a0830151604080516346f7cf8760e01b815233600482015260248101929092526001600160a01b038881166044840152878116606484015290519216916346f7cf879160848082019260009290919082900301818387803b1580156114a857600080fd5b505af11580156114bc573d6000803e3d6000fd5b50508451604080516315d549f160e01b815233600482015290516001600160a01b0390921693506315d549f192506024808201926020929091908290030181600087803b15801561150c57600080fd5b505af1158015611520573d6000803e3d6000fd5b505050506040513d602081101561153657600080fd5b505160e08301819052604080519182525133917f59cfd0cd754bc5748b6770e94a4ffa5f678d885cb899dcfadc5734edb97c67ab919081900360200190a26115828360200151346127d5565b61159b8360200151846040015133898660400151612865565b602083015160408401516006546115c69291906001600160a01b0316670de0b6b3a764000080612865565b336001600160a01b03166000805160206134df8339815191528360600151348560c0015160006040518085815260200184815260200183815260200182600281111561160e57fe5b60ff16815260200194505050505060405180910390a2602080830151604080519182525133927fa6c33c96b3256180e556535d65a4848a9e177c91eb5aae806744a63d63234adc928290030190a250505050505050565b6000805460408051630a7b61df60e11b8152905183926001600160a01b0316916314f6c3be916004808301926020929190829003018186803b1580156116aa57600080fd5b505afa1580156116be573d6000803e3d6000fd5b505050506040513d60208110156116d457600080fd5b505160015460408051630a7b61df60e11b815290519293506000926001600160a01b03909216916314f6c3be91600480820192602092909190829003018186803b158015610fdd57600080fd5b610ac833600085600086866000611be8565b6003546001600160a01b031690565b6003546001600160a01b0316331490565b60405180604001604052806012815260200171426f72726f7765724f7065726174696f6e7360701b81525081565b600b546001600160a01b031681565b610f0033600085600186868a611be8565b6117b03386868686868c611be8565b505050505050565b6009546001600160a01b031681565b6008546001600160a01b031681565b6117de612942565b610ac883600080600086866000611be8565b600a546001600160a01b031681565b6611c37937e0800081565b6000826001600160a01b03166321e37801836040518263ffffffff1660e01b815260040180826001600160a01b03166001600160a01b0316815260200191505060206040518083038186803b15801561186257600080fd5b505afa158015611876573d6000803e3d6000fd5b505050506040513d602081101561188c57600080fd5b5051905060018114610ac85760405162461bcd60e51b815260040180806020018281038252602e8152602001806134b1602e913960400191505060405180910390fd5b6118d881612338565b156119145760405162461bcd60e51b815260040180806020018281038252603981526020018061335f6039913960400191505060405180910390fd5b50565b600061195983836040518060400160405280601e81526020017f536166654d6174683a207375627472616374696f6e206f766572666c6f77000081525061298d565b9392505050565b80836001600160a01b03166370a08231846040518263ffffffff1660e01b815260040180826001600160a01b03166001600160a01b0316815260200191505060206040518083038186803b1580156119b757600080fd5b505afa1580156119cb573d6000803e3d6000fd5b505050506040513d60208110156119e157600080fd5b50511015610ac85760405162461bcd60e51b815260040180806020018281038252603d8152602001806132f2603d913960400191505060405180910390fd5b600080611a2b611665565b90506000611a37610f21565b905086611a5357611a4e828963ffffffff61191716565b611a63565b611a63828963ffffffff6122de16565b915084611a7f57611a7a818763ffffffff61191716565b611a8f565b611a8f818763ffffffff6122de16565b90506000611a9e8383876126d4565b9998505050505050505050565b6714d1120d7b1600008110156119145760405162461bcd60e51b81526004018080602001828103825260498152602001806134686049913960600191505060405180910390fd5b836001600160a01b03166306807413826040518263ffffffff1660e01b815260040180828152602001915050600060405180830381600087803b158015611b3857600080fd5b505af1158015611b4c573d6000803e3d6000fd5b50505050826001600160a01b0316639dc29fac83836040518363ffffffff1660e01b815260040180836001600160a01b03166001600160a01b0316815260200182815260200192505050600060405180830381600087803b158015611bb057600080fd5b505af1158015611bc4573d6000803e3d6000fd5b5050505050505050565b6000610ab182670de0b6b3a764000063ffffffff6122de16565b611bf06131f5565b50604080516060810182526004546001600160a01b03908116825260005481166020830152600a541691810191909152611c2861325a565b600260009054906101000a90046001600160a01b03166001600160a01b0316630fdb11cf6040518163ffffffff1660e01b8152600401602060405180830381600087803b158015611c7857600080fd5b505af1158015611c8c573d6000803e3d6000fd5b505050506040513d6020811015611ca257600080fd5b5051808252600090611cb390612338565b90508615611cce57611cc58482612355565b611cce88612a24565b611cd789612a63565b611ce18989612aa9565b8251611ced908b61180a565b336001600160a01b038b161480611d2357506005546001600160a01b031633148015611d195750600034115b8015611d23575087155b611d2957fe5b82600001516001600160a01b0316630b0765578b6040518263ffffffff1660e01b815260040180826001600160a01b03166001600160a01b03168152602001915050600060405180830381600087803b158015611d8557600080fd5b505af1158015611d99573d6000803e3d6000fd5b50505050611da7348a612afb565b15156060840152602083015260408201889052868015611dc5575080155b15611e0057611dde836000015184604001518a876124dd565b61012083018190526040830151611dfa9163ffffffff6122de16565b60408301525b82600001516001600160a01b031663d66a25538b6040518263ffffffff1660e01b815260040180826001600160a01b03166001600160a01b0316815260200191505060206040518083038186803b158015611e5a57600080fd5b505afa158015611e6e573d6000803e3d6000fd5b505050506040513d6020811015611e8457600080fd5b505160808301528251604080516309019aaf60e31b81526001600160a01b038d811660048301529151919092169163480cd578916024808301926020929190829003018186803b158015611ed757600080fd5b505afa158015611eeb573d6000803e3d6000fd5b505050506040513d6020811015611f0157600080fd5b505160a0830181905260808301518351611f1c9291906126d4565b8260c0018181525050611f4c8260a0015183608001518460200151856060015186604001518c8860000151612b1a565b60e083015260a0820151891115611f5f57fe5b611f6b818a8985612b4d565b86158015611f795750600088115b15611fcc57611fa7611fa28360400151611f968560800151612bc1565b9063ffffffff61191716565b61268d565b611fb982608001518360400151612bdb565b611fcc83604001518b8460400151611960565b611fea83600001518b8460200151856060015186604001518c612c31565b610140840152610160830152825160408051630c7940bd60e11b81526001600160a01b038d81166004830152915191909216916318f2817a9160248083019260209291908290030181600087803b15801561204457600080fd5b505af1158015612058573d6000803e3d6000fd5b505050506040513d602081101561206e57600080fd5b505161018083015260a082015160808301516020840151606085015160408601516000946120a2949093909290918d612e91565b600b546040805163015f109360e51b81526001600160a01b038f81166004830152602482018590528b811660448301528a811660648301529151939450911691632be212609160848082019260009290919082900301818387803b15801561210957600080fd5b505af115801561211d573d6000803e3d6000fd5b505050508a6001600160a01b03166000805160206134df83398151915284610140015185610160015186610180015160026040518085815260200184815260200183815260200182600281111561217057fe5b60ff16815260200194505050505060405180910390a2610120830151604080519182525133917fa6c33c96b3256180e556535d65a4848a9e177c91eb5aae806744a63d63234adc919081900360200190a2610a5e8460200151856040015133866020015187606001518e8e8a60400151612ec2565b6001600160a01b038116612240576040805162461bcd60e51b815260206004820152601e60248201527f4163636f756e742063616e6e6f74206265207a65726f20616464726573730000604482015290519081900360640190fd5b803b80610aeb576040805162461bcd60e51b815260206004820181905260248201527f4163636f756e7420636f64652073697a652063616e6e6f74206265207a65726f604482015290519081900360640190fd5b6003546040516000916001600160a01b0316907f8be0079c531659141344cd1fd0a4f28419497f9722a3daafe3b4186f6b6457e0908390a3600380546001600160a01b0319169055565b600082820183811015611959576040805162461bcd60e51b815260206004820152601b60248201527f536166654d6174683a206164646974696f6e206f766572666c6f770000000000604482015290519081900360640190fd5b60008061234483612f7d565b6714d1120d7b160000119392505050565b80156123a757670de0b6b3a76400008211156123a25760405162461bcd60e51b81526004018080602001828103825260328152602001806133cf6032913960400191505060405180910390fd5b610aeb565b6611c37937e0800082108015906123c65750670de0b6b3a76400008211155b610aeb5760405162461bcd60e51b815260040180806020018281038252603081526020018061362c6030913960400191505060405180910390fd5b6000826001600160a01b03166321e37801836040518263ffffffff1660e01b815260040180826001600160a01b03166001600160a01b0316815260200191505060206040518083038186803b15801561245957600080fd5b505afa15801561246d573d6000803e3d6000fd5b505050506040513d602081101561248357600080fd5b505190506001811415610ac8576040805162461bcd60e51b815260206004820152601c60248201527f426f72726f7765724f70733a2054726f76652069732061637469766500000000604482015290519081900360640190fd5b6000846001600160a01b0316635dba4c4a6040518163ffffffff1660e01b8152600401600060405180830381600087803b15801561251a57600080fd5b505af115801561252e573d6000803e3d6000fd5b505050506000856001600160a01b031663631203b0856040518263ffffffff1660e01b81526004018082815260200191505060206040518083038186803b15801561257857600080fd5b505afa15801561258c573d6000803e3d6000fd5b505050506040513d60208110156125a257600080fd5b505190506125b1818585612fa9565b60085460408051632c36f06160e21b81526004810184905290516001600160a01b039092169163b0dbc1849160248082019260009290919082900301818387803b1580156125fe57600080fd5b505af1158015612612573d6000803e3d6000fd5b5050600954604080516340c10f1960e01b81526001600160a01b03928316600482015260248101869052905191891693506340c10f19925060448082019260009290919082900301818387803b15801561266b57600080fd5b505af115801561267f573d6000803e3d6000fd5b509298975050505050505050565b677ce66c50e28400008110156119145760405162461bcd60e51b815260040180806020018281038252603a815260200180613586603a913960400191505060405180910390fd5b600082156127075760006126fe846126f2878663ffffffff61301e16565b9063ffffffff61307716565b91506119599050565b506000199392505050565b6000811561273e57612737826126f28568056bc75e2d6310000063ffffffff61301e16565b9050610ab1565b50600019610ab1565b6714d1120d7b1600008110156119145760405162461bcd60e51b81526004018080602001828103825260378152602001806133986037913960400191505060405180910390fd5b670f43fc2c04ee00008110156119145760405162461bcd60e51b815260040180806020018281038252604981526020018061353d6049913960600191505060405180910390fd5b6040516000906001600160a01b0384169083908381818185875af1925050503d8060008114612820576040519150601f19603f3d011682016040523d82523d6000602084013e612825565b606091505b5050905080610ac85760405162461bcd60e51b815260040180806020018281038252602d8152602001806132c5602d913960400191505060405180910390fd5b846001600160a01b0316637f9856f5826040518263ffffffff1660e01b815260040180828152602001915050600060405180830381600087803b1580156128ab57600080fd5b505af11580156128bf573d6000803e3d6000fd5b50505050836001600160a01b03166340c10f1984846040518363ffffffff1660e01b815260040180836001600160a01b03166001600160a01b0316815260200182815260200192505050600060405180830381600087803b15801561292357600080fd5b505af1158015612937573d6000803e3d6000fd5b505050505050505050565b6005546001600160a01b0316331461298b5760405162461bcd60e51b81526004018080602001828103825260298152602001806136036029913960400191505060405180910390fd5b565b60008184841115612a1c5760405162461bcd60e51b81526004018080602001828103825283818151815260200191508051906020019080838360005b838110156129e15781810151838201526020016129c9565b50505050905090810190601f168015612a0e5780820380516001836020036101000a031916815260200191505b509250505060405180910390fd5b505050900390565b600081116119145760405162461bcd60e51b815260040180806020018281038252603781526020018061365c6037913960400191505060405180910390fd5b341580612a6e575080155b6119145760405162461bcd60e51b815260040180806020018281038252603081526020018061332f6030913960400191505060405180910390fd5b34151580612ab657508115155b80612ac057508015155b610aeb5760405162461bcd60e51b81526004018080602001828103825260468152602001806134016046913960600191505060405180910390fd5b6000808315612b0f57508290506001612b13565b8291505b9250929050565b6000806000612b2d8a8a8a8a8a8a6130b9565b915091506000612b3e8383876126d4565b9b9a5050505050505050505050565b8315612b8657612b5c83613114565b8115612b8157612b6f8160e00151612747565b612b818160e001518260c00151613151565b610f00565b612b938160e0015161278e565b612bb0816020015182606001518360400151858560000151611a20565b6101008201819052610f0090611aab565b6000610ab182670de0b6b3a764000063ffffffff61191716565b612bf382670de0b6b3a764000063ffffffff61191716565b811115610aeb5760405162461bcd60e51b81526004018080602001828103825260438152602001806135c06043913960600191505060405180910390fd5b600080600085612ccc57886001600160a01b031663d3d6f84389896040518363ffffffff1660e01b815260040180836001600160a01b03166001600160a01b0316815260200182815260200192505050602060405180830381600087803b158015612c9b57600080fd5b505af1158015612caf573d6000803e3d6000fd5b505050506040513d6020811015612cc557600080fd5b5051612d59565b886001600160a01b03166372423c1789896040518363ffffffff1660e01b815260040180836001600160a01b03166001600160a01b0316815260200182815260200192505050602060405180830381600087803b158015612d2c57600080fd5b505af1158015612d40573d6000803e3d6000fd5b505050506040513d6020811015612d5657600080fd5b50515b9050600084612df357896001600160a01b03166312610e928a886040518363ffffffff1660e01b815260040180836001600160a01b03166001600160a01b0316815260200182815260200192505050602060405180830381600087803b158015612dc257600080fd5b505af1158015612dd6573d6000803e3d6000fd5b505050506040513d6020811015612dec57600080fd5b5051612e80565b896001600160a01b0316639976cf458a886040518363ffffffff1660e01b815260040180836001600160a01b03166001600160a01b0316815260200182815260200192505050602060405180830381600087803b158015612e5357600080fd5b505af1158015612e67573d6000803e3d6000fd5b505050506040513d6020811015612e7d57600080fd5b50515b919a91995090975050505050505050565b6000806000612ea48989898989896130b9565b915091506000612eb48383612712565b9a9950505050505050505050565b8115612eda57612ed58888888685612865565b612ee6565b612ee688888886611af2565b8315612efb57612ef688866127d5565b611bc4565b876001600160a01b03166364a197f387876040518363ffffffff1660e01b815260040180836001600160a01b03166001600160a01b0316815260200182815260200192505050600060405180830381600087803b158015612f5b57600080fd5b505af1158015612f6f573d6000803e3d6000fd5b505050505050505050505050565b600080612f88611665565b90506000612f94610f21565b9050612fa18282866126d4565b949350505050565b6000612fc7836126f286670de0b6b3a764000063ffffffff61301e16565b905081811115610f00576040805162461bcd60e51b815260206004820152601d60248201527f4665652065786365656465642070726f7669646564206d6178696d756d000000604482015290519081900360640190fd5b60008261302d57506000610ab1565b8282028284828161303a57fe5b04146119595760405162461bcd60e51b81526004018080602001828103825260218152602001806134476021913960400191505060405180910390fd5b600061195983836040518060400160405280601a81526020017f536166654d6174683a206469766973696f6e206279207a65726f000000000000815250613190565b6000808787866130d8576130d38a8963ffffffff61191716565b6130e8565b6130e88a8963ffffffff6122de16565b915084613104576130ff898763ffffffff61191716565b612e80565b612e80898763ffffffff6122de16565b80156119145760405162461bcd60e51b815260040180806020018281038252603e8152602001806134ff603e913960400191505060405180910390fd5b80821015610aeb5760405162461bcd60e51b815260040180806020018281038252603e815260200180613693603e913960400191505060405180910390fd5b600081836131df5760405162461bcd60e51b81526020600482018181528351602484015283519092839260449091019190850190808383600083156129e15781810151838201526020016129c9565b5060008385816131eb57fe5b0495945050505050565b604080516060810182526000808252602082018190529181019190915290565b60405180610100016040528060008152602001600081526020016000815260200160008152602001600081526020016000815260200160008152602001600081525090565b604051806101a00160405280600081526020016000815260200160008152602001600015158152602001600081526020016000815260200160008152602001600081526020016000815260200160008152602001600081526020016000815260200160008152509056fe426f72726f7765724f70733a2053656e64696e672045544820746f20416374697665506f6f6c206661696c6564426f72726f7765724f70733a2043616c6c657220646f65736e74206861766520656e6f756768205553444820746f206d616b652072657061796d656e74426f72726f7765724f7065726174696f6e733a2043616e6e6f7420776974686472617720616e642061646420636f6c6c426f72726f7765724f70733a204f7065726174696f6e206e6f74207065726d697474656420647572696e67205265636f76657279204d6f6465426f72726f7765724f70733a204f7065726174696f6e206d757374206c656176652074726f7665207769746820494352203e3d204343524d6178206665652070657263656e74616765206d757374206c657373207468616e206f7220657175616c20746f2031303025426f72726f7765724f70733a205468657265206d75737420626520656974686572206120636f6c6c61746572616c206368616e6765206f7220612064656274206368616e6765536166654d6174683a206d756c7469706c69636174696f6e206f766572666c6f77426f72726f7765724f70733a20416e206f7065726174696f6e207468617420776f756c6420726573756c7420696e20544352203c20434352206973206e6f74207065726d6974746564426f72726f7765724f70733a2054726f766520646f6573206e6f74206578697374206f7220697320636c6f736564c3770d654ed33aeea6bf11ac8ef05d02a6a04ed4686dd2f624d853bbec43cc8b426f72726f7765724f70733a20436f6c6c61746572616c207769746864726177616c206e6f74207065726d6974746564205265636f76657279204d6f6465426f72726f7765724f70733a20416e206f7065726174696f6e207468617420776f756c6420726573756c7420696e20494352203c204d4352206973206e6f74207065726d6974746564426f72726f7765724f70733a2054726f76652773206e65742064656274206d7573742062652067726561746572207468616e206d696e696d756d426f72726f7765724f70733a20416d6f756e7420726570616964206d757374206e6f74206265206c6172676572207468616e207468652054726f766527732064656274426f72726f7765724f70733a2043616c6c6572206973206e6f742053746162696c69747920506f6f6c4d6178206665652070657263656e74616765206d757374206265206265747765656e20302e352520616e642031303025426f72726f7765724f70733a204465627420696e637265617365207265717569726573206e6f6e2d7a65726f20646562744368616e6765426f72726f7765724f70733a2043616e6e6f7420646563726561736520796f75722054726f766527732049435220696e205265636f76657279204d6f6465a264697066735822122099af9998e4435a91d4ef7ed63724028512c5aaa5a2ca73958a6aced701cb884a64736f6c634300060b0033608060405234801561001057600080fd5b50600080546001600160a01b0319163390811782556040519091907f8be0079c531659141344cd1fd0a4f28419497f9722a3daafe3b4186f6b6457e0908290a3610bbd8061005f6000396000f3fe6080604052600436106100b65760003560e01c80637f9856f51161006f5780637f9856f5146102315780638da5cb5b1461025b5780638f32d59b146102705780639ed76b3114610299578063a3f4df7e146102ae578063aac1846f14610338578063b7f8cf9b1461034d5761010f565b806306807413146101145780630b622ab21461014057806314f6c3be146101715780634a945f8d146101985780635a4d28bb146101e357806364a197f3146101f85761010f565b3661010f576100c3610362565b6005546100d6903463ffffffff6103c216565b600581905560408051918252517fca232b5abb988c540b959ff6c3bfae3e97fff964fd098c508f9613c0a6bf1a809181900360200190a1005b600080fd5b34801561012057600080fd5b5061013e6004803603602081101561013757600080fd5b5035610423565b005b34801561014c57600080fd5b50610155610478565b604080516001600160a01b039092168252519081900360200190f35b34801561017d57600080fd5b50610186610487565b60408051918252519081900360200190f35b3480156101a457600080fd5b5061013e600480360360808110156101bb57600080fd5b506001600160a01b03813581169160208101358216916040820135811691606001351661048d565b3480156101ef57600080fd5b50610155610646565b34801561020457600080fd5b5061013e6004803603604081101561021b57600080fd5b506001600160a01b038135169060200135610655565b34801561023d57600080fd5b5061013e6004803603602081101561025457600080fd5b5035610796565b34801561026757600080fd5b506101556107b1565b34801561027c57600080fd5b506102856107c0565b604080519115158252519081900360200190f35b3480156102a557600080fd5b506101866107d1565b3480156102ba57600080fd5b506102c36107d7565b6040805160208082528351818301528351919283929083019185019080838360005b838110156102fd5781810151838201526020016102e5565b50505050905090810190601f16801561032a5780820380516001836020036101000a031916815260200191505b509250505060405180910390f35b34801561034457600080fd5b506101556107fd565b34801561035957600080fd5b5061015561080c565b6001546001600160a01b031633148061038557506004546001600160a01b031633145b6103c05760405162461bcd60e51b8152600401808060200182810382526031815260200180610b576031913960400191505060405180910390fd5b565b60008282018381101561041c576040805162461bcd60e51b815260206004820152601b60248201527f536166654d6174683a206164646974696f6e206f766572666c6f770000000000604482015290519081900360640190fd5b9392505050565b61042b61081b565b60065461043e908263ffffffff61088e16565b600681905560408051918252517f897462fd1c8fe1dd5df54d3c44f7ac644420e9888299bcdddf2c34946b3a53fa9181900360200190a150565b6003546001600160a01b031681565b60055490565b6104956107c0565b6104e6576040805162461bcd60e51b815260206004820181905260248201527f4f776e61626c653a2063616c6c6572206973206e6f7420746865206f776e6572604482015290519081900360640190fd5b6104ef846108d0565b6104f8836108d0565b610501826108d0565b61050a816108d0565b600180546001600160a01b038087166001600160a01b031992831681179093556002805487831690841617905560038054868316908416179055600480549185169190921617905560408051918252517f3ca631ffcd2a9b5d9ae18543fc82f58eb4ca33af9e6ab01b7a8e95331e6ed9859181900360200190a1604080516001600160a01b038516815290517f143219c9e69b09e07e095fcc889b43d8f46ca892bba65f08dc3a0050869a56789181900360200190a1604080516001600160a01b038416815290517f82966d27eea39b038ee0fa30cd16532bb24f6e65d31cb58fb227aa5766cdcc7f9181900360200190a1604080516001600160a01b038316815290517f5ee0cae2f063ed938bb55046f6a932fb6ae792bf43624806bb90abe68a50be9b9181900360200190a1610640610983565b50505050565b6002546001600160a01b031681565b61065d61081b565b600554610670908263ffffffff61088e16565b600581905560408051918252517fca232b5abb988c540b959ff6c3bfae3e97fff964fd098c508f9613c0a6bf1a809181900360200190a1604080516001600160a01b03841681526020810183905281517f6109e2559dfa766aaec7118351d48a523f0a4157f49c8d68749c8ac41318ad12929181900390910190a16040516000906001600160a01b0384169083908381818185875af1925050503d8060008114610736576040519150601f19603f3d011682016040523d82523d6000602084013e61073b565b606091505b5050905080610791576040805162461bcd60e51b815260206004820152601e60248201527f416374697665506f6f6c3a2073656e64696e6720455448206661696c65640000604482015290519081900360640190fd5b505050565b61079e6109cd565b60065461043e908263ffffffff6103c216565b6000546001600160a01b031690565b6000546001600160a01b0316331490565b60065490565b6040518060400160405280600a8152602001691058dd1a5d99541bdbdb60b21b81525081565b6004546001600160a01b031681565b6001546001600160a01b031681565b6001546001600160a01b031633148061083e57506002546001600160a01b031633145b8061085357506003546001600160a01b031633145b6103c05760405162461bcd60e51b8152600401808060200182810382526053815260200180610b046053913960600191505060405180910390fd5b600061041c83836040518060400160405280601e81526020017f536166654d6174683a207375627472616374696f6e206f766572666c6f770000815250610a2b565b6001600160a01b03811661092b576040805162461bcd60e51b815260206004820152601e60248201527f4163636f756e742063616e6e6f74206265207a65726f20616464726573730000604482015290519081900360640190fd5b803b8061097f576040805162461bcd60e51b815260206004820181905260248201527f4163636f756e7420636f64652073697a652063616e6e6f74206265207a65726f604482015290519081900360640190fd5b5050565b600080546040516001600160a01b03909116907f8be0079c531659141344cd1fd0a4f28419497f9722a3daafe3b4186f6b6457e0908390a3600080546001600160a01b0319169055565b6001546001600160a01b03163314806109f057506002546001600160a01b031633145b6103c05760405162461bcd60e51b8152600401808060200182810382526041815260200180610ac36041913960600191505060405180910390fd5b60008184841115610aba5760405162461bcd60e51b81526004018080602001828103825283818151815260200191508051906020019080838360005b83811015610a7f578181015183820152602001610a67565b50505050905090810190601f168015610aac5780820380516001836020036101000a031916815260200191505b509250505060405180910390fd5b50505090039056fe416374697665506f6f6c3a2043616c6c6572206973206e65697468657220426f72726f7765724f7065726174696f6e73206e6f722054726f76654d616e61676572416374697665506f6f6c3a2043616c6c6572206973206e65697468657220426f72726f7765724f7065726174696f6e73206e6f722054726f76654d616e61676572206e6f722053746162696c697479506f6f6c416374697665506f6f6c3a2043616c6c6572206973206e65697468657220424f206e6f722044656661756c7420506f6f6ca2646970667358221220eaf49b561db95ae19bac20f3e46ab94ef34f8201cdc33c8a88521c8df8436ec664736f6c634300060b0033608060405234801561001057600080fd5b50600080546001600160a01b0319163390811782556040519091907f8be0079c531659141344cd1fd0a4f28419497f9722a3daafe3b4186f6b6457e0908290a36109988061005f6000396000f3fe6080604052600436106100a05760003560e01c80638f32d59b116100645780638f32d59b146101c157806390107afe146101ea5780639ed76b3114610225578063a3f4df7e1461023a578063b08bc722146102c4578063be41205f146102d9576100f9565b806306807413146100fe57806314f6c3be1461012a5780635a4d28bb146101515780637f9856f5146101825780638da5cb5b146101ac576100f9565b366100f9576100ad610303565b6003546100c0903463ffffffff61034e16565b600381905560408051918252517f9a14ae677a60400af9176bed2e2d5ce8dfa6405e6c1702debb27668f567214289181900360200190a1005b600080fd5b34801561010a57600080fd5b506101286004803603602081101561012157600080fd5b50356103af565b005b34801561013657600080fd5b5061013f610404565b60408051918252519081900360200190f35b34801561015d57600080fd5b5061016661040a565b604080516001600160a01b039092168252519081900360200190f35b34801561018e57600080fd5b50610128600480360360208110156101a557600080fd5b5035610419565b3480156101b857600080fd5b50610166610434565b3480156101cd57600080fd5b506101d6610443565b604080519115158252519081900360200190f35b3480156101f657600080fd5b506101286004803603604081101561020d57600080fd5b506001600160a01b0381358116916020013516610454565b34801561023157600080fd5b5061013f610567565b34801561024657600080fd5b5061024f61056d565b6040805160208082528351818301528351919283929083019185019080838360005b83811015610289578181015183820152602001610271565b50505050905090810190601f1680156102b65780820380516001836020036101000a031916815260200191505b509250505060405180910390f35b3480156102d057600080fd5b50610166610594565b3480156102e557600080fd5b50610128600480360360208110156102fc57600080fd5b50356105a3565b6002546001600160a01b0316331461034c5760405162461bcd60e51b815260040180806020018281038252602981526020018061090f6029913960400191505060405180910390fd5b565b6000828201838110156103a8576040805162461bcd60e51b815260206004820152601b60248201527f536166654d6174683a206164646974696f6e206f766572666c6f770000000000604482015290519081900360640190fd5b9392505050565b6103b76106f3565b6004546103ca908263ffffffff61073c16565b600481905560408051918252517fdd5c077c99ced573dc8d03b673eb908f3b2e0e7397e377a3d6e6f733c1ba66f99181900360200190a150565b60035490565b6001546001600160a01b031681565b6104216106f3565b6004546103ca908263ffffffff61034e16565b6000546001600160a01b031690565b6000546001600160a01b0316331490565b61045c610443565b6104ad576040805162461bcd60e51b815260206004820181905260248201527f4f776e61626c653a2063616c6c6572206973206e6f7420746865206f776e6572604482015290519081900360640190fd5b6104b68261077e565b6104bf8161077e565b600180546001600160a01b038085166001600160a01b03199283168117909355600280549185169190921617905560408051918252517f143219c9e69b09e07e095fcc889b43d8f46ca892bba65f08dc3a0050869a56789181900360200190a1604080516001600160a01b038316815290517f78f058b189175430c48dc02699e3a0031ea4ff781536dc2fab847de4babdd8829181900360200190a161056361082d565b5050565b60045490565b6040518060400160405280600b81526020016a111959985d5b1d141bdbdb60aa1b81525081565b6002546001600160a01b031681565b6105ab6106f3565b6002546003546001600160a01b03909116906105cd908363ffffffff61073c16565b600381905560408051918252517f9a14ae677a60400af9176bed2e2d5ce8dfa6405e6c1702debb27668f567214289181900360200190a1604080516001600160a01b03831681526020810184905281517f6109e2559dfa766aaec7118351d48a523f0a4157f49c8d68749c8ac41318ad12929181900390910190a16040516000906001600160a01b0383169084908381818185875af1925050503d8060008114610693576040519150601f19603f3d011682016040523d82523d6000602084013e610698565b606091505b50509050806106ee576040805162461bcd60e51b815260206004820152601f60248201527f44656661756c74506f6f6c3a2073656e64696e6720455448206661696c656400604482015290519081900360640190fd5b505050565b6001546001600160a01b0316331461034c5760405162461bcd60e51b815260040180806020018281038252602b815260200180610938602b913960400191505060405180910390fd5b60006103a883836040518060400160405280601e81526020017f536166654d6174683a207375627472616374696f6e206f766572666c6f770000815250610877565b6001600160a01b0381166107d9576040805162461bcd60e51b815260206004820152601e60248201527f4163636f756e742063616e6e6f74206265207a65726f20616464726573730000604482015290519081900360640190fd5b803b80610563576040805162461bcd60e51b815260206004820181905260248201527f4163636f756e7420636f64652073697a652063616e6e6f74206265207a65726f604482015290519081900360640190fd5b600080546040516001600160a01b03909116907f8be0079c531659141344cd1fd0a4f28419497f9722a3daafe3b4186f6b6457e0908390a3600080546001600160a01b0319169055565b600081848411156109065760405162461bcd60e51b81526004018080602001828103825283818151815260200191508051906020019080838360005b838110156108cb5781810151838201526020016108b3565b50505050905090810190601f1680156108f85780820380516001836020036101000a031916815260200191505b509250505060405180910390fd5b50505090039056fe44656661756c74506f6f6c3a2043616c6c6572206973206e6f742074686520416374697665506f6f6c44656661756c74506f6f6c3a2043616c6c6572206973206e6f74207468652054726f76654d616e61676572a2646970667358221220596a4f6711631522226cfcc6268c75591c444b77cb8d90215e1d22bb2127eed464736f6c634300060b00336080604052670de0b6b3a764000060105534801561001c57600080fd5b50600380546001600160a01b031916339081179091556040516000907f8be0079c531659141344cd1fd0a4f28419497f9722a3daafe3b4186f6b6457e0908290a36139018061006c6000396000f3fe6080604052600436106102975760003560e01c8063795d26c31161015a578063a7bfff97116100c1578063df9cd84f1161007a578063df9cd84f146108f5578063eaa8ba7f14610928578063f08e92c11461098d578063f92d3433146109a2578063fc7e286d146109b7578063fda0101a14610a0b576102de565b8063a7bfff9714610840578063ae9187541461088c578063c3c02667146108a1578063ce4b5bbe146108b6578063cf8b2cfe146108cb578063d7fb0443146108e0576102de565b80638da5cb5b116101135780638da5cb5b1461074e5780638f32d59b1461076357806395fb16bb1461078c578063a20baee614610468578063a3f4df7e146107a1578063a4e59ac81461082b576102de565b8063795d26c31461068c5780637f7dde4a146106a157806382e0a574146106b657806386da0824146106f1578063887105d3146107245780638b8fbd9214610739576102de565b80634870dd9a116101fe5780635f788d65116101b75780635f788d65146105e357806372fe25aa14610468578063741bef1a1461061c578063766718081461063157806377553ad414610662578063794e572414610677576102de565b80634870dd9a146104f657806353381e531461050b578063556be1011461053e5780635733d58f146105685780635bf56a561461057d5780635d2de642146105b0576102de565b8063335525ad11610250578063335525ad1461040557806336da3b7514610435578063379ce62814610468578063389e92a51461047d5780633cc74225146104b05780633d83908a146104e1576102de565b806314413c97146102e357806314f6c3be1461030a57806316b9d3c51461031f5780631bf435551461038957806328a0a04d1461039e5780632e54bf95146103d9576102de565b366102de576102a4610a46565b6009546102b7903463ffffffff610a9116565b600981905560408051918252516000805160206136358339815191529181900360200190a1005b600080fd5b3480156102ef57600080fd5b506102f8610af4565b60408051918252519081900360200190f35b34801561031657600080fd5b506102f8610afa565b34801561032b57600080fd5b506103526004803603602081101561034257600080fd5b50356001600160a01b0316610b00565b604080519586526020860194909452848401929092526001600160801b039081166060850152166080830152519081900360a00190f35b34801561039557600080fd5b506102f8610b3b565b3480156103aa57600080fd5b506102f8600480360360408110156103c157600080fd5b506001600160801b0381358116916020013516610b47565b3480156103e557600080fd5b50610403600480360360208110156103fc57600080fd5b5035610b64565b005b34801561041157600080fd5b506104036004803603604081101561042857600080fd5b5080359060200135610ced565b34801561044157600080fd5b506102f86004803603602081101561045857600080fd5b50356001600160a01b0316610d51565b34801561047457600080fd5b506102f8610e74565b34801561048957600080fd5b506102f8600480360360208110156104a057600080fd5b50356001600160a01b0316610e80565b3480156104bc57600080fd5b506104c5610f26565b604080516001600160a01b039092168252519081900360200190f35b3480156104ed57600080fd5b506104c5610f35565b34801561050257600080fd5b506102f8610f44565b34801561051757600080fd5b506102f86004803603602081101561052e57600080fd5b50356001600160a01b0316610f49565b34801561054a57600080fd5b506104036004803603602081101561056157600080fd5b5035611029565b34801561057457600080fd5b506102f861109e565b34801561058957600080fd5b506102f8600480360360208110156105a057600080fd5b50356001600160a01b03166110aa565b3480156105bc57600080fd5b506102f8600480360360208110156105d357600080fd5b50356001600160a01b0316611147565b3480156105ef57600080fd5b506104036004803603604081101561060657600080fd5b50803590602001356001600160a01b0316611159565b34801561062857600080fd5b506104c56112da565b34801561063d57600080fd5b506106466112e9565b604080516001600160801b039092168252519081900360200190f35b34801561066e57600080fd5b506104c56112ff565b34801561068357600080fd5b506102f861130e565b34801561069857600080fd5b506102f861131a565b3480156106ad57600080fd5b506104c561141b565b3480156106c257600080fd5b506102f8600480360360408110156106d957600080fd5b506001600160801b038135811691602001351661142a565b3480156106fd57600080fd5b506103526004803603602081101561071457600080fd5b50356001600160a01b0316611447565b34801561073057600080fd5b506102f8611482565b34801561074557600080fd5b506102f861153e565b34801561075a57600080fd5b506104c5611544565b34801561076f57600080fd5b50610778611553565b604080519115158252519081900360200190f35b34801561079857600080fd5b506104c5611564565b3480156107ad57600080fd5b506107b6611573565b6040805160208082528351818301528351919283929083019185019080838360005b838110156107f05781810151838201526020016107d8565b50505050905090810190601f16801561081d5780820380516001836020036101000a031916815260200191505b509250505060405180910390f35b34801561083757600080fd5b5061064661159c565b34801561084c57600080fd5b506108736004803603602081101561086357600080fd5b50356001600160a01b03166115ab565b6040805192835290151560208301528051918290030190f35b34801561089857600080fd5b506104c56115c7565b3480156108ad57600080fd5b506102f86115d6565b3480156108c257600080fd5b506102f86115dc565b3480156108d757600080fd5b506102f86115e4565b3480156108ec57600080fd5b506102f86115ea565b34801561090157600080fd5b506102f86004803603602081101561091857600080fd5b50356001600160a01b03166115f0565b34801561093457600080fd5b50610403600480360360e081101561094b57600080fd5b506001600160a01b038135811691602081013582169160408201358116916060810135821691608082013581169160a081013582169160c0909101351661168d565b34801561099957600080fd5b506104c561193e565b3480156109ae57600080fd5b506102f861194d565b3480156109c357600080fd5b506109ea600480360360208110156109da57600080fd5b50356001600160a01b0316611958565b604080519283526001600160a01b0390911660208301528051918290030190f35b348015610a1757600080fd5b5061040360048036036040811015610a2e57600080fd5b506001600160a01b038135811691602001351661197a565b6000546001600160a01b03163314610a8f5760405162461bcd60e51b815260040180806020018281038252602781526020018061360e6027913960400191505060405180910390fd5b565b600082820183811015610aeb576040805162461bcd60e51b815260206004820152601b60248201527f536166654d6174683a206164646974696f6e206f766572666c6f770000000000604482015290519081900360640190fd5b90505b92915050565b60165481565b60095490565b600f602052600090815260409020805460018201546002830154600390930154919290916001600160801b0380821691600160801b90041685565b677ce66c50e284000081565b601260209081526000928352604080842090915290825290205481565b8015610b7257610b72611baa565b336000908152600b6020526040902054610b8b81611d67565b6008546001600160a01b0316610ba081611da9565b6000610bab33610e80565b90506000610bb8336110aa565b90506000610bc68683611e1d565b90506000610bda868463ffffffff611e3316565b336000818152600b60205260409020600101549192506001600160a01b0390911690610c0890879083611e75565b6000610c13826115f0565b90506000610c27828663ffffffff611e3316565b9050610c338382612014565b6040805182815233602082015281516001600160a01b0386169260008051602061381b833981519152928290030190a2610c6d3386612160565b6000610c7f878763ffffffff611e3316565b9050610c8b33826121e6565b6040805182815290513391600080516020613686833981519152919081900360200190a260408051898152602081018790528151339260008051602061376a833981519152928290030190a2610ce08861236c565b5050505050505050505050565b610cf5612478565b600a54801580610d03575082155b15610d0e5750610d4d565b600854610d23906001600160a01b0316611da9565b600080610d318486856124c1565b91509150610d3f82826125ba565b610d4984866128b4565b5050505b5050565b6001600160a01b0381166000908152600b602052604081205480610d79576000915050610e6f565b6001600160a01b038084166000908152600b6020526040812060010154909116908115610dbe576001600160a01b0382166000908152600d6020526040902054610dc8565b670de0b6b3a76400005b9050610dd2613540565b506001600160a01b0385166000908152600c60209081526040808320815160a08101835281548152600182015493810193909352600281015491830191909152600301546001600160801b038082166060840152600160801b90910416608082015290610e67670de0b6b3a7640000610e5b610e4e88866129ee565b869063ffffffff612ae016565b9063ffffffff612b3916565b955050505050505b919050565b670de0b6b3a764000081565b6001600160a01b0381166000908152600b602052604081205480610ea8576000915050610e6f565b610eb0613540565b506001600160a01b0383166000908152600c60209081526040808320815160a08101835281548152600182015493810193909352600281015491830191909152600301546001600160801b038082166060840152600160801b90910416608082015290610f1d8383612b7b565b95945050505050565b6001546001600160a01b031681565b6005546001600160a01b031681565b60c881565b6001600160a01b0381166000908152600e602052604081205480610f71576000915050610e6f565b6001600160a01b0383166000908152600d602052604081205490610fa3670de0b6b3a76400008363ffffffff611e3316565b9050610fad613540565b506001600160a01b0385166000908152600f60209081526040808320815160a08101835281548152600182015493810193909352600281015491830191909152600301546001600160801b038082166060840152600160801b90910416608082015290610e67670de0b6b3a7640000610e5b610e4e88866129ee565b61103233612c06565b61103b33612c61565b61104481612cb7565b336000818152600d60209081526040918290208481556001908101805460ff19169091179055815184815291517f19bc932fb9e16a8b5a1e41be9f4c2de59d5ddd7567b8b81405f532ca00a9880e9281900390910190a250565b6714d1120d7b16000081565b6001600160a01b0381166000908152600b6020526040812054806110d2576000915050610e6f565b6110da613540565b506001600160a01b0383166000908152600c60209081526040808320815160a08101835281548152600182015493810193909352600281015491830191909152600301546001600160801b038082166060840152600160801b90910416608082015290610f1d8383612cfe565b600e6020526000908152604090205481565b61116281612dfa565b61116b33612c06565b61117482612e66565b336000908152600b60205260409020546008546001600160a01b031661119981611da9565b816111a8576111a83384612ea5565b60006111b333610e80565b905060006111c0336110aa565b905060006111d4858363ffffffff611e3316565b336000818152600b60205260409020600101549192506001600160a01b039091169061120290869083611e75565b600061120d826115f0565b90506000611221828b63ffffffff610a9116565b905061122d8382612014565b6040805182815233602082015281516001600160a01b0386169260008051602061381b833981519152928290030190a2611267338b612eff565b6000611279868c63ffffffff610a9116565b905061128533826121e6565b6040805182815290513391600080516020613686833981519152919081900360200190a260408051888152602081018790528151339260008051602061376a833981519152928290030190a2610ce08761236c565b6002546001600160a01b031681565b601154600160801b90046001600160801b031681565b6004546001600160a01b031681565b670f43fc2c04ee000081565b6000805460408051639ed76b3160e01b8152905183926001600160a01b031691639ed76b31916004808301926020929190829003018186803b15801561135f57600080fd5b505afa158015611373573d6000803e3d6000fd5b505050506040513d602081101561138957600080fd5b505160015460408051639ed76b3160e01b815290519293506000926001600160a01b0390921691639ed76b3191600480820192602092909190829003018186803b1580156113d657600080fd5b505afa1580156113ea573d6000803e3d6000fd5b505050506040513d602081101561140057600080fd5b50519050611414828263ffffffff610a9116565b9250505090565b6000546001600160a01b031681565b601360209081526000928352604080842090915290825290205481565b600c602052600090815260409020805460018201546002830154600390930154919290916001600160801b0380821691600160801b90041685565b6000805460408051630a7b61df60e11b8152905183926001600160a01b0316916314f6c3be916004808301926020929190829003018186803b1580156114c757600080fd5b505afa1580156114db573d6000803e3d6000fd5b505050506040513d60208110156114f157600080fd5b505160015460408051630a7b61df60e11b815290519293506000926001600160a01b03909216916314f6c3be91600480820192602092909190829003018186803b1580156113d657600080fd5b60105481565b6003546001600160a01b031690565b6003546001600160a01b0316331490565b6008546001600160a01b031681565b6040518060400160405280600d81526020016c14dd18589a5b1a5d1e541bdbdb609a1b81525081565b6011546001600160801b031681565b600d602052600090815260409020805460019091015460ff1682565b6007546001600160a01b031681565b600a5490565b633b9aca0081565b60145481565b60155481565b6001600160a01b0381166000908152600e602052604081205480611618576000915050610e6f565b611620613540565b506001600160a01b0383166000908152600f60209081526040808320815160a08101835281548152600182015493810193909352600281015491830191909152600301546001600160801b038082166060840152600160801b90910416608082015290610f1d8383612cfe565b611695611553565b6116e6576040805162461bcd60e51b815260206004820181905260248201527f4f776e61626c653a2063616c6c6572206973206e6f7420746865206f776e6572604482015290519081900360640190fd5b6116ef87612fc9565b6116f886612fc9565b61170185612fc9565b61170a84612fc9565b61171383612fc9565b61171c82612fc9565b61172581612fc9565b600480546001600160a01b03199081166001600160a01b038a81169182179093556005805483168a85161790556000805483168985161790556006805483168885161790556007805483168785161790556002805483168685161790556008805490921692841692909217905560408051918252517f3ca631ffcd2a9b5d9ae18543fc82f58eb4ca33af9e6ab01b7a8e95331e6ed985916020908290030190a1604080516001600160a01b038816815290517f143219c9e69b09e07e095fcc889b43d8f46ca892bba65f08dc3a0050869a56789181900360200190a1604080516001600160a01b038716815290517f78f058b189175430c48dc02699e3a0031ea4ff781536dc2fab847de4babdd8829181900360200190a1604080516001600160a01b038616815290517f5708bcd180e4da14a958eda749d47d0b1890743f14a286a3c7e88827a25c76a39181900360200190a1604080516001600160a01b038516815290517f65f4cf077bc01e4742eb5ad98326f6e95b63548ea24b17f8d5e823111fe788009181900360200190a1604080516001600160a01b038416815290517f8c537274438aa850a330284665d81a85dd38267d09e4050d416bfc94142db2649181900360200190a1604080516001600160a01b038316815290517f3055265812fb8447b9ada4a5d804ec43bd528ec40e89c952bbc7b85dc5ac68119181900360200190a1611935613078565b50505050505050565b6006546001600160a01b031681565b6611c37937e0800081565b600b60205260009081526040902080546001909101546001600160a01b031682565b336000908152600b602052604090205461199381611d67565b61199c336130c2565b6119a533613179565b6008546001600160a01b03166119ba81611da9565b60006119c533610e80565b905060006119d2336110aa565b905060006119e6858363ffffffff611e3316565b336000818152600b60205260409020600101549192506001600160a01b0390911690611a1490869083611e75565b6000611a1f826115f0565b905080611a2c8382612014565b6040805182815233602082015281516001600160a01b0386169260008051602061381b833981519152928290030190a2611a6633866121e6565b60408051878152602081018690528151339260008051602061376a833981519152928290030190a26040805186815290513391600080516020613686833981519152919081900360200190a2600954611ac5908763ffffffff611e3316565b600981905560408051918252516000805160206136358339815191529181900360200190a1604080513381526020810188905281517f6109e2559dfa766aaec7118351d48a523f0a4157f49c8d68749c8ac41318ad12929181900390910190a1600480546040805163ea9638bf60e01b815233938101939093526001600160a01b038d811660248501528c81166044850152905191169163ea9638bf91899160648082019260009290919082900301818588803b158015611b8557600080fd5b505af1158015611b99573d6000803e3d6000fd5b505050505050505050505050505050565b60025460408051630fdb11cf60e01b815290516000926001600160a01b031691630fdb11cf91600480830192602092919082900301818787803b158015611bf057600080fd5b505af1158015611c04573d6000803e3d6000fd5b505050506040513d6020811015611c1a57600080fd5b505160075460408051634d62283160e01b815290519293506000926001600160a01b0390921691634d62283191600480820192602092909190829003018186803b158015611c6757600080fd5b505afa158015611c7b573d6000803e3d6000fd5b505050506040513d6020811015611c9157600080fd5b505160055460408051630d293c7160e41b81526001600160a01b038085166004830152602482018790529151939450600093919092169163d293c710916044808301926020929190829003018186803b158015611ced57600080fd5b505afa158015611d01573d6000803e3d6000fd5b505050506040513d6020811015611d1757600080fd5b50519050670f43fc2c04ee0000811015611d625760405162461bcd60e51b81526004018080602001828103825260448152602001806138886044913960600191505060405180910390fd5b505050565b60008111611da65760405162461bcd60e51b81526004018080602001828103825260308152602001806137eb6030913960400191505060405180910390fd5b50565b6000816001600160a01b03166334de26166040518163ffffffff1660e01b8152600401602060405180830381600087803b158015611de657600080fd5b505af1158015611dfa573d6000803e3d6000fd5b505050506040513d6020811015611e1057600080fd5b50519050610d4d816131c5565b6000818310611e2c5781610aeb565b5090919050565b6000610aeb83836040518060400160405280601e81526020017f536166654d6174683a207375627472616374696f6e206f766572666c6f7700008152506132e0565b6001600160a01b03811615611f4a576000611e8f82610f49565b9050836001600160a01b0316631d2e76df83836040518363ffffffff1660e01b815260040180836001600160a01b03166001600160a01b0316815260200182815260200192505050600060405180830381600087803b158015611ef157600080fd5b505af1158015611f05573d6000803e3d6000fd5b50506040805184815290516001600160a01b03861693507f847c77c77188b9929956eb83b65144642c67c3f5d2d0337d889c87fdc7c753c592509081900360200190a2505b6000611f5583610d51565b9050836001600160a01b0316631d2e76df84836040518363ffffffff1660e01b815260040180836001600160a01b03166001600160a01b0316815260200182815260200192505050600060405180830381600087803b158015611fb757600080fd5b505af1158015611fcb573d6000803e3d6000fd5b50506040805184815290516001600160a01b03871693507f888613da0df83fc64298bd4519aa167ec77dff20cbaf8eee6f25faf59d8d2fd792509081900360200190a250505050565b6001600160a01b0382166000908152600e60205260409020819055806120a4576001600160a01b0382166000818152600f60209081526040808320838155600181018490556002810184905560030183905580518381529182019290925281517fbb1322f85cc7cc8bac4e172a5bc5dcc0c1959007f9a030032abf9258205f0e45929181900390910190a2610d4d565b6011546010546001600160801b03600160801b80840482166000818152601360209081526040808320978616808452978252808320546001600160a01b038b16808552600f845293829020600181018990556002810182905560030180546001600160801b0319168a17909716958502959095179095558451868152908101849052845192959491927fbb1322f85cc7cc8bac4e172a5bc5dcc0c1959007f9a030032abf9258205f0e45929181900390910190a2505050505050565b8061216a57610d4d565b60065460408051631062c15f60e11b81523060048201526001600160a01b03858116602483015260448201859052915191909216916320c582be91606480830192600092919082900301818387803b1580156121c557600080fd5b505af11580156121d9573d6000803e3d6000fd5b50505050610d4d81613377565b6001600160a01b0382166000908152600b6020526040902081905580612294576001600160a01b0382166000818152600b60209081526040808320600190810180546001600160a01b0319169055600c83528184208481559081018490556002810184905560030183905580518381529182018390528181019290925290517f2d6cc0bcdf72c9486f6451bde6b80f44066f4558f77f44dbfedbe7d8b295225a9181900360600190a2610d4d565b6011546010546001600160801b03600160801b8084048216600081815260126020908152604080832097861680845297825280832054848452601383528184208985528352818420546001600160a01b038c16808652600c855294839020600181018a90558281556002810182905560030180546001600160801b0319168b179098169686029690961790965580518781529182018690528181018590525192959493927f2d6cc0bcdf72c9486f6451bde6b80f44066f4558f77f44dbfedbe7d8b295225a916060908290030190a250505050505050565b8061237657611da6565b60095460009061238c908363ffffffff611e3316565b6009819055604080518281529051919250600080516020613635833981519152919081900360200190a1604080513381526020810184905281517f6109e2559dfa766aaec7118351d48a523f0a4157f49c8d68749c8ac41318ad12929181900390910190a1604051600090339084908381818185875af1925050503d8060008114612433576040519150601f19603f3d011682016040523d82523d6000602084013e612438565b606091505b5050905080611d625760405162461bcd60e51b81526004018080602001828103825260218152602001806136cf6021913960400191505060405180910390fd5b6005546001600160a01b03163314610a8f5760405162461bcd60e51b81526004018080602001828103825260298152602001806136a66029913960400191505060405180910390fd5b60008060006124f36015546124e7670de0b6b3a764000089612ae090919063ffffffff16565b9063ffffffff610a9116565b9050838511156124ff57fe5b8385141561251c576000601655670de0b6b3a7640000915061257c565b60165460009061254a9061253e88670de0b6b3a764000063ffffffff612ae016565b9063ffffffff611e3316565b905061256160016124e7838863ffffffff612b3916565b92506125778161253e858863ffffffff612ae016565b601655505b61258c818563ffffffff612b3916565b92506125ae6125a1848663ffffffff612ae016565b829063ffffffff611e3316565b60155550935093915050565b6010546000670de0b6b3a76400008311156125d157fe5b60006125eb670de0b6b3a76400008563ffffffff611e3316565b6011546001600160801b03600160801b82048116600081815260126020908152604080832094909516808352939052928320549394509092909161262f8988612ae0565b90506000612643838363ffffffff610a9116565b6001600160801b038086166000818152601260209081526040808320948b16808452948252918290208590558151858152908101929092528181019290925290519192507fe12e2cd2c9afa8069203ca07e7eff1edce4a075686d0736a8e7e0d593597b207919081900360600190a18561277a576126d16001600160801b038516600163ffffffff6133cd16565b601180546001600160801b03908116600160801b938216840217918290556040805193909204168252517fb50f0f59e7cb5b421dc77581c3a9919e3806e076e5fa78a874c3f120cb7d874d916020908290030190a1601180546001600160801b0319169055604080516000815290517f1f9dfc70cd666adb18a39d60a797518f7b4febf4b6e24ef37d44f6e1e7219fbe9181900360200190a1670de0b6b3a76400009650612866565b633b9aca0061279b670de0b6b3a7640000610e5b8b8a63ffffffff612ae016565b1015612847576127d1670de0b6b3a7640000610e5b633b9aca006127c58c8b63ffffffff612ae016565b9063ffffffff612ae016565b96506127ed6001600160801b038616600163ffffffff6133cd16565b601180546001600160801b0319166001600160801b0392831617908190556040805191909216815290517f1f9dfc70cd666adb18a39d60a797518f7b4febf4b6e24ef37d44f6e1e7219fbe916020908290030190a1612866565b612863670de0b6b3a7640000610e5b8a8963ffffffff612ae016565b96505b6000871161287057fe5b60108790556040805188815290517fc1a9618cb59ebca77cbdbc2949f126823c407ff13edb285fd0262519a9c18e8c9181900360200190a150505050505050505050565b6000805460408051630680741360e01b81526004810185905290516001600160a01b03909216928392630680741392602480820193929182900301818387803b15801561290057600080fd5b505af1158015612914573d6000803e3d6000fd5b5050505061292182613377565b60065460408051632770a7eb60e21b81523060048201526024810185905290516001600160a01b0390921691639dc29fac9160448082019260009290919082900301818387803b15801561297457600080fd5b505af1158015612988573d6000803e3d6000fd5b5050604080516364a197f360e01b81523060048201526024810187905290516001600160a01b03851693506364a197f39250604480830192600092919082900301818387803b1580156129da57600080fd5b505af1158015611935573d6000803e3d6000fd5b608081015160608201516040808401516020808601516001600160801b03808716600090815260138452858120918716815292529281205490949392908590612a3d908463ffffffff611e3316565b6001600160801b03808716600090815260136020526040812092935091612aa091633b9aca0091908490612a7a908a16600163ffffffff6133cd16565b6001600160801b031681526020810191909152604001600020549063ffffffff612b3916565b90506000612ad2670de0b6b3a7640000610e5b8681612ac5888863ffffffff610a9116565b8f9063ffffffff612ae016565b9a9950505050505050505050565b600082612aef57506000610aee565b82820282848281612afc57fe5b0414610aeb5760405162461bcd60e51b81526004018080602001828103825260218152602001806136f06021913960400191505060405180910390fd5b6000610aeb83836040518060400160405280601a81526020017f536166654d6174683a206469766973696f6e206279207a65726f00000000000081525061341d565b6080810151606082015182516020808501516001600160801b03808616600090815260128452604080822092871682529190935282205491949392918590612bc9908463ffffffff611e3316565b6001600160801b03808716600090815260126020526040812092935091612aa091633b9aca0091908490612a7a908a16600163ffffffff6133cd16565b6001600160a01b0381166000908152600d602052604090206001015460ff1615611da65760405162461bcd60e51b815260040180806020018281038252603981526020018061378a6039913960400191505060405180910390fd5b6001600160a01b0381166000908152600b60205260409020548015610d4d5760405162461bcd60e51b81526004018080602001828103825260288152602001806137c36028913960400191505060405180910390fd5b670de0b6b3a7640000811115611da65760405162461bcd60e51b81526004018080602001828103825260338152602001806137116033913960400191505060405180910390fd5b6020810151606082015160808301516011546000939291906001600160801b03600160801b90910481169082161015612d3d5760009350505050610aee565b6011546000908190612d5e906001600160801b03168563ffffffff61348216565b90506001600160801b038116612d8e57612d8785610e5b6010548b612ae090919063ffffffff16565b9150612dc6565b806001600160801b031660011415612dc157612d87633b9aca00610e5b87610e5b6010548d612ae090919063ffffffff16565b600091505b612dda88633b9aca0063ffffffff612b3916565b821015612def57600095505050505050610aee565b509695505050505050565b6001600160a01b0381166000908152600d602052604090206001015460ff1680612e2b57506001600160a01b038116155b611da65760405162461bcd60e51b81526004018080602001828103825260468152602001806135c86046913960600191505060405180910390fd5b60008111611da65760405162461bcd60e51b81526004018080602001828103825260268152602001806137446026913960400191505060405180910390fd5b6001600160a01b038281166000818152600b602052604080822060010180546001600160a01b0319169486169485179055517f094c08e96a8890877a8390b4f967180a7507ad8622244d05fcd0f9f8e086564e9190a35050565b60065460408051632ee65eeb60e21b81526001600160a01b038581166004830152306024830152604482018590529151919092169163bb997bac91606480830192600092919082900301818387803b158015612f5a57600080fd5b505af1158015612f6e573d6000803e3d6000fd5b5050600a5460009250612f8891508363ffffffff610a9116565b600a8190556040805182815290519192507fb706af651c647121aa4c7b2d0ebe715218e827b33d8762e3cee2b0aa0b02649c919081900360200190a1505050565b6001600160a01b038116613024576040805162461bcd60e51b815260206004820152601e60248201527f4163636f756e742063616e6e6f74206265207a65726f20616464726573730000604482015290519081900360640190fd5b803b80610d4d576040805162461bcd60e51b815260206004820181905260248201527f4163636f756e7420636f64652073697a652063616e6e6f74206265207a65726f604482015290519081900360640190fd5b6003546040516000916001600160a01b0316907f8be0079c531659141344cd1fd0a4f28419497f9722a3daafe3b4186f6b6457e0908390a3600380546001600160a01b0319169055565b600554604080516321e3780160e01b81526001600160a01b038481166004830152915191909216916321e37801916024808301926020929190829003018186803b15801561310f57600080fd5b505afa158015613123573d6000803e3d6000fd5b505050506040513d602081101561313957600080fd5b5051600114611da65760405162461bcd60e51b81526004018080602001828103825260468152602001806135826046913960600191505060405180910390fd5b600061318482610e80565b905060008111610d4d5760405162461bcd60e51b81526004018080602001828103825260318152602001806136556031913960400191505060405180910390fd5b600a548015806131d3575081155b156131de5750611da6565b60006131ea83836134db565b9050600061320360105483612ae090919063ffffffff16565b6011546001600160801b03600160801b820481166000908152601360209081526040808320939094168252919091522054909150613247908263ffffffff610a9116565b601180546001600160801b03600160801b808304821660009081526013602081815260408084209686168452958152858320979097559454918204831680825294865283812091909216808352908552908290205482519081529384019290925282810191909152517f2d6127771b164a9cc8827d24b5955db2a77e7a81dac389107ebb8bce9fb649689181900360600190a150505050565b6000818484111561336f5760405162461bcd60e51b81526004018080602001828103825283818151815260200191508051906020019080838360005b8381101561333457818101518382015260200161331c565b50505050905090810190601f1680156133615780820380516001836020036101000a031916815260200191505b509250505060405180910390fd5b505050900390565b600a5460009061338d908363ffffffff611e3316565b600a8190556040805182815290519192507fb706af651c647121aa4c7b2d0ebe715218e827b33d8762e3cee2b0aa0b02649c919081900360200190a15050565b60008282016001600160801b038085169082161015610aeb5760405162461bcd60e51b81526004018080602001828103825260258152602001806138636025913960400191505060405180910390fd5b6000818361346c5760405162461bcd60e51b815260206004820181815283516024840152835190928392604490910191908501908083836000831561333457818101518382015260200161331c565b50600083858161347857fe5b0495945050505050565b6000826001600160801b0316826001600160801b031611156134d55760405162461bcd60e51b815260040180806020018281038252602881526020018061383b6028913960400191505060405180910390fd5b50900390565b6000806134ff6014546124e7670de0b6b3a764000087612ae090919063ffffffff16565b90506000613513828563ffffffff612b3916565b9050613535613528828663ffffffff612ae016565b839063ffffffff611e3316565b601455949350505050565b6040518060a0016040528060008152602001600081526020016000815260200160006001600160801b0316815260200160006001600160801b03168152509056fe53746162696c697479506f6f6c3a2063616c6c6572206d757374206861766520616e206163746976652074726f766520746f207769746864726177204554484761696e20746f53746162696c697479506f6f6c3a20546167206d757374206265206120726567697374657265642066726f6e7420656e642c206f7220746865207a65726f206164647265737353746162696c697479506f6f6c3a2043616c6c6572206973206e6f7420416374697665506f6f6cceb6d671277d4354fd29977ada70695fbd93a16612abf765d6b0e25c28dc6db353746162696c697479506f6f6c3a2063616c6c6572206d7573742068617665206e6f6e2d7a65726f20455448204761696ebce78369dccab09eec1986f4d409ab09ffbb47d65423e5148fcf98411c5111c953746162696c697479506f6f6c3a2043616c6c6572206973206e6f742054726f76654d616e6167657253746162696c697479506f6f6c3a2073656e64696e6720455448206661696c6564536166654d6174683a206d756c7469706c69636174696f6e206f766572666c6f7753746162696c697479506f6f6c3a204b69636b6261636b2072617465206d75737420626520696e2072616e6765205b302c315d53746162696c697479506f6f6c3a20416d6f756e74206d757374206265206e6f6e2d7a65726f51457222ebca92c335c9c86e2baa1cc0e40ffaa9084a51452980d5ba8dec2f6353746162696c697479506f6f6c3a206d757374206e6f7420616c7265616479206265206120726567697374657265642066726f6e7420656e6453746162696c697479506f6f6c3a2055736572206d7573742068617665206e6f206465706f73697453746162696c697479506f6f6c3a2055736572206d75737420686176652061206e6f6e2d7a65726f206465706f73697499920012339b5a3368d3a04b8606ce412c46ed92b7dcd8602d41fc8862cb8f254c697175697479536166654d6174683132383a207375627472616374696f6e206f766572666c6f774c697175697479536166654d6174683132383a206164646974696f6e206f766572666c6f7753746162696c697479506f6f6c3a2043616e6e6f74207769746864726177207768696c65207468657265206172652074726f766573207769746820494352203c204d4352a264697066735822122003a1d1a808012cdd5042f438bbb583cb4e0ee5409e97d10d75625e2e4dbaffb864736f6c634300060b00336080604052348015600f57600080fd5b50603f80601d6000396000f3fe6080604052600080fdfea26469706673582212200f3a4d16e60e44f9dc423b2f6e68970d95fe70aa188153e2dac09e61dfc3ee0d64736f6c634300060b00336101606040523480156200001257600080fd5b50604051620018ad380380620018ad833981810160405260608110156200003857600080fd5b50805160208201516040909201519091906200005d836001600160e01b036200025316565b62000071826001600160e01b036200025316565b62000085816001600160e01b036200025316565b6001600160601b0319606084901b1661010052604080516001600160a01b038516815290517f143219c9e69b09e07e095fcc889b43d8f46ca892bba65f08dc3a0050869a56789181900360200190a16001600160601b0319606083901b1661012052604080516001600160a01b038416815290517f82966d27eea39b038ee0fa30cd16532bb24f6e65d31cb58fb227aa5766cdcc7f9181900360200190a16001600160601b0319606082901b1661014052604080516001600160a01b038316815290517f3ca631ffcd2a9b5d9ae18543fc82f58eb4ca33af9e6ab01b7a8e95331e6ed9859181900360200190a1604080518082018252600f81526e2aa9a2241029ba30b13632b1b7b4b760891b602091820152815180830190925260018252603160f81b9101527f5bf5e67eea85990fcf247a81a50a28eb8a53d38bad4973c6889a1a5bd9fdae6260c08190527fc89efdaa54c0f20c7adf612882df0950f5a951637e0307cdcb4c672f298b8bc660e08190526200020b6001600160e01b036200030816565b60a052620002447f8b73c3c69bb8fe3d512ecc4cf759cc79239f7b179b0ffacaa9a75d522b39400f83836001600160e01b036200030c16565b608052506200036d9350505050565b6001600160a01b038116620002af576040805162461bcd60e51b815260206004820152601e60248201527f4163636f756e742063616e6e6f74206265207a65726f20616464726573730000604482015290519081900360640190fd5b803b8062000304576040805162461bcd60e51b815260206004820181905260248201527f4163636f756e7420636f64652073697a652063616e6e6f74206265207a65726f604482015290519081900360640190fd5b5050565b4690565b6000838383620003246001600160e01b036200030816565b6040805160208082019690965280820194909452606084019290925260808301523060a0808401919091528151808403909101815260c090920190528051910120949350505050565b60805160a05160c05160e0516101005160601c6101205160601c6101405160601c6114b1620003fc6000398061076d5280610d5c5280610ed25280610fcd5250806105285280610b425280610ce1528061103252806111505250806106785280610b105280610d1e5280610fff525080610a58525080610a375250806109bd5250806109ed52506114b16000f3fe608060405234801561001057600080fd5b506004361061014d5760003560e01c80635a4d28bb116100c3578063a9059cbb1161007c578063a9059cbb146103f5578063b7f8cf9b14610421578063bb997bac14610429578063d505accf1461045f578063dd62ed3e146104b0578063f698da25146104de5761014d565b80635a4d28bb1461034157806370a08231146103495780637ecebe001461036f57806395d89b41146103955780639dc29fac1461039d578063a457c2d7146103c95761014d565b806320c582be1161011557806320c582be1461025557806323b872dd1461028d578063313ce567146102c357806339509351146102e157806340c10f191461030d57806354fd4d50146103395761014d565b806306fdde0314610152578063095ea7b3146101cf5780630b622ab21461020f57806310ce43bd1461023357806318160ddd1461024d575b600080fd5b61015a6104e6565b6040805160208082528351818301528351919283929083019185019080838360005b8381101561019457818101518382015260200161017c565b50505050905090810190601f1680156101c15780820380516001836020036101000a031916815260200191505b509250505060405180910390f35b6101fb600480360360408110156101e557600080fd5b506001600160a01b038135169060200135610510565b604080519115158252519081900360200190f35b610217610526565b604080516001600160a01b039092168252519081900360200190f35b61023b61054a565b60408051918252519081900360200190f35b61023b61056e565b61028b6004803603606081101561026b57600080fd5b506001600160a01b03813581169160208101359091169060400135610574565b005b6101fb600480360360608110156102a357600080fd5b506001600160a01b0381358116916020810135909116906040013561058c565b6102cb610604565b6040805160ff9092168252519081900360200190f35b6101fb600480360360408110156102f757600080fd5b506001600160a01b038135169060200135610609565b61028b6004803603604081101561032357600080fd5b506001600160a01b038135169060200135610645565b61015a61065b565b610217610676565b61023b6004803603602081101561035f57600080fd5b50356001600160a01b031661069a565b61023b6004803603602081101561038557600080fd5b50356001600160a01b03166106b5565b61015a6106d0565b61028b600480360360408110156103b357600080fd5b506001600160a01b0381351690602001356106ee565b6101fb600480360360408110156103df57600080fd5b506001600160a01b038135169060200135610700565b6101fb6004803603604081101561040b57600080fd5b506001600160a01b038135169060200135610755565b61021761076b565b61028b6004803603606081101561043f57600080fd5b506001600160a01b0381358116916020810135909116906040013561078f565b61028b600480360360e081101561047557600080fd5b506001600160a01b03813581169160208101359091169060408101359060608101359060ff6080820135169060a08101359060c00135610797565b61023b600480360360408110156104c657600080fd5b506001600160a01b038135811691602001351661098e565b61023b6109b9565b60408051808201909152600f81526e2aa9a2241029ba30b13632b1b7b4b760891b60208201525b90565b600061051d338484610a83565b50600192915050565b7f000000000000000000000000000000000000000000000000000000000000000081565b7f6e71edae12b1b97f4d1f60370fef10105fa2faae0126114a169c64845d6126c990565b60005490565b61057c610b05565b610587838383610ba1565b505050565b600061059783610c83565b6105a2848484610ba1565b6105fa84336105f58560405180606001604052806028815260200161131e602891396001600160a01b038a166000908152600360209081526040808320338452909152902054919063ffffffff610dcf16565b610a83565b5060019392505050565b601290565b3360008181526003602090815260408083206001600160a01b0387168452909152812054909161051d9185906105f5908663ffffffff610e6616565b61064d610ec7565b6106578282610f2e565b5050565b6040805180820190915260018152603160f81b602082015290565b7f000000000000000000000000000000000000000000000000000000000000000081565b6001600160a01b031660009081526002602052604090205490565b6001600160a01b031660009081526001602052604090205490565b6040805180820190915260048152630aaa688960e31b602082015290565b6106f6610fc2565b610657828261108f565b600061051d33846105f585604051806060016040528060258152602001611457602591393360009081526003602090815260408083206001600160a01b038d168452909152902054919063ffffffff610dcf16565b600061076083610c83565b61051d338484610ba1565b7f000000000000000000000000000000000000000000000000000000000000000081565b61057c611145565b428410156107e5576040805162461bcd60e51b8152602060048201526016602482015275555344483a206578706972656420646561646c696e6560501b604482015290519081900360640190fd5b60006107ef6109b9565b6001600160a01b03808a166000818152600160208181526040808420805480850190915581517f6e71edae12b1b97f4d1f60370fef10105fa2faae0126114a169c64845d6126c98185015280830196909652958e166060860152608085018d905260a085019590955260c08085018c90528551808603909101815260e08501865280519082012061190160f01b6101008601526101028501969096526101228085019690965284518085039096018652610142840180865286519682019690962095839052610162840180865286905260ff8a166101828501526101a284018990526101c284018890529351949550909390926101e2808401939192601f1981019281900390910190855afa15801561090c573d6000803e3d6000fd5b505050602060405103519050886001600160a01b0316816001600160a01b031614610978576040805162461bcd60e51b8152602060048201526017602482015276555344483a20696e76616c6964207369676e617475726560481b604482015290519081900360640190fd5b610983898989610a83565b505050505050505050565b6001600160a01b03918216600090815260036020908152604080832093909416825291909152205490565b60007f00000000000000000000000000000000000000000000000000000000000000006109e46111ac565b1415610a1157507f000000000000000000000000000000000000000000000000000000000000000061050d565b610a7c7f8b73c3c69bb8fe3d512ecc4cf759cc79239f7b179b0ffacaa9a75d522b39400f7f00000000000000000000000000000000000000000000000000000000000000007f00000000000000000000000000000000000000000000000000000000000000006111b0565b905061050d565b6001600160a01b038316610a9357fe5b6001600160a01b038216610aa357fe5b6001600160a01b03808416600081815260036020908152604080832094871680845294825291829020859055815185815291517f8c5be1e5ebec7d5bd14f71427d1e84f3dd0314c0f7b2291e5b200ac8c7c3b9259281900390910190a3505050565b336001600160a01b037f0000000000000000000000000000000000000000000000000000000000000000161480610b645750336001600160a01b037f000000000000000000000000000000000000000000000000000000000000000016145b610b9f5760405162461bcd60e51b81526004018080602001828103825260368152602001806112e86036913960400191505060405180910390fd5b565b6001600160a01b038316610bb157fe5b6001600160a01b038216610bc157fe5b610c04816040518060600160405280602681526020016112c2602691396001600160a01b038616600090815260026020526040902054919063ffffffff610dcf16565b6001600160a01b038085166000908152600260205260408082209390935590841681522054610c39908263ffffffff610e6616565b6001600160a01b03808416600081815260026020908152604091829020949094558051858152905191939287169260008051602061134683398151915292918290030190a3505050565b6001600160a01b03811615801590610ca457506001600160a01b0381163014155b610cdf5760405162461bcd60e51b815260040180806020018281038252605481526020018061138b6054913960600191505060405180910390fd5b7f00000000000000000000000000000000000000000000000000000000000000006001600160a01b0316816001600160a01b031614158015610d5357507f00000000000000000000000000000000000000000000000000000000000000006001600160a01b0316816001600160a01b031614155b8015610d9157507f00000000000000000000000000000000000000000000000000000000000000006001600160a01b0316816001600160a01b031614155b610dcc5760405162461bcd60e51b81526004018080602001828103825260578152602001806112496057913960600191505060405180910390fd5b50565b60008184841115610e5e5760405162461bcd60e51b81526004018080602001828103825283818151815260200191508051906020019080838360005b83811015610e23578181015183820152602001610e0b565b50505050905090810190601f168015610e505780820380516001836020036101000a031916815260200191505b509250505060405180910390fd5b505050900390565b600082820183811015610ec0576040805162461bcd60e51b815260206004820152601b60248201527f536166654d6174683a206164646974696f6e206f766572666c6f770000000000604482015290519081900360640190fd5b9392505050565b336001600160a01b037f00000000000000000000000000000000000000000000000000000000000000001614610b9f5760405162461bcd60e51b815260040180806020018281038252602b81526020018061142c602b913960400191505060405180910390fd5b6001600160a01b038216610f3e57fe5b600054610f51908263ffffffff610e6616565b60009081556001600160a01b038316815260026020526040902054610f7c908263ffffffff610e6616565b6001600160a01b03831660008181526002602090815260408083209490945583518581529351929391926000805160206113468339815191529281900390910190a35050565b336001600160a01b037f00000000000000000000000000000000000000000000000000000000000000001614806110215750336001600160a01b037f000000000000000000000000000000000000000000000000000000000000000016145b806110545750336001600160a01b037f000000000000000000000000000000000000000000000000000000000000000016145b610b9f5760405162461bcd60e51b815260040180806020018281038252604d8152602001806113df604d913960600191505060405180910390fd5b6001600160a01b03821661109f57fe5b6110e2816040518060600160405280602281526020016112a0602291396001600160a01b038516600090815260026020526040902054919063ffffffff610dcf16565b6001600160a01b0383166000908152600260205260408120919091555461110f908263ffffffff61120616565b60009081556040805183815290516001600160a01b03851691600080516020611346833981519152919081900360200190a35050565b336001600160a01b037f00000000000000000000000000000000000000000000000000000000000000001614610b9f5760405162461bcd60e51b81526004018080602001828103825260258152602001806113666025913960400191505060405180910390fd5b4690565b60008383836111bd6111ac565b6040805160208082019690965280820194909452606084019290925260808301523060a0808401919091528151808403909101815260c090920190528051910120949350505050565b6000610ec083836040518060400160405280601e81526020017f536166654d6174683a207375627472616374696f6e206f766572666c6f770000815250610dcf56fe555344483a2043616e6e6f74207472616e7366657220746f6b656e73206469726563746c7920746f207468652053746162696c697479506f6f6c2c2054726f76654d616e61676572206f7220426f72726f7765724f707345524332303a206275726e20616d6f756e7420657863656564732062616c616e636545524332303a207472616e7366657220616d6f756e7420657863656564732062616c616e6365555344483a2043616c6c6572206973206e6569746865722054726f76654d616e61676572206e6f722053746162696c697479506f6f6c45524332303a207472616e7366657220616d6f756e74206578636565647320616c6c6f77616e6365ddf252ad1be2c89b69c2b068fc378daa952ba7f163c4a11628f55a4df523b3ef555344483a2043616c6c6572206973206e6f74207468652053746162696c697479506f6f6c555344483a2043616e6e6f74207472616e7366657220746f6b656e73206469726563746c7920746f20746865205553444820746f6b656e20636f6e7472616374206f7220746865207a65726f2061646472657373555344483a2043616c6c6572206973206e65697468657220426f72726f7765724f7065726174696f6e73206e6f722054726f76654d616e61676572206e6f722053746162696c697479506f6f6c55534448546f6b656e3a2043616c6c6572206973206e6f7420426f72726f7765724f7065726174696f6e7345524332303a2064656372656173656420616c6c6f77616e63652062656c6f77207a65726fa26469706673582212203931f58cc653cbd2c4a2cc444db8ae668f22bf52982a812ffa507ed91e21694c64736f6c634300060b0033608060405234801561001057600080fd5b50600080546001600160a01b0319163390811782556040519091907f8be0079c531659141344cd1fd0a4f28419497f9722a3daafe3b4186f6b6457e0908290a3610b3a8061005f6000396000f3fe6080604052600436106100a05760003560e01c80638f32d59b116100645780638f32d59b146101b75780639b56d6c9146101e0578063a3f4df7e14610213578063b08bc7221461029d578063b32beb5b146102b2578063b7f8cf9b146102e5576100c5565b806314f6c3be146100ca578063363bf964146100f15780633f10abab146101385780635a4d28bb146101715780638da5cb5b146101a2576100c5565b366100c5576100ad6102fa565b6004546100c0903463ffffffff61034516565b600455005b600080fd5b3480156100d657600080fd5b506100df6103a6565b60408051918252519081900360200190f35b3480156100fd57600080fd5b506101366004803603606081101561011457600080fd5b506001600160a01b0381358116916020810135821691604090910135166103ac565b005b34801561014457600080fd5b506101366004803603604081101561015b57600080fd5b506001600160a01b038135169060200135610512565b34801561017d57600080fd5b5061018661059e565b604080516001600160a01b039092168252519081900360200190f35b3480156101ae57600080fd5b506101866105ad565b3480156101c357600080fd5b506101cc6105bc565b604080519115158252519081900360200190f35b3480156101ec57600080fd5b506100df6004803603602081101561020357600080fd5b50356001600160a01b03166105cd565b34801561021f57600080fd5b506102286105e8565b6040805160208082528351818301528351919283929083019185019080838360005b8381101561026257818101518382015260200161024a565b50505050905090810190601f16801561028f5780820380516001836020036101000a031916815260200191505b509250505060405180910390f35b3480156102a957600080fd5b50610186610613565b3480156102be57600080fd5b50610136600480360360208110156102d557600080fd5b50356001600160a01b0316610622565b3480156102f157600080fd5b506101866107b7565b6003546001600160a01b031633146103435760405162461bcd60e51b815260040180806020018281038252602a815260200180610a5b602a913960400191505060405180910390fd5b565b60008282018381101561039f576040805162461bcd60e51b815260206004820152601b60248201527f536166654d6174683a206164646974696f6e206f766572666c6f770000000000604482015290519081900360640190fd5b9392505050565b60045490565b6103b46105bc565b610405576040805162461bcd60e51b815260206004820181905260248201527f4f776e61626c653a2063616c6c6572206973206e6f7420746865206f776e6572604482015290519081900360640190fd5b61040e836107c6565b610417826107c6565b610420816107c6565b600180546001600160a01b038086166001600160a01b0319928316811790935560028054868316908416179055600380549185169190921617905560408051918252517f3ca631ffcd2a9b5d9ae18543fc82f58eb4ca33af9e6ab01b7a8e95331e6ed9859181900360200190a1604080516001600160a01b038416815290517f143219c9e69b09e07e095fcc889b43d8f46ca892bba65f08dc3a0050869a56789181900360200190a1604080516001600160a01b038316815290517f78f058b189175430c48dc02699e3a0031ea4ff781536dc2fab847de4babdd8829181900360200190a161050d610879565b505050565b61051a6108c3565b6001600160a01b038216600090815260056020526040812054610543908363ffffffff61034516565b6001600160a01b0384166000818152600560209081526040918290208490558151848152915193945091927ff0393a34d05e6567686ad4e097f9d9d2781565957394f1f0d984e5d8e6378f20929181900390910190a2505050565b6002546001600160a01b031681565b6000546001600160a01b031690565b6000546001600160a01b0316331490565b6001600160a01b031660009081526005602052604090205490565b6040518060400160405280600f81526020016e10dbdb1b14dd5c9c1b1d5cd41bdbdb608a1b81525081565b6003546001600160a01b031681565b61062a61090c565b6001600160a01b0381166000908152600560205260409020548061067f5760405162461bcd60e51b8152600401808060200182810382526031815260200180610a2a6031913960400191505060405180910390fd5b6001600160a01b03821660008181526005602090815260408083208390558051928352517ff0393a34d05e6567686ad4e097f9d9d2781565957394f1f0d984e5d8e6378f209281900390910190a26004546106e0908263ffffffff61095516565b600455604080516001600160a01b03841681526020810183905281517f6109e2559dfa766aaec7118351d48a523f0a4157f49c8d68749c8ac41318ad12929181900390910190a16040516000906001600160a01b0384169083908381818185875af1925050503d8060008114610772576040519150601f19603f3d011682016040523d82523d6000602084013e610777565b606091505b505090508061050d5760405162461bcd60e51b8152600401808060200182810382526023815260200180610a856023913960400191505060405180910390fd5b6001546001600160a01b031681565b6001600160a01b038116610821576040805162461bcd60e51b815260206004820152601e60248201527f4163636f756e742063616e6e6f74206265207a65726f20616464726573730000604482015290519081900360640190fd5b803b80610875576040805162461bcd60e51b815260206004820181905260248201527f4163636f756e7420636f64652073697a652063616e6e6f74206265207a65726f604482015290519081900360640190fd5b5050565b600080546040516001600160a01b03909116907f8be0079c531659141344cd1fd0a4f28419497f9722a3daafe3b4186f6b6457e0908390a3600080546001600160a01b0319169055565b6002546001600160a01b031633146103435760405162461bcd60e51b815260040180806020018281038252602b815260200180610ada602b913960400191505060405180910390fd5b6001546001600160a01b031633146103435760405162461bcd60e51b8152600401808060200182810382526032815260200180610aa86032913960400191505060405180910390fd5b600061039f83836040518060400160405280601e81526020017f536166654d6174683a207375627472616374696f6e206f766572666c6f77000081525060008184841115610a215760405162461bcd60e51b81526004018080602001828103825283818151815260200191508051906020019080838360005b838110156109e65781810151838201526020016109ce565b50505050905090810190601f168015610a135780820380516001836020036101000a031916815260200191505b509250505060405180910390fd5b50505090039056fe436f6c6c537572706c7573506f6f6c3a204e6f20636f6c6c61746572616c20617661696c61626c6520746f20636c61696d436f6c6c537572706c7573506f6f6c3a2043616c6c6572206973206e6f742041637469766520506f6f6c436f6c6c537572706c7573506f6f6c3a2073656e64696e6720455448206661696c6564436f6c6c537572706c7573506f6f6c3a2043616c6c6572206973206e6f7420426f72726f776572204f7065726174696f6e73436f6c6c537572706c7573506f6f6c3a2043616c6c6572206973206e6f742054726f76654d616e61676572a2646970667358221220af768870d1a17ac3ec6f54f84701f8afa72397e127b7185e673efb442d546de864736f6c634300060b00336080604052680ad78ebc5ac620000060005534801561001d57600080fd5b5061010e8061002d6000396000f3fe6080604052348015600f57600080fd5b5060043610603c5760003560e01c80630fdb11cf14604157806391b7f5ed14605957806398d5fdca146087575b600080fd5b6047608d565b60408051918252519081900360200190f35b607360048036036020811015606d57600080fd5b503560ca565b604080519115158252519081900360200190f35b604760d2565b6000805460408051918252517f4d29de21de555af78a62fc82dd4bc05e9ae5b0660a37f04729527e0f22780cd39181900360200190a15060005490565b600055600190565b6000549056fea26469706673582212207ca3ce58510b16e7378becbcfe4762ab8b3fd85a914e8c2545a8a814bea9392064736f6c634300060b0033608060405234801561001057600080fd5b50600080546001600160a01b0319163390811782556040519091907f8be0079c531659141344cd1fd0a4f28419497f9722a3daafe3b4186f6b6457e0908290a36118ce8061005f6000396000f3fe608060405234801561001057600080fd5b50600436106101375760003560e01c8063681fe70c116100b8578063a3f4df7e1161007c578063a3f4df7e1461036a578063b72703ac146103e7578063b7f8cf9b1461040d578063babd3d9a14610415578063de8fa4311461041d578063f376d7981461042557610137565b8063681fe70c146102f257806373d4a13a146102fa578063765e0159146103345780638da5cb5b1461035a5780638f32d59b1461036257610137565b8063416980dc116100ff578063416980dc1461021457806346f7cf871461026e5780634d622831146102aa5780635dbe47e8146102b257806363e1d57c146102d857610137565b80631e2231431461013c57806329092d0e146101605780632be21260146101885780633d83908a146101c45780633fce12d5146101cc575b600080fd5b610144610459565b604080516001600160a01b039092168252519081900360200190f35b6101866004803603602081101561017657600080fd5b50356001600160a01b0316610468565b005b6101866004803603608081101561019e57600080fd5b506001600160a01b0381358116916020810135916040820135811691606001351661047c565b610144610531565b610200600480360360608110156101e257600080fd5b508035906001600160a01b0360208201358116916040013516610540565b604080519115158252519081900360200190f35b6102486004803603606081101561022a57600080fd5b508035906001600160a01b0360208201358116916040013516610563565b604080516001600160a01b03938416815291909216602082015281519081900390910190f35b6101866004803603608081101561028457600080fd5b506001600160a01b0381358116916020810135916040820135811691606001351661058d565b6101446105a2565b610200600480360360208110156102c857600080fd5b50356001600160a01b03166105b1565b6102e06105cf565b60408051918252519081900360200190f35b6102006105d5565b6103026105dc565b604080516001600160a01b03958616815293909416602084015282840191909152606082015290519081900360800190f35b6101446004803603602081101561034a57600080fd5b50356001600160a01b03166105fb565b61014461061e565b61020061062d565b61037261063e565b6040805160208082528351818301528351919283929083019185019080838360005b838110156103ac578181015183820152602001610394565b50505050905090810190601f1680156103d95780820380516001836020036101000a031916815260200191505b509250505060405180910390f35b610144600480360360208110156103fd57600080fd5b50356001600160a01b0316610666565b610144610687565b610200610696565b6102e06106a0565b6101866004803603606081101561043b57600080fd5b508035906001600160a01b03602082013581169160400135166106a6565b6003546001600160a01b031690565b6104706107fe565b61047981610849565b50565b6002546001600160a01b031661049181610a7d565b61049a856105b1565b6104d55760405162461bcd60e51b815260040180806020018281038252602a8152602001806117d1602a913960400191505060405180910390fd5b600084116105145760405162461bcd60e51b81526004018080602001828103825260238152602001806118766023913960400191505060405180910390fd5b61051d85610849565b61052a8186868686610ad9565b5050505050565b6002546001600160a01b031681565b60025460009061055b906001600160a01b0316858585610e5d565b949350505050565b6002546000908190610580906001600160a01b0316868686611104565b915091505b935093915050565b6002546001600160a01b031661051d81610a7d565b6004546001600160a01b031690565b6001600160a01b031660009081526007602052604090205460ff1690565b60055490565b6006541590565b6003546004546005546006546001600160a01b03938416939092169184565b6001600160a01b0390811660009081526007602052604090205461010090041690565b6000546001600160a01b031690565b6000546001600160a01b0316331490565b6040518060400160405280600c81526020016b536f7274656454726f76657360a01b81525081565b6001600160a01b039081166000908152600760205260409020600101541690565b6001546001600160a01b031681565b6005546006541490565b60065490565b6106ae61062d565b6106ff576040805162461bcd60e51b815260206004820181905260248201527f4f776e61626c653a2063616c6c6572206973206e6f7420746865206f776e6572604482015290519081900360640190fd5b6000831161073e5760405162461bcd60e51b81526004018080602001828103825260228152602001806117fb6022913960400191505060405180910390fd5b610747826112f1565b610750816112f1565b6005839055600280546001600160a01b038085166001600160a01b03199283168117909355600180549185169190921617905560408051918252517f143219c9e69b09e07e095fcc889b43d8f46ca892bba65f08dc3a0050869a56789181900360200190a1604080516001600160a01b038316815290517f3ca631ffcd2a9b5d9ae18543fc82f58eb4ca33af9e6ab01b7a8e95331e6ed9859181900360200190a16107f96113a4565b505050565b6002546001600160a01b031633146108475760405162461bcd60e51b815260040180806020018281038252602c81526020018061181d602c913960400191505060405180910390fd5b565b610852816105b1565b61088d5760405162461bcd60e51b815260040180806020018281038252602a8152602001806117d1602a913960400191505060405180910390fd5b600654600110156109d3576003546001600160a01b03828116911614156108fc576001600160a01b03818116600090815260076020526040808220546003805461010090920485166001600160a01b0319928316179081905590931682529020600101805490911690556109ce565b6004546001600160a01b0382811691161415610963576001600160a01b0380821660009081526007602052604080822060010154600480546001600160a01b03191691851691909117908190559092168152208054610100600160a81b03191690556109ce565b6001600160a01b038082166000908152600760205260408082208054600180830180548716865284862080546101009485900489168502610100600160a81b03199091161790555492549190910485168452919092200180546001600160a01b031916919092161790555b6109f0565b600380546001600160a01b03199081169091556004805490911690555b6001600160a01b038116600090815260076020526040902080546001600160a81b0319168155600190810180546001600160a01b0319169055600654610a3b9163ffffffff6113ee16565b600655604080516001600160a01b038316815290517fcfc24166db4bb677e857cacabd1541fb2b30645021b27c5130419589b84db52b9181900360200190a150565b6001546001600160a01b0316331480610a9e5750336001600160a01b038216145b6104795760405162461bcd60e51b815260040180806020018281038252602d815260200180611849602d913960400191505060405180910390fd5b610ae1610696565b15610b33576040805162461bcd60e51b815260206004820152601a60248201527f536f7274656454726f7665733a204c6973742069732066756c6c000000000000604482015290519081900360640190fd5b610b3c846105b1565b15610b785760405162461bcd60e51b815260040180806020018281038252602c8152602001806117a5602c913960400191505060405180910390fd5b6001600160a01b038416610bd3576040805162461bcd60e51b815260206004820152601f60248201527f536f7274656454726f7665733a2049642063616e6e6f74206265207a65726f00604482015290519081900360640190fd5b60008311610c125760405162461bcd60e51b81526004018080602001828103825260238152602001806118766023913960400191505060405180910390fd5b8181610c2087868484610e5d565b610c3657610c3087868484611104565b90925090505b6001600160a01b038087166000908152600760205260409020805460ff191660011790558216158015610c7057506001600160a01b038116155b15610ca557600380546001600160a01b0388166001600160a01b03199182168117909255600480549091169091179055610df9565b6001600160a01b038216610d1957600380546001600160a01b03888116600081815260076020526040808220805495851661010002610100600160a81b0319909616959095179094558454909216825291902060010180546001600160a01b03199081168317909155825416179055610df9565b6001600160a01b038116610d8957600480546001600160a01b0388811660008181526007602052604080822060010180549585166001600160a01b031996871617905585549093168152919091208054610100600160a81b03191661010083021790558254909116179055610df9565b6001600160a01b038087166000818152600760205260408082208054858716610100818102610100600160a81b031993841617845560019384018054988b166001600160a01b0319998a168117909155865284862080549188029190931617909155835291200180549092161790555b600654610e0d90600163ffffffff61143716565b600655604080516001600160a01b03881681526020810187905281517fe02b43adbee0c123de070a04554a71877a0007e2fc161466299cae3c094fe82f929181900390910190a150505050505050565b60006001600160a01b038316158015610e7d57506001600160a01b038216155b15610e9157610e8a6105d5565b905061055b565b6001600160a01b038316610f43576003546001600160a01b038381169116148015610e8a5750846001600160a01b031663b0d8e181836040518263ffffffff1660e01b815260040180826001600160a01b03166001600160a01b0316815260200191505060206040518083038186803b158015610f0d57600080fd5b505afa158015610f21573d6000803e3d6000fd5b505050506040513d6020811015610f3757600080fd5b5051841015905061055b565b6001600160a01b038216610ff5576004546001600160a01b038481169116148015610e8a5750846001600160a01b031663b0d8e181846040518263ffffffff1660e01b815260040180826001600160a01b03166001600160a01b0316815260200191505060206040518083038186803b158015610fbf57600080fd5b505afa158015610fd3573d6000803e3d6000fd5b505050506040513d6020811015610fe957600080fd5b5051841115905061055b565b6001600160a01b03838116600090815260076020526040902054610100900481169083161480156110a7575083856001600160a01b031663b0d8e181856040518263ffffffff1660e01b815260040180826001600160a01b03166001600160a01b0316815260200191505060206040518083038186803b15801561107857600080fd5b505afa15801561108c573d6000803e3d6000fd5b505050506040513d60208110156110a257600080fd5b505110155b8015610e8a5750846001600160a01b031663b0d8e181836040518263ffffffff1660e01b815260040180826001600160a01b03166001600160a01b0316815260200191505060206040518083038186803b158015610f0d57600080fd5b60008083836001600160a01b038216156111b757611121826105b1565b15806111ad5750876001600160a01b031663b0d8e181836040518263ffffffff1660e01b815260040180826001600160a01b03166001600160a01b0316815260200191505060206040518083038186803b15801561117e57600080fd5b505afa158015611192573d6000803e3d6000fd5b505050506040513d60208110156111a857600080fd5b505187115b156111b757600091505b6001600160a01b03811615611264576111cf816105b1565b158061125b5750876001600160a01b031663b0d8e181826040518263ffffffff1660e01b815260040180826001600160a01b03166001600160a01b0316815260200191505060206040518083038186803b15801561122c57600080fd5b505afa158015611240573d6000803e3d6000fd5b505050506040513d602081101561125657600080fd5b505187105b15611264575060005b6001600160a01b03821615801561128257506001600160a01b038116155b156112ab576003546112a090899089906001600160a01b0316611491565b9350935050506112e8565b6001600160a01b0382166112c4576112a08888836115d2565b6001600160a01b0381166112dd576112a0888884611491565b6112a0888884611491565b94509492505050565b6001600160a01b03811661134c576040805162461bcd60e51b815260206004820152601e60248201527f4163636f756e742063616e6e6f74206265207a65726f20616464726573730000604482015290519081900360640190fd5b803b806113a0576040805162461bcd60e51b815260206004820181905260248201527f4163636f756e7420636f64652073697a652063616e6e6f74206265207a65726f604482015290519081900360640190fd5b5050565b600080546040516001600160a01b03909116907f8be0079c531659141344cd1fd0a4f28419497f9722a3daafe3b4186f6b6457e0908390a3600080546001600160a01b0319169055565b600061143083836040518060400160405280601e81526020017f536166654d6174683a207375627472616374696f6e206f766572666c6f77000081525061170d565b9392505050565b600082820183811015611430576040805162461bcd60e51b815260206004820152601b60248201527f536166654d6174683a206164646974696f6e206f766572666c6f770000000000604482015290519081900360640190fd5b60035460009081906001600160a01b0384811691161480156115345750846001600160a01b031663b0d8e181846040518263ffffffff1660e01b815260040180826001600160a01b03166001600160a01b0316815260200191505060206040518083038186803b15801561150457600080fd5b505afa158015611518573d6000803e3d6000fd5b505050506040513d602081101561152e57600080fd5b50518410155b1561154457506000905081610585565b6001600160a01b038084166000908152600760205260409020548491610100909104165b6001600160a01b03821615801590611589575061158787878484610e5d565b155b156115c657506001600160a01b03908116600090815260076020526040808220546101009081900484168084529190922054909291900416611568565b90969095509350505050565b60045460009081906001600160a01b0384811691161480156116755750846001600160a01b031663b0d8e181846040518263ffffffff1660e01b815260040180826001600160a01b03166001600160a01b0316815260200191505060206040518083038186803b15801561164557600080fd5b505afa158015611659573d6000803e3d6000fd5b505050506040513d602081101561166f57600080fd5b50518411155b1561168557508190506000610585565b6001600160a01b038084166000908152600760205260409020600101548491165b6001600160a01b038216158015906116c757506116c587878385610e5d565b155b1561170257506001600160a01b03908116600090815260076020526040808220600190810154841680845291909220909101549091166116a6565b969095509350505050565b6000818484111561179c5760405162461bcd60e51b81526004018080602001828103825283818151815260200191508051906020019080838360005b83811015611761578181015183820152602001611749565b50505050905090810190601f16801561178e5780820380516001836020036101000a031916815260200191505b509250505060405180910390fd5b50505090039056fe536f7274656454726f7665733a204c69737420616c726561647920636f6e7461696e7320746865206e6f6465536f7274656454726f7665733a204c69737420646f6573206e6f7420636f6e7461696e20746865206964536f7274656454726f7665733a2053697a652063616ee2809974206265207a65726f536f7274656454726f7665733a2043616c6c6572206973206e6f74207468652054726f76654d616e61676572536f7274656454726f7665733a2043616c6c6572206973206e65697468657220424f206e6f722054726f76654d536f7274656454726f7665733a204e494352206d75737420626520706f736974697665a26469706673582212203bbb50e6d8b1aeca0ec1641e28b0d5c1145648a6f598acb90c15b64621593fce64736f6c634300060b0033608060405234801561001057600080fd5b50604051610e35380380610e358339818101604052608081101561003357600080fd5b50805160208201516040830151606090930151600080546001600160a01b039485166001600160a01b0319918216179091556001805493851693821693909317909255600280549484169483169490941790935560038054929093169116179055610d92806100a36000396000f3fe6080604052600436106100ed5760003560e01c8063641b09b611610085578063641b09b61461035f578063650b559c146103895780637bbb0f5e146103d9578063911347311461041a578063cc51a6c21461045c578063cf83544f14610495578063d466e4eb146104ce578063d94bcec214610507578063f47a1ea71461054a576100f4565b80630425aa83146100f9578063179d2a521461013c57806332e859b91461018557806335b10179146101b9578063390b5f27146102145780634903a3dd146102615780634afbac51146102765780634c36240b146102f35780634d37261f1461032c576100f4565b366100f457005b600080fd5b34801561010557600080fd5b5061013a6004803603606081101561011c57600080fd5b508035906001600160a01b0360208201358116916040013516610574565b005b34801561014857600080fd5b5061013a6004803603608081101561015f57600080fd5b508035906001600160a01b036020820135811691604081013590911690606001356105ee565b61013a6004803603606081101561019b57600080fd5b508035906001600160a01b0360208201358116916040013516610670565b3480156101c557600080fd5b5061013a600480360360e08110156101dc57600080fd5b508035906001600160a01b03602082013581169160408101358216916060820135169060808101359060a08101359060c001356106c9565b34801561022057600080fd5b5061024d6004803603604081101561023757600080fd5b506001600160a01b038135169060200135610761565b604080519115158252519081900360200190f35b34801561026d57600080fd5b5061013a6107ed565b34801561028257600080fd5b5061013a6004803603602081101561029957600080fd5b8101906020810181356401000000008111156102b457600080fd5b8201836020820111156102c657600080fd5b803590602001918460208302840111640100000000831117156102e857600080fd5b509092509050610857565b3480156102ff57600080fd5b5061013a6004803603604081101561031657600080fd5b50803590602001356001600160a01b03166108f0565b34801561033857600080fd5b5061013a6004803603602081101561034f57600080fd5b50356001600160a01b0316610945565b34801561036b57600080fd5b5061013a6004803603602081101561038257600080fd5b50356109ab565b61013a600480360360e081101561039f57600080fd5b5080359060208101359060408101359060608101351515906001600160a01b03608082013581169160a08101359091169060c001356109f8565b3480156103e557600080fd5b5061013a600480360360608110156103fc57600080fd5b508035906001600160a01b0360208201358116916040013516610a90565b61013a600480360360a081101561043057600080fd5b508035906020810135906001600160a01b03604082013581169160608101359091169060800135610aed565b34801561046857600080fd5b5061024d6004803603604081101561047f57600080fd5b506001600160a01b038135169060200135610b74565b3480156104a157600080fd5b5061024d600480360360408110156104b857600080fd5b506001600160a01b038135169060200135610bcd565b3480156104da57600080fd5b5061024d600480360360408110156104f157600080fd5b506001600160a01b038135169060200135610c26565b34801561051357600080fd5b5061024d6004803603606081101561052a57600080fd5b506001600160a01b03813581169160208101359091169060400135610c7f565b34801561055657600080fd5b5061013a6004803603602081101561056d57600080fd5b5035610d14565b60015460408051638ba9681760e01b8152600481018690526001600160a01b038581166024830152848116604483015291519190921691638ba9681791606480830192600092919082900301818387803b1580156105d157600080fd5b505af11580156105e5573d6000803e3d6000fd5b50505050505050565b600154604080516318c5b5ad60e31b815260048101849052602481018790526001600160a01b03868116604483015285811660648301529151919092169163c62dad6891608480830192600092919082900301818387803b15801561065257600080fd5b505af1158015610666573d6000803e3d6000fd5b5050505050505050565b600154604080516368647db160e01b81526001600160a01b0385811660048301528481166024830152915191909216916368647db191869160448082019260009290919082900301818588803b15801561065257600080fd5b6000805460408051635e69ba9360e11b8152600481018b90526001600160a01b038a81166024830152898116604483015288811660648301526084820188905260a4820187905260c482018690529151919092169263bcd375269260e4808201939182900301818387803b15801561074057600080fd5b505af1158015610754573d6000803e3d6000fd5b5050505050505050505050565b6003546040805163a9059cbb60e01b81526001600160a01b038581166004830152602482018590529151600093929092169163a9059cbb9160448082019260209290919082900301818787803b1580156107ba57600080fd5b505af11580156107ce573d6000803e3d6000fd5b505050506040513d60208110156107e457600080fd5b50519392505050565b600160009054906101000a90046001600160a01b03166001600160a01b0316630e704d506040518163ffffffff1660e01b8152600401600060405180830381600087803b15801561083d57600080fd5b505af1158015610851573d6000803e3d6000fd5b50505050565b600054604051631e8b1c2b60e01b8152602060048201818152602483018590526001600160a01b0390931692631e8b1c2b92869286929182916044909101908590850280828437600081840152601f19601f8201169050808301925050509350505050600060405180830381600087803b1580156108d457600080fd5b505af11580156108e8573d6000803e3d6000fd5b505050505050565b60025460408051635f788d6560e01b8152600481018590526001600160a01b03848116602483015291519190921691635f788d6591604480830192600092919082900301818387803b1580156108d457600080fd5b60008054604080516305f0caad60e31b81526001600160a01b03858116600483015291519190921692632f865568926024808201939182900301818387803b15801561099057600080fd5b505af11580156109a4573d6000803e3d6000fd5b5050505050565b60025460408051632e54bf9560e01b81526004810184905290516001600160a01b0390921691632e54bf959160248082019260009290919082900301818387803b15801561099057600080fd5b60015460408051630635367960e51b815260048101849052602481018990526044810188905286151560648201526001600160a01b03868116608483015285811660a48301529151919092169163c6a6cf20918a9160c48082019260009290919082900301818588803b158015610a6e57600080fd5b505af1158015610a82573d6000803e3d6000fd5b505050505050505050505050565b6001546040805163154c09cf60e21b8152600481018690526001600160a01b038581166024830152848116604483015291519190921691635530273c91606480830192600092919082900301818387803b1580156105d157600080fd5b6001546040805163860665b360e01b815260048101849052602481018790526001600160a01b03868116604483015285811660648301529151919092169163860665b391889160848082019260009290919082900301818588803b158015610b5457600080fd5b505af1158015610b68573d6000803e3d6000fd5b50505050505050505050565b60035460408051633950935160e01b81526001600160a01b038581166004830152602482018590529151600093929092169163395093519160448082019260209290919082900301818787803b1580156107ba57600080fd5b6003546040805163095ea7b360e01b81526001600160a01b038581166004830152602482018590529151600093929092169163095ea7b39160448082019260209290919082900301818787803b1580156107ba57600080fd5b6003546040805163a457c2d760e01b81526001600160a01b038581166004830152602482018590529151600093929092169163a457c2d79160448082019260209290919082900301818787803b1580156107ba57600080fd5b600354604080516323b872dd60e01b81526001600160a01b038681166004830152858116602483015260448201859052915160009392909216916323b872dd9160648082019260209290919082900301818787803b158015610ce057600080fd5b505af1158015610cf4573d6000803e3d6000fd5b505050506040513d6020811015610d0a57600080fd5b5051949350505050565b600080546040805163653d46e760e01b81526004810185905290516001600160a01b039092169263653d46e79260248084019382900301818387803b15801561099057600080fdfea2646970667358221220c55231510d375786b700e005eaf2ecbca170f90a9484e1d88fbe498d1fd7398c64736f6c634300060b0033",
  "linkReferences": {},
  "deployedLinkReferences": {}
}