{
  "_format": "hh-sol-artifact-1",
  "contractName": "HALALTokenTester",
  "sourceName": "contracts/TestContracts/HALALTokenTester.sol",
  "abi": [
    {
      "inputs": [
        {
          "internalType": "address",
          "name": "_communityIssuanceAddress",
          "type": "address"
        },
        {
          "internalType": "address",
          "name": "_halalStakingAddress",
          "type": "address"
        },
        {
          "internalType": "address",
          "name": "_lockupFactoryAddress",
          "type": "address"
        },
        {
          "internalType": "address",
          "name": "_bountyAddress",
          "type": "address"
        },
        {
          "internalType": "address",
          "name": "_lpRewardsAddress",
          "type": "address"
        },
        {
          "internalType": "address",
          "name": "_multisigAddress",
          "type": "address"
        }
      ],
      "stateMutability": "nonpayable",
      "type": "constructor"
    },
    {
      "anonymous": false,
      "inputs": [
        {
          "indexed": true,
          "internalType": "address",
          "name": "owner",
          "type": "address"
        },
        {
          "indexed": true,
          "internalType": "address",
          "name": "spender",
          "type": "address"
        },
        {
          "indexed": false,
          "internalType": "uint256",
          "name": "value",
          "type": "uint256"
        }
      ],
      "name": "Approval",
      "type": "event"
    },
    {
      "anonymous": false,
      "inputs": [
        {
          "indexed": false,
          "internalType": "address",
          "name": "_communityIssuanceAddress",
          "type": "address"
        }
      ],
      "name": "CommunityIssuanceAddressSet",
      "type": "event"
    },
    {
      "anonymous": false,
      "inputs": [
        {
          "indexed": false,
          "internalType": "address",
          "name": "_halalStakingAddress",
          "type": "address"
        }
      ],
      "name": "HALALStakingAddressSet",
      "type": "event"
    },
    {
      "anonymous": false,
      "inputs": [
        {
          "indexed": false,
          "internalType": "address",
          "name": "_lockupContractFactoryAddress",
          "type": "address"
        }
      ],
      "name": "LockupContractFactoryAddressSet",
      "type": "event"
    },
    {
      "anonymous": false,
      "inputs": [
        {
          "indexed": true,
          "internalType": "address",
          "name": "from",
          "type": "address"
        },
        {
          "indexed": true,
          "internalType": "address",
          "name": "to",
          "type": "address"
        },
        {
          "indexed": false,
          "internalType": "uint256",
          "name": "value",
          "type": "uint256"
        }
      ],
      "name": "Transfer",
      "type": "event"
    },
    {
      "inputs": [],
      "name": "ONE_YEAR_IN_SECONDS",
      "outputs": [
        {
          "internalType": "uint256",
          "name": "",
          "type": "uint256"
        }
      ],
      "stateMutability": "view",
      "type": "function"
    },
    {
      "inputs": [
        {
          "internalType": "address",
          "name": "owner",
          "type": "address"
        },
        {
          "internalType": "address",
          "name": "spender",
          "type": "address"
        }
      ],
      "name": "allowance",
      "outputs": [
        {
          "internalType": "uint256",
          "name": "",
          "type": "uint256"
        }
      ],
      "stateMutability": "view",
      "type": "function"
    },
    {
      "inputs": [
        {
          "internalType": "address",
          "name": "spender",
          "type": "address"
        },
        {
          "internalType": "uint256",
          "name": "amount",
          "type": "uint256"
        }
      ],
      "name": "approve",
      "outputs": [
        {
          "internalType": "bool",
          "name": "",
          "type": "bool"
        }
      ],
      "stateMutability": "nonpayable",
      "type": "function"
    },
    {
      "inputs": [
        {
          "internalType": "address",
          "name": "account",
          "type": "address"
        }
      ],
      "name": "balanceOf",
      "outputs": [
        {
          "internalType": "uint256",
          "name": "",
          "type": "uint256"
        }
      ],
      "stateMutability": "view",
      "type": "function"
    },
    {
      "inputs": [
        {
          "internalType": "address",
          "name": "owner",
          "type": "address"
        },
        {
          "internalType": "address",
          "name": "spender",
          "type": "address"
        },
        {
          "internalType": "uint256",
          "name": "amount",
          "type": "uint256"
        }
      ],
      "name": "callInternalApprove",
      "outputs": [
        {
          "internalType": "bool",
          "name": "",
          "type": "bool"
        }
      ],
      "stateMutability": "nonpayable",
      "type": "function"
    },
    {
      "inputs": [
        {
          "internalType": "address",
          "name": "sender",
          "type": "address"
        },
        {
          "internalType": "address",
          "name": "recipient",
          "type": "address"
        },
        {
          "internalType": "uint256",
          "name": "amount",
          "type": "uint256"
        }
      ],
      "name": "callInternalTransfer",
      "outputs": [
        {
          "internalType": "bool",
          "name": "",
          "type": "bool"
        }
      ],
      "stateMutability": "nonpayable",
      "type": "function"
    },
    {
      "inputs": [],
      "name": "communityIssuanceAddress",
      "outputs": [
        {
          "internalType": "address",
          "name": "",
          "type": "address"
        }
      ],
      "stateMutability": "view",
      "type": "function"
    },
    {
      "inputs": [],
      "name": "decimals",
      "outputs": [
        {
          "internalType": "uint8",
          "name": "",
          "type": "uint8"
        }
      ],
      "stateMutability": "view",
      "type": "function"
    },
    {
      "inputs": [
        {
          "internalType": "address",
          "name": "spender",
          "type": "address"
        },
        {
          "internalType": "uint256",
          "name": "subtractedValue",
          "type": "uint256"
        }
      ],
      "name": "decreaseAllowance",
      "outputs": [
        {
          "internalType": "bool",
          "name": "",
          "type": "bool"
        }
      ],
      "stateMutability": "nonpayable",
      "type": "function"
    },
    {
      "inputs": [],
      "name": "domainSeparator",
      "outputs": [
        {
          "internalType": "bytes32",
          "name": "",
          "type": "bytes32"
        }
      ],
      "stateMutability": "view",
      "type": "function"
    },
    {
      "inputs": [],
      "name": "getChainId",
      "outputs": [
        {
          "internalType": "uint256",
          "name": "chainID",
          "type": "uint256"
        }
      ],
      "stateMutability": "pure",
      "type": "function"
    },
    {
      "inputs": [],
      "name": "getDeploymentStartTime",
      "outputs": [
        {
          "internalType": "uint256",
          "name": "",
          "type": "uint256"
        }
      ],
      "stateMutability": "view",
      "type": "function"
    },
    {
      "inputs": [],
      "name": "getLpRewardsEntitlement",
      "outputs": [
        {
          "internalType": "uint256",
          "name": "",
          "type": "uint256"
        }
      ],
      "stateMutability": "view",
      "type": "function"
    },
    {
      "inputs": [],
      "name": "halalStakingAddress",
      "outputs": [
        {
          "internalType": "address",
          "name": "",
          "type": "address"
        }
      ],
      "stateMutability": "view",
      "type": "function"
    },
    {
      "inputs": [
        {
          "internalType": "address",
          "name": "spender",
          "type": "address"
        },
        {
          "internalType": "uint256",
          "name": "addedValue",
          "type": "uint256"
        }
      ],
      "name": "increaseAllowance",
      "outputs": [
        {
          "internalType": "bool",
          "name": "",
          "type": "bool"
        }
      ],
      "stateMutability": "nonpayable",
      "type": "function"
    },
    {
      "inputs": [],
      "name": "lockupContractFactory",
      "outputs": [
        {
          "internalType": "contract ILockupContractFactory",
          "name": "",
          "type": "address"
        }
      ],
      "stateMutability": "view",
      "type": "function"
    },
    {
      "inputs": [],
      "name": "multisigAddress",
      "outputs": [
        {
          "internalType": "address",
          "name": "",
          "type": "address"
        }
      ],
      "stateMutability": "view",
      "type": "function"
    },
    {
      "inputs": [],
      "name": "name",
      "outputs": [
        {
          "internalType": "string",
          "name": "",
          "type": "string"
        }
      ],
      "stateMutability": "view",
      "type": "function"
    },
    {
      "inputs": [
        {
          "internalType": "address",
          "name": "owner",
          "type": "address"
        }
      ],
      "name": "nonces",
      "outputs": [
        {
          "internalType": "uint256",
          "name": "",
          "type": "uint256"
        }
      ],
      "stateMutability": "view",
      "type": "function"
    },
    {
      "inputs": [
        {
          "internalType": "address",
          "name": "owner",
          "type": "address"
        },
        {
          "internalType": "address",
          "name": "spender",
          "type": "address"
        },
        {
          "internalType": "uint256",
          "name": "amount",
          "type": "uint256"
        },
        {
          "internalType": "uint256",
          "name": "deadline",
          "type": "uint256"
        },
        {
          "internalType": "uint8",
          "name": "v",
          "type": "uint8"
        },
        {
          "internalType": "bytes32",
          "name": "r",
          "type": "bytes32"
        },
        {
          "internalType": "bytes32",
          "name": "s",
          "type": "bytes32"
        }
      ],
      "name": "permit",
      "outputs": [],
      "stateMutability": "nonpayable",
      "type": "function"
    },
    {
      "inputs": [],
      "name": "permitTypeHash",
      "outputs": [
        {
          "internalType": "bytes32",
          "name": "",
          "type": "bytes32"
        }
      ],
      "stateMutability": "view",
      "type": "function"
    },
    {
      "inputs": [
        {
          "internalType": "address",
          "name": "_sender",
          "type": "address"
        },
        {
          "internalType": "uint256",
          "name": "_amount",
          "type": "uint256"
        }
      ],
      "name": "sendToHALALStaking",
      "outputs": [],
      "stateMutability": "nonpayable",
      "type": "function"
    },
    {
      "inputs": [],
      "name": "symbol",
      "outputs": [
        {
          "internalType": "string",
          "name": "",
          "type": "string"
        }
      ],
      "stateMutability": "view",
      "type": "function"
    },
    {
      "inputs": [],
      "name": "totalSupply",
      "outputs": [
        {
          "internalType": "uint256",
          "name": "",
          "type": "uint256"
        }
      ],
      "stateMutability": "view",
      "type": "function"
    },
    {
      "inputs": [
        {
          "internalType": "address",
          "name": "recipient",
          "type": "address"
        },
        {
          "internalType": "uint256",
          "name": "amount",
          "type": "uint256"
        }
      ],
      "name": "transfer",
      "outputs": [
        {
          "internalType": "bool",
          "name": "",
          "type": "bool"
        }
      ],
      "stateMutability": "nonpayable",
      "type": "function"
    },
    {
      "inputs": [
        {
          "internalType": "address",
          "name": "sender",
          "type": "address"
        },
        {
          "internalType": "address",
          "name": "recipient",
          "type": "address"
        },
        {
          "internalType": "uint256",
          "name": "amount",
          "type": "uint256"
        }
      ],
      "name": "transferFrom",
      "outputs": [
        {
          "internalType": "bool",
          "name": "",
          "type": "bool"
        }
      ],
      "stateMutability": "nonpayable",
      "type": "function"
    },
    {
      "inputs": [
        {
          "internalType": "address",
          "name": "account",
          "type": "address"
        },
        {
          "internalType": "uint256",
          "name": "amount",
          "type": "uint256"
        }
      ],
      "name": "unprotectedMint",
      "outputs": [],
      "stateMutability": "nonpayable",
      "type": "function"
    },
    {
      "inputs": [
        {
          "internalType": "address",
          "name": "_sender",
          "type": "address"
        },
        {
          "internalType": "uint256",
          "name": "_amount",
          "type": "uint256"
        }
      ],
      "name": "unprotectedSendToHALALStaking",
      "outputs": [],
      "stateMutability": "nonpayable",
      "type": "function"
    },
    {
      "inputs": [],
      "name": "version",
      "outputs": [
        {
          "internalType": "string",
          "name": "",
          "type": "string"
        }
      ],
      "stateMutability": "view",
      "type": "function"
    }
  ],
  "bytecode": "0x6101c060405269d3c21bcecceda10000006004553480156200002057600080fd5b506040516200203138038062002031833981810160405260c08110156200004657600080fd5b508051602082015160408301516060840151608085015160a090950151939492939192909185858585858562000085866001600160e01b03620002de16565b62000099856001600160e01b03620002de16565b620000ad846001600160e01b03620002de16565b6001600160601b0319606082811b821661012052426101005287811b82166101405286811b82166101605285901b166101a0526040805180820182526005815264121053105360da1b602091820152815180830190925260018252603160f81b9101527f1494532e6c7c6bfad6ae72b33811c6161464c6602f4e8088a1c8bfc93d6d7f0d60c08190527fc89efdaa54c0f20c7adf612882df0950f5a951637e0307cdcb4c672f298b8bc660e08190526200016f6001600160e01b036200039316565b60a052620001a87f8b73c3c69bb8fe3d512ecc4cf759cc79239f7b179b0ffacaa9a75d522b39400f83836001600160e01b036200039716565b608081815250506000620001ce6002600454620003f860201b62000c0d1790919060201c565b9050620001e586826001600160e01b036200045f16565b6004546000906200020190602062000c0d620003f8821b17811c565b9050620002188a826001600160e01b036200045f16565b60006200025060036200023c60048054620003f860201b62000c0d1790919060201c565b6200056060201b62000c661790919060201c565b61018081905290506200026d87826001600160e01b036200045f16565b6000620002af826200029b856200029b886200029b6064600454620003f860201b62000c0d1790919060201c565b620005aa60201b62000ca81790919060201c565b9050620002c687826001600160e01b036200045f16565b50505050505050505050505050505050505062000753565b6001600160a01b0381166200033a576040805162461bcd60e51b815260206004820152601e60248201527f4163636f756e742063616e6e6f74206265207a65726f20616464726573730000604482015290519081900360640190fd5b803b806200038f576040805162461bcd60e51b815260206004820181905260248201527f4163636f756e7420636f64652073697a652063616e6e6f74206265207a65726f604482015290519081900360640190fd5b5050565b4690565b6000838383620003af6001600160e01b036200039316565b6040805160208082019690965280820194909452606084019290925260808301523060a0808401919091528151808403909101815260c090920190528051910120949350505050565b600082620004095750600062000459565b828202828482816200041757fe5b0414620004565760405162461bcd60e51b8152600401808060200182810382526021815260200180620020106021913960400191505060405180910390fd5b90505b92915050565b6001600160a01b038216620004bb576040805162461bcd60e51b815260206004820152601f60248201527f45524332303a206d696e7420746f20746865207a65726f206164647265737300604482015290519081900360640190fd5b620004d781600254620005f460201b62000cea1790919060201c565b6002556001600160a01b038216600090815260208181526040909120546200050a91839062000cea620005f4821b17901c565b6001600160a01b0383166000818152602081815260408083209490945583518581529351929391927fddf252ad1be2c89b69c2b068fc378daa952ba7f163c4a11628f55a4df523b3ef9281900390910190a35050565b60006200045683836040518060400160405280601a81526020017f536166654d6174683a206469766973696f6e206279207a65726f0000000000008152506200064f60201b60201c565b60006200045683836040518060400160405280601e81526020017f536166654d6174683a207375627472616374696f6e206f766572666c6f770000815250620006f660201b60201c565b60008282018381101562000456576040805162461bcd60e51b815260206004820152601b60248201527f536166654d6174683a206164646974696f6e206f766572666c6f770000000000604482015290519081900360640190fd5b60008183620006df5760405162461bcd60e51b81526004018080602001828103825283818151815260200191508051906020019080838360005b83811015620006a357818101518382015260200162000689565b50505050905090810190601f168015620006d15780820380516001836020036101000a031916815260200191505b509250505060405180910390fd5b506000838581620006ec57fe5b0495945050505050565b600081848411156200074b5760405162461bcd60e51b8152602060048201818152835160248401528351909283926044909101919085019080838360008315620006a357818101518382015260200162000689565b505050900390565b60805160a05160c05160e051610100516101205160601c6101405160601c6101605160601c610180516101a05160601c611817620007f9600039806107de528061134652508061080252508061078152806108d35280610fc2528061142c525080610aee5280610f855250806107285280610eb552806113205250806106f65280610e3d525080610be2525080610bc1525080610b47525080610b7752506118176000f3fe608060405234801561001057600080fd5b506004361061018f5760003560e01c80635b430584116100e4578063a9059cbb11610092578063a9059cbb1461047d578063bd94dab9146104a9578063ceb6680f146104d5578063d505accf146104dd578063d874ea741461052e578063dd62ed3e14610536578063e7c8fed414610564578063f698da251461056c5761018f565b80635b430584146103c957806370a08231146103f55780637ecebe001461041b578063811c5b4d1461044157806395d89b41146101de578063974f559014610449578063a457c2d7146104515761018f565b80633408e470116101415780633408e470146102fd578063387a54d914610305578063395093511461033b5780633c84b7c2146103675780635099f99f1461036f5780635462870d1461039d57806354fd4d50146103c15761018f565b806303d999461461019457806306fdde03146101de578063095ea7b31461025b57806310ce43bd1461028757806318160ddd146102a157806323b872dd146102a9578063313ce567146102df575b600080fd5b6101ca600480360360608110156101aa57600080fd5b506001600160a01b03813581169160208101359091169060400135610574565b604080519115158252519081900360200190f35b6101e6610588565b6040805160208082528351818301528351919283929083019185019080838360005b83811015610220578181015183820152602001610208565b50505050905090810190601f16801561024d5780820380516001836020036101000a031916815260200191505b509250505060405180910390f35b6101ca6004803603604081101561027157600080fd5b506001600160a01b0381351690602001356105a8565b61028f6105d4565b60408051918252519081900360200190f35b61028f6105f8565b6101ca600480360360608110156102bf57600080fd5b506001600160a01b038135811691602081013590911690604001356105fe565b6102e761068c565b6040805160ff9092168252519081900360200190f35b61028f610691565b6101ca6004803603606081101561031b57600080fd5b506001600160a01b03813581169160208101359091169060400135610695565b6101ca6004803603604081101561035157600080fd5b506001600160a01b0381351690602001356106a2565b61028f6106f4565b61039b6004803603604081101561038557600080fd5b506001600160a01b038135169060200135610718565b005b6103a5610726565b604080516001600160a01b039092168252519081900360200190f35b6101e661074a565b61039b600480360360408110156103df57600080fd5b506001600160a01b038135169060200135610765565b61028f6004803603602081101561040b57600080fd5b50356001600160a01b03166107a6565b61028f6004803603602081101561043157600080fd5b50356001600160a01b03166107c1565b6103a56107dc565b61028f610800565b6101ca6004803603604081101561046757600080fd5b506001600160a01b038135169060200135610824565b6101ca6004803603604081101561049357600080fd5b506001600160a01b03813516906020013561088e565b61039b600480360360408110156104bf57600080fd5b506001600160a01b0381351690602001356108c9565b6103a56108d1565b61039b600480360360e08110156104f357600080fd5b506001600160a01b03813581169160208101359091169060408101359060608101359060ff6080820135169060a08101359060c001356108f5565b6103a5610aec565b61028f6004803603604081101561054c57600080fd5b506001600160a01b0381358116916020013516610b10565b61028f610b3b565b61028f610b43565b6000610581848484610d44565b9392505050565b604080518082019091526005815264121053105360da1b60208201525b90565b60006105b2610e30565b156105bf576105bf610e6d565b6105ca338484610d44565b5060015b92915050565b7f6e71edae12b1b97f4d1f60370fef10105fa2faae0126114a169c64845d6126c990565b60025490565b6000610608610e30565b156106165761061684610eb3565b61061f83610f27565b61062a848484611032565b610682843361067d85604051806060016040528060288152602001611626602891396001600160a01b038a166000908152600160209081526040808320338452909152902054919063ffffffff61118e16565b610d44565b5060019392505050565b601290565b4690565b6000610581848484611032565b60006106ac610e30565b156106b9576106b9610e6d565b3360008181526001602090815260408083206001600160a01b03881684529091529020546105ca9190859061067d908663ffffffff610cea16565b7f000000000000000000000000000000000000000000000000000000000000000090565b6107228282611225565b5050565b7f000000000000000000000000000000000000000000000000000000000000000081565b6040805180820190915260018152603160f81b602082015290565b61076d610e30565b1561077b5761077b82610eb3565b610722827f000000000000000000000000000000000000000000000000000000000000000083611032565b6001600160a01b031660009081526020819052604090205490565b6001600160a01b031660009081526003602052604090205490565b7f000000000000000000000000000000000000000000000000000000000000000081565b7f000000000000000000000000000000000000000000000000000000000000000090565b600061082e610e30565b1561083b5761083b610e6d565b6105ca338461067d856040518060600160405280602581526020016117bd602591393360009081526001602090815260408083206001600160a01b038d168452909152902054919063ffffffff61118e16565b6000610898611315565b80156108a757506108a7610e30565b156108b5576108b583611344565b6108be83610f27565b6105ca338484611032565b610765611421565b7f000000000000000000000000000000000000000000000000000000000000000081565b42841015610944576040805162461bcd60e51b815260206004820152601760248201527648414c414c3a206578706972656420646561646c696e6560481b604482015290519081900360640190fd5b600061094e610b43565b6001600160a01b03808a1660008181526003602090815260408083208054600180820190925582517f6e71edae12b1b97f4d1f60370fef10105fa2faae0126114a169c64845d6126c98186015280840196909652958e166060860152608085018d905260a085019590955260c08085018c90528151808603909101815260e08501825280519083012061190160f01b6101008601526101028501969096526101228085019690965280518085039096018652610142840180825286519683019690962095839052610162840180825286905260ff8a166101828501526101a284018990526101c284018890525194955090936101e280840193601f198301929081900390910190855afa158015610a69573d6000803e3d6000fd5b505050602060405103519050886001600160a01b0316816001600160a01b031614610ad6576040805162461bcd60e51b815260206004820152601860248201527748414c414c3a20696e76616c6964207369676e617475726560401b604482015290519081900360640190fd5b610ae1898989610d44565b505050505050505050565b7f000000000000000000000000000000000000000000000000000000000000000081565b6001600160a01b03918216600090815260016020908152604080832093909416825291909152205490565b6301e1338081565b60007f0000000000000000000000000000000000000000000000000000000000000000610b6e610691565b1415610b9b57507f00000000000000000000000000000000000000000000000000000000000000006105a5565b610c067f8b73c3c69bb8fe3d512ecc4cf759cc79239f7b179b0ffacaa9a75d522b39400f7f00000000000000000000000000000000000000000000000000000000000000007f0000000000000000000000000000000000000000000000000000000000000000611488565b90506105a5565b600082610c1c575060006105ce565b82820282848281610c2957fe5b04146105815760405162461bcd60e51b81526004018080602001828103825260218152602001806116056021913960400191505060405180910390fd5b600061058183836040518060400160405280601a81526020017f536166654d6174683a206469766973696f6e206279207a65726f0000000000008152506114de565b600061058183836040518060400160405280601e81526020017f536166654d6174683a207375627472616374696f6e206f766572666c6f77000081525061118e565b600082820183811015610581576040805162461bcd60e51b815260206004820152601b60248201527f536166654d6174683a206164646974696f6e206f766572666c6f770000000000604482015290519081900360640190fd5b6001600160a01b038316610d895760405162461bcd60e51b81526004018080602001828103825260248152602001806117656024913960400191505060405180910390fd5b6001600160a01b038216610dce5760405162461bcd60e51b81526004018080602001828103825260228152602001806115676022913960400191505060405180910390fd5b6001600160a01b03808416600081815260016020908152604080832094871680845294825291829020859055815185815291517f8c5be1e5ebec7d5bd14f71427d1e84f3dd0314c0f7b2291e5b200ac8c7c3b9259281900390910190a3505050565b60006301e13380610e67427f000000000000000000000000000000000000000000000000000000000000000063ffffffff610ca816565b10905090565b610e75611315565b15610eb15760405162461bcd60e51b815260040180806020018281038252602b8152602001806116ea602b913960400191505060405180910390fd5b565b7f00000000000000000000000000000000000000000000000000000000000000006001600160a01b0316816001600160a01b03161415610f245760405162461bcd60e51b815260040180806020018281038252602b81526020018061173a602b913960400191505060405180910390fd5b50565b6001600160a01b03811615801590610f4857506001600160a01b0381163014155b610f835760405162461bcd60e51b81526004018080602001828103825260568152602001806115af6056913960600191505060405180910390fd5b7f00000000000000000000000000000000000000000000000000000000000000006001600160a01b0316816001600160a01b031614158015610ff757507f00000000000000000000000000000000000000000000000000000000000000006001600160a01b0316816001600160a01b031614155b610f245760405162461bcd60e51b81526004018080602001828103825260548152602001806116966054913960600191505060405180910390fd5b6001600160a01b0383166110775760405162461bcd60e51b81526004018080602001828103825260258152602001806117156025913960400191505060405180910390fd5b6001600160a01b0382166110bc5760405162461bcd60e51b81526004018080602001828103825260238152602001806115446023913960400191505060405180910390fd5b6110ff81604051806060016040528060268152602001611589602691396001600160a01b038616600090815260208190526040902054919063ffffffff61118e16565b6001600160a01b038085166000908152602081905260408082209390935590841681522054611134908263ffffffff610cea16565b6001600160a01b038084166000818152602081815260409182902094909455805185815290519193928716927fddf252ad1be2c89b69c2b068fc378daa952ba7f163c4a11628f55a4df523b3ef92918290030190a3505050565b6000818484111561121d5760405162461bcd60e51b81526004018080602001828103825283818151815260200191508051906020019080838360005b838110156111e25781810151838201526020016111ca565b50505050905090810190601f16801561120f5780820380516001836020036101000a031916815260200191505b509250505060405180910390fd5b505050900390565b6001600160a01b038216611280576040805162461bcd60e51b815260206004820152601f60248201527f45524332303a206d696e7420746f20746865207a65726f206164647265737300604482015290519081900360640190fd5b600254611293908263ffffffff610cea16565b6002556001600160a01b0382166000908152602081905260409020546112bf908263ffffffff610cea16565b6001600160a01b0383166000818152602081815260408083209490945583518581529351929391927fddf252ad1be2c89b69c2b068fc378daa952ba7f163c4a11628f55a4df523b3ef9281900390910190a35050565b336001600160a01b037f0000000000000000000000000000000000000000000000000000000000000000161490565b7f00000000000000000000000000000000000000000000000000000000000000006001600160a01b031663bb7603f1826040518263ffffffff1660e01b815260040180826001600160a01b03166001600160a01b0316815260200191505060206040518083038186803b1580156113ba57600080fd5b505afa1580156113ce573d6000803e3d6000fd5b505050506040513d60208110156113e457600080fd5b5051610f245760405162461bcd60e51b815260040180806020018281038252604881526020018061164e6048913960600191505060405180910390fd5b336001600160a01b037f00000000000000000000000000000000000000000000000000000000000000001614610eb15760405162461bcd60e51b81526004018080602001828103825260348152602001806117896034913960400191505060405180910390fd5b6000838383611495610691565b6040805160208082019690965280820194909452606084019290925260808301523060a0808401919091528151808403909101815260c090920190528051910120949350505050565b6000818361152d5760405162461bcd60e51b81526020600482018181528351602484015283519092839260449091019190850190808383600083156111e25781810151838201526020016111ca565b50600083858161153957fe5b049594505050505056fe45524332303a207472616e7366657220746f20746865207a65726f206164647265737345524332303a20617070726f766520746f20746865207a65726f206164647265737345524332303a207472616e7366657220616d6f756e7420657863656564732062616c616e636548414c414c3a2043616e6e6f74207472616e7366657220746f6b656e73206469726563746c7920746f207468652048414c414c20746f6b656e20636f6e7472616374206f7220746865207a65726f2061646472657373536166654d6174683a206d756c7469706c69636174696f6e206f766572666c6f7745524332303a207472616e7366657220616d6f756e74206578636565647320616c6c6f77616e636548414c414c546f6b656e3a20726563697069656e74206d7573742062652061204c6f636b7570436f6e7472616374207265676973746572656420696e2074686520466163746f727948414c414c3a2043616e6e6f74207472616e7366657220746f6b656e73206469726563746c7920746f2074686520636f6d6d756e6974792069737375616e6365206f72207374616b696e6720636f6e747261637448414c414c546f6b656e3a2063616c6c6572206d757374206e6f7420626520746865206d756c746973696745524332303a207472616e736665722066726f6d20746865207a65726f206164647265737348414c414c546f6b656e3a2073656e646572206d757374206e6f7420626520746865206d756c746973696745524332303a20617070726f76652066726f6d20746865207a65726f206164647265737348414c414c546f6b656e3a2063616c6c6572206d757374206265207468652048414c414c5374616b696e6720636f6e747261637445524332303a2064656372656173656420616c6c6f77616e63652062656c6f77207a65726fa2646970667358221220b1f46178d62786bcc52f3f2a9e2c6ddba74524e32c639e030a713f0337bf4cdf64736f6c634300060b0033536166654d6174683a206d756c7469706c69636174696f6e206f766572666c6f77",
  "linkReferences": {},
  "deployedLinkReferences": {}
}