{
  "_format": "hh-sol-artifact-1",
  "contractName": "HALALStakingTester",
  "sourceName": "contracts/TestContracts/HALALStakingTester.sol",
  "abi": [
    {
      "anonymous": false,
      "inputs": [
        {
          "indexed": false,
          "internalType": "address",
          "name": "_activePoolAddress",
          "type": "address"
        }
      ],
      "name": "ActivePoolAddressSet",
      "type": "event"
    },
    {
      "anonymous": false,
      "inputs": [
        {
          "indexed": false,
          "internalType": "address",
          "name": "_borrowerOperationsAddress",
          "type": "address"
        }
      ],
      "name": "BorrowerOperationsAddressSet",
      "type": "event"
    },
    {
      "anonymous": false,
      "inputs": [
        {
          "indexed": false,
          "internalType": "address",
          "name": "_account",
          "type": "address"
        },
        {
          "indexed": false,
          "internalType": "uint256",
          "name": "_amount",
          "type": "uint256"
        }
      ],
      "name": "EtherSent",
      "type": "event"
    },
    {
      "anonymous": false,
      "inputs": [
        {
          "indexed": false,
          "internalType": "uint256",
          "name": "_F_ETH",
          "type": "uint256"
        }
      ],
      "name": "F_ETHUpdated",
      "type": "event"
    },
    {
      "anonymous": false,
      "inputs": [
        {
          "indexed": false,
          "internalType": "uint256",
          "name": "_F_USDH",
          "type": "uint256"
        }
      ],
      "name": "F_USDHUpdated",
      "type": "event"
    },
    {
      "anonymous": false,
      "inputs": [
        {
          "indexed": false,
          "internalType": "address",
          "name": "_halalTokenAddress",
          "type": "address"
        }
      ],
      "name": "HALALTokenAddressSet",
      "type": "event"
    },
    {
      "anonymous": false,
      "inputs": [
        {
          "indexed": true,
          "internalType": "address",
          "name": "previousOwner",
          "type": "address"
        },
        {
          "indexed": true,
          "internalType": "address",
          "name": "newOwner",
          "type": "address"
        }
      ],
      "name": "OwnershipTransferred",
      "type": "event"
    },
    {
      "anonymous": false,
      "inputs": [
        {
          "indexed": true,
          "internalType": "address",
          "name": "staker",
          "type": "address"
        },
        {
          "indexed": false,
          "internalType": "uint256",
          "name": "newStake",
          "type": "uint256"
        }
      ],
      "name": "StakeChanged",
      "type": "event"
    },
    {
      "anonymous": false,
      "inputs": [
        {
          "indexed": false,
          "internalType": "address",
          "name": "_staker",
          "type": "address"
        },
        {
          "indexed": false,
          "internalType": "uint256",
          "name": "_F_ETH",
          "type": "uint256"
        },
        {
          "indexed": false,
          "internalType": "uint256",
          "name": "_F_USDH",
          "type": "uint256"
        }
      ],
      "name": "StakerSnapshotsUpdated",
      "type": "event"
    },
    {
      "anonymous": false,
      "inputs": [
        {
          "indexed": true,
          "internalType": "address",
          "name": "staker",
          "type": "address"
        },
        {
          "indexed": false,
          "internalType": "uint256",
          "name": "USDHGain",
          "type": "uint256"
        },
        {
          "indexed": false,
          "internalType": "uint256",
          "name": "ETHGain",
          "type": "uint256"
        }
      ],
      "name": "StakingGainsWithdrawn",
      "type": "event"
    },
    {
      "anonymous": false,
      "inputs": [
        {
          "indexed": false,
          "internalType": "uint256",
          "name": "_totalHALALStaked",
          "type": "uint256"
        }
      ],
      "name": "TotalHALALStakedUpdated",
      "type": "event"
    },
    {
      "anonymous": false,
      "inputs": [
        {
          "indexed": false,
          "internalType": "address",
          "name": "_troveManager",
          "type": "address"
        }
      ],
      "name": "TroveManagerAddressSet",
      "type": "event"
    },
    {
      "anonymous": false,
      "inputs": [
        {
          "indexed": false,
          "internalType": "address",
          "name": "_usdhTokenAddress",
          "type": "address"
        }
      ],
      "name": "USDHTokenAddressSet",
      "type": "event"
    },
    {
      "inputs": [],
      "name": "DECIMAL_PRECISION",
      "outputs": [
        {
          "internalType": "uint256",
          "name": "",
          "type": "uint256"
        }
      ],
      "stateMutability": "view",
      "type": "function"
    },
    {
      "inputs": [],
      "name": "F_ETH",
      "outputs": [
        {
          "internalType": "uint256",
          "name": "",
          "type": "uint256"
        }
      ],
      "stateMutability": "view",
      "type": "function"
    },
    {
      "inputs": [],
      "name": "F_USDH",
      "outputs": [
        {
          "internalType": "uint256",
          "name": "",
          "type": "uint256"
        }
      ],
      "stateMutability": "view",
      "type": "function"
    },
    {
      "inputs": [],
      "name": "NAME",
      "outputs": [
        {
          "internalType": "string",
          "name": "",
          "type": "string"
        }
      ],
      "stateMutability": "view",
      "type": "function"
    },
    {
      "inputs": [],
      "name": "activePoolAddress",
      "outputs": [
        {
          "internalType": "address",
          "name": "",
          "type": "address"
        }
      ],
      "stateMutability": "view",
      "type": "function"
    },
    {
      "inputs": [],
      "name": "borrowerOperationsAddress",
      "outputs": [
        {
          "internalType": "address",
          "name": "",
          "type": "address"
        }
      ],
      "stateMutability": "view",
      "type": "function"
    },
    {
      "inputs": [
        {
          "internalType": "address",
          "name": "_user",
          "type": "address"
        }
      ],
      "name": "getPendingETHGain",
      "outputs": [
        {
          "internalType": "uint256",
          "name": "",
          "type": "uint256"
        }
      ],
      "stateMutability": "view",
      "type": "function"
    },
    {
      "inputs": [
        {
          "internalType": "address",
          "name": "_user",
          "type": "address"
        }
      ],
      "name": "getPendingUSDHGain",
      "outputs": [
        {
          "internalType": "uint256",
          "name": "",
          "type": "uint256"
        }
      ],
      "stateMutability": "view",
      "type": "function"
    },
    {
      "inputs": [],
      "name": "halalToken",
      "outputs": [
        {
          "internalType": "contract IHALALToken",
          "name": "",
          "type": "address"
        }
      ],
      "stateMutability": "view",
      "type": "function"
    },
    {
      "inputs": [
        {
          "internalType": "uint256",
          "name": "_ETHFee",
          "type": "uint256"
        }
      ],
      "name": "increaseF_ETH",
      "outputs": [],
      "stateMutability": "nonpayable",
      "type": "function"
    },
    {
      "inputs": [
        {
          "internalType": "uint256",
          "name": "_USDHFee",
          "type": "uint256"
        }
      ],
      "name": "increaseF_USDH",
      "outputs": [],
      "stateMutability": "nonpayable",
      "type": "function"
    },
    {
      "inputs": [],
      "name": "isOwner",
      "outputs": [
        {
          "internalType": "bool",
          "name": "",
          "type": "bool"
        }
      ],
      "stateMutability": "view",
      "type": "function"
    },
    {
      "inputs": [],
      "name": "owner",
      "outputs": [
        {
          "internalType": "address",
          "name": "",
          "type": "address"
        }
      ],
      "stateMutability": "view",
      "type": "function"
    },
    {
      "inputs": [],
      "name": "requireCallerIsTroveManager",
      "outputs": [],
      "stateMutability": "view",
      "type": "function"
    },
    {
      "inputs": [
        {
          "internalType": "address",
          "name": "_halalTokenAddress",
          "type": "address"
        },
        {
          "internalType": "address",
          "name": "_usdhTokenAddress",
          "type": "address"
        },
        {
          "internalType": "address",
          "name": "_troveManagerAddress",
          "type": "address"
        },
        {
          "internalType": "address",
          "name": "_borrowerOperationsAddress",
          "type": "address"
        },
        {
          "internalType": "address",
          "name": "_activePoolAddress",
          "type": "address"
        }
      ],
      "name": "setAddresses",
      "outputs": [],
      "stateMutability": "nonpayable",
      "type": "function"
    },
    {
      "inputs": [
        {
          "internalType": "address",
          "name": "",
          "type": "address"
        }
      ],
      "name": "snapshots",
      "outputs": [
        {
          "internalType": "uint256",
          "name": "F_ETH_Snapshot",
          "type": "uint256"
        },
        {
          "internalType": "uint256",
          "name": "F_USDH_Snapshot",
          "type": "uint256"
        }
      ],
      "stateMutability": "view",
      "type": "function"
    },
    {
      "inputs": [
        {
          "internalType": "uint256",
          "name": "_HALALamount",
          "type": "uint256"
        }
      ],
      "name": "stake",
      "outputs": [],
      "stateMutability": "nonpayable",
      "type": "function"
    },
    {
      "inputs": [
        {
          "internalType": "address",
          "name": "",
          "type": "address"
        }
      ],
      "name": "stakes",
      "outputs": [
        {
          "internalType": "uint256",
          "name": "",
          "type": "uint256"
        }
      ],
      "stateMutability": "view",
      "type": "function"
    },
    {
      "inputs": [],
      "name": "totalHALALStaked",
      "outputs": [
        {
          "internalType": "uint256",
          "name": "",
          "type": "uint256"
        }
      ],
      "stateMutability": "view",
      "type": "function"
    },
    {
      "inputs": [],
      "name": "troveManagerAddress",
      "outputs": [
        {
          "internalType": "address",
          "name": "",
          "type": "address"
        }
      ],
      "stateMutability": "view",
      "type": "function"
    },
    {
      "inputs": [
        {
          "internalType": "uint256",
          "name": "_HALALamount",
          "type": "uint256"
        }
      ],
      "name": "unstake",
      "outputs": [],
      "stateMutability": "nonpayable",
      "type": "function"
    },
    {
      "inputs": [],
      "name": "usdhToken",
      "outputs": [
        {
          "internalType": "contract IUSDHToken",
          "name": "",
          "type": "address"
        }
      ],
      "stateMutability": "view",
      "type": "function"
    },
    {
      "stateMutability": "payable",
      "type": "receive"
    }
  ],
  "bytecode": "0x608060405234801561001057600080fd5b50600080546001600160a01b0319163390811782556040519091907f8be0079c531659141344cd1fd0a4f28419497f9722a3daafe3b4186f6b6457e0908290a361154d8061005f6000396000f3fe6080604052600436106101395760003560e01c8063a0a7cb73116100ab578063b0dbc1841161006f578063b0dbc18414610446578063b7f8cf9b14610470578063b9bbe00f14610485578063ba2746bc1461049a578063cc0aa38b146104cd578063f08e92c1146104e257610148565b8063a0a7cb7314610353578063a20baee614610368578063a3f4df7e1461037d578063a694fc3a14610407578063b08bc7221461043157610148565b80633b95b91d116100fd5780633b95b91d146102475780635a4d28bb1461025c5780635dd68acd1461028d5780638b9345ad146102e25780638da5cb5b146103155780638f32d59b1461032a57610148565b806316934fc41461014d5780631b68b7aa146101925780631e3e2a1a146101a75780632e17de78146101d157806334b3081f146101fb57610148565b36610148576101466104f7565b005b600080fd5b34801561015957600080fd5b506101806004803603602081101561017057600080fd5b50356001600160a01b0316610542565b60408051918252519081900360200190f35b34801561019e57600080fd5b50610180610554565b3480156101b357600080fd5b50610146600480360360208110156101ca57600080fd5b503561055a565b3480156101dd57600080fd5b50610146600480360360208110156101f457600080fd5b50356105e9565b34801561020757600080fd5b5061022e6004803603602081101561021e57600080fd5b50356001600160a01b031661082d565b6040805192835260208301919091528051918290030190f35b34801561025357600080fd5b50610146610846565b34801561026857600080fd5b5061027161084e565b604080516001600160a01b039092168252519081900360200190f35b34801561029957600080fd5b50610146600480360360a08110156102b057600080fd5b506001600160a01b0381358116916020810135821691604082013581169160608101358216916080909101351661085d565b3480156102ee57600080fd5b506101806004803603602081101561030557600080fd5b50356001600160a01b0316610a69565b34801561032157600080fd5b50610271610a7a565b34801561033657600080fd5b5061033f610a89565b604080519115158252519081900360200190f35b34801561035f57600080fd5b50610180610a9a565b34801561037457600080fd5b50610180610aa0565b34801561038957600080fd5b50610392610aac565b6040805160208082528351818301528351919283929083019185019080838360005b838110156103cc5781810151838201526020016103b4565b50505050905090810190601f1680156103f95780820380516001836020036101000a031916815260200191505b509250505060405180910390f35b34801561041357600080fd5b506101466004803603602081101561042a57600080fd5b5035610ad4565b34801561043d57600080fd5b50610271610cf1565b34801561045257600080fd5b506101466004803603602081101561046957600080fd5b5035610d00565b34801561047c57600080fd5b50610271610d83565b34801561049157600080fd5b50610180610d92565b3480156104a657600080fd5b50610180600480360360208110156104bd57600080fd5b50356001600160a01b0316610d98565b3480156104d957600080fd5b50610271610da3565b3480156104ee57600080fd5b50610271610db2565b600a546001600160a01b031633146105405760405162461bcd60e51b81526004018080602001828103825260268152602001806114066026913960400191505060405180910390fd5b565b60016020526000908152604090205481565b60045481565b610562610dc1565b6002546000901561059b576002546105989061058c84670de0b6b3a764000063ffffffff610e0a16565b9063ffffffff610e6a16565b90505b6003546105ae908263ffffffff610eac16565b600381905560408051918252517f4c56a0cf74da9899410b818edf6758c8af9b7b3070da97d2dcb6a5b1bf96317e9181900360200190a15050565b3360009081526001602052604090205461060281610f06565b600061060d33610f48565b9050600061061a33610fb5565b905061062533610ff8565b8315610763576000610637858561106a565b9050600061064b858363ffffffff61108016565b336000908152600160205260409020819055600254909150610673908363ffffffff61108016565b600281905560408051918252517ff85d809d5c153cee617e4006831395f6845fc6651fdd2d587f58e81e2f764d6d9181900360200190a16006546040805163a9059cbb60e01b81523360048201526024810185905290516001600160a01b039092169163a9059cbb916044808201926020929091908290030181600087803b1580156106fe57600080fd5b505af1158015610712573d6000803e3d6000fd5b505050506040513d602081101561072857600080fd5b505060408051828152905133917f39df0e5286a3ef2f42a0bf52f32cfe2c58e5b0405f47fe512f2c2439e4cfe204919081900360200190a250505b6040805182815260208101849052815133927ff744d34ca1cb25acfa4180df5f09a67306107110a9f4b6ed99bb3be259738215928290030190a26007546040805163a9059cbb60e01b81523360048201526024810184905290516001600160a01b039092169163a9059cbb916044808201926020929091908290030181600087803b1580156107f157600080fd5b505af1158015610805573d6000803e3d6000fd5b505050506040513d602081101561081b57600080fd5b506108279050826110c2565b50505050565b6005602052600090815260409020805460019091015482565b610540610dc1565b6008546001600160a01b031681565b610865610a89565b6108b6576040805162461bcd60e51b815260206004820181905260248201527f4f776e61626c653a2063616c6c6572206973206e6f7420746865206f776e6572604482015290519081900360640190fd5b6108bf85611188565b6108c884611188565b6108d183611188565b6108da82611188565b6108e381611188565b600680546001600160a01b038088166001600160a01b03199283168117909355600780548883169084161790556008805487831690841617905560098054868316908416179055600a80549185169190921617905560408051918252517f879192e61e931d886ef223451d244ecee9cfbcd3f4154597823632897569cb3d9181900360200190a1604080516001600160a01b038616815290517f879192e61e931d886ef223451d244ecee9cfbcd3f4154597823632897569cb3d9181900360200190a1604080516001600160a01b038516815290517f41097dcc1f7cbd663d822443d7972f05b04f71918b30fe9fc59dd6e42e2280609181900360200190a1604080516001600160a01b038416815290517f5962f8af633c4df1ab230096f773a514ee5adf7785c621ecdcdb764cb7f6e3919181900360200190a1604080516001600160a01b038316815290517f8f6a6e7d20a3233e0a79883272259ffbd7a243734e397bc2b4642c79d7fa8a6d9181900360200190a1610a62611237565b5050505050565b6000610a7482610f48565b92915050565b6000546001600160a01b031690565b6000546001600160a01b0316331490565b60025481565b670de0b6b3a764000081565b6040518060400160405280600c81526020016b48414c414c5374616b696e6760a01b81525081565b610add81611281565b3360009081526001602052604081205490808215610b0c57610afe33610f48565b9150610b0933610fb5565b90505b610b1533610ff8565b6000610b27848663ffffffff610eac16565b336000908152600160205260409020819055600254909150610b4f908663ffffffff610eac16565b600281905560408051918252517ff85d809d5c153cee617e4006831395f6845fc6651fdd2d587f58e81e2f764d6d9181900360200190a16006546040805163bd94dab960e01b81523360048201526024810188905290516001600160a01b039092169163bd94dab99160448082019260009290919082900301818387803b158015610bd957600080fd5b505af1158015610bed573d6000803e3d6000fd5b50506040805184815290513393507f39df0e5286a3ef2f42a0bf52f32cfe2c58e5b0405f47fe512f2c2439e4cfe20492509081900360200190a26040805183815260208101859052815133927ff744d34ca1cb25acfa4180df5f09a67306107110a9f4b6ed99bb3be259738215928290030190a28315610a62576007546040805163a9059cbb60e01b81523360048201526024810185905290516001600160a01b039092169163a9059cbb916044808201926020929091908290030181600087803b158015610cbb57600080fd5b505af1158015610ccf573d6000803e3d6000fd5b505050506040513d6020811015610ce557600080fd5b50610a629050836110c2565b600a546001600160a01b031681565b610d086112c0565b60025460009015610d3557600254610d329061058c84670de0b6b3a764000063ffffffff610e0a16565b90505b600454610d48908263ffffffff610eac16565b600481905560408051918252517f6611e7bb60bd72a901dd88464e19b9502de41467e559f206d09b320ba0fe59df9181900360200190a15050565b6009546001600160a01b031681565b60035481565b6000610a7482610fb5565b6006546001600160a01b031681565b6007546001600160a01b031681565b6008546001600160a01b031633146105405760405162461bcd60e51b81526004018080602001828103825260228152602001806114f66022913960400191505060405180910390fd5b600082610e1957506000610a74565b82820282848281610e2657fe5b0414610e635760405162461bcd60e51b81526004018080602001828103825260218152602001806114ae6021913960400191505060405180910390fd5b9392505050565b6000610e6383836040518060400160405280601a81526020017f536166654d6174683a206469766973696f6e206279207a65726f000000000000815250611309565b600082820183811015610e63576040805162461bcd60e51b815260206004820152601b60248201527f536166654d6174683a206164646974696f6e206f766572666c6f770000000000604482015290519081900360640190fd5b60008111610f455760405162461bcd60e51b815260040180806020018281038252602d81526020018061145c602d913960400191505060405180910390fd5b50565b6001600160a01b0381166000908152600560205260408120546003548290610fad90670de0b6b3a76400009061058c90610f88908663ffffffff61108016565b6001600160a01b0388166000908152600160205260409020549063ffffffff610e0a16565b949350505050565b6001600160a01b0381166000908152600560205260408120600101546004548290610fad90670de0b6b3a76400009061058c90610f88908663ffffffff61108016565b600380546001600160a01b038316600081815260056020908152604091829020938455600454600190940184905593548151928352938201939093528083019190915290517f6b5cf27595af4428271524e0a5abd2b63f6fee1a61e31970490f5a10e257a1cd9181900360600190a150565b60008183106110795781610e63565b5090919050565b6000610e6383836040518060400160405280601e81526020017f536166654d6174683a207375627472616374696f6e206f766572666c6f7700008152506113ab565b604080513381526020810183905281517f6109e2559dfa766aaec7118351d48a523f0a4157f49c8d68749c8ac41318ad12929181900390910190a1604051600090339083908381818185875af1925050503d806000811461113f576040519150601f19603f3d011682016040523d82523d6000602084013e611144565b606091505b50509050806111845760405162461bcd60e51b815260040180806020018281038252603081526020018061142c6030913960400191505060405180910390fd5b5050565b6001600160a01b0381166111e3576040805162461bcd60e51b815260206004820152601e60248201527f4163636f756e742063616e6e6f74206265207a65726f20616464726573730000604482015290519081900360640190fd5b803b80611184576040805162461bcd60e51b815260206004820181905260248201527f4163636f756e7420636f64652073697a652063616e6e6f74206265207a65726f604482015290519081900360640190fd5b600080546040516001600160a01b03909116907f8be0079c531659141344cd1fd0a4f28419497f9722a3daafe3b4186f6b6457e0908390a3600080546001600160a01b0319169055565b60008111610f455760405162461bcd60e51b81526004018080602001828103825260258152602001806114896025913960400191505060405180910390fd5b6009546001600160a01b031633146105405760405162461bcd60e51b81526004018080602001828103825260278152602001806114cf6027913960400191505060405180910390fd5b600081836113955760405162461bcd60e51b81526004018080602001828103825283818151815260200191508051906020019080838360005b8381101561135a578181015183820152602001611342565b50505050905090810190601f1680156113875780820380516001836020036101000a031916815260200191505b509250505060405180910390fd5b5060008385816113a157fe5b0495945050505050565b600081848411156113fd5760405162461bcd60e51b815260206004820181815283516024840152835190928392604490910191908501908083836000831561135a578181015183820152602001611342565b50505090039056fe48414c414c5374616b696e673a2063616c6c6572206973206e6f7420416374697665506f6f6c48414c414c5374616b696e673a204661696c656420746f2073656e6420616363756d756c61746564204554484761696e48414c414c5374616b696e673a2055736572206d75737420686176652061206e6f6e2d7a65726f207374616b6548414c414c5374616b696e673a20416d6f756e74206d757374206265206e6f6e2d7a65726f536166654d6174683a206d756c7469706c69636174696f6e206f766572666c6f7748414c414c5374616b696e673a2063616c6c6572206973206e6f7420426f72726f7765724f707348414c414c5374616b696e673a2063616c6c6572206973206e6f742054726f76654da264697066735822122020eaf2ec25d43a1921c04a1ca778edc496ae9d27aff30e15c2311ed8856b407264736f6c634300060b0033",
  "linkReferences": {},
  "deployedLinkReferences": {}
}