{
  "_format": "hh-sol-artifact-1",
  "contractName": "HALALStaking",
  "sourceName": "contracts/HALAL/HALALStaking.sol",
  "abi": [
    {
      "anonymous": false,
      "inputs": [
        {
          "indexed": false,
          "internalType": "address",
          "name": "_activePoolAddress",
          "type": "address"
        }
      ],
      "name": "ActivePoolAddressSet",
      "type": "event"
    },
    {
      "anonymous": false,
      "inputs": [
        {
          "indexed": false,
          "internalType": "address",
          "name": "_borrowerOperationsAddress",
          "type": "address"
        }
      ],
      "name": "BorrowerOperationsAddressSet",
      "type": "event"
    },
    {
      "anonymous": false,
      "inputs": [
        {
          "indexed": false,
          "internalType": "address",
          "name": "_account",
          "type": "address"
        },
        {
          "indexed": false,
          "internalType": "uint256",
          "name": "_amount",
          "type": "uint256"
        }
      ],
      "name": "EtherSent",
      "type": "event"
    },
    {
      "anonymous": false,
      "inputs": [
        {
          "indexed": false,
          "internalType": "uint256",
          "name": "_F_ETH",
          "type": "uint256"
        }
      ],
      "name": "F_ETHUpdated",
      "type": "event"
    },
    {
      "anonymous": false,
      "inputs": [
        {
          "indexed": false,
          "internalType": "uint256",
          "name": "_F_USDH",
          "type": "uint256"
        }
      ],
      "name": "F_USDHUpdated",
      "type": "event"
    },
    {
      "anonymous": false,
      "inputs": [
        {
          "indexed": false,
          "internalType": "address",
          "name": "_halalTokenAddress",
          "type": "address"
        }
      ],
      "name": "HALALTokenAddressSet",
      "type": "event"
    },
    {
      "anonymous": false,
      "inputs": [
        {
          "indexed": true,
          "internalType": "address",
          "name": "previousOwner",
          "type": "address"
        },
        {
          "indexed": true,
          "internalType": "address",
          "name": "newOwner",
          "type": "address"
        }
      ],
      "name": "OwnershipTransferred",
      "type": "event"
    },
    {
      "anonymous": false,
      "inputs": [
        {
          "indexed": true,
          "internalType": "address",
          "name": "staker",
          "type": "address"
        },
        {
          "indexed": false,
          "internalType": "uint256",
          "name": "newStake",
          "type": "uint256"
        }
      ],
      "name": "StakeChanged",
      "type": "event"
    },
    {
      "anonymous": false,
      "inputs": [
        {
          "indexed": false,
          "internalType": "address",
          "name": "_staker",
          "type": "address"
        },
        {
          "indexed": false,
          "internalType": "uint256",
          "name": "_F_ETH",
          "type": "uint256"
        },
        {
          "indexed": false,
          "internalType": "uint256",
          "name": "_F_USDH",
          "type": "uint256"
        }
      ],
      "name": "StakerSnapshotsUpdated",
      "type": "event"
    },
    {
      "anonymous": false,
      "inputs": [
        {
          "indexed": true,
          "internalType": "address",
          "name": "staker",
          "type": "address"
        },
        {
          "indexed": false,
          "internalType": "uint256",
          "name": "USDHGain",
          "type": "uint256"
        },
        {
          "indexed": false,
          "internalType": "uint256",
          "name": "ETHGain",
          "type": "uint256"
        }
      ],
      "name": "StakingGainsWithdrawn",
      "type": "event"
    },
    {
      "anonymous": false,
      "inputs": [
        {
          "indexed": false,
          "internalType": "uint256",
          "name": "_totalHALALStaked",
          "type": "uint256"
        }
      ],
      "name": "TotalHALALStakedUpdated",
      "type": "event"
    },
    {
      "anonymous": false,
      "inputs": [
        {
          "indexed": false,
          "internalType": "address",
          "name": "_troveManager",
          "type": "address"
        }
      ],
      "name": "TroveManagerAddressSet",
      "type": "event"
    },
    {
      "anonymous": false,
      "inputs": [
        {
          "indexed": false,
          "internalType": "address",
          "name": "_usdhTokenAddress",
          "type": "address"
        }
      ],
      "name": "USDHTokenAddressSet",
      "type": "event"
    },
    {
      "inputs": [],
      "name": "DECIMAL_PRECISION",
      "outputs": [
        {
          "internalType": "uint256",
          "name": "",
          "type": "uint256"
        }
      ],
      "stateMutability": "view",
      "type": "function"
    },
    {
      "inputs": [],
      "name": "F_ETH",
      "outputs": [
        {
          "internalType": "uint256",
          "name": "",
          "type": "uint256"
        }
      ],
      "stateMutability": "view",
      "type": "function"
    },
    {
      "inputs": [],
      "name": "F_USDH",
      "outputs": [
        {
          "internalType": "uint256",
          "name": "",
          "type": "uint256"
        }
      ],
      "stateMutability": "view",
      "type": "function"
    },
    {
      "inputs": [],
      "name": "NAME",
      "outputs": [
        {
          "internalType": "string",
          "name": "",
          "type": "string"
        }
      ],
      "stateMutability": "view",
      "type": "function"
    },
    {
      "inputs": [],
      "name": "activePoolAddress",
      "outputs": [
        {
          "internalType": "address",
          "name": "",
          "type": "address"
        }
      ],
      "stateMutability": "view",
      "type": "function"
    },
    {
      "inputs": [],
      "name": "borrowerOperationsAddress",
      "outputs": [
        {
          "internalType": "address",
          "name": "",
          "type": "address"
        }
      ],
      "stateMutability": "view",
      "type": "function"
    },
    {
      "inputs": [
        {
          "internalType": "address",
          "name": "_user",
          "type": "address"
        }
      ],
      "name": "getPendingETHGain",
      "outputs": [
        {
          "internalType": "uint256",
          "name": "",
          "type": "uint256"
        }
      ],
      "stateMutability": "view",
      "type": "function"
    },
    {
      "inputs": [
        {
          "internalType": "address",
          "name": "_user",
          "type": "address"
        }
      ],
      "name": "getPendingUSDHGain",
      "outputs": [
        {
          "internalType": "uint256",
          "name": "",
          "type": "uint256"
        }
      ],
      "stateMutability": "view",
      "type": "function"
    },
    {
      "inputs": [],
      "name": "halalToken",
      "outputs": [
        {
          "internalType": "contract IHALALToken",
          "name": "",
          "type": "address"
        }
      ],
      "stateMutability": "view",
      "type": "function"
    },
    {
      "inputs": [
        {
          "internalType": "uint256",
          "name": "_ETHFee",
          "type": "uint256"
        }
      ],
      "name": "increaseF_ETH",
      "outputs": [],
      "stateMutability": "nonpayable",
      "type": "function"
    },
    {
      "inputs": [
        {
          "internalType": "uint256",
          "name": "_USDHFee",
          "type": "uint256"
        }
      ],
      "name": "increaseF_USDH",
      "outputs": [],
      "stateMutability": "nonpayable",
      "type": "function"
    },
    {
      "inputs": [],
      "name": "isOwner",
      "outputs": [
        {
          "internalType": "bool",
          "name": "",
          "type": "bool"
        }
      ],
      "stateMutability": "view",
      "type": "function"
    },
    {
      "inputs": [],
      "name": "owner",
      "outputs": [
        {
          "internalType": "address",
          "name": "",
          "type": "address"
        }
      ],
      "stateMutability": "view",
      "type": "function"
    },
    {
      "inputs": [
        {
          "internalType": "address",
          "name": "_halalTokenAddress",
          "type": "address"
        },
        {
          "internalType": "address",
          "name": "_usdhTokenAddress",
          "type": "address"
        },
        {
          "internalType": "address",
          "name": "_troveManagerAddress",
          "type": "address"
        },
        {
          "internalType": "address",
          "name": "_borrowerOperationsAddress",
          "type": "address"
        },
        {
          "internalType": "address",
          "name": "_activePoolAddress",
          "type": "address"
        }
      ],
      "name": "setAddresses",
      "outputs": [],
      "stateMutability": "nonpayable",
      "type": "function"
    },
    {
      "inputs": [
        {
          "internalType": "address",
          "name": "",
          "type": "address"
        }
      ],
      "name": "snapshots",
      "outputs": [
        {
          "internalType": "uint256",
          "name": "F_ETH_Snapshot",
          "type": "uint256"
        },
        {
          "internalType": "uint256",
          "name": "F_USDH_Snapshot",
          "type": "uint256"
        }
      ],
      "stateMutability": "view",
      "type": "function"
    },
    {
      "inputs": [
        {
          "internalType": "uint256",
          "name": "_HALALamount",
          "type": "uint256"
        }
      ],
      "name": "stake",
      "outputs": [],
      "stateMutability": "nonpayable",
      "type": "function"
    },
    {
      "inputs": [
        {
          "internalType": "address",
          "name": "",
          "type": "address"
        }
      ],
      "name": "stakes",
      "outputs": [
        {
          "internalType": "uint256",
          "name": "",
          "type": "uint256"
        }
      ],
      "stateMutability": "view",
      "type": "function"
    },
    {
      "inputs": [],
      "name": "totalHALALStaked",
      "outputs": [
        {
          "internalType": "uint256",
          "name": "",
          "type": "uint256"
        }
      ],
      "stateMutability": "view",
      "type": "function"
    },
    {
      "inputs": [],
      "name": "troveManagerAddress",
      "outputs": [
        {
          "internalType": "address",
          "name": "",
          "type": "address"
        }
      ],
      "stateMutability": "view",
      "type": "function"
    },
    {
      "inputs": [
        {
          "internalType": "uint256",
          "name": "_HALALamount",
          "type": "uint256"
        }
      ],
      "name": "unstake",
      "outputs": [],
      "stateMutability": "nonpayable",
      "type": "function"
    },
    {
      "inputs": [],
      "name": "usdhToken",
      "outputs": [
        {
          "internalType": "contract IUSDHToken",
          "name": "",
          "type": "address"
        }
      ],
      "stateMutability": "view",
      "type": "function"
    },
    {
      "stateMutability": "payable",
      "type": "receive"
    }
  ],
  "bytecode": "0x608060405234801561001057600080fd5b50600080546001600160a01b0319163390811782556040519091907f8be0079c531659141344cd1fd0a4f28419497f9722a3daafe3b4186f6b6457e0908290a36115258061005f6000396000f3fe60806040526004361061012e5760003560e01c8063a0a7cb73116100ab578063b0dbc1841161006f578063b0dbc18414610426578063b7f8cf9b14610450578063b9bbe00f14610465578063ba2746bc1461047a578063cc0aa38b146104ad578063f08e92c1146104c25761013d565b8063a0a7cb7314610333578063a20baee614610348578063a3f4df7e1461035d578063a694fc3a146103e7578063b08bc722146104115761013d565b80635a4d28bb116100f25780635a4d28bb1461023c5780635dd68acd1461026d5780638b9345ad146102c25780638da5cb5b146102f55780638f32d59b1461030a5761013d565b806316934fc4146101425780631b68b7aa146101875780631e3e2a1a1461019c5780632e17de78146101c657806334b3081f146101f05761013d565b3661013d5761013b6104d7565b005b600080fd5b34801561014e57600080fd5b506101756004803603602081101561016557600080fd5b50356001600160a01b0316610522565b60408051918252519081900360200190f35b34801561019357600080fd5b50610175610534565b3480156101a857600080fd5b5061013b600480360360208110156101bf57600080fd5b503561053a565b3480156101d257600080fd5b5061013b600480360360208110156101e957600080fd5b50356105c9565b3480156101fc57600080fd5b506102236004803603602081101561021357600080fd5b50356001600160a01b031661080d565b6040805192835260208301919091528051918290030190f35b34801561024857600080fd5b50610251610826565b604080516001600160a01b039092168252519081900360200190f35b34801561027957600080fd5b5061013b600480360360a081101561029057600080fd5b506001600160a01b03813581169160208101358216916040820135811691606081013582169160809091013516610835565b3480156102ce57600080fd5b50610175600480360360208110156102e557600080fd5b50356001600160a01b0316610a41565b34801561030157600080fd5b50610251610a52565b34801561031657600080fd5b5061031f610a61565b604080519115158252519081900360200190f35b34801561033f57600080fd5b50610175610a72565b34801561035457600080fd5b50610175610a78565b34801561036957600080fd5b50610372610a84565b6040805160208082528351818301528351919283929083019185019080838360005b838110156103ac578181015183820152602001610394565b50505050905090810190601f1680156103d95780820380516001836020036101000a031916815260200191505b509250505060405180910390f35b3480156103f357600080fd5b5061013b6004803603602081101561040a57600080fd5b5035610aac565b34801561041d57600080fd5b50610251610cc9565b34801561043257600080fd5b5061013b6004803603602081101561044957600080fd5b5035610cd8565b34801561045c57600080fd5b50610251610d5b565b34801561047157600080fd5b50610175610d6a565b34801561048657600080fd5b506101756004803603602081101561049d57600080fd5b50356001600160a01b0316610d70565b3480156104b957600080fd5b50610251610d7b565b3480156104ce57600080fd5b50610251610d8a565b600a546001600160a01b031633146105205760405162461bcd60e51b81526004018080602001828103825260268152602001806113de6026913960400191505060405180910390fd5b565b60016020526000908152604090205481565b60045481565b610542610d99565b6002546000901561057b576002546105789061056c84670de0b6b3a764000063ffffffff610de216565b9063ffffffff610e4216565b90505b60035461058e908263ffffffff610e8416565b600381905560408051918252517f4c56a0cf74da9899410b818edf6758c8af9b7b3070da97d2dcb6a5b1bf96317e9181900360200190a15050565b336000908152600160205260409020546105e281610ede565b60006105ed33610f20565b905060006105fa33610f8d565b905061060533610fd0565b83156107435760006106178585611042565b9050600061062b858363ffffffff61105816565b336000908152600160205260409020819055600254909150610653908363ffffffff61105816565b600281905560408051918252517ff85d809d5c153cee617e4006831395f6845fc6651fdd2d587f58e81e2f764d6d9181900360200190a16006546040805163a9059cbb60e01b81523360048201526024810185905290516001600160a01b039092169163a9059cbb916044808201926020929091908290030181600087803b1580156106de57600080fd5b505af11580156106f2573d6000803e3d6000fd5b505050506040513d602081101561070857600080fd5b505060408051828152905133917f39df0e5286a3ef2f42a0bf52f32cfe2c58e5b0405f47fe512f2c2439e4cfe204919081900360200190a250505b6040805182815260208101849052815133927ff744d34ca1cb25acfa4180df5f09a67306107110a9f4b6ed99bb3be259738215928290030190a26007546040805163a9059cbb60e01b81523360048201526024810184905290516001600160a01b039092169163a9059cbb916044808201926020929091908290030181600087803b1580156107d157600080fd5b505af11580156107e5573d6000803e3d6000fd5b505050506040513d60208110156107fb57600080fd5b5061080790508261109a565b50505050565b6005602052600090815260409020805460019091015482565b6008546001600160a01b031681565b61083d610a61565b61088e576040805162461bcd60e51b815260206004820181905260248201527f4f776e61626c653a2063616c6c6572206973206e6f7420746865206f776e6572604482015290519081900360640190fd5b61089785611160565b6108a084611160565b6108a983611160565b6108b282611160565b6108bb81611160565b600680546001600160a01b038088166001600160a01b03199283168117909355600780548883169084161790556008805487831690841617905560098054868316908416179055600a80549185169190921617905560408051918252517f879192e61e931d886ef223451d244ecee9cfbcd3f4154597823632897569cb3d9181900360200190a1604080516001600160a01b038616815290517f879192e61e931d886ef223451d244ecee9cfbcd3f4154597823632897569cb3d9181900360200190a1604080516001600160a01b038516815290517f41097dcc1f7cbd663d822443d7972f05b04f71918b30fe9fc59dd6e42e2280609181900360200190a1604080516001600160a01b038416815290517f5962f8af633c4df1ab230096f773a514ee5adf7785c621ecdcdb764cb7f6e3919181900360200190a1604080516001600160a01b038316815290517f8f6a6e7d20a3233e0a79883272259ffbd7a243734e397bc2b4642c79d7fa8a6d9181900360200190a1610a3a61120f565b5050505050565b6000610a4c82610f20565b92915050565b6000546001600160a01b031690565b6000546001600160a01b0316331490565b60025481565b670de0b6b3a764000081565b6040518060400160405280600c81526020016b48414c414c5374616b696e6760a01b81525081565b610ab581611259565b3360009081526001602052604081205490808215610ae457610ad633610f20565b9150610ae133610f8d565b90505b610aed33610fd0565b6000610aff848663ffffffff610e8416565b336000908152600160205260409020819055600254909150610b27908663ffffffff610e8416565b600281905560408051918252517ff85d809d5c153cee617e4006831395f6845fc6651fdd2d587f58e81e2f764d6d9181900360200190a16006546040805163bd94dab960e01b81523360048201526024810188905290516001600160a01b039092169163bd94dab99160448082019260009290919082900301818387803b158015610bb157600080fd5b505af1158015610bc5573d6000803e3d6000fd5b50506040805184815290513393507f39df0e5286a3ef2f42a0bf52f32cfe2c58e5b0405f47fe512f2c2439e4cfe20492509081900360200190a26040805183815260208101859052815133927ff744d34ca1cb25acfa4180df5f09a67306107110a9f4b6ed99bb3be259738215928290030190a28315610a3a576007546040805163a9059cbb60e01b81523360048201526024810185905290516001600160a01b039092169163a9059cbb916044808201926020929091908290030181600087803b158015610c9357600080fd5b505af1158015610ca7573d6000803e3d6000fd5b505050506040513d6020811015610cbd57600080fd5b50610a3a90508361109a565b600a546001600160a01b031681565b610ce0611298565b60025460009015610d0d57600254610d0a9061056c84670de0b6b3a764000063ffffffff610de216565b90505b600454610d20908263ffffffff610e8416565b600481905560408051918252517f6611e7bb60bd72a901dd88464e19b9502de41467e559f206d09b320ba0fe59df9181900360200190a15050565b6009546001600160a01b031681565b60035481565b6000610a4c82610f8d565b6006546001600160a01b031681565b6007546001600160a01b031681565b6008546001600160a01b031633146105205760405162461bcd60e51b81526004018080602001828103825260228152602001806114ce6022913960400191505060405180910390fd5b600082610df157506000610a4c565b82820282848281610dfe57fe5b0414610e3b5760405162461bcd60e51b81526004018080602001828103825260218152602001806114866021913960400191505060405180910390fd5b9392505050565b6000610e3b83836040518060400160405280601a81526020017f536166654d6174683a206469766973696f6e206279207a65726f0000000000008152506112e1565b600082820183811015610e3b576040805162461bcd60e51b815260206004820152601b60248201527f536166654d6174683a206164646974696f6e206f766572666c6f770000000000604482015290519081900360640190fd5b60008111610f1d5760405162461bcd60e51b815260040180806020018281038252602d815260200180611434602d913960400191505060405180910390fd5b50565b6001600160a01b0381166000908152600560205260408120546003548290610f8590670de0b6b3a76400009061056c90610f60908663ffffffff61105816565b6001600160a01b0388166000908152600160205260409020549063ffffffff610de216565b949350505050565b6001600160a01b0381166000908152600560205260408120600101546004548290610f8590670de0b6b3a76400009061056c90610f60908663ffffffff61105816565b600380546001600160a01b038316600081815260056020908152604091829020938455600454600190940184905593548151928352938201939093528083019190915290517f6b5cf27595af4428271524e0a5abd2b63f6fee1a61e31970490f5a10e257a1cd9181900360600190a150565b60008183106110515781610e3b565b5090919050565b6000610e3b83836040518060400160405280601e81526020017f536166654d6174683a207375627472616374696f6e206f766572666c6f770000815250611383565b604080513381526020810183905281517f6109e2559dfa766aaec7118351d48a523f0a4157f49c8d68749c8ac41318ad12929181900390910190a1604051600090339083908381818185875af1925050503d8060008114611117576040519150601f19603f3d011682016040523d82523d6000602084013e61111c565b606091505b505090508061115c5760405162461bcd60e51b81526004018080602001828103825260308152602001806114046030913960400191505060405180910390fd5b5050565b6001600160a01b0381166111bb576040805162461bcd60e51b815260206004820152601e60248201527f4163636f756e742063616e6e6f74206265207a65726f20616464726573730000604482015290519081900360640190fd5b803b8061115c576040805162461bcd60e51b815260206004820181905260248201527f4163636f756e7420636f64652073697a652063616e6e6f74206265207a65726f604482015290519081900360640190fd5b600080546040516001600160a01b03909116907f8be0079c531659141344cd1fd0a4f28419497f9722a3daafe3b4186f6b6457e0908390a3600080546001600160a01b0319169055565b60008111610f1d5760405162461bcd60e51b81526004018080602001828103825260258152602001806114616025913960400191505060405180910390fd5b6009546001600160a01b031633146105205760405162461bcd60e51b81526004018080602001828103825260278152602001806114a76027913960400191505060405180910390fd5b6000818361136d5760405162461bcd60e51b81526004018080602001828103825283818151815260200191508051906020019080838360005b8381101561133257818101518382015260200161131a565b50505050905090810190601f16801561135f5780820380516001836020036101000a031916815260200191505b509250505060405180910390fd5b50600083858161137957fe5b0495945050505050565b600081848411156113d55760405162461bcd60e51b815260206004820181815283516024840152835190928392604490910191908501908083836000831561133257818101518382015260200161131a565b50505090039056fe48414c414c5374616b696e673a2063616c6c6572206973206e6f7420416374697665506f6f6c48414c414c5374616b696e673a204661696c656420746f2073656e6420616363756d756c61746564204554484761696e48414c414c5374616b696e673a2055736572206d75737420686176652061206e6f6e2d7a65726f207374616b6548414c414c5374616b696e673a20416d6f756e74206d757374206265206e6f6e2d7a65726f536166654d6174683a206d756c7469706c69636174696f6e206f766572666c6f7748414c414c5374616b696e673a2063616c6c6572206973206e6f7420426f72726f7765724f707348414c414c5374616b696e673a2063616c6c6572206973206e6f742054726f76654da2646970667358221220d2583ed51483594d5c1fea7d9bd832c351a3ed8f0efd16a7463d78acf22c1dd464736f6c634300060b0033",
  "linkReferences": {},
  "deployedLinkReferences": {}
}