{
  "_format": "hh-sol-artifact-1",
  "contractName": "StabilityPoolTester",
  "sourceName": "contracts/TestContracts/StabilityPoolTester.sol",
  "abi": [
    {
      "anonymous": false,
      "inputs": [
        {
          "indexed": false,
          "internalType": "address",
          "name": "_newActivePoolAddress",
          "type": "address"
        }
      ],
      "name": "ActivePoolAddressChanged",
      "type": "event"
    },
    {
      "anonymous": false,
      "inputs": [
        {
          "indexed": false,
          "internalType": "address",
          "name": "_newBorrowerOperationsAddress",
          "type": "address"
        }
      ],
      "name": "BorrowerOperationsAddressChanged",
      "type": "event"
    },
    {
      "anonymous": false,
      "inputs": [
        {
          "indexed": false,
          "internalType": "address",
          "name": "_newCommunityIssuanceAddress",
          "type": "address"
        }
      ],
      "name": "CommunityIssuanceAddressChanged",
      "type": "event"
    },
    {
      "anonymous": false,
      "inputs": [
        {
          "indexed": false,
          "internalType": "address",
          "name": "_newDefaultPoolAddress",
          "type": "address"
        }
      ],
      "name": "DefaultPoolAddressChanged",
      "type": "event"
    },
    {
      "anonymous": false,
      "inputs": [
        {
          "indexed": true,
          "internalType": "address",
          "name": "_depositor",
          "type": "address"
        },
        {
          "indexed": false,
          "internalType": "uint256",
          "name": "_P",
          "type": "uint256"
        },
        {
          "indexed": false,
          "internalType": "uint256",
          "name": "_S",
          "type": "uint256"
        },
        {
          "indexed": false,
          "internalType": "uint256",
          "name": "_G",
          "type": "uint256"
        }
      ],
      "name": "DepositSnapshotUpdated",
      "type": "event"
    },
    {
      "anonymous": false,
      "inputs": [
        {
          "indexed": true,
          "internalType": "address",
          "name": "_depositor",
          "type": "address"
        },
        {
          "indexed": false,
          "internalType": "uint256",
          "name": "_ETH",
          "type": "uint256"
        },
        {
          "indexed": false,
          "internalType": "uint256",
          "name": "_USDHLoss",
          "type": "uint256"
        }
      ],
      "name": "ETHGainWithdrawn",
      "type": "event"
    },
    {
      "anonymous": false,
      "inputs": [
        {
          "indexed": false,
          "internalType": "uint128",
          "name": "_currentEpoch",
          "type": "uint128"
        }
      ],
      "name": "EpochUpdated",
      "type": "event"
    },
    {
      "anonymous": false,
      "inputs": [
        {
          "indexed": false,
          "internalType": "address",
          "name": "_to",
          "type": "address"
        },
        {
          "indexed": false,
          "internalType": "uint256",
          "name": "_amount",
          "type": "uint256"
        }
      ],
      "name": "EtherSent",
      "type": "event"
    },
    {
      "anonymous": false,
      "inputs": [
        {
          "indexed": true,
          "internalType": "address",
          "name": "_frontEnd",
          "type": "address"
        },
        {
          "indexed": false,
          "internalType": "uint256",
          "name": "_kickbackRate",
          "type": "uint256"
        }
      ],
      "name": "FrontEndRegistered",
      "type": "event"
    },
    {
      "anonymous": false,
      "inputs": [
        {
          "indexed": true,
          "internalType": "address",
          "name": "_frontEnd",
          "type": "address"
        },
        {
          "indexed": false,
          "internalType": "uint256",
          "name": "_P",
          "type": "uint256"
        },
        {
          "indexed": false,
          "internalType": "uint256",
          "name": "_G",
          "type": "uint256"
        }
      ],
      "name": "FrontEndSnapshotUpdated",
      "type": "event"
    },
    {
      "anonymous": false,
      "inputs": [
        {
          "indexed": true,
          "internalType": "address",
          "name": "_frontEnd",
          "type": "address"
        },
        {
          "indexed": false,
          "internalType": "uint256",
          "name": "_newFrontEndStake",
          "type": "uint256"
        },
        {
          "indexed": false,
          "internalType": "address",
          "name": "_depositor",
          "type": "address"
        }
      ],
      "name": "FrontEndStakeChanged",
      "type": "event"
    },
    {
      "anonymous": false,
      "inputs": [
        {
          "indexed": true,
          "internalType": "address",
          "name": "_depositor",
          "type": "address"
        },
        {
          "indexed": true,
          "internalType": "address",
          "name": "_frontEnd",
          "type": "address"
        }
      ],
      "name": "FrontEndTagSet",
      "type": "event"
    },
    {
      "anonymous": false,
      "inputs": [
        {
          "indexed": false,
          "internalType": "uint256",
          "name": "_G",
          "type": "uint256"
        },
        {
          "indexed": false,
          "internalType": "uint128",
          "name": "_epoch",
          "type": "uint128"
        },
        {
          "indexed": false,
          "internalType": "uint128",
          "name": "_scale",
          "type": "uint128"
        }
      ],
      "name": "G_Updated",
      "type": "event"
    },
    {
      "anonymous": false,
      "inputs": [
        {
          "indexed": true,
          "internalType": "address",
          "name": "_depositor",
          "type": "address"
        },
        {
          "indexed": false,
          "internalType": "uint256",
          "name": "_HALAL",
          "type": "uint256"
        }
      ],
      "name": "HALALPaidToDepositor",
      "type": "event"
    },
    {
      "anonymous": false,
      "inputs": [
        {
          "indexed": true,
          "internalType": "address",
          "name": "_frontEnd",
          "type": "address"
        },
        {
          "indexed": false,
          "internalType": "uint256",
          "name": "_HALAL",
          "type": "uint256"
        }
      ],
      "name": "HALALPaidToFrontEnd",
      "type": "event"
    },
    {
      "anonymous": false,
      "inputs": [
        {
          "indexed": true,
          "internalType": "address",
          "name": "previousOwner",
          "type": "address"
        },
        {
          "indexed": true,
          "internalType": "address",
          "name": "newOwner",
          "type": "address"
        }
      ],
      "name": "OwnershipTransferred",
      "type": "event"
    },
    {
      "anonymous": false,
      "inputs": [
        {
          "indexed": false,
          "internalType": "uint256",
          "name": "_P",
          "type": "uint256"
        }
      ],
      "name": "P_Updated",
      "type": "event"
    },
    {
      "anonymous": false,
      "inputs": [
        {
          "indexed": false,
          "internalType": "address",
          "name": "_newPriceFeedAddress",
          "type": "address"
        }
      ],
      "name": "PriceFeedAddressChanged",
      "type": "event"
    },
    {
      "anonymous": false,
      "inputs": [
        {
          "indexed": false,
          "internalType": "uint256",
          "name": "_S",
          "type": "uint256"
        },
        {
          "indexed": false,
          "internalType": "uint128",
          "name": "_epoch",
          "type": "uint128"
        },
        {
          "indexed": false,
          "internalType": "uint128",
          "name": "_scale",
          "type": "uint128"
        }
      ],
      "name": "S_Updated",
      "type": "event"
    },
    {
      "anonymous": false,
      "inputs": [
        {
          "indexed": false,
          "internalType": "uint128",
          "name": "_currentScale",
          "type": "uint128"
        }
      ],
      "name": "ScaleUpdated",
      "type": "event"
    },
    {
      "anonymous": false,
      "inputs": [
        {
          "indexed": false,
          "internalType": "address",
          "name": "_newSortedTrovesAddress",
          "type": "address"
        }
      ],
      "name": "SortedTrovesAddressChanged",
      "type": "event"
    },
    {
      "anonymous": false,
      "inputs": [
        {
          "indexed": false,
          "internalType": "uint256",
          "name": "_newBalance",
          "type": "uint256"
        }
      ],
      "name": "StabilityPoolETHBalanceUpdated",
      "type": "event"
    },
    {
      "anonymous": false,
      "inputs": [
        {
          "indexed": false,
          "internalType": "uint256",
          "name": "_newBalance",
          "type": "uint256"
        }
      ],
      "name": "StabilityPoolUSDHBalanceUpdated",
      "type": "event"
    },
    {
      "anonymous": false,
      "inputs": [
        {
          "indexed": false,
          "internalType": "address",
          "name": "_newTroveManagerAddress",
          "type": "address"
        }
      ],
      "name": "TroveManagerAddressChanged",
      "type": "event"
    },
    {
      "anonymous": false,
      "inputs": [
        {
          "indexed": false,
          "internalType": "address",
          "name": "_newUSDHTokenAddress",
          "type": "address"
        }
      ],
      "name": "USDHTokenAddressChanged",
      "type": "event"
    },
    {
      "anonymous": false,
      "inputs": [
        {
          "indexed": true,
          "internalType": "address",
          "name": "_depositor",
          "type": "address"
        },
        {
          "indexed": false,
          "internalType": "uint256",
          "name": "_newDeposit",
          "type": "uint256"
        }
      ],
      "name": "UserDepositChanged",
      "type": "event"
    },
    {
      "inputs": [],
      "name": "BORROWING_FEE_FLOOR",
      "outputs": [
        {
          "internalType": "uint256",
          "name": "",
          "type": "uint256"
        }
      ],
      "stateMutability": "view",
      "type": "function"
    },
    {
      "inputs": [],
      "name": "CCR",
      "outputs": [
        {
          "internalType": "uint256",
          "name": "",
          "type": "uint256"
        }
      ],
      "stateMutability": "view",
      "type": "function"
    },
    {
      "inputs": [],
      "name": "DECIMAL_PRECISION",
      "outputs": [
        {
          "internalType": "uint256",
          "name": "",
          "type": "uint256"
        }
      ],
      "stateMutability": "view",
      "type": "function"
    },
    {
      "inputs": [],
      "name": "MCR",
      "outputs": [
        {
          "internalType": "uint256",
          "name": "",
          "type": "uint256"
        }
      ],
      "stateMutability": "view",
      "type": "function"
    },
    {
      "inputs": [],
      "name": "MIN_NET_DEBT",
      "outputs": [
        {
          "internalType": "uint256",
          "name": "",
          "type": "uint256"
        }
      ],
      "stateMutability": "view",
      "type": "function"
    },
    {
      "inputs": [],
      "name": "NAME",
      "outputs": [
        {
          "internalType": "string",
          "name": "",
          "type": "string"
        }
      ],
      "stateMutability": "view",
      "type": "function"
    },
    {
      "inputs": [],
      "name": "P",
      "outputs": [
        {
          "internalType": "uint256",
          "name": "",
          "type": "uint256"
        }
      ],
      "stateMutability": "view",
      "type": "function"
    },
    {
      "inputs": [],
      "name": "PERCENT_DIVISOR",
      "outputs": [
        {
          "internalType": "uint256",
          "name": "",
          "type": "uint256"
        }
      ],
      "stateMutability": "view",
      "type": "function"
    },
    {
      "inputs": [],
      "name": "SCALE_FACTOR",
      "outputs": [
        {
          "internalType": "uint256",
          "name": "",
          "type": "uint256"
        }
      ],
      "stateMutability": "view",
      "type": "function"
    },
    {
      "inputs": [],
      "name": "USDH_GAS_COMPENSATION",
      "outputs": [
        {
          "internalType": "uint256",
          "name": "",
          "type": "uint256"
        }
      ],
      "stateMutability": "view",
      "type": "function"
    },
    {
      "inputs": [],
      "name": "_100pct",
      "outputs": [
        {
          "internalType": "uint256",
          "name": "",
          "type": "uint256"
        }
      ],
      "stateMutability": "view",
      "type": "function"
    },
    {
      "inputs": [],
      "name": "activePool",
      "outputs": [
        {
          "internalType": "contract IActivePool",
          "name": "",
          "type": "address"
        }
      ],
      "stateMutability": "view",
      "type": "function"
    },
    {
      "inputs": [],
      "name": "borrowerOperations",
      "outputs": [
        {
          "internalType": "contract IBorrowerOperations",
          "name": "",
          "type": "address"
        }
      ],
      "stateMutability": "view",
      "type": "function"
    },
    {
      "inputs": [],
      "name": "communityIssuance",
      "outputs": [
        {
          "internalType": "contract ICommunityIssuance",
          "name": "",
          "type": "address"
        }
      ],
      "stateMutability": "view",
      "type": "function"
    },
    {
      "inputs": [],
      "name": "currentEpoch",
      "outputs": [
        {
          "internalType": "uint128",
          "name": "",
          "type": "uint128"
        }
      ],
      "stateMutability": "view",
      "type": "function"
    },
    {
      "inputs": [],
      "name": "currentScale",
      "outputs": [
        {
          "internalType": "uint128",
          "name": "",
          "type": "uint128"
        }
      ],
      "stateMutability": "view",
      "type": "function"
    },
    {
      "inputs": [],
      "name": "defaultPool",
      "outputs": [
        {
          "internalType": "contract IDefaultPool",
          "name": "",
          "type": "address"
        }
      ],
      "stateMutability": "view",
      "type": "function"
    },
    {
      "inputs": [
        {
          "internalType": "address",
          "name": "",
          "type": "address"
        }
      ],
      "name": "depositSnapshots",
      "outputs": [
        {
          "internalType": "uint256",
          "name": "S",
          "type": "uint256"
        },
        {
          "internalType": "uint256",
          "name": "P",
          "type": "uint256"
        },
        {
          "internalType": "uint256",
          "name": "G",
          "type": "uint256"
        },
        {
          "internalType": "uint128",
          "name": "scale",
          "type": "uint128"
        },
        {
          "internalType": "uint128",
          "name": "epoch",
          "type": "uint128"
        }
      ],
      "stateMutability": "view",
      "type": "function"
    },
    {
      "inputs": [
        {
          "internalType": "address",
          "name": "",
          "type": "address"
        }
      ],
      "name": "deposits",
      "outputs": [
        {
          "internalType": "uint256",
          "name": "initialValue",
          "type": "uint256"
        },
        {
          "internalType": "address",
          "name": "frontEndTag",
          "type": "address"
        }
      ],
      "stateMutability": "view",
      "type": "function"
    },
    {
      "inputs": [
        {
          "internalType": "uint128",
          "name": "",
          "type": "uint128"
        },
        {
          "internalType": "uint128",
          "name": "",
          "type": "uint128"
        }
      ],
      "name": "epochToScaleToG",
      "outputs": [
        {
          "internalType": "uint256",
          "name": "",
          "type": "uint256"
        }
      ],
      "stateMutability": "view",
      "type": "function"
    },
    {
      "inputs": [
        {
          "internalType": "uint128",
          "name": "",
          "type": "uint128"
        },
        {
          "internalType": "uint128",
          "name": "",
          "type": "uint128"
        }
      ],
      "name": "epochToScaleToSum",
      "outputs": [
        {
          "internalType": "uint256",
          "name": "",
          "type": "uint256"
        }
      ],
      "stateMutability": "view",
      "type": "function"
    },
    {
      "inputs": [
        {
          "internalType": "address",
          "name": "",
          "type": "address"
        }
      ],
      "name": "frontEndSnapshots",
      "outputs": [
        {
          "internalType": "uint256",
          "name": "S",
          "type": "uint256"
        },
        {
          "internalType": "uint256",
          "name": "P",
          "type": "uint256"
        },
        {
          "internalType": "uint256",
          "name": "G",
          "type": "uint256"
        },
        {
          "internalType": "uint128",
          "name": "scale",
          "type": "uint128"
        },
        {
          "internalType": "uint128",
          "name": "epoch",
          "type": "uint128"
        }
      ],
      "stateMutability": "view",
      "type": "function"
    },
    {
      "inputs": [
        {
          "internalType": "address",
          "name": "",
          "type": "address"
        }
      ],
      "name": "frontEndStakes",
      "outputs": [
        {
          "internalType": "uint256",
          "name": "",
          "type": "uint256"
        }
      ],
      "stateMutability": "view",
      "type": "function"
    },
    {
      "inputs": [
        {
          "internalType": "address",
          "name": "",
          "type": "address"
        }
      ],
      "name": "frontEnds",
      "outputs": [
        {
          "internalType": "uint256",
          "name": "kickbackRate",
          "type": "uint256"
        },
        {
          "internalType": "bool",
          "name": "registered",
          "type": "bool"
        }
      ],
      "stateMutability": "view",
      "type": "function"
    },
    {
      "inputs": [
        {
          "internalType": "address",
          "name": "_frontEnd",
          "type": "address"
        }
      ],
      "name": "getCompoundedFrontEndStake",
      "outputs": [
        {
          "internalType": "uint256",
          "name": "",
          "type": "uint256"
        }
      ],
      "stateMutability": "view",
      "type": "function"
    },
    {
      "inputs": [
        {
          "internalType": "address",
          "name": "_depositor",
          "type": "address"
        }
      ],
      "name": "getCompoundedUSDHDeposit",
      "outputs": [
        {
          "internalType": "uint256",
          "name": "",
          "type": "uint256"
        }
      ],
      "stateMutability": "view",
      "type": "function"
    },
    {
      "inputs": [
        {
          "internalType": "address",
          "name": "_depositor",
          "type": "address"
        }
      ],
      "name": "getDepositorETHGain",
      "outputs": [
        {
          "internalType": "uint256",
          "name": "",
          "type": "uint256"
        }
      ],
      "stateMutability": "view",
      "type": "function"
    },
    {
      "inputs": [
        {
          "internalType": "address",
          "name": "_depositor",
          "type": "address"
        }
      ],
      "name": "getDepositorHALALGain",
      "outputs": [
        {
          "internalType": "uint256",
          "name": "",
          "type": "uint256"
        }
      ],
      "stateMutability": "view",
      "type": "function"
    },
    {
      "inputs": [],
      "name": "getETH",
      "outputs": [
        {
          "internalType": "uint256",
          "name": "",
          "type": "uint256"
        }
      ],
      "stateMutability": "view",
      "type": "function"
    },
    {
      "inputs": [],
      "name": "getEntireSystemColl",
      "outputs": [
        {
          "internalType": "uint256",
          "name": "entireSystemColl",
          "type": "uint256"
        }
      ],
      "stateMutability": "view",
      "type": "function"
    },
    {
      "inputs": [],
      "name": "getEntireSystemDebt",
      "outputs": [
        {
          "internalType": "uint256",
          "name": "entireSystemDebt",
          "type": "uint256"
        }
      ],
      "stateMutability": "view",
      "type": "function"
    },
    {
      "inputs": [
        {
          "internalType": "address",
          "name": "_frontEnd",
          "type": "address"
        }
      ],
      "name": "getFrontEndHALALGain",
      "outputs": [
        {
          "internalType": "uint256",
          "name": "",
          "type": "uint256"
        }
      ],
      "stateMutability": "view",
      "type": "function"
    },
    {
      "inputs": [],
      "name": "getTotalUSDHDeposits",
      "outputs": [
        {
          "internalType": "uint256",
          "name": "",
          "type": "uint256"
        }
      ],
      "stateMutability": "view",
      "type": "function"
    },
    {
      "inputs": [],
      "name": "isOwner",
      "outputs": [
        {
          "internalType": "bool",
          "name": "",
          "type": "bool"
        }
      ],
      "stateMutability": "view",
      "type": "function"
    },
    {
      "inputs": [],
      "name": "lastETHError_Offset",
      "outputs": [
        {
          "internalType": "uint256",
          "name": "",
          "type": "uint256"
        }
      ],
      "stateMutability": "view",
      "type": "function"
    },
    {
      "inputs": [],
      "name": "lastHALALError",
      "outputs": [
        {
          "internalType": "uint256",
          "name": "",
          "type": "uint256"
        }
      ],
      "stateMutability": "view",
      "type": "function"
    },
    {
      "inputs": [],
      "name": "lastUSDHLossError_Offset",
      "outputs": [
        {
          "internalType": "uint256",
          "name": "",
          "type": "uint256"
        }
      ],
      "stateMutability": "view",
      "type": "function"
    },
    {
      "inputs": [
        {
          "internalType": "uint256",
          "name": "_debtToOffset",
          "type": "uint256"
        },
        {
          "internalType": "uint256",
          "name": "_collToAdd",
          "type": "uint256"
        }
      ],
      "name": "offset",
      "outputs": [],
      "stateMutability": "nonpayable",
      "type": "function"
    },
    {
      "inputs": [],
      "name": "owner",
      "outputs": [
        {
          "internalType": "address",
          "name": "",
          "type": "address"
        }
      ],
      "stateMutability": "view",
      "type": "function"
    },
    {
      "inputs": [],
      "name": "priceFeed",
      "outputs": [
        {
          "internalType": "contract IPriceFeed",
          "name": "",
          "type": "address"
        }
      ],
      "stateMutability": "view",
      "type": "function"
    },
    {
      "inputs": [
        {
          "internalType": "uint256",
          "name": "_amount",
          "type": "uint256"
        },
        {
          "internalType": "address",
          "name": "_frontEndTag",
          "type": "address"
        }
      ],
      "name": "provideToSP",
      "outputs": [],
      "stateMutability": "nonpayable",
      "type": "function"
    },
    {
      "inputs": [
        {
          "internalType": "uint256",
          "name": "_kickbackRate",
          "type": "uint256"
        }
      ],
      "name": "registerFrontEnd",
      "outputs": [],
      "stateMutability": "nonpayable",
      "type": "function"
    },
    {
      "inputs": [
        {
          "internalType": "address",
          "name": "_borrowerOperationsAddress",
          "type": "address"
        },
        {
          "internalType": "address",
          "name": "_troveManagerAddress",
          "type": "address"
        },
        {
          "internalType": "address",
          "name": "_activePoolAddress",
          "type": "address"
        },
        {
          "internalType": "address",
          "name": "_usdhTokenAddress",
          "type": "address"
        },
        {
          "internalType": "address",
          "name": "_sortedTrovesAddress",
          "type": "address"
        },
        {
          "internalType": "address",
          "name": "_priceFeedAddress",
          "type": "address"
        },
        {
          "internalType": "address",
          "name": "_communityIssuanceAddress",
          "type": "address"
        }
      ],
      "name": "setAddresses",
      "outputs": [],
      "stateMutability": "nonpayable",
      "type": "function"
    },
    {
      "inputs": [
        {
          "internalType": "uint128",
          "name": "_currentScale",
          "type": "uint128"
        }
      ],
      "name": "setCurrentScale",
      "outputs": [],
      "stateMutability": "nonpayable",
      "type": "function"
    },
    {
      "inputs": [
        {
          "internalType": "uint256",
          "name": "_totalUSDHDeposits",
          "type": "uint256"
        }
      ],
      "name": "setTotalDeposits",
      "outputs": [],
      "stateMutability": "nonpayable",
      "type": "function"
    },
    {
      "inputs": [],
      "name": "sortedTroves",
      "outputs": [
        {
          "internalType": "contract ISortedTroves",
          "name": "",
          "type": "address"
        }
      ],
      "stateMutability": "view",
      "type": "function"
    },
    {
      "inputs": [],
      "name": "troveManager",
      "outputs": [
        {
          "internalType": "contract ITroveManager",
          "name": "",
          "type": "address"
        }
      ],
      "stateMutability": "view",
      "type": "function"
    },
    {
      "inputs": [],
      "name": "unprotectedPayable",
      "outputs": [],
      "stateMutability": "payable",
      "type": "function"
    },
    {
      "inputs": [],
      "name": "usdhToken",
      "outputs": [
        {
          "internalType": "contract IUSDHToken",
          "name": "",
          "type": "address"
        }
      ],
      "stateMutability": "view",
      "type": "function"
    },
    {
      "inputs": [
        {
          "internalType": "address",
          "name": "_upperHint",
          "type": "address"
        },
        {
          "internalType": "address",
          "name": "_lowerHint",
          "type": "address"
        }
      ],
      "name": "withdrawETHGainToTrove",
      "outputs": [],
      "stateMutability": "nonpayable",
      "type": "function"
    },
    {
      "inputs": [
        {
          "internalType": "uint256",
          "name": "_amount",
          "type": "uint256"
        }
      ],
      "name": "withdrawFromSP",
      "outputs": [],
      "stateMutability": "nonpayable",
      "type": "function"
    },
    {
      "stateMutability": "payable",
      "type": "receive"
    }
  ],
  "bytecode": "0x6080604052670de0b6b3a764000060105534801561001c57600080fd5b50600380546001600160a01b031916339081179091556040516000907f8be0079c531659141344cd1fd0a4f28419497f9722a3daafe3b4186f6b6457e0908290a36139c68061006c6000396000f3fe6080604052600436106102b85760003560e01c8063795d26c311610170578063ae918754116100cc578063df9cd84f11610085578063df9cd84f14610973578063eaa8ba7f146109a6578063f08e92c114610a0b578063f3af7c3b14610a20578063f92d343314610a28578063fc7e286d14610a3d578063fda0101a14610a91576102ff565b8063ae918754146108e0578063ba9c7485146108f5578063c3c026671461091f578063ce4b5bbe14610934578063cf8b2cfe14610949578063d7fb04431461095e576102ff565b80638da5cb5b116101295780638da5cb5b146107a25780638f32d59b146107b757806395fb16bb146107e0578063a20baee614610489578063a3f4df7e146107f5578063a4e59ac81461087f578063a7bfff9714610894576102ff565b8063795d26c3146106e05780637f7dde4a146106f557806382e0a5741461070a57806386da082414610745578063887105d3146107785780638b8fbd921461078d576102ff565b80634870dd9a1161021f5780635d2de642116101d85780635d2de642146106045780635f788d651461063757806372fe25aa14610489578063741bef1a14610670578063766718081461068557806377553ad4146106b6578063794e5724146106cb576102ff565b80634870dd9a1461051757806350f592db1461052c57806353381e531461055f578063556be101146105925780635733d58f146105bc5780635bf56a56146105d1576102ff565b8063335525ad11610271578063335525ad1461042657806336da3b7514610456578063379ce62814610489578063389e92a51461049e5780633cc74225146104d15780633d83908a14610502576102ff565b806314413c971461030457806314f6c3be1461032b57806316b9d3c5146103405780631bf43555146103aa57806328a0a04d146103bf5780632e54bf95146103fa576102ff565b366102ff576102c5610acc565b6009546102d8903463ffffffff610b1716565b600981905560408051918252516000805160206136fa8339815191529181900360200190a1005b600080fd5b34801561031057600080fd5b50610319610b7a565b60408051918252519081900360200190f35b34801561033757600080fd5b50610319610b80565b34801561034c57600080fd5b506103736004803603602081101561036357600080fd5b50356001600160a01b0316610b86565b604080519586526020860194909452848401929092526001600160801b039081166060850152166080830152519081900360a00190f35b3480156103b657600080fd5b50610319610bc1565b3480156103cb57600080fd5b50610319600480360360408110156103e257600080fd5b506001600160801b0381358116916020013516610bcd565b34801561040657600080fd5b506104246004803603602081101561041d57600080fd5b5035610bea565b005b34801561043257600080fd5b506104246004803603604081101561044957600080fd5b5080359060200135610d73565b34801561046257600080fd5b506103196004803603602081101561047957600080fd5b50356001600160a01b0316610dd7565b34801561049557600080fd5b50610319610efa565b3480156104aa57600080fd5b50610319600480360360208110156104c157600080fd5b50356001600160a01b0316610f06565b3480156104dd57600080fd5b506104e6610fac565b604080516001600160a01b039092168252519081900360200190f35b34801561050e57600080fd5b506104e6610fbb565b34801561052357600080fd5b50610319610fca565b34801561053857600080fd5b506104246004803603602081101561054f57600080fd5b50356001600160801b0316610fcf565b34801561056b57600080fd5b506103196004803603602081101561058257600080fd5b50356001600160a01b0316610ff1565b34801561059e57600080fd5b50610424600480360360208110156105b557600080fd5b50356110d1565b3480156105c857600080fd5b50610319611146565b3480156105dd57600080fd5b50610319600480360360208110156105f457600080fd5b50356001600160a01b0316611152565b34801561061057600080fd5b506103196004803603602081101561062757600080fd5b50356001600160a01b03166111ef565b34801561064357600080fd5b506104246004803603604081101561065a57600080fd5b50803590602001356001600160a01b0316611201565b34801561067c57600080fd5b506104e6611382565b34801561069157600080fd5b5061069a611391565b604080516001600160801b039092168252519081900360200190f35b3480156106c257600080fd5b506104e66113a7565b3480156106d757600080fd5b506103196113b6565b3480156106ec57600080fd5b506103196113c2565b34801561070157600080fd5b506104e66114c3565b34801561071657600080fd5b506103196004803603604081101561072d57600080fd5b506001600160801b03813581169160200135166114d2565b34801561075157600080fd5b506103736004803603602081101561076857600080fd5b50356001600160a01b03166114ef565b34801561078457600080fd5b5061031961152a565b34801561079957600080fd5b506103196115e6565b3480156107ae57600080fd5b506104e66115ec565b3480156107c357600080fd5b506107cc6115fb565b604080519115158252519081900360200190f35b3480156107ec57600080fd5b506104e661160c565b34801561080157600080fd5b5061080a61161b565b6040805160208082528351818301528351919283929083019185019080838360005b8381101561084457818101518382015260200161082c565b50505050905090810190601f1680156108715780820380516001836020036101000a031916815260200191505b509250505060405180910390f35b34801561088b57600080fd5b5061069a611644565b3480156108a057600080fd5b506108c7600480360360208110156108b757600080fd5b50356001600160a01b0316611653565b6040805192835290151560208301528051918290030190f35b3480156108ec57600080fd5b506104e661166f565b34801561090157600080fd5b506104246004803603602081101561091857600080fd5b503561167e565b34801561092b57600080fd5b50610319611683565b34801561094057600080fd5b50610319611689565b34801561095557600080fd5b50610319611691565b34801561096a57600080fd5b50610319611697565b34801561097f57600080fd5b506103196004803603602081101561099657600080fd5b50356001600160a01b031661169d565b3480156109b257600080fd5b50610424600480360360e08110156109c957600080fd5b506001600160a01b038135811691602081013582169160408201358116916060810135821691608082013581169160a081013582169160c0909101351661173a565b348015610a1757600080fd5b506104e66119eb565b6104246119fa565b348015610a3457600080fd5b50610319611a12565b348015610a4957600080fd5b50610a7060048036036020811015610a6057600080fd5b50356001600160a01b0316611a1d565b604080519283526001600160a01b0390911660208301528051918290030190f35b348015610a9d57600080fd5b5061042460048036036040811015610ab457600080fd5b506001600160a01b0381358116916020013516611a3f565b6000546001600160a01b03163314610b155760405162461bcd60e51b81526004018080602001828103825260278152602001806136d36027913960400191505060405180910390fd5b565b600082820183811015610b71576040805162461bcd60e51b815260206004820152601b60248201527f536166654d6174683a206164646974696f6e206f766572666c6f770000000000604482015290519081900360640190fd5b90505b92915050565b60165481565b60095490565b600f602052600090815260409020805460018201546002830154600390930154919290916001600160801b0380821691600160801b90041685565b677ce66c50e284000081565b601260209081526000928352604080842090915290825290205481565b8015610bf857610bf8611c6f565b336000908152600b6020526040902054610c1181611e2c565b6008546001600160a01b0316610c2681611e6e565b6000610c3133610f06565b90506000610c3e33611152565b90506000610c4c8683611ee2565b90506000610c60868463ffffffff611ef816565b336000818152600b60205260409020600101549192506001600160a01b0390911690610c8e90879083611f3a565b6000610c998261169d565b90506000610cad828663ffffffff611ef816565b9050610cb983826120d9565b6040805182815233602082015281516001600160a01b038616926000805160206138e0833981519152928290030190a2610cf33386612225565b6000610d05878763ffffffff611ef816565b9050610d1133826122ab565b604080518281529051339160008051602061374b833981519152919081900360200190a260408051898152602081018790528151339260008051602061382f833981519152928290030190a2610d6688612431565b5050505050505050505050565b610d7b61253d565b600a54801580610d89575082155b15610d945750610dd3565b600854610da9906001600160a01b0316611e6e565b600080610db7848685612586565b91509150610dc5828261267f565b610dcf8486612979565b5050505b5050565b6001600160a01b0381166000908152600b602052604081205480610dff576000915050610ef5565b6001600160a01b038084166000908152600b6020526040812060010154909116908115610e44576001600160a01b0382166000908152600d6020526040902054610e4e565b670de0b6b3a76400005b9050610e58613605565b506001600160a01b0385166000908152600c60209081526040808320815160a08101835281548152600182015493810193909352600281015491830191909152600301546001600160801b038082166060840152600160801b90910416608082015290610eed670de0b6b3a7640000610ee1610ed48886612ab3565b869063ffffffff612ba516565b9063ffffffff612bfe16565b955050505050505b919050565b670de0b6b3a764000081565b6001600160a01b0381166000908152600b602052604081205480610f2e576000915050610ef5565b610f36613605565b506001600160a01b0383166000908152600c60209081526040808320815160a08101835281548152600182015493810193909352600281015491830191909152600301546001600160801b038082166060840152600160801b90910416608082015290610fa38383612c40565b95945050505050565b6001546001600160a01b031681565b6005546001600160a01b031681565b60c881565b601180546001600160801b0319166001600160801b0392909216919091179055565b6001600160a01b0381166000908152600e602052604081205480611019576000915050610ef5565b6001600160a01b0383166000908152600d60205260408120549061104b670de0b6b3a76400008363ffffffff611ef816565b9050611055613605565b506001600160a01b0385166000908152600f60209081526040808320815160a08101835281548152600182015493810193909352600281015491830191909152600301546001600160801b038082166060840152600160801b90910416608082015290610eed670de0b6b3a7640000610ee1610ed48886612ab3565b6110da33612ccb565b6110e333612d26565b6110ec81612d7c565b336000818152600d60209081526040918290208481556001908101805460ff19169091179055815184815291517f19bc932fb9e16a8b5a1e41be9f4c2de59d5ddd7567b8b81405f532ca00a9880e9281900390910190a250565b6714d1120d7b16000081565b6001600160a01b0381166000908152600b60205260408120548061117a576000915050610ef5565b611182613605565b506001600160a01b0383166000908152600c60209081526040808320815160a08101835281548152600182015493810193909352600281015491830191909152600301546001600160801b038082166060840152600160801b90910416608082015290610fa38383612dc3565b600e6020526000908152604090205481565b61120a81612ebf565b61121333612ccb565b61121c82612f2b565b336000908152600b60205260409020546008546001600160a01b031661124181611e6e565b81611250576112503384612f6a565b600061125b33610f06565b9050600061126833611152565b9050600061127c858363ffffffff611ef816565b336000818152600b60205260409020600101549192506001600160a01b03909116906112aa90869083611f3a565b60006112b58261169d565b905060006112c9828b63ffffffff610b1716565b90506112d583826120d9565b6040805182815233602082015281516001600160a01b038616926000805160206138e0833981519152928290030190a261130f338b612fc4565b6000611321868c63ffffffff610b1716565b905061132d33826122ab565b604080518281529051339160008051602061374b833981519152919081900360200190a260408051888152602081018790528151339260008051602061382f833981519152928290030190a2610d6687612431565b6002546001600160a01b031681565b601154600160801b90046001600160801b031681565b6004546001600160a01b031681565b670f43fc2c04ee000081565b6000805460408051639ed76b3160e01b8152905183926001600160a01b031691639ed76b31916004808301926020929190829003018186803b15801561140757600080fd5b505afa15801561141b573d6000803e3d6000fd5b505050506040513d602081101561143157600080fd5b505160015460408051639ed76b3160e01b815290519293506000926001600160a01b0390921691639ed76b3191600480820192602092909190829003018186803b15801561147e57600080fd5b505afa158015611492573d6000803e3d6000fd5b505050506040513d60208110156114a857600080fd5b505190506114bc828263ffffffff610b1716565b9250505090565b6000546001600160a01b031681565b601360209081526000928352604080842090915290825290205481565b600c602052600090815260409020805460018201546002830154600390930154919290916001600160801b0380821691600160801b90041685565b6000805460408051630a7b61df60e11b8152905183926001600160a01b0316916314f6c3be916004808301926020929190829003018186803b15801561156f57600080fd5b505afa158015611583573d6000803e3d6000fd5b505050506040513d602081101561159957600080fd5b505160015460408051630a7b61df60e11b815290519293506000926001600160a01b03909216916314f6c3be91600480820192602092909190829003018186803b15801561147e57600080fd5b60105481565b6003546001600160a01b031690565b6003546001600160a01b0316331490565b6008546001600160a01b031681565b6040518060400160405280600d81526020016c14dd18589a5b1a5d1e541bdbdb609a1b81525081565b6011546001600160801b031681565b600d602052600090815260409020805460019091015460ff1682565b6007546001600160a01b031681565b600a55565b600a5490565b633b9aca0081565b60145481565b60155481565b6001600160a01b0381166000908152600e6020526040812054806116c5576000915050610ef5565b6116cd613605565b506001600160a01b0383166000908152600f60209081526040808320815160a08101835281548152600182015493810193909352600281015491830191909152600301546001600160801b038082166060840152600160801b90910416608082015290610fa38383612dc3565b6117426115fb565b611793576040805162461bcd60e51b815260206004820181905260248201527f4f776e61626c653a2063616c6c6572206973206e6f7420746865206f776e6572604482015290519081900360640190fd5b61179c8761308e565b6117a58661308e565b6117ae8561308e565b6117b78461308e565b6117c08361308e565b6117c98261308e565b6117d28161308e565b600480546001600160a01b03199081166001600160a01b038a81169182179093556005805483168a85161790556000805483168985161790556006805483168885161790556007805483168785161790556002805483168685161790556008805490921692841692909217905560408051918252517f3ca631ffcd2a9b5d9ae18543fc82f58eb4ca33af9e6ab01b7a8e95331e6ed985916020908290030190a1604080516001600160a01b038816815290517f143219c9e69b09e07e095fcc889b43d8f46ca892bba65f08dc3a0050869a56789181900360200190a1604080516001600160a01b038716815290517f78f058b189175430c48dc02699e3a0031ea4ff781536dc2fab847de4babdd8829181900360200190a1604080516001600160a01b038616815290517f5708bcd180e4da14a958eda749d47d0b1890743f14a286a3c7e88827a25c76a39181900360200190a1604080516001600160a01b038516815290517f65f4cf077bc01e4742eb5ad98326f6e95b63548ea24b17f8d5e823111fe788009181900360200190a1604080516001600160a01b038416815290517f8c537274438aa850a330284665d81a85dd38267d09e4050d416bfc94142db2649181900360200190a1604080516001600160a01b038316815290517f3055265812fb8447b9ada4a5d804ec43bd528ec40e89c952bbc7b85dc5ac68119181900360200190a16119e261313d565b50505050505050565b6006546001600160a01b031681565b600954611a0d903463ffffffff610b1716565b600955565b6611c37937e0800081565b600b60205260009081526040902080546001909101546001600160a01b031682565b336000908152600b6020526040902054611a5881611e2c565b611a6133613187565b611a6a3361323e565b6008546001600160a01b0316611a7f81611e6e565b6000611a8a33610f06565b90506000611a9733611152565b90506000611aab858363ffffffff611ef816565b336000818152600b60205260409020600101549192506001600160a01b0390911690611ad990869083611f3a565b6000611ae48261169d565b905080611af183826120d9565b6040805182815233602082015281516001600160a01b038616926000805160206138e0833981519152928290030190a2611b2b33866122ab565b60408051878152602081018690528151339260008051602061382f833981519152928290030190a2604080518681529051339160008051602061374b833981519152919081900360200190a2600954611b8a908763ffffffff611ef816565b600981905560408051918252516000805160206136fa8339815191529181900360200190a1604080513381526020810188905281517f6109e2559dfa766aaec7118351d48a523f0a4157f49c8d68749c8ac41318ad12929181900390910190a1600480546040805163ea9638bf60e01b815233938101939093526001600160a01b038d811660248501528c81166044850152905191169163ea9638bf91899160648082019260009290919082900301818588803b158015611c4a57600080fd5b505af1158015611c5e573d6000803e3d6000fd5b505050505050505050505050505050565b60025460408051630fdb11cf60e01b815290516000926001600160a01b031691630fdb11cf91600480830192602092919082900301818787803b158015611cb557600080fd5b505af1158015611cc9573d6000803e3d6000fd5b505050506040513d6020811015611cdf57600080fd5b505160075460408051634d62283160e01b815290519293506000926001600160a01b0390921691634d62283191600480820192602092909190829003018186803b158015611d2c57600080fd5b505afa158015611d40573d6000803e3d6000fd5b505050506040513d6020811015611d5657600080fd5b505160055460408051630d293c7160e41b81526001600160a01b038085166004830152602482018790529151939450600093919092169163d293c710916044808301926020929190829003018186803b158015611db257600080fd5b505afa158015611dc6573d6000803e3d6000fd5b505050506040513d6020811015611ddc57600080fd5b50519050670f43fc2c04ee0000811015611e275760405162461bcd60e51b815260040180806020018281038252604481526020018061394d6044913960600191505060405180910390fd5b505050565b60008111611e6b5760405162461bcd60e51b81526004018080602001828103825260308152602001806138b06030913960400191505060405180910390fd5b50565b6000816001600160a01b03166334de26166040518163ffffffff1660e01b8152600401602060405180830381600087803b158015611eab57600080fd5b505af1158015611ebf573d6000803e3d6000fd5b505050506040513d6020811015611ed557600080fd5b50519050610dd38161328a565b6000818310611ef15781610b71565b5090919050565b6000610b7183836040518060400160405280601e81526020017f536166654d6174683a207375627472616374696f6e206f766572666c6f7700008152506133a5565b6001600160a01b0381161561200f576000611f5482610ff1565b9050836001600160a01b0316631d2e76df83836040518363ffffffff1660e01b815260040180836001600160a01b03166001600160a01b0316815260200182815260200192505050600060405180830381600087803b158015611fb657600080fd5b505af1158015611fca573d6000803e3d6000fd5b50506040805184815290516001600160a01b03861693507f847c77c77188b9929956eb83b65144642c67c3f5d2d0337d889c87fdc7c753c592509081900360200190a2505b600061201a83610dd7565b9050836001600160a01b0316631d2e76df84836040518363ffffffff1660e01b815260040180836001600160a01b03166001600160a01b0316815260200182815260200192505050600060405180830381600087803b15801561207c57600080fd5b505af1158015612090573d6000803e3d6000fd5b50506040805184815290516001600160a01b03871693507f888613da0df83fc64298bd4519aa167ec77dff20cbaf8eee6f25faf59d8d2fd792509081900360200190a250505050565b6001600160a01b0382166000908152600e6020526040902081905580612169576001600160a01b0382166000818152600f60209081526040808320838155600181018490556002810184905560030183905580518381529182019290925281517fbb1322f85cc7cc8bac4e172a5bc5dcc0c1959007f9a030032abf9258205f0e45929181900390910190a2610dd3565b6011546010546001600160801b03600160801b80840482166000818152601360209081526040808320978616808452978252808320546001600160a01b038b16808552600f845293829020600181018990556002810182905560030180546001600160801b0319168a17909716958502959095179095558451868152908101849052845192959491927fbb1322f85cc7cc8bac4e172a5bc5dcc0c1959007f9a030032abf9258205f0e45929181900390910190a2505050505050565b8061222f57610dd3565b60065460408051631062c15f60e11b81523060048201526001600160a01b03858116602483015260448201859052915191909216916320c582be91606480830192600092919082900301818387803b15801561228a57600080fd5b505af115801561229e573d6000803e3d6000fd5b50505050610dd38161343c565b6001600160a01b0382166000908152600b6020526040902081905580612359576001600160a01b0382166000818152600b60209081526040808320600190810180546001600160a01b0319169055600c83528184208481559081018490556002810184905560030183905580518381529182018390528181019290925290517f2d6cc0bcdf72c9486f6451bde6b80f44066f4558f77f44dbfedbe7d8b295225a9181900360600190a2610dd3565b6011546010546001600160801b03600160801b8084048216600081815260126020908152604080832097861680845297825280832054848452601383528184208985528352818420546001600160a01b038c16808652600c855294839020600181018a90558281556002810182905560030180546001600160801b0319168b179098169686029690961790965580518781529182018690528181018590525192959493927f2d6cc0bcdf72c9486f6451bde6b80f44066f4558f77f44dbfedbe7d8b295225a916060908290030190a250505050505050565b8061243b57611e6b565b600954600090612451908363ffffffff611ef816565b60098190556040805182815290519192506000805160206136fa833981519152919081900360200190a1604080513381526020810184905281517f6109e2559dfa766aaec7118351d48a523f0a4157f49c8d68749c8ac41318ad12929181900390910190a1604051600090339084908381818185875af1925050503d80600081146124f8576040519150601f19603f3d011682016040523d82523d6000602084013e6124fd565b606091505b5050905080611e275760405162461bcd60e51b81526004018080602001828103825260218152602001806137946021913960400191505060405180910390fd5b6005546001600160a01b03163314610b155760405162461bcd60e51b815260040180806020018281038252602981526020018061376b6029913960400191505060405180910390fd5b60008060006125b86015546125ac670de0b6b3a764000089612ba590919063ffffffff16565b9063ffffffff610b1716565b9050838511156125c457fe5b838514156125e1576000601655670de0b6b3a76400009150612641565b60165460009061260f9061260388670de0b6b3a764000063ffffffff612ba516565b9063ffffffff611ef816565b905061262660016125ac838863ffffffff612bfe16565b925061263c81612603858863ffffffff612ba516565b601655505b612651818563ffffffff612bfe16565b9250612673612666848663ffffffff612ba516565b829063ffffffff611ef816565b60155550935093915050565b6010546000670de0b6b3a764000083111561269657fe5b60006126b0670de0b6b3a76400008563ffffffff611ef816565b6011546001600160801b03600160801b8204811660008181526012602090815260408083209490951680835293905292832054939450909290916126f48988612ba5565b90506000612708838363ffffffff610b1716565b6001600160801b038086166000818152601260209081526040808320948b16808452948252918290208590558151858152908101929092528181019290925290519192507fe12e2cd2c9afa8069203ca07e7eff1edce4a075686d0736a8e7e0d593597b207919081900360600190a18561283f576127966001600160801b038516600163ffffffff61349216565b601180546001600160801b03908116600160801b938216840217918290556040805193909204168252517fb50f0f59e7cb5b421dc77581c3a9919e3806e076e5fa78a874c3f120cb7d874d916020908290030190a1601180546001600160801b0319169055604080516000815290517f1f9dfc70cd666adb18a39d60a797518f7b4febf4b6e24ef37d44f6e1e7219fbe9181900360200190a1670de0b6b3a7640000965061292b565b633b9aca00612860670de0b6b3a7640000610ee18b8a63ffffffff612ba516565b101561290c57612896670de0b6b3a7640000610ee1633b9aca0061288a8c8b63ffffffff612ba516565b9063ffffffff612ba516565b96506128b26001600160801b038616600163ffffffff61349216565b601180546001600160801b0319166001600160801b0392831617908190556040805191909216815290517f1f9dfc70cd666adb18a39d60a797518f7b4febf4b6e24ef37d44f6e1e7219fbe916020908290030190a161292b565b612928670de0b6b3a7640000610ee18a8963ffffffff612ba516565b96505b6000871161293557fe5b60108790556040805188815290517fc1a9618cb59ebca77cbdbc2949f126823c407ff13edb285fd0262519a9c18e8c9181900360200190a150505050505050505050565b6000805460408051630680741360e01b81526004810185905290516001600160a01b03909216928392630680741392602480820193929182900301818387803b1580156129c557600080fd5b505af11580156129d9573d6000803e3d6000fd5b505050506129e68261343c565b60065460408051632770a7eb60e21b81523060048201526024810185905290516001600160a01b0390921691639dc29fac9160448082019260009290919082900301818387803b158015612a3957600080fd5b505af1158015612a4d573d6000803e3d6000fd5b5050604080516364a197f360e01b81523060048201526024810187905290516001600160a01b03851693506364a197f39250604480830192600092919082900301818387803b158015612a9f57600080fd5b505af11580156119e2573d6000803e3d6000fd5b608081015160608201516040808401516020808601516001600160801b03808716600090815260138452858120918716815292529281205490949392908590612b02908463ffffffff611ef816565b6001600160801b03808716600090815260136020526040812092935091612b6591633b9aca0091908490612b3f908a16600163ffffffff61349216565b6001600160801b031681526020810191909152604001600020549063ffffffff612bfe16565b90506000612b97670de0b6b3a7640000610ee18681612b8a888863ffffffff610b1716565b8f9063ffffffff612ba516565b9a9950505050505050505050565b600082612bb457506000610b74565b82820282848281612bc157fe5b0414610b715760405162461bcd60e51b81526004018080602001828103825260218152602001806137b56021913960400191505060405180910390fd5b6000610b7183836040518060400160405280601a81526020017f536166654d6174683a206469766973696f6e206279207a65726f0000000000008152506134e2565b6080810151606082015182516020808501516001600160801b03808616600090815260128452604080822092871682529190935282205491949392918590612c8e908463ffffffff611ef816565b6001600160801b03808716600090815260126020526040812092935091612b6591633b9aca0091908490612b3f908a16600163ffffffff61349216565b6001600160a01b0381166000908152600d602052604090206001015460ff1615611e6b5760405162461bcd60e51b815260040180806020018281038252603981526020018061384f6039913960400191505060405180910390fd5b6001600160a01b0381166000908152600b60205260409020548015610dd35760405162461bcd60e51b81526004018080602001828103825260288152602001806138886028913960400191505060405180910390fd5b670de0b6b3a7640000811115611e6b5760405162461bcd60e51b81526004018080602001828103825260338152602001806137d66033913960400191505060405180910390fd5b6020810151606082015160808301516011546000939291906001600160801b03600160801b90910481169082161015612e025760009350505050610b74565b6011546000908190612e23906001600160801b03168563ffffffff61354716565b90506001600160801b038116612e5357612e4c85610ee16010548b612ba590919063ffffffff16565b9150612e8b565b806001600160801b031660011415612e8657612e4c633b9aca00610ee187610ee16010548d612ba590919063ffffffff16565b600091505b612e9f88633b9aca0063ffffffff612bfe16565b821015612eb457600095505050505050610b74565b509695505050505050565b6001600160a01b0381166000908152600d602052604090206001015460ff1680612ef057506001600160a01b038116155b611e6b5760405162461bcd60e51b815260040180806020018281038252604681526020018061368d6046913960600191505060405180910390fd5b60008111611e6b5760405162461bcd60e51b81526004018080602001828103825260268152602001806138096026913960400191505060405180910390fd5b6001600160a01b038281166000818152600b602052604080822060010180546001600160a01b0319169486169485179055517f094c08e96a8890877a8390b4f967180a7507ad8622244d05fcd0f9f8e086564e9190a35050565b60065460408051632ee65eeb60e21b81526001600160a01b038581166004830152306024830152604482018590529151919092169163bb997bac91606480830192600092919082900301818387803b15801561301f57600080fd5b505af1158015613033573d6000803e3d6000fd5b5050600a546000925061304d91508363ffffffff610b1716565b600a8190556040805182815290519192507fb706af651c647121aa4c7b2d0ebe715218e827b33d8762e3cee2b0aa0b02649c919081900360200190a1505050565b6001600160a01b0381166130e9576040805162461bcd60e51b815260206004820152601e60248201527f4163636f756e742063616e6e6f74206265207a65726f20616464726573730000604482015290519081900360640190fd5b803b80610dd3576040805162461bcd60e51b815260206004820181905260248201527f4163636f756e7420636f64652073697a652063616e6e6f74206265207a65726f604482015290519081900360640190fd5b6003546040516000916001600160a01b0316907f8be0079c531659141344cd1fd0a4f28419497f9722a3daafe3b4186f6b6457e0908390a3600380546001600160a01b0319169055565b600554604080516321e3780160e01b81526001600160a01b038481166004830152915191909216916321e37801916024808301926020929190829003018186803b1580156131d457600080fd5b505afa1580156131e8573d6000803e3d6000fd5b505050506040513d60208110156131fe57600080fd5b5051600114611e6b5760405162461bcd60e51b81526004018080602001828103825260468152602001806136476046913960600191505060405180910390fd5b600061324982610f06565b905060008111610dd35760405162461bcd60e51b815260040180806020018281038252603181526020018061371a6031913960400191505060405180910390fd5b600a54801580613298575081155b156132a35750611e6b565b60006132af83836135a0565b905060006132c860105483612ba590919063ffffffff16565b6011546001600160801b03600160801b82048116600090815260136020908152604080832093909416825291909152205490915061330c908263ffffffff610b1716565b601180546001600160801b03600160801b808304821660009081526013602081815260408084209686168452958152858320979097559454918204831680825294865283812091909216808352908552908290205482519081529384019290925282810191909152517f2d6127771b164a9cc8827d24b5955db2a77e7a81dac389107ebb8bce9fb649689181900360600190a150505050565b600081848411156134345760405162461bcd60e51b81526004018080602001828103825283818151815260200191508051906020019080838360005b838110156133f95781810151838201526020016133e1565b50505050905090810190601f1680156134265780820380516001836020036101000a031916815260200191505b509250505060405180910390fd5b505050900390565b600a54600090613452908363ffffffff611ef816565b600a8190556040805182815290519192507fb706af651c647121aa4c7b2d0ebe715218e827b33d8762e3cee2b0aa0b02649c919081900360200190a15050565b60008282016001600160801b038085169082161015610b715760405162461bcd60e51b81526004018080602001828103825260258152602001806139286025913960400191505060405180910390fd5b600081836135315760405162461bcd60e51b81526020600482018181528351602484015283519092839260449091019190850190808383600083156133f95781810151838201526020016133e1565b50600083858161353d57fe5b0495945050505050565b6000826001600160801b0316826001600160801b0316111561359a5760405162461bcd60e51b81526004018080602001828103825260288152602001806139006028913960400191505060405180910390fd5b50900390565b6000806135c46014546125ac670de0b6b3a764000087612ba590919063ffffffff16565b905060006135d8828563ffffffff612bfe16565b90506135fa6135ed828663ffffffff612ba516565b839063ffffffff611ef816565b601455949350505050565b6040518060a0016040528060008152602001600081526020016000815260200160006001600160801b0316815260200160006001600160801b03168152509056fe53746162696c697479506f6f6c3a2063616c6c6572206d757374206861766520616e206163746976652074726f766520746f207769746864726177204554484761696e20746f53746162696c697479506f6f6c3a20546167206d757374206265206120726567697374657265642066726f6e7420656e642c206f7220746865207a65726f206164647265737353746162696c697479506f6f6c3a2043616c6c6572206973206e6f7420416374697665506f6f6cceb6d671277d4354fd29977ada70695fbd93a16612abf765d6b0e25c28dc6db353746162696c697479506f6f6c3a2063616c6c6572206d7573742068617665206e6f6e2d7a65726f20455448204761696ebce78369dccab09eec1986f4d409ab09ffbb47d65423e5148fcf98411c5111c953746162696c697479506f6f6c3a2043616c6c6572206973206e6f742054726f76654d616e6167657253746162696c697479506f6f6c3a2073656e64696e6720455448206661696c6564536166654d6174683a206d756c7469706c69636174696f6e206f766572666c6f7753746162696c697479506f6f6c3a204b69636b6261636b2072617465206d75737420626520696e2072616e6765205b302c315d53746162696c697479506f6f6c3a20416d6f756e74206d757374206265206e6f6e2d7a65726f51457222ebca92c335c9c86e2baa1cc0e40ffaa9084a51452980d5ba8dec2f6353746162696c697479506f6f6c3a206d757374206e6f7420616c7265616479206265206120726567697374657265642066726f6e7420656e6453746162696c697479506f6f6c3a2055736572206d7573742068617665206e6f206465706f73697453746162696c697479506f6f6c3a2055736572206d75737420686176652061206e6f6e2d7a65726f206465706f73697499920012339b5a3368d3a04b8606ce412c46ed92b7dcd8602d41fc8862cb8f254c697175697479536166654d6174683132383a207375627472616374696f6e206f766572666c6f774c697175697479536166654d6174683132383a206164646974696f6e206f766572666c6f7753746162696c697479506f6f6c3a2043616e6e6f74207769746864726177207768696c65207468657265206172652074726f766573207769746820494352203c204d4352a2646970667358221220b412de67b26b1383ea546603e6e00e9da1f7b03bb610ef609302a011dbd8d4af64736f6c634300060b0033",
  "linkReferences": {},
  "deployedLinkReferences": {}
}