{
  "_format": "hh-sol-artifact-1",
  "contractName": "USDHTokenCaller",
  "sourceName": "contracts/TestContracts/USDHTokenCaller.sol",
  "abi": [
    {
      "inputs": [
        {
          "internalType": "contract IUSDHToken",
          "name": "_USDH",
          "type": "address"
        }
      ],
      "name": "setUSDH",
      "outputs": [],
      "stateMutability": "nonpayable",
      "type": "function"
    },
    {
      "inputs": [
        {
          "internalType": "address",
          "name": "_account",
          "type": "address"
        },
        {
          "internalType": "uint256",
          "name": "_amount",
          "type": "uint256"
        }
      ],
      "name": "usdhBurn",
      "outputs": [],
      "stateMutability": "nonpayable",
      "type": "function"
    },
    {
      "inputs": [
        {
          "internalType": "address",
          "name": "_account",
          "type": "address"
        },
        {
          "internalType": "uint256",
          "name": "_amount",
          "type": "uint256"
        }
      ],
      "name": "usdhMint",
      "outputs": [],
      "stateMutability": "nonpayable",
      "type": "function"
    },
    {
      "inputs": [
        {
          "internalType": "address",
          "name": "_poolAddress",
          "type": "address"
        },
        {
          "internalType": "address",
          "name": "_receiver",
          "type": "address"
        },
        {
          "internalType": "uint256",
          "name": "_amount",
          "type": "uint256"
        }
      ],
      "name": "usdhReturnFromPool",
      "outputs": [],
      "stateMutability": "nonpayable",
      "type": "function"
    },
    {
      "inputs": [
        {
          "internalType": "address",
          "name": "_sender",
          "type": "address"
        },
        {
          "internalType": "address",
          "name": "_poolAddress",
          "type": "address"
        },
        {
          "internalType": "uint256",
          "name": "_amount",
          "type": "uint256"
        }
      ],
      "name": "usdhSendToPool",
      "outputs": [],
      "stateMutability": "nonpayable",
      "type": "function"
    }
  ],
  "bytecode": "0x608060405234801561001057600080fd5b50610331806100206000396000f3fe608060405234801561001057600080fd5b50600436106100575760003560e01c80630fa2efe71461005c57806340976509146100845780637d3f9459146100ba578063bf271d2c146100e6578063f554b66314610112575b600080fd5b6100826004803603602081101561007257600080fd5b50356001600160a01b0316610148565b005b6100826004803603606081101561009a57600080fd5b506001600160a01b0381358116916020810135909116906040013561016a565b610082600480360360408110156100d057600080fd5b506001600160a01b0381351690602001356101e1565b610082600480360360408110156100fc57600080fd5b506001600160a01b03813516906020013561024f565b6100826004803603606081101561012857600080fd5b506001600160a01b038135811691602081013590911690604001356102a1565b600080546001600160a01b0319166001600160a01b0392909216919091179055565b6000805460408051632ee65eeb60e21b81526001600160a01b0387811660048301528681166024830152604482018690529151919092169263bb997bac926064808201939182900301818387803b1580156101c457600080fd5b505af11580156101d8573d6000803e3d6000fd5b50505050505050565b60008054604080516340c10f1960e01b81526001600160a01b03868116600483015260248201869052915191909216926340c10f19926044808201939182900301818387803b15801561023357600080fd5b505af1158015610247573d6000803e3d6000fd5b505050505050565b6000805460408051632770a7eb60e21b81526001600160a01b0386811660048301526024820186905291519190921692639dc29fac926044808201939182900301818387803b15801561023357600080fd5b6000805460408051631062c15f60e11b81526001600160a01b038781166004830152868116602483015260448201869052915191909216926320c582be926064808201939182900301818387803b1580156101c457600080fdfea2646970667358221220a85e4529ab623b5a639ccd18a80d88e04117be18fbb0dbb506da68eb3290ddfa64736f6c634300060b0033",
  "linkReferences": {},
  "deployedLinkReferences": {}
}